3431 024078MAIDANA ROBERTO            71800001069057- 00       718
OS12 028648BETERETTE MARIA DEL CARMEN 71800002458806- 00       718
SC30 030013SORIA ALEJANDRA ILEANA     71800000300661- 00       718
C130 031084ESCOBAR ANIBAL MAXIMILIANO 71800000162748- 00       718
C130 031191RAMIREZ VICTOR ALEJANDRO   71800001087134- 00       718
OS30 031854GAUNA NATALIA ELISABETH    71800001074317- 00       718
C131 032116ACOSTA MARTINEZ DIEGO ALFRE71800000524545- 00       718
DN30 032310SOSA IVAN LUIS             71800000424413- 00       718
OS14 032338PERNA EZEQUIEL HORACIO     71800000343256- 00       718
C430 032749PAIVA FABIAN ALBERTO       71800000692330- 00       718
C131 033740LEYES NORBERTO ALFREDO     71800000170381- 00       718
DN32 033904ACOSTA DARIO MARTIN        71800001158588- 00       718
AP13 034139ZACARIAS VIVIANA HAYDEE    71800000515382- 00       718
DS14 034385MERLO JOSE LUIS            71800000240676- 00       718
0232 034969SALAS ROMINA ESTER         71800001057816- 00       718
DN14 035038CARDOZO DANIEL SEBASTIAN   71800000880420- 00       718
C134 035598VERA PEDRO PABLO           71800000607347- 00       718
0232 035621DA SILVA ALBERTO ANDRES    71800000278850- 00       718
DS32 035762DOMINGUEZ ROBERTO UBALDO   71800000505180- 00       718
C233 036235CALDERON RODOLFO PABLO     71800000247560- 00       718
C133 036799CENTENO WALTER OSCAR       71800000085191- 00       718
OS33 037199ARAVENA CRISTIAN WALTER    71800000371008- 00       718
C115 037681MEDINA GONZALO DAVID       71800000505465- 00       718
C733 037803FERNANDEZ CARLOS ALBERTO   71800000293427- 00       718
C733 037924VIERA RICARDO HERNAN       71800000163460- 00       718
EP33 037970VERON SILVIA ANABEL        71800000801260- 00       718
C233 038272HERRERA MAXIMO ESEQUIEL    71800000215633- 00       718
OS15 038500FRIAS ELSA TRINIDAD        71800000809588- 00       718
C415 038541SOSA MARIA LIDIA           71800000435169- 00       718
DN15 038563PEREZ PAWELKOWSKI JULIA VIC71800000189281- 00       718
0233 038601BRACAMONTE MARIA AGUSTINA  71800001229504- 00       718
OS33 038855OCHOA CECILIA GABRIELA     71800000402347- 00       718
OS34 038980LESCANO JORGE EZEQUIEL     71800002028214- 00       718
C216 039160ARANDIGA EMILIANO          71800000697441- 00       718
OS15 039174CARAMINOLA GONZALEZ JOAN MA71800000754969- 00       718
DN15 039241SANTANDER MARIA JULIETA CAR71800001153738- 00       718
OS33 039290COMERCI PABLO DARIO        71800000252872- 00       718
C433 039394PINTO JESICA LORENA        71800000647031- 00       718
DN34 040140ROJAS ROMINA VANESA        71800000292986- 00       718
0234 040199MORALES CARLA ESTEFANIA RAM71800000581253- 00       718
C134 040879STRUNC MARIA DE LOS ANGELES71800000454043- 00       718
0234 041094LUGO JOSE ENRIQUE          71800000350452- 00       718
OS16 041317FERNANDEZ ANALIA MARIA ELSA71800000188109- 00       718
C434 041519SOSA MIRIAN MABEL          71800000293631- 00       718
DN16 041743PONCE YAMILA SOLEDAD       71800000396550- 00       718
EP16 041758SOTELO EZEQUIEL JAVIER     71800001389853- 00       718
C734 042020CACERES ALBERTO LUIS       71800000935833- 00       718
C135 042642RIOS NAHUEL OSCAR          71800000491844- 00       718
OS35 042891VEGA CAROLINA ALEJANDRA    71800000526634- 00       718
OS34 042894VIETRI MICAELA GISELE      71800000124783- 00       718
EC34 042936FLEYTAS RODRIGO NICOLAS    71800000238363- 00       718
C135 043272RODRIGUEZ PABLO DAMIAN     71800000491193- 00       718
DT16 043571HUGEL NARELLA ALDANA       71800000556039- 00       718
OS35 044163ZERDA CASQUET GISELLE BELEN71800000142789- 00       718
C435 045561CANETE PATRICIA GABRIELA   71800000873380- 00       718
OS36 045652SOTELO MARIANELA           71800000737346- 00       718
C435 045830LEDESMA MELISA JACQUELINE  71800000168452- 00       718
0235 046698FIGUEROA ELIAS EMANUEL     71800000203377- 00       718
OS37 048921YAFFAR ALFREDO ALEJANDRO   71800000832530- 00       718
C237 050200ACHAVAL ANDREA YAMILA      71800000221186- 00       718
C237 050206COLQUE ENZO FRANCISCO      71800000253631- 00       718

