3431 024078MAIDANA ROBERTO            61700000122600+ 00       617
DN11 027588MARTINEZ RUBEN FRANCISCO   61700000012400+ 00       617
C211 028165ROJAS TOMAS CEFERINO       61700000125800+ 00       617
C511 028179TOKAYUK MARCELO HORACIO    61700000012400+ 00       617
1532 028474AGUILA JOSE OSVALDO        61700000045000+ 00       617
2530 028713MONTES SERGIO ADRIAN       61700000012400+ 00       617
C211 029216AQUINO GABRIEL ESTEBAN     61700000035700+ 00       617
AI11 029282SALAZAR RAUL ALEJANDRO     61700000043400+ 00       617
DN10 029512GONZALEZ NESTOR DANIEL     61700000053000+ 00       617
C411 029518SORIA JUAN MANUEL          61700000053000+ 00       617
DN11 029575CANTEROS CRISTIAN ALFREDO  61700000027900+ 00       617
DS30 029708SCUDERI ANALIA             61700000032600+ 00       617
0511 029778JUAREZ MARCELO MIGUEL      61700000166200+ 00       617
C212 029783LOZA RUBEN DARIO           61700000127600+ 00       617
C211 029788MERINO CARLOS ADRIAN       61700000051200+ 00       617
SC11 029790MORALES GASTON VICTOR      61700000071300+ 00       617
0711 029792ORTIZ SERGIO ANTONIO       61700000136600+ 00       617
C311 029800SILVERO CLAUDIO DANIEL     61700000052800+ 00       617
0211 029802SORIA MERCADO ISMAEL ADALBE61700000038800+ 00       617
DN11 029810SANCHEZ CRISTIAN JAVIER    61700000264200+ 00       617
1530 029816BRUNA VICTOR RAMON         61700000012400+ 00       617
1412 030019FERNANDEZ DIMAS JAVIER     61700002120200+ 00       617
1511 030033CANESSINI ALEJANDRO ADRIAN 61700000126600+ 00       617
DS11 030040GONZALEZ ROQUE ADRIAN      61700000053000+ 00       617
OS11 030044MALICH PABLO ELISEO        61700000038800+ 00       617
0732 030084RIQUELME ELVIRA TERESA     61700000000200+ 00       617
DN30 030296MURANO JUAN JOSE           61700000012400+ 00       617
0230 030331SANABRIA SILVIO GABRIEL    61700000028000+ 00       617
DN30 030341TORTORO GUSTAVO VICENTE    61700000032600+ 00       617
EP30 030347VERON ROBERTO OSCAR        61700000012400+ 00       617
1330 030361CABRAL MONICA BIBIANA      61700000087000+ 00       617
DN12 030404PAOLUCCI NATALIA ALEJANDRA 61700000012400+ 00       617
0414 030407BARRIOS LILIANA MABEL      61700000057400+ 00       617
DN12 030514ALMARAS OSCAR DIONICIO     61700000074400+ 00       617
C112 030516ARRIAGADA GUSTAVO DANIEL   61700000062100+ 00       617
DN12 030537MEDINA DANTE ERICK         61700000012400+ 00       617
1312 030549ROMEO GUSTAVO MARTIN       61700000094600+ 00       617
C112 030550SEGOVIA ENRIQUE GUILLERMO  61700000624800+ 00       617
C312 030552SILVA CISNERO ALICIA BEATRI61700000088800+ 00       617
DN11 030559GOROSITO CARBALLO FABIO REN61700000078800+ 00       617
C513 030561LEGUIZAMON RAMON JULIAN    61700000015500+ 00       617
0730 030674ARCE CRISTIAN JAVIER       61700000016400+ 00       617
DN30 030682BABONI ALFREDO ANTONIO     61700001500000+ 00       617
1130 030688BENITEZ GABRIEL ANDRES     61700000150500+ 00       617
3430 030693BLANCO ORLANDO HUGO MAXIMIL61700000961333+ 00       617
1930 030710CARDOZO CARLOS ALBERTO     61700000040300+ 00       617
0230 030724COSTILLA SAMUEL ENRIQUE    61700000472600+ 00       617
1030 030727CHENA PAULINO              61700000024800+ 00       617
C130 030741FLEYTA CRISTIAN ADRIAN     61700000012400+ 00       617
C230 030755GAUNA GUSTAVO RENE         61700000012400+ 00       617
C130 030770JARA RAMON ROLANDO         61700000023400+ 00       617
C130 030779LUNA ABELARDO DANIEL       61700000087000+ 00       617
C130 030793NEGRETTES ALCIDES DANIEL   61700000057700+ 00       617
DN30 030797OCCELLI CLAUDIO ADRIAN     61700001020000+ 00       617
SC30 030802OVEJERO ESTEBAN NESTOR     61700000699067+ 00       617
C230 030822RODRIGUEZ PABLO MIGUEL     61700000015600+ 00       617
C430 030823ROMAN SERGIO NORBERTO      61700000073000+ 00       617
C130 030826RUIZ CLAUDIO DANIEL        61700000098400+ 00       617
RP30 030833SAUCEDO RUBEN ARIEL        61700000526200+ 00       617
3530 030839SLUSAR GERMAN RAUL         61700000039000+ 00       617
3430 030841STILLISANO JORGE MIGUEL    61700000012400+ 00       617
C130 030863BASUALDO MARIA GABRIELA    61700000012400+ 00       617
C130 030882GONZALEZ MIRTA LUJAN       61700000015500+ 00       617
C230 030893OTAZO MARIA GLORIA         61700000024800+ 00       617
C130 030901AMICA VERONICA KARINA      61700000175400+ 00       617
0230 030910BERTONA CRISTIAN MARIO     61700000012400+ 00       617
1913 030928BRAUN CARLOS LEANDRO       61700000023300+ 00       617
C112 030939AVENI JOSE LUIS FRANCISCO  61700017826500+ 00       617
0212 030959MASOERO NESTOR ARIEL       61700000062000+ 00       617
C112 030973SOTO ALDO DANIEL           61700001030000+ 00       617
C112 030974VARGAS RICARDO ALBERTO     61700000110700+ 00       617
C530 030994CHAPARRO OSCAR GABRIEL     61700000008300+ 00       617
C130 030997PASTOR FRANCISCO DAMIAN    61700000806933+ 00       617
0230 031017AGUILAR VARGAS JUAN MARCELO61700000135000+ 00       617
0430 031028BADER JUAN JOSE            61700000032600+ 00       617
DS30 031042CABRAL DAMIAN HUGO         61700000024800+ 00       617
1230 031043CABRERA JORGE DANIEL       61700000158400+ 00       617
0230 031049CALLOZZO CIFALA GUSTAVO DAN61700000097800+ 00       617
0233 031065CENTURION ANDRES EDUARDO   61700000024800+ 00       617
C730 031085ESCOBAR JOSE HECTOR        61700000012400+ 00       617
3430 031087ESQUIVEL EDUARDO NICOLAS   61700000024800+ 00       617
0630 031088ESQUIVEL PABLO ARIEL       61700000012400+ 00       617
EP30 031091FARIAS JORGE JAVIER        61700000024800+ 00       617
C130 031094FERNANDEZ MARCELO HERNAN   61700000007800+ 00       617
0730 031099FLORES GUSTAVO PABLO       61700000020200+ 00       617
0230 031107GAMARRA GREGORIO           61700000012400+ 00       617
C130 031109GARCIA MARIANO ALBERTO     61700000012400+ 00       617
1030 031124GUTIERREZ JUAN MARCELO     61700000012400+ 00       617
C530 031132JACOB DANIEL OSCAR         61700000196200+ 00       617
3230 031140LESCANO LUCAS ARMANDO      61700000077500+ 00       617
C230 031143LOPEZ ALBERTO ANIBAL       61700000021800+ 00       617
C130 031152MANSILLA LUIS ENRIQUE      61700000053000+ 00       617
1130 031153MANSILLA RAFAEL SERGIO     61700000034200+ 00       617
C130 031161MIERES ORLANDO JAVIER      61700000079200+ 00       617
0730 031162MOLINA ADRIAN GABRIEL      61700000082000+ 00       617
C130 031163MOLINA HECTOR ALBERTO      61700000007800+ 00       617
C130 031172NAVARRO ARIEL WALBERTO     61700000583667+ 00       617
C132 031177OKULCZYK VICTOR JAVIER     61700000063900+ 00       617
0730 031178ORTEGA MARCELO RUBEN       61700000082900+ 00       617
C130 031179OSUNA MATIAS LEONARDO      61700000046500+ 00       617
C130 031194RIOS LEONARDO OMAR         61700000115400+ 00       617
C130 031197ROBLEDO PABLO RAFAEL       61700000038800+ 00       617
C130 031203ROMERO FERNANDO SEBASTIAN  61700000045300+ 00       617
DS30 031219SERRA GASTON               61700000086800+ 00       617
0830 031231SUAREZ HUGO ALDO           61700000024800+ 00       617
DS30 031251VERA JORGE VIDAL           61700000007800+ 00       617
C136 031252VERA RAMON GERMAN          61700001282733+ 00       617
C513 031257WACELINKA ALDO PABLO JOSE  61700000038800+ 00       617
1730 031263AHUMADA LAURA CORINA       61700000024800+ 00       617
1430 031269CHANQUEO ELCIRA            61700000141600+ 00       617
0230 031274DEL VALLE ELISA            61700000024800+ 00       617
1230 031279GIMENEZ CLAUDIA FERNANDA   61700000020200+ 00       617
C112 031282GONZALEZ ELEONORA MARCELA  61700000043500+ 00       617
AI13 031285LANZILLOTTA GRACIELA  SUSAN61700000020200+ 00       617
0230 031296MORENO MARIANA RAQUEL      61700000015500+ 00       617
C730 031298MRHAC YANINA PAOLA         61700000012400+ 00       617
OS30 031300RAMIREZ ROMINA ANDREA      61700000085600+ 00       617
0230 031304RIOS CARMEN LORENA         61700000012400+ 00       617
DS30 031307TAPIA REGNER ANDREA FABIANA61700000015500+ 00       617
1730 031312BAEZ CLAUDIO ARIEL         61700000246000+ 00       617
C212 031319SESE GUSTAVO GABRIEL RAMIRO61700000012400+ 00       617
ES30 031333AYALA ABELINO              61700000012400+ 00       617
1333 031334BANEGAS MARIA DE LOS ANGE  61700000066800+ 00       617
DT30 031336FEIJOO CARLOS HERNAN       61700000040300+ 00       617
C231 031337INSAURRALDE PABLO ALEJANDRO61700000023400+ 00       617
0214 031341OCAMPOS HUGO DANIEL        61700003079400+ 00       617
0230 031354RODRIGUEZ DIANA EVANGELINA 61700000074800+ 00       617
SC30 031357VILDOZA CAROLINA NATALIA   61700000012400+ 00       617
1230 031363BUENO OCTAVIO JAVIER       61700000012400+ 00       617
C330 031377ELGERT JUAN MANUEL         61700000024800+ 00       617
1630 031383GOUSSAL GLORIA CAROLINA    61700000225100+ 00       617
C513 031398MALICH FRANCO ABELARDO     61700000038800+ 00       617
0812 031400AGUZIN VALERIA SOLEDAD     61700000012400+ 00       617
C312 031412GUAYMAS MAXIMILIANO DEMETRI61700000065100+ 00       617
C212 031414ESCOBAR CRISTIAN JOSE      61700000074600+ 00       617
1012 031415ROMAN MIGUEL ALBERTO       61700000033000+ 00       617
DN12 031417CAFFERATA PABLO MARIANO    61700000078000+ 00       617
1512 031420RIQUELME PEDRO FABIAN      61700000000400+ 00       617
0513 031421ORTIZ MARTIN EDUARDO       61700000015500+ 00       617
DS12 031431ESCALANTE CRISTIAN FERNANDO61700000078000+ 00       617
0412 031432GONZALEZ MARIELA LORENA    61700000031100+ 00       617
C130 031447GARCIA ALBERTO ULISES      61700000071400+ 00       617
C630 031450GORDILLO LEONARDO ADRIAN   61700000089900+ 00       617
C214 031458LUDUENA MARCOS ADRIAN      61700000012400+ 00       617
0230 031461MARGULES FERNANDO GABRIEL  61700000063700+ 00       617
0430 031478RODRIGUEZ JOSE OMAR        61700000049600+ 00       617
C113 031504CARO MARIA ANDREA          61700000012400+ 00       617
0230 031507COSTA GABRIELA INES        61700000012400+ 00       617
C130 031512LEZCANO SILVANA LEONOR     61700000007800+ 00       617
RP30 031520NAHIM ALDANA OFELIA        61700000020200+ 00       617
0730 031530SPERONI MONICA MABEL       61700000074800+ 00       617
1030 031547ACOSTA SERGIO ADRIAN       61700000007800+ 00       617
EP30 031553ALCARAZ RICARDO FABIAN     61700000040300+ 00       617
0531 031557ALVAREZ PABLO SEBASTIAN    61700000059000+ 00       617
1430 031560ANDRADE FELIX ADRIAN       61700000049600+ 00       617
0634 031564ARCOS TOMAS ARIEL          61700000012400+ 00       617
0430 031566ARIAS NORBERTO RAUL        61700000039000+ 00       617
1030 031571AYALA CRISTIAN DANIEL      61700000024800+ 00       617
EP30 031572BALMACEDA WALTER DANIEL    61700000082300+ 00       617
1030 031573BANGERTE MARCOS ANTONIO    61700000037200+ 00       617
SC30 031581BONATO GONZALO GABRIEL     61700000027900+ 00       617
1030 031582BORDON RUBEN IGNACIO       61700000293300+ 00       617
DS31 031584BRAVO FABIAN GERARDO       61700001386233+ 00       617
0531 031585BRAVO PABLO DANIEL         61700000137000+ 00       617
C230 031595CASTILLO RAMON ALBERTO     61700000027900+ 00       617
0430 031602CORNEJO VAZQUEZ PABLO J.   61700000130200+ 00       617
2131 031612DIAZ HECTOR RENE           61700000012400+ 00       617
C230 031621EDELMAN OSCAR ALEJANDRO    61700000007800+ 00       617
C130 031622ENRIQUE FAVIO ALBERTO      61700000031000+ 00       617
C631 031626ETCHEGARAY CELSO GUSTAVO   61700000032600+ 00       617
1431 031635FLORES LUIS EDUARDO        61700000037200+ 00       617
1130 031638FLORES RUBEN ANDRES        61700000028000+ 00       617
OS30 031645GALERA GASTON DARIO        61700000015500+ 00       617
1431 031652GHERBI SERGIO JESUS        61700000088400+ 00       617
C231 031657GOMEZ DANIEL ALBERTO       61700000012400+ 00       617
C231 031663GONZALEZ ROQUE ELISEO      61700000031100+ 00       617
1430 031675HUAIQUIL JULIO HUMBERTO    61700000012400+ 00       617
0730 031682JUAREZ JUAN DANIEL         61700000000400+ 00       617
1115 031688LEGUIZAMON GUSTAVO DANIEL  61700000130600+ 00       617
C131 031696LUGO HORACIO MARCELO       61700000049600+ 00       617
C132 031699MACIEL RAMON LUCAS MATIAS  61700000618000+ 00       617
CF30 031713MAYOL RUBEN DARIO          61700000038800+ 00       617
C130 031741OCHOA CARLOS ALBERTO       61700000015500+ 00       617
1130 031744OJEDA JOSE OSCAR WALDEMAR  61700000090000+ 00       617
DS31 031745OLIVASTRO MARCELO ARIEL    61700000131900+ 00       617
0531 031748ORTIZ SEBASTIAN ARIEL      61700000046500+ 00       617
0731 031758PIMIENTA RODRIGO SEBASTIAN 61700000000200+ 00       617
DS31 031763QUINTERO PABLO DANIEL      61700000082200+ 00       617
2230 031774RIVERO NORBERTO ORLANDO    61700000040400+ 00       617
0530 031777RODRIGUEZ DARIO CRISTOBAL  61700000024800+ 00       617
OS31 031785ROMERO GONZALO MATIAS RENE 61700000755333+ 00       617
1530 031787ROMERO LOPEZ SERGIO ALBERTO61700000270500+ 00       617
0231 031788ROSALES ALBERTO MARTIN     61700000111600+ 00       617
1131 031789RUIZ JOSE LUIS MAGIN       61700000032600+ 00       617
0730 031793SALAS DIEGO HERNAN         61700000020800+ 00       617
0730 031799SANCHEZ WALTER DANIEL      61700000015500+ 00       617
1631 031800SANDOVAL DIEGO             61700000062200+ 00       617
1331 031801SAPE JAVIER EDGARDO        61700000024800+ 00       617
1131 031812SILVA ROQUE DANIEL         61700000039000+ 00       617
3431 031820TEJADA SILVIO ANTONIO      61700000049600+ 00       617
C230 031835VILLALBA CESAR RAFAEL      61700000015600+ 00       617
C130 031838WORNAT GUSTAVO HERNAN      61700000120300+ 00       617
C131 031849FIGUEREDO ANGELINA SOLEDAD 61700000070100+ 00       617
C430 031858GOMEZ MARTA SUSANA         61700000012400+ 00       617
C431 031863JIMENEZ MARCELA LORENA     61700001157567+ 00       617
0231 031869MONTEROS CASAS SILVINA INES61700000102300+ 00       617
1130 031871MUNOZ NANCY GRACIELA       61700000024800+ 00       617
OS31 031872OCHOA SANDRA VALERIA       61700000012400+ 00       617
1631 031873ORDONEZ MARIA ENCARNACION  61700000069800+ 00       617
C631 031877PUTINANI GRACIELA SUSANA   61700000040400+ 00       617
C130 031881RODRIGUEZ MIRTA MABEL      61700000023400+ 00       617
1030 031884SALDIVAR SANDRA EDITH      61700000037200+ 00       617
0230 031886SANCHEZ MARIA FLORENCIA    61700000012400+ 00       617
1630 031890TORRENS MILENA NATALIA     61700000024800+ 00       617
0431 031897RHOLHAISER MARCOS SEBASTIAN61700000026400+ 00       617
0531 031901GONZALEZ PABLO MIGUEL      61700000046500+ 00       617
0515 031904POMPEI JORGE EDUARDO       61700000078000+ 00       617
0730 031908AVENTUROSO ERICA VIVIANA   61700000018000+ 00       617
0730 031909BREST LORENA VANESA        61700000023800+ 00       617
C530 031913ROJAS SILVIA ANDREA        61700000078000+ 00       617
1014 031915GLERIA RUBEN CARLOS        61700000040100+ 00       617
1031 031917SANCHEZ CLAUDIA            61700000229200+ 00       617
DN14 031945GRASSINI MARIA DANIELA     61700000870733+ 00       617
DN31 031980ALVES COELHO LEANDRO ALBERT61700000480656+ 00       617
1516 032001LUNA JORGE EDUARDO         61700000335200+ 00       617
1514 032006RAMIREZ GASTON ARIEL       61700000007800+ 00       617
DN15 032015LARROZA ROMINA SOLEDAD     61700000007800+ 00       617
C512 032027PALACIOS DIEGO MANUEL      61700000025300+ 00       617
CF13 032036FERNANDEZ ASSARO MATIAS GAS61700000007800+ 00       617
C213 032043CACERES DARIO              61700000012400+ 00       617
OS13 032055JARA MARCELO FABIAN        61700000077600+ 00       617
C113 032057MACIEL LUIS ERBERTO        61700000012400+ 00       617
C113 032061REAL ARIEL NOLBERTO        61700000077800+ 00       617
C112 032069RODRIGUEZ RAUL ALBERTO     61700000074500+ 00       617
C431 032085ROLDAN JULIO RAUL          61700000007800+ 00       617
C430 032088VILLALBA ARNALDO DANIEL ALE61700000077500+ 00       617
CF31 032090SABINI MIRTA VALERIA       61700000012400+ 00       617
0731 032091ACUNA DARIO DANIEL         61700000008200+ 00       617
C131 032116ACOSTA MARTINEZ DIEGO ALFRE61700000051200+ 00       617
0431 032118AFONSO MARIO ALBERTO       61700000140000+ 00       617
CF31 032120AGUAYO MIGUEL ANGEL        61700000012400+ 00       617
DS30 032126ALBARRACIN DAVID MARCOS    61700000127400+ 00       617
0231 032134AQUINO JOSE DE LA CRUZ     61700000045000+ 00       617
C231 032142BAEZ MARIANO               61700000012400+ 00       617
C130 032143BAILEZ LUIS EDUARDO        61700000117800+ 00       617
0731 032148BARRIOS DIEGO ARIEL        61700000007800+ 00       617
C131 032154BENITEZ PAREDES DERLIS OSVA61700000027900+ 00       617
CF31 032156BOBADILLA RAMON ANDRES     61700000007800+ 00       617
C231 032159BRITOS ARMAZA CRISTIAN DAVI61700000154600+ 00       617
SU31 032167CANESSINI JORGE DANIEL     61700000015500+ 00       617
1431 032179CORREA GONZALO GASTON      61700000037200+ 00       617
C130 032181COSTILLA MAXIMILIANO GUSTAV61700001476333+ 00       617
C231 032184CUESTA GERARDO SEBASTIAN   61700000015600+ 00       617
C130 032185DARIA CESAR ALFREDO        61700000073300+ 00       617
0231 032186DELGADO ROBERTO DANIEL     61700000062000+ 00       617
DN33 032194DUTRIA ANGEL HUMBERTO      61700000510000+ 00       617
1031 032198FERNANDEZ EDGARDO GABRIEL  61700000024800+ 00       617
1431 032202FIDALGO SANTIAGO ANGEL IGNA61700000014000+ 00       617
C131 032204FLOR ROBERTO EDUARDO       61700000059000+ 00       617
1431 032205FLORES EDUARDO ALEJANDRO   61700000079100+ 00       617
OS31 032206FRANCO GUILLERMO FERNANDO  61700000038800+ 00       617
0631 032211GAONA CLAUDIO GABRIEL      61700000024800+ 00       617
SC31 032214GIMENEZ ALBERTO DAVID      61700000007800+ 00       617
1731 032215GIMENEZ MARCOS SEBASTIAN   61700001632000+ 00       617
C231 032217GOMEZ DIEGO GASTON         61700000015500+ 00       617
CF30 032233JIMENEZ MANUEL ALEJANDRO   61700000062000+ 00       617
DS31 032237LEDESMA JUAN JOSE          61700000012400+ 00       617
DS31 032245LOPEZ ANGEL RAMON          61700000024800+ 00       617
C130 032249MALDONADO FERNANDO FABIAN  61700000007800+ 00       617
1031 032250MAMBRIN FEDERICO JAVIER    61700000037200+ 00       617
0731 032256MARTINEZ JOSE LUIS         61700000007800+ 00       617
1531 032257MARTINEZ JUAN ADOLFO       61700000012400+ 00       617
0231 032261MERCALI FERNANDO ARIEL     61700000068200+ 00       617
0231 032269MUNOZ RUBEN EDUARDO        61700000049600+ 00       617
DS31 032276PACHECO SERGIO FERNANDO    61700000024800+ 00       617
0431 032280PALL SERGIO OMAR           61700000023300+ 00       617
1031 032281PAREDES JOSE RAMON         61700000059000+ 00       617
C114 032283PISANI JOSE LUIS           61700000900000+ 00       617
C231 032314STRUSIAT CRISTIAN GASTON   61700000024800+ 00       617
C114 032315SUSSINI CARLOS FERNANDO    61700000012400+ 00       617
0431 032316TINELLI OSCAR ENRIQUE      61700000062000+ 00       617
C231 032327VILAS MARIANO DANIEL       61700000046600+ 00       617
C631 032328VILLARREAL OMAR OSCAR      61700000090000+ 00       617
0731 032348FONTEINA WALTER JOSE MARIA 61700000042000+ 00       617
C730 032353MONTOTO DIEGO SEBASTIAN    61700000080900+ 00       617
DS31 032358ZARAGOZA EDUARDO JOAQUIN   61700000093600+ 00       617
C715 032361SANCHEZ HECTOR CARLOS      61700001092333+ 00       617
DN31 032364REINOSO DAIANA LAURA MERCED61700000012400+ 00       617
EP31 032367LUZUK GABRIELA MARISEL     61700000012400+ 00       617
C131 032377ALVAREZ OSCAR ALBERTO      61700000082200+ 00       617
C231 032378AMARILLA ROLANDO JAVIER    61700000427656+ 00       617
0731 032380AQUINO EDUARDO OMAR        61700000041000+ 00       617
SC31 032384AZAS FERNANDO LUIS         61700001803467+ 00       617
0431 032387BASSA ROBERTO CARLOS       61700000173600+ 00       617
C231 032393CACERES JOSE LUIS          61700000023400+ 00       617
0731 032396CARAM SAPORITTI GABRIEL CES61700000008200+ 00       617
C130 032397CARBONELL FERNANDO EZEQUIEL61700000023400+ 00       617
0531 032399CARRASCO OMAR OSVALDO      61700000024800+ 00       617
C130 032405CUENCA DANIEL DARIO        61700000012400+ 00       617
C430 032412FERNANDEZ IRENEO MARCELINO 61700000024800+ 00       617
C531 032413FERNANDEZ OSCAR JOSE       61700000034200+ 00       617
C231 032416GAITAN OSCAR DANIEL        61700000045000+ 00       617
C230 032421GAONA BRAULIO AVELINO      61700000007800+ 00       617
0231 032430HERRERA OMAR SEBASTIAN     61700000007800+ 00       617
C131 032437LOPEZ SEBASTIAN DIEGO ROMAN61700000079100+ 00       617
0731 032446MENDEZ DIEGO ALEJANDRO     61700000228100+ 00       617
0731 032452OJEDA ROLANDO HERIBERTO    61700000048400+ 00       617
C231 032459PENA PEYLOUBET ROQUE       61700000062200+ 00       617
1231 032466PRES HUGO LEANDRO SEBASTIAN61700000110600+ 00       617
C231 032472ROVIRA GABRIEL ALBERTO     61700000618000+ 00       617
DS31 032479SIERRA RAUL ERNESTO        61700000020200+ 00       617
0431 032484SUAREZ HECTOR BAUTISTA     61700000062000+ 00       617
1331 032485SUSSINI BERNIGOLA JOSE MARI61700000085800+ 00       617
C131 032489URRUTIA OSCAR ALBERTO      61700000065400+ 00       617
1131 032499ZENIQUEL GUSTAVO ARIEL     61700000052800+ 00       617
C131 032500ZUNIGA LUIS ALBERTO        61700000100800+ 00       617
RP31 032511RANDAZZO GISELA NOEMI      61700000020200+ 00       617
DS14 032531BRAGGIO MARIANO JUAN LUIS  61700000032600+ 00       617
0730 032534SOSA ARMANDO FABIAN        61700000007800+ 00       617
1331 032541GRANDON MARIANO            61700000024800+ 00       617
OS31 032558CORIA PATRICIA LORENA      61700000097800+ 00       617
C131 032575ROCABADO HORACIO           61700000276400+ 00       617
OS31 032577SAIZ VIVIANA LUJAN         61700003684733+ 00       617
CF31 032579AGUIRRE CLAUDIO MARCELO    61700000012400+ 00       617
EP31 032585CASTRO FERNANDO DANIEL     61700000015500+ 00       617
0231 032586FERRO MARCOS ARIEL         61700000035700+ 00       617
C414 032590GROSSANO ROXANA VALERIA    61700000052700+ 00       617
0731 032594MARTINEZ RAMON ALBERTO     61700000075600+ 00       617
DN30 032600SOSA MARCELA LILIANA       61700000028000+ 00       617
C731 032601SUMA MARIA FERNANDA        61700000600000+ 00       617
0431 032609NOWAK GISELA ANDREA        61700000176200+ 00       617
0231 032611RODRIGUEZ CELESTE SOLEDAD  61700000020200+ 00       617
DN31 032613TEVES MONICA EDITH         61700000012400+ 00       617
C331 032631AYALA JORGE ERNESTO        61700000179100+ 00       617
C531 032637BENITEZ JUAN GUSTAVO       61700000060600+ 00       617
1031 032638BERTUOL GREGORIO ADELMO    61700000071800+ 00       617
1131 032643BRITES RAMON ENRIQUE       61700000032600+ 00       617
0231 032655CARDOZO RAUL ANSELMO       61700000012400+ 00       617
C313 032657CECCONE SOLIS CARLOS EDUARD61700000062000+ 00       617
1631 032665CHOQUE ATILIO OSCAR        61700000024800+ 00       617
1031 032674ESPINOSA EDUARDO ALBERTO   61700000082200+ 00       617
C131 032680FLORES ORLANDO IGNACIO     61700000007800+ 00       617
C331 032682GALVAN HUGO ORLANDO        61700000093000+ 00       617
C131 032685GAUNA CRISTIAN MARCOS      61700000015500+ 00       617
0730 032686GAUNA EDUARDO JAVIER       61700000017000+ 00       617
BC31 032696GUZMAN CRISTIAN GUSTAVO    61700000000600+ 00       617
C531 032701JARA ARIEL ALEJANDRO       61700000007800+ 00       617
0731 032722MARCHETTI CARLOS ARIEL     61700000007800+ 00       617
C115 032730MELGAREJO JORGE ARIEL      61700000024800+ 00       617
3014 032731MENJIBAR CRISTIAN RAUL     61700000062000+ 00       617
C231 032733MONZON CARLOS ALBERTO      61700000015500+ 00       617
3233 032738NABALLES OSVALDO GUSTAVO   61700000023400+ 00       617
DN15 032740NIETO LUIS ALBERTO         61700000015600+ 00       617
DS31 032745OJEDA RAUL PABLO           61700001682333+ 00       617
0514 032746OJEDA VICTOR DANIEL        61700000161300+ 00       617
C131 032748PAGLIA ANIBAL              61700000012400+ 00       617
C414 032769RIO DANIEL GERVASIO        61700000077800+ 00       617
3530 032770RIOS FABIO DE JESUS        61700000023400+ 00       617
0231 032774ROJAS GUIDO OSCAR          61700000012400+ 00       617
C131 032777ROUILLER GUSTAVO DANIEL    61700000012400+ 00       617
EC31 032781SANCHEZ ANGEL JOSE         61700000037200+ 00       617
C331 032786SENES CRISTIAN OSCAR       61700000107000+ 00       617
0231 032803VEGA SERGIO LUIS           61700000037200+ 00       617
1931 032807VILLARREAL ARNALDO DAVID   61700000012400+ 00       617
AP31 032808ZACARIAS HUGO MARIANO      61700000093200+ 00       617
SU31 032812BEDNAREK ROMINA PAULA      61700000012400+ 00       617
0431 032814CANZIANI CECILIA MARINA    61700000060600+ 00       617
3431 032815CEPEDA ROMINA ELIZABETH    61700000028000+ 00       617
1331 032818HIRSCHFELD MARIA ALEJANDRA 61700000049600+ 00       617
0514 032820JACQUET LILA JESSICA       61700000126100+ 00       617
0531 032823LOYOLA ANALIA VERONICA     61700000090000+ 00       617
1931 032830VILLARREAL CAROLINA NATALIA61700000412400+ 00       617
CF32 032836GOMEZ SEQUEIRA HUGO ADOLFO 61700000622467+ 00       617
0231 032841ACEVEDO MARCOS ELIAS       61700000012400+ 00       617
3432 032872FRANCOLINI FERNANDO ANDRES 61700001466800+ 00       617
C131 032876GODOY WALTER DAVID         61700000020200+ 00       617
DS31 032877GOMEZ ANIBAL BALDONADO     61700000024800+ 00       617
C231 032878GOMEZ ARIEL RAMON          61700000012400+ 00       617
3431 032882LEDESMA HORACIO DAVID      61700000012400+ 00       617
0231 032884LIZONDO JUAN MARTIN EZEQUIE61700000012400+ 00       617
DS15 032889MEDINA RAUL ALEJANDRO      61700000927000+ 00       617
C231 032894NACIMIENTO MARCELO AUGUSTO 61700000007800+ 00       617
SC31 032901PEREZ GUILLERMO ORLANDO    61700000012400+ 00       617
DN31 032909ROBLEDO FERNANDO DANIEL    61700000012400+ 00       617
1131 032912ROMERO ROBERTO ALEXIS EMANU61700000161800+ 00       617
0531 032918SOLANO FABIAN MARTIN       61700000040300+ 00       617
C131 032926VARGAS ALEJANDRO JAVIER    61700000024800+ 00       617
1131 032927VERA FERNANDO ARIEL        61700000040400+ 00       617
0732 032930ZAPPORITTI CLAUDIO ADOLFO S61700000104800+ 00       617
1131 032932ZENIQUEL JOSE LUIS         61700000077600+ 00       617
C731 032934BARRIONUEVO VERONICA ALEJAN61700000012400+ 00       617
C331 032937CARAMELLO SANDRA EVELIN    61700000024800+ 00       617
1131 032938CARBALLO KAREN PAMELA INES 61700000056000+ 00       617
3031 032941MATUS VICTORIA LORENA      61700000007800+ 00       617
1130 032942NOVOTNY ROSANA GLADYS      61700000096400+ 00       617
DN31 032966ALVAREZ VICTOR HUGO        61700000038800+ 00       617
0731 032969PEREZ SANDRA SUSANA        61700000515000+ 00       617
1131 032977PEREYRA JULIO ANDRES       61700000038800+ 00       617
1031 032986RAMIREZ NADIA JOSEFINA     61700000040100+ 00       617
DS13 032993AQUINO NATALIA ANDREA      61700000118300+ 00       617
DN13 032995BARRIOS SONIA MARIELA      61700000027900+ 00       617
C413 032999CARUSO LORENA PAOLA        61700000037200+ 00       617
1313 033001CENTURION NATALIA SOLEDAD  61700000049600+ 00       617
C513 033005DIAZ CRISTIAN ADOLFO       61700000024800+ 00       617
SC13 033010GALMARINI CRISTIAN DANIEL  61700000232100+ 00       617
0713 033014JUAREZ ROLANDO FIDEL       61700000035800+ 00       617
DN13 033018MARTINS GIMENEZ GABRIELA IR61700000048200+ 00       617
C113 033037RUIZ RICARDO EMANUEL       61700000051200+ 00       617
DN13 033046VARGAS VIVIANA BEATRIZ     61700000012400+ 00       617
2213 033049VILLALBA JULIO CESAR       61700000020200+ 00       617
2131 033063ADELL SERGIO JOSE          61700000038900+ 00       617
1631 033064AEBICHER ARMANDO MAURICIO  61700000069800+ 00       617
0231 033070ARCE PABLO ROBERTO         61700000099400+ 00       617
0231 033073BATISTA PABLO EMILIO       61700000051200+ 00       617
DS31 033077BRAVO PABLO ARIEL          61700000012400+ 00       617
0431 033080CABRAL HECTOR ADRIAN       61700000055900+ 00       617
1631 033081CABRERA GERMAN ALEJANDRO   61700000077500+ 00       617
0231 033085CASTRO DIEGO RUBEN         61700000024800+ 00       617
C231 033090CONCA PABLO ANTONIO ESTEBAN61700000012400+ 00       617
C416 033100DIAZ SERGIO ARIEL          61700000012400+ 00       617
C231 033101DOMINGORENA NESTOR ADRIAN  61700000015500+ 00       617
0731 033104ESCOBAR HECTOR ALEJANDRO   61700000007800+ 00       617
C131 033105ESQUIVEL JUAN MARCELO      61700000093600+ 00       617
1031 033108FERNANDEZ CESAR SAMUEL DAVI61700000113200+ 00       617
1431 033110FERNANDEZ LEONARDO DAVID   61700000020200+ 00       617
1131 033112FLEITA DIEGO ROBERTO       61700000057600+ 00       617
3531 033116GALEANO PABLO JAVIER       61700000286700+ 00       617
1231 033119GARCIA ROBERTO MANUEL      61700000039000+ 00       617
C131 033127GONZALEZ DANIEL LEOCADIO   61700000036000+ 00       617
0531 033131KUNZ CARLOS ALBERTO        61700000065200+ 00       617
C131 033134LEZCANO JULIO ARGENTINO    61700000111600+ 00       617
CF31 033146MEDINA DANIEL HERNAN       61700000020200+ 00       617
0731 033153MORALES JORGE RAFAEL ANTONI61700000035800+ 00       617
C231 033155ORELLANA CRISTIAN ALBERTO  61700000083800+ 00       617
OS31 033157PONCE MAXIMILIANO ERNESTO  61700000077800+ 00       617
1031 033162RIVERO GUSTAVO DAMIAN      61700000145200+ 00       617
0231 033164ROLDAN WALTER ALEJANDRO    61700000015500+ 00       617
CF31 033165ROMERO MANUEL ALBERTO      61700000015500+ 00       617
C531 033167SAEZ JAVIER OSCAR          61700000136600+ 00       617
0231 033169SALDANA GUSTAVO FABIAN     61700000012400+ 00       617
3431 033170SANCHEZ WALTER OSCAR       61700000045000+ 00       617
0431 033175SELTENREIT MARIO HECTOR    61700000234200+ 00       617
0531 033181TRALCAL DIEGO OSCAR        61700000052800+ 00       617
C131 033185ZAMORANO JUAN RAMON        61700000038800+ 00       617
3431 033189ANDRADA ALICIA LOURDES     61700000012400+ 00       617
C431 033193BENITEZ ROXANA ALEJANDRA   61700000012400+ 00       617
C131 033195EGUREN JORGELINA EDITH     61700000031100+ 00       617
OS31 033199MARTINEZ LORENA NATALIA    61700000141400+ 00       617
3031 033200NOWAK DEBORA VANINA        61700000138100+ 00       617
1031 033205SILVEIRA LAURA NOEMI       61700000041600+ 00       617
1031 033210BRITEZ RODRIGO RAMON       61700000049600+ 00       617
C231 033211CARADONNA GABRIELA IVONE   61700000062200+ 00       617
C115 033224GONZALEZ EDUARDO ALBERTO   61700000024800+ 00       617
0713 033232MEDINA MARIA DE LOS ANGELES61700000007800+ 00       617
C131 033248BAEZ SERGIO ELENO          61700000107400+ 00       617
1931 033252PAGANO YANINA PAOLA        61700000055900+ 00       617
0531 033258SEQUEIRA GONZALEZ YANINA   61700000152100+ 00       617
1931 033265ALIENDES CARLOS ALBERTO    61700000452800+ 00       617
1431 033271HERRERA SERGIO DANIEL      61700000110200+ 00       617
OS31 033272HERRERA SILVIO EDGARDO     61700000037200+ 00       617
0531 033274MASSARA DARIO JESUS        61700000138200+ 00       617
C131 033278RIVERO MARIO EZEQUIEL      61700000053000+ 00       617
0215 033280SILVERIO DARIO SEBASTIAN   61700000870447+ 00       617
C531 033302BARRIONUEVO GUSTAVO DANIEL 61700000012400+ 00       617
0531 033313FERREYRA NICOLAS ARIEL     61700000012400+ 00       617
C731 033319OJEDA LUCAS SEBASTIAN      61700000012400+ 00       617
1131 033322RAMIREZ SERGIO FERNANDO    61700000012400+ 00       617
1431 033327YANEZ JUAN JOSE            61700000024800+ 00       617
OS15 033341FLORES MARIANA VERONICA    61700000037200+ 00       617
DN13 033352SAKUMOTO JUAN GERMAN       61700000721000+ 00       617
DN31 033359VINAS ADRIANA              61700000012400+ 00       617
C431 033362ACUNA GUILLERMO ANDRES     61700000046600+ 00       617
DN31 033369BALMACEDA OMAR ALCIDES     61700000015500+ 00       617
0231 033376GIRONDO PABLO GABRIEL      61700000024800+ 00       617
1431 033389PENAYO LUIS ALBERTO        61700000012400+ 00       617
OS31 033395SAMPAYO PAULA SOLEDAD      61700000012400+ 00       617
C532 033411RAMIREZ JOSE ARIEL         61700000012400+ 00       617
DS33 033412RUEDA JORGE DANIEL         61700000024800+ 00       617
C513 033418CANTERO CARLOS ALBERTO     61700000121600+ 00       617
DS13 033423ESPINOZA SABRINA SOLEDAD   61700000020200+ 00       617
EP15 033440CIDOSKI CARLOS ESTEBAN     61700000900000+ 00       617
SC14 033444SCHULTHEIS GISELA MARIA    61700000077500+ 00       617
C613 033447GONZALEZ SILVIA ALEJANDRA  61700000035800+ 00       617
C131 033452AMARILLA ANGEL GASTON      61700000035800+ 00       617
DS31 033457BAREIRO WALTER RAMON       61700001070400+ 00       617
C131 033466BORJAS BENITEZ HECTOR GERMA61700000062000+ 00       617
DS31 033477CORREA DARIO FACUNDO       61700000053000+ 00       617
0231 033486FLORES FABIAN ARTURO       61700000051200+ 00       617
0731 033489GAUNA JORGE ALBERTO        61700000007800+ 00       617
0231 033493GUTIERREZ HORACIO EZEQUIEL 61700001098667+ 00       617
1031 033496IBARRA ADRIAN ALBERTO      61700000153400+ 00       617
0231 033498JUAREZ SERGIO GABRIEL      61700000037200+ 00       617
0431 033499KLOSTER ALE FABRICIO SALVAD61700000024800+ 00       617
1131 033503LEDESMA PABLO DANIEL       61700000051400+ 00       617
1931 033505LEZCANO CARLOS DAMIAN      61700000106000+ 00       617
3531 033506LOPEZ EDGARDO ALBERTO      61700000054400+ 00       617
C131 033516MORA ROLANDO ARIEL         61700000282000+ 00       617
0431 033519PACHECO JUAN CARLOS        61700000052700+ 00       617
C131 033525RECALDE CRISTIAN ALBERTO JE61700001000000+ 00       617
3431 033530RIOS MARCELO ALBERTO       61700000058900+ 00       617
0231 033531RIOS RAMON ORLANDO         61700000020200+ 00       617
C431 033547TOLOSA MARIANO GABRIEL     61700000053000+ 00       617
DN31 033551ALDAVEZ LAURA MARIANA      61700000054400+ 00       617
C531 033558CRIPPA ANDREA CECILIA      61700000024800+ 00       617
0431 033561FEININGER NATALIA SOLEDAD  61700000049600+ 00       617
DS33 033568GONZALEZ NORMA ALICIA      61700000043400+ 00       617
DN31 033572MENDEZ MYRIAN ESTELA       61700000015500+ 00       617
3531 033573MOREIRA MONICA ALEJANDRA   61700000038800+ 00       617
C431 033575PAEZ MELISA GISELA         61700000012400+ 00       617
0231 033587VARGAS LAURA SOLEDAD       61700000012400+ 00       617
OS31 033588VARGAS VERONICA VIVIANA    61700000031000+ 00       617
0531 033590YASNIKOWSKI VERONICA ROSANA61700000012400+ 00       617
OS14 033591ABELLA PERLA NOELIA        61700000065200+ 00       617
CF14 033595ALONSO MARIANA             61700000015500+ 00       617
C431 033596ALVES COELHO FLAVIA MIRIAM 61700000012400+ 00       617
0531 033599AYENAO LILIANA VERONICA    61700000095000+ 00       617
OS31 033601BARRIOS ANALIA PATRICIA    61700000527400+ 00       617
C115 033603BORJA CELINA ESTER         61700000015500+ 00       617
DN15 033608DI BLASIO YANINA           61700000015600+ 00       617
CF31 033615LEIVA CARLOS FERNANDO DEL V61700000012400+ 00       617
1431 033618LUPACCHINI ROMINA          61700000071300+ 00       617
OS31 033619MANRIQUE VIVIANA SILVIA    61700000088400+ 00       617
0515 033630SAEZ FABIO NESTOR          61700000034200+ 00       617
1032 033638AGUERO HUGO EVER           61700000038800+ 00       617
C131 033644FARE MARIO JAVIER          61700000024800+ 00       617
OS32 033655VARELA NAGORE SILVANA MYRIA61700000012400+ 00       617
C131 033656AQUINO LUIS JORGE          61700000247600+ 00       617
1132 033667DOLZ MARIA BELEN           61700000069800+ 00       617
DN31 033672MATOSIAN ROMINA ESTHER     61700000077600+ 00       617
C415 033674MERLO LORENA NATALIA       61700000600000+ 00       617
DN31 033676PALABRO DIEGO ANGEL        61700000045000+ 00       617
DN31 033681STIVALA GISELA LORENA      61700000024800+ 00       617
DN31 033685VARELA LORENA              61700000424800+ 00       617
DS32 033688VAZQUEZ JUAN ANGEL         61700000024800+ 00       617
0431 033691GETTE PABLO RICARDO        61700000057400+ 00       617
C231 033700SILVA JAVIER CARLOS        61700000031200+ 00       617
C231 033701SILVA MARCELO EDUARDO      61700000099400+ 00       617
0232 033706SANCHEZ JORGE ESTEBAN      61700000052800+ 00       617
DN31 033709GONZALEZ MABEL ESTRELLA    61700000057400+ 00       617
C431 033712SALINAS LAURA CAROLINA     61700001398133+ 00       617
DT15 033716BOVINO RAFAEL              61700000020200+ 00       617
1132 033717GARCIA OLGA ROSANA         61700000045000+ 00       617
C231 033722ALTAMIRANDA LUIS GABRIEL   61700000032600+ 00       617
C131 033725BARRIOS JUAN MANUEL        61700000024800+ 00       617
C231 033729CACERES LUIS OSCAR         61700000045000+ 00       617
1931 033741LOPEZ GUSTAVO RODOLFO      61700000051200+ 00       617
C131 033747OJEDA HECTOR DAVID         61700000012400+ 00       617
C131 033753SILVERO RICARDO DANIEL     61700000038800+ 00       617
C131 033758VELAZCO GABRIEL ANTONIO    61700000031000+ 00       617
0731 033759VOELKLI RODOLFO MAXIMILIANO61700000038800+ 00       617
C131 033763GHYSELS JUANA ALEJANDRA    61700000078000+ 00       617
0531 033764OSORIO SILVANA DANIELA     61700000015500+ 00       617
2232 033769DONAIRE CLAUDIA ANGELICA   61700000024800+ 00       617
1431 033771GONZALEZ VERONICA VIVIANA  61700000032600+ 00       617
RP31 033775PAREDES MARIA FELISA       61700000024800+ 00       617
1031 033794ROLON GRISELDA LORENZA     61700000035800+ 00       617
C131 033813ACOSTA EMILIANO GUZMAN     61700000051200+ 00       617
2131 033819ARCE SEBASTIAN ANDRES      61700000129200+ 00       617
EP31 033821ATENCIO SERGIO JAVIER      61700003021333+ 00       617
C131 033824BARBONA FERNANDO MARTIN    61700000012400+ 00       617
C231 033825BEHR EDUARDO EZEQUIEL      61700000961333+ 00       617
1931 033833CABRERA WALTER ANTONIO     61700000500000+ 00       617
1231 033836CASTANOS MATIAS GUILLERMO  61700000012400+ 00       617
0531 033839CORNELIO RAUL              61700000055800+ 00       617
1031 033842DUARTE DARIO JAVIER        61700000099200+ 00       617
C132 033844FERNANDEZ LUCIO EZEQUIEL   61700000127300+ 00       617
SC31 033846GALEANO SERGIO ARIEL       61700000035800+ 00       617
EC31 033847GARCES JORGE ANTONIO       61700000051200+ 00       617
1231 033853HUENULEF CRISTOBAL AMERICO 61700000012400+ 00       617
3031 033858LOBOS GUSTAVO FERNANDO     61700000141600+ 00       617
0531 033863MATURANA ISRAEL MAURICIO   61700000024800+ 00       617
1231 033864MAURA GERARDO ADRIAN       61700000048200+ 00       617
DS31 033867OMACINI JOSE SEBASTIAN     61700000123200+ 00       617
0531 033868ORTIZ GERMAN ABEL          61700000040400+ 00       617
0233 033871PAEZ OVIDIO JAVIER         61700000049600+ 00       617
0531 033878RODRIGUEZ CLAUDIO ARIEL    61700000118300+ 00       617
3515 033883SANCHEZ CESAR LUIS         61700000023400+ 00       617
1931 033888TARCAYA EMANUEL ALEJANDRO  61700000054300+ 00       617
C131 033890VALLEJOS ALBERTO MARTIN    61700000035700+ 00       617
1531 033899LEMOS GABRIELA ROSANA      61700000652333+ 00       617
C232 033908VERA IVAN HUGO             61700000012400+ 00       617
0232 033911GONCALVES GUSTAVO FABIAN   61700001741467+ 00       617
1932 033913JAITA MYRIAM ELIZABETH     61700000007800+ 00       617
1932 033914PETRICH FLAVIA SABRINA     61700000164800+ 00       617
0532 033921FERREIRA DAMIAN RUBEN      61700000109000+ 00       617
1032 033922INSFRAN CESAR DANIEL       61700000057400+ 00       617
DN32 033923ZANIRATTO FERNANDO ARIEL   61700000012400+ 00       617
0531 033928AMADOR JOSE LUIS           61700000139500+ 00       617
0531 033932DIAZ CRISTIAN MANUEL       61700000062000+ 00       617
C115 033942LUNA CLAUDIO ADOLFO        61700000012400+ 00       617
0531 033943MERINO LAURA GRACIELA      61700000132200+ 00       617
0531 033944NUNEZ SILVIO ALEJANDRO     61700000136400+ 00       617
1231 033947RAYMAN ADRIANA NOEMI       61700000051300+ 00       617
C331 033950ROJAS NATALIA ALEJANDRA    61700000024800+ 00       617
0831 033952SENES ANDREA VALERIA       61700000063800+ 00       617
0531 033953VACA CARDOZO ENMANUEL IGNAC61700000077600+ 00       617
0531 033954VANACLOY MARCO FERNANDO    61700000063800+ 00       617
1532 033955YANES VICTOR HUGO          61700000012400+ 00       617
1032 033957AYALA ALEJANDRO RAFAEL     61700000080800+ 00       617
1032 033959BRUNELLI HECTOR JOSE       61700000103000+ 00       617
C431 033964DIAZ LUIS ALBERTO          61700000024800+ 00       617
0532 033968GARCIA CRISTIAN FERNANDO   61700000024800+ 00       617
DT31 033973LIVA ROBERTO EDUARDO       61700000040400+ 00       617
C432 033975MOYANO SILVIA DE LOS ANGELE61700000023300+ 00       617
C132 033980POISA ALEJANDRO JOSE       61700000032600+ 00       617
DT32 033984SANTILLAN VAZQUEZ CESAR GUI61700000647533+ 00       617
CF31 033999AGUIRRE OMAR LUIS          61700000059000+ 00       617
C131 034001ALIENDES JOSE EDUARDO      61700000060800+ 00       617
C331 034012FABIAN JOSE LUIS           61700000145800+ 00       617
C431 034014FERNANDEZ LUCAS DANIEL     61700000012400+ 00       617
C731 034017FLORES MIGUEL HORACIO      61700000012400+ 00       617
0432 034019GAITAN RAUL SEBASTIAN      61700000143000+ 00       617
1631 034028LOYOLA SERGIO ORLANDO      61700000116800+ 00       617
1632 034036RIVERA SERGIO MARIANO      61700000024800+ 00       617
DS15 034040SOLIS CRISTIAN DANIEL      61700000024800+ 00       617
C631 034042SOSA SERGIO DANIEL         61700000023300+ 00       617
DN31 034046VAZQUEZ LIONEL ALBERTO MATI61700000012400+ 00       617
0431 034051BENITEZ IVANA ANALIA       61700000037200+ 00       617
1031 034053CANO VIVIANA ESTER         61700000037200+ 00       617
C431 034063SANCHEZ EVA VANINA         61700000012400+ 00       617
DN32 034066AGUERO LORENA ELIZABETH    61700000116600+ 00       617
DN32 034074RAMIREZ NATALIA LORENA     61700000012400+ 00       617
0232 034080GOROSITO RUBEN FERNANDO    61700000618000+ 00       617
SC14 034096DOS SANTOS ARIEL MARCOS ALB61700000015500+ 00       617
C513 034101GOMEZ OSVALDO ADRIAN       61700000012400+ 00       617
C113 034103GURKA NESTOR DAVID         61700000900000+ 00       617
C113 034104GUTIERREZ NORBERTO ALEJANDR61700000038800+ 00       617
C114 034108KALENIUK CLAUDIA MABEL     61700000012400+ 00       617
1613 034111LOPEZ AMEIDA GASTON HERNAN 61700000007800+ 00       617
C213 034116MIRANDA DELGADO ALFREDO JAV61700001154567+ 00       617
C113 034118PARED LEONARDO MATIAS DAVID61700000106000+ 00       617
1013 034121PERALTA JORGE              61700000049600+ 00       617
0214 034125PEREZ MAURO ROQUE          61700000012400+ 00       617
3513 034131RODRIGUEZ VICTOR RENE      61700000012400+ 00       617
C313 034133SALINAS ADRIAN FEDERICO    61700000099600+ 00       617
C214 034136TULA MARIANA EDITH         61700000015500+ 00       617
1613 034137TURIANO DIEGO EZEQUIEL     61700001184067+ 00       617
0714 034146LEDESMA CARLOS ADRIAN      61700000059000+ 00       617
C432 034159BORGES SILVIA MARCELA      61700000024800+ 00       617
0716 034173CIBILS MONICA GRACIELA     61700000015500+ 00       617
0515 034179DA SAN MARTINO ROBERTO ADRI61700000089900+ 00       617
C432 034183DELLA LATTA PAULA NELA     61700000024800+ 00       617
1315 034186DIAZ NATALIA LIS           61700000074400+ 00       617
CF15 034187DUARTE SANDRA EDITH        61700000085400+ 00       617
1432 034196GOMEZ ELIANA ELISA         61700000012400+ 00       617
1431 034203IELPI PABLO ADRIAN         61700000149000+ 00       617
C415 034209LOZANO GISELLE DANIELA     61700001001733+ 00       617
0215 034223OLMEDO NILDA CECILIA       61700000024800+ 00       617
1015 034236ROJAS VICENTE ALFREDO      61700000144500+ 00       617
RP15 034253TUTTOLOMONDO SILVANA JOSEFI61700000038800+ 00       617
OS32 034274MIRANDA MARIANA VERONICA   61700000400000+ 00       617
C632 034275ROMEO PATRICIA CECILIA     61700000026400+ 00       617
C515 034280CIBILS SILVIA BEATRIZ      61700000015500+ 00       617
0531 034282ABURTO GABRIEL SEBASTIAN   61700000086800+ 00       617
0832 034293BONELL DELRRIO ROMINA LAURA61700000063600+ 00       617
C131 034294BORTHIRY CECILIA IVANA     61700000062000+ 00       617
C531 034297CABRERA RODOLFO MARTIN     61700000059000+ 00       617
DS31 034316FERNANDEZ DANIEL GUSTAVO   61700000007800+ 00       617
1531 034317FIGUEROA NELSON ARIEL      61700000052400+ 00       617
2231 034318FLORES ALFREDO DIEGO       61700000012400+ 00       617
1432 034319FLORES JESSICA TAMARA      61700000296700+ 00       617
1131 034337MOLINARI MONICA LAURA      61700000049600+ 00       617
0831 034339OCHOA MIGUEL ANGEL         61700000071400+ 00       617
1431 034353SCARAFIA CARLOS FERNANDO   61700000206600+ 00       617
2232 034355TERAN RUBEN ALFREDO        61700000124200+ 00       617
0531 034359VERGARA JULIO CESAR        61700000074400+ 00       617
2532 034367PEREZ MATIAS NICOLAS       61700000078000+ 00       617
C332 034369ABARRATEGUI NATALIA ALEJAND61700000024800+ 00       617
1132 034370ARGUELLO VIVIANA BEATRIZ   61700000024800+ 00       617
0732 034373LENCINAS SUSANA BEATRIZ    61700000008000+ 00       617
AP32 034375OBREGON MARIA CELESTE      61700000090100+ 00       617
2231 034378CARRERAS PABLO FEDERICO    61700000024800+ 00       617
3032 034379PERON EVA ISABEL           61700000049600+ 00       617
0513 034387YANEZ HERALDO FEDERICO     61700000037200+ 00       617
1432 034393GIMENEZ SILVANA CECILIA    61700000077600+ 00       617
1031 034395MALDONADO WALTER ARIEL     61700000012400+ 00       617
C432 034397PACHECO MARIA ROSA         61700001214067+ 00       617
1132 034398PALACIOS VANESA VERONICA   61700000102500+ 00       617
C132 034400BLANCO ROXANA TERESA       61700000198600+ 00       617
C132 034412DI MASI CRISTIAN NORBERTO  61700000024800+ 00       617
DN32 034416GOMEZ PAOLA LETICIA        61700000015500+ 00       617
C732 034417GRAMAJO GRACIELA NOEMI     61700000051200+ 00       617
OS31 034425MANCUSO GIMENEZ MARIA GABRI61700000024800+ 00       617
DN32 034426MANSILLA MOIRA ROMINA      61700000023400+ 00       617
OS32 034431PERALTA MARTINEZ ROCIO LORE61700000015500+ 00       617
1432 034435RODRIGUEZ MARIA JULIANA    61700000229700+ 00       617
C232 034438SARAVIA GILBERTO           61700000007800+ 00       617
DN32 034440STELLA CORINA VALERIA      61700000012400+ 00       617
DN15 034457ARANDA VICTOR CRUZ         61700000206000+ 00       617
0732 034462BARRIOS DAVID LEONARDO     61700000038800+ 00       617
0431 034467BLANCO MAXIMILIANO GERMAN  61700000032600+ 00       617
3431 034491DIAZ MIGUEL NICOLAS        61700000038800+ 00       617
1131 034506GONZALEZ JOSE DANIEL       61700000007800+ 00       617
C231 034509GUTIERREZ HORACIO DAVID    61700000038800+ 00       617
0432 034510HERRERA RUBEN DARIO        61700000269800+ 00       617
0731 034523MACIEL SERGIO WALTER       61700000046600+ 00       617
C232 034526MEDINA ABEL HERNAN         61700000961333+ 00       617
C631 034528MENDOZA FEDERICO MARTIN    61700000099600+ 00       617
1031 034532MOREIRA LUIS ALBERTO       61700000037200+ 00       617
0433 034534NUNEZ PABLO FEDERICO       61700000163800+ 00       617
DN32 034541PARACHA GIRADO DIEGO HERNAN61700000012400+ 00       617
DS31 034545PICCIOCCHI MIGUEL ANGEL    61700000029600+ 00       617
1032 034546PRIETO CESAR VICTOR        61700000049600+ 00       617
DN31 034547RIGAMONTI MARTIN ARIEL     61700000012400+ 00       617
C232 034557SERRANO FERNANDO DAMIAN    61700000068600+ 00       617
1032 034561SOSA RODRIGO ORLANDO LUJAN 61700000049600+ 00       617
1731 034562SOSA WALTER ALBERTO        61700001510667+ 00       617
1331 034565STAY CRISTIAN DANIEL       61700000007800+ 00       617
1131 034568TOURN LEONARDO GASTON      61700000138000+ 00       617
C131 034573VERA DIEGO ALBERTO         61700000039000+ 00       617
0431 034574VIDELA FERNANDO ARIEL      61700000024800+ 00       617
1131 034577ZACARIAS MARCELO EDGARDO   61700000012400+ 00       617
1131 034578ZARACHO ROGELIO ALBERTO    61700000065300+ 00       617
C132 034584BARRIOS LILIANA DEL CARMEN 61700000000900+ 00       617
OS31 034585BERTUOL SILVIA MARCELA     61700000076000+ 00       617
0832 034587CALIVA ANA                 61700000035700+ 00       617
0733 034588CANTEROS KARINA SOLEDAD    61700000124200+ 00       617
0732 034590CARAM SAPORITTI GRISELDA MA61700000055000+ 00       617
1432 034591CARDENAS FRANCINA MARGOT   61700000012400+ 00       617
0732 034592CARDOZO NATALIA GABRIELA   61700000132300+ 00       617
1931 034596EGUREN CECILIA FERNANDA    61700000012400+ 00       617
1032 034598FALCON NATALIA GISELA      61700000024800+ 00       617
SC32 034599FEININGER YANINA VANESA    61700000905067+ 00       617
C431 034600FERNANDEZ ANGELICA         61700000012400+ 00       617
1031 034607GUTIERREZ PAOLA NOEMI      61700000015600+ 00       617
CF32 034610MACIEL CLAUDIA EDITH       61700000969133+ 00       617
C431 034611MARECO PATRICIA ANDREA     61700000024800+ 00       617
C431 034613OJEDA CINTHIA GISELA       61700000024800+ 00       617
0732 034614OJEDA NATALIA NOEMI        61700000112200+ 00       617
EP32 034633FIDANZA DAMIAN OSVALDO     61700000596067+ 00       617
1015 034636MINARRO CLAUDIO ERNESTO    61700000128000+ 00       617
C732 034642MORENO ANA VALERIA         61700000720667+ 00       617
EC32 034648BAEZ CHRISTIAN HORACIO JESU61700000161200+ 00       617
EP32 034649BONAFINA DIEGO JULIAN      61700000062000+ 00       617
3032 034657ACOSTA SANDRA MYRIAN       61700000072900+ 00       617
1132 034667RAMIREZ ABARRATEGU EDGARDO 61700000000200+ 00       617
0432 034671RUIZ LEZCANO MARIANA DEL CA61700000080600+ 00       617
C532 034677JORGE CINTHIA GRISELDA     61700000094600+ 00       617
0232 034679ALDERETE SONIA BEATRIZ     61700000866533+ 00       617
DN32 034681BALMACEDA MARCELO ALFREDO  61700000024800+ 00       617
0232 034683CORSO MARIA JOSE           61700000477333+ 00       617
1132 034684COSTANZO MARIA JOSE        61700000116400+ 00       617
C432 034694GREPACHOK ANITA ISABEL     61700001018267+ 00       617
1016 034695SERFATY PATRICIA MARIA ESTH61700000064000+ 00       617
0532 034699GROBLI FERNANDO GABRIEL    61700000012400+ 00       617
0432 034713MANARIN CRISTIAN ALEJANDRO 61700000049600+ 00       617
CF32 034722SUAREZ WALTER ADRIAN       61700000024800+ 00       617
1332 034724AVILA ANA MARCELA          61700000077500+ 00       617
ES31 034727MICELI VALERIA MARILYN     61700000020200+ 00       617
EP31 034731VERON MARILINA LUZ         61700000031000+ 00       617
0532 034732ALVAREZ JOSE AUGUSTO       61700000049600+ 00       617
C432 034746ESQUIVEL CLAUDIA MARCELA   61700000102300+ 00       617
C432 034747FLORES NADIA EVELIN LUDMILA61700000012400+ 00       617
2132 034749GONZALEZ ALEN DANIEL SEBAST61700000032600+ 00       617
EC32 034768MONTEROS CASAS SEBASTIAN HE61700000128700+ 00       617
0432 034777CISNEROS CATALINA FELISA   61700000132000+ 00       617
C232 034778DOMINGUEZ LORENA ALCIRA    61700000012400+ 00       617
OS32 034779INOSTROZA MUNOZ VALERIA SOL61700000032600+ 00       617
C432 034788VARELA CINTIA MERCEDES     61700000015500+ 00       617
C632 034801GHERBI ALFREDO JOSE        61700000007800+ 00       617
C132 034805MARTINEZ MATIAS ALEJANDRO  61700000087000+ 00       617
OS32 034806MOREIRA ANDRES FELICIANO   61700000329200+ 00       617
0232 034816VULCANO NICOLAS HORACIO    61700000012400+ 00       617
0232 034817WACELINKA ROQUE DAMIAN     61700000038800+ 00       617
1032 034818ALMIRON LIS CAROL          61700000049600+ 00       617
C732 034822MARTINEZ MARA ALEJANDRA    61700000045300+ 00       617
C332 034823TORRES MARIELA ALEJANDRA   61700000049600+ 00       617
0732 034826ROBLES WALTER DANIEL       61700000000400+ 00       617
C115 034836FERNANDEZ CARLOS RODOLFO   61700000012400+ 00       617
DN15 034837FRANCH LETICIA HEBE        61700000112000+ 00       617
1032 034848BAREIRO FERNANDO JAVIER    61700000024800+ 00       617
3032 034851BLANCO CARLOS RAUL         61700000228000+ 00       617
C632 034854BRIZUELA DIAZ JAVIER ANTONI61700000069800+ 00       617
0232 034861CANESSA ANGEL FACUNDO      61700000037200+ 00       617
0732 034862CARBALLO PABLO ULISES      61700000051200+ 00       617
C532 034869DIAZ NESTOR ROLANDO        61700000032600+ 00       617
1232 034875GAETE LUIS DANIEL          61700000060500+ 00       617
0232 034880GIULIANO RICARDO ARIEL     61700000012400+ 00       617
1932 034882GOMEZ LEONARDO FABIO       61700000012400+ 00       617
C232 034888KAZAN GERARDO ARIEL        61700000054400+ 00       617
C632 034895MACHADO SEBASTIAN EDUARDO  61700000077600+ 00       617
0532 034896MACHUCA DAMIAN GERMAN      61700000028000+ 00       617
0732 034901MORALEZ ADOLFO RUBEN       61700000168000+ 00       617
1532 034904NUNEZ JUAN CARLOS ALBERTO  61700000052700+ 00       617
C132 034905OJEDA JUAN MANUEL          61700000062200+ 00       617
0232 034907ORDOQUI PABLO JUAN MANUEL  61700000062000+ 00       617
0732 034913PEREZ GUSTAVO ARIEL        61700000015600+ 00       617
C132 034919RAMIREZ GERARDO EZEQUIEL   61700000098300+ 00       617
C332 034924ROMAN SERGIO ORLANDO       61700000062000+ 00       617
C232 034926SALAZAR ARTURO HECTOR      61700000012400+ 00       617
DS32 034927SCIGLITANO MARTIN ARIEL    61700000007800+ 00       617
0232 034929SOSA NESTOR EDGARDO        61700000037200+ 00       617
ES32 034930SOSA PABLO FEDERICO        61700000012400+ 00       617
0832 034933TOLABA GUSTAVO ANDRES      61700000007800+ 00       617
DS32 034934URETA JORGE ADRIAN         61700001466800+ 00       617
0231 034938VELAZQUEZ WALTER RAMON     61700000020200+ 00       617
1415 034940VERON RAMON GUSTAVO        61700000024800+ 00       617
0432 034942WALTER GONZALO ANTONIO     61700000131800+ 00       617
1032 034946ALEGRE ZUNILDA ADELAIDA    61700000062000+ 00       617
C432 034948AQUINO LAURA NOELIA        61700000078000+ 00       617
C432 034955GODOY NOHELIA ROXANNA      61700000024800+ 00       617
DS32 034956GOMEZ ISABEL LILIAN        61700000446333+ 00       617
1332 034963PONCE MARINA ALICIA        61700000062000+ 00       617
3232 034964PONT CRISTINA DEL VALLE    61700000124000+ 00       617
0232 034969SALAS ROMINA ESTER         61700000012400+ 00       617
2232 034973VILTE LAURA MABEL          61700000012400+ 00       617
0532 034976MARTINEZ CRISTIAN MARCELO  61700000012400+ 00       617
1932 034982CANAL GRACIELA ROSANA      61700000071600+ 00       617
2232 034991SILVESTRE ANA LAURA        61700000035800+ 00       617
C132 034992VARGAS HUGO ORLANDO        61700000015600+ 00       617
0232 034993VERON GABRIEL SEBASTIAN    61700000024800+ 00       617
0715 034998BRITEZ ARIEL OSCAR         61700000077600+ 00       617
1916 035001CIPOLAT BARES NATALIA      61700000094900+ 00       617
1532 035007GIMENEZ MYRIAN SOLEDAD     61700000000600+ 00       617
AS32 035011MACIEL ROCIO PATRICIA      61700000012400+ 00       617
C215 035014MORALES HUMBERTO SIMON     61700000237400+ 00       617
C115 035025VIGNATI PENEDA             61700000015500+ 00       617
C514 035036CABRERA FERNANDO ALEXIS    61700000045000+ 00       617
1514 035046GAITAN EDUARDO GASTON      61700000093200+ 00       617
DN14 035047GONZALEZ ANDREA BEATRIZ    61700000023300+ 00       617
1914 035052MAIGUA FABIANA CECILIA     61700000012400+ 00       617
C514 035058MEZA ANIBAL ROLANDO        61700000015600+ 00       617
1514 035064PESSOLANI ALDO GASTON      61700000007800+ 00       617
1414 035065RAMOS MAIRA DENISE         61700000091700+ 00       617
DN14 035075VILLALBA VERONICA VANESA   61700000012400+ 00       617
1014 035085JUAREZ MARIO ALBERTO       61700000156000+ 00       617
CF14 035086MELO VICTOR OSVALDO        61700000053000+ 00       617
1514 035088OJEDA CRISTIAN MARCELO     61700000143300+ 00       617
C514 035089PAREDES ROLON MARIA CRISTIN61700000052800+ 00       617
C332 035091ARIAS RODRIGO SEBASTIAN    61700000035800+ 00       617
2232 035096CRUZ AMERICO ALBERTO       61700000087000+ 00       617
0832 035111SEVERICH RAUL OMAR         61700000099600+ 00       617
2232 035116CIARES IVANA DE LOS ANGELES61700000012400+ 00       617
C332 035117DELGADO NORA GABRIELA      61700000007800+ 00       617
2217 035119NOLASCO GRISELDA JUDITH    61700000012400+ 00       617
C332 035135CABALLERO VERONICA VALERIA 61700000162800+ 00       617
1132 035137FERNANDEZ PAOLA VERONICA   61700000024800+ 00       617
OS32 035139HERNANDEZ MARIA EVA        61700000012400+ 00       617
C132 035146VISSO MARIA FLORENCIA      61700000302567+ 00       617
1414 035149CORTES RICARDO DAMIAN      61700000020200+ 00       617
C214 035151MELGAREJO CRISTIAN MATIAS  61700000007800+ 00       617
C132 035157ACOSTA JULIO ANTONIO       61700000071400+ 00       617
C132 035162ALFARO SERGIO LUCAS        61700000012400+ 00       617
0432 035169ARZA TARTAGLIA VICTOR FELIP61700000094700+ 00       617
1932 035178BENITEZ MARIO ALBERTO      61700000012400+ 00       617
0232 035184CASTELLON DANIEL ALBERTO   61700000024800+ 00       617
3532 035185CASTRO ROQUE ARIEL         61700000024800+ 00       617
0732 035186CENTENO JOSE MANUEL        61700000076300+ 00       617
C132 035193ECHAZU JAVIER ENRIQUE      61700000515000+ 00       617
C132 035200GAMARRA PEDRO ALCIDES      61700000012400+ 00       617
3534 035209GONZALEZ RUBEN DARIO       61700000085800+ 00       617
0432 035211GOUTS MAX MAURO            61700000076000+ 00       617
0432 035216HECKER ARIEL MAXIMILIANO   61700000037200+ 00       617
0232 035217HERRERA EZEQUIEL OMAR      61700000907933+ 00       617
C432 035221KLINGER OLIVEIRA VICTOR ALE61700000027900+ 00       617
0232 035225LLANES OSCAR ALEJANDRO     61700000015500+ 00       617
1932 035226LOBOS CRISTIAN HUGO        61700000024800+ 00       617
0832 035240MOLINA JORGE RUBEN         61700000148800+ 00       617
0432 035241MOLLEKER HECTOR LUIS       61700000012400+ 00       617
DS32 035243NEGRETTES MARCELO ARIEL    61700000088400+ 00       617
DS32 035244OJEDA JORGE GASTON         61700000024800+ 00       617
EP32 035245OLIVA ALEJANDRO GASTON     61700000051200+ 00       617
C332 035246ORTIZ DIEGO BERNARDO       61700000111600+ 00       617
0232 035249OVIEDO VILLALBA FAUSTO MARI61700000024800+ 00       617
DS32 035251PENALOZA GIMENEZ CESAR DAMI61700000051200+ 00       617
0832 035252PINAYA ANIBAL DANIEL       61700000007800+ 00       617
OS32 035255QUIROZ OSMAR ENRIQUE       61700000012400+ 00       617
C732 035263RODRIGUEZ JAVIER ANTONIO   61700000052800+ 00       617
C732 035266ROLDAN JORGE OSCAR         61700000256916+ 00       617
DN32 035267ROMERO ANTONIO CARLOS      61700000007800+ 00       617
0832 035268SALAZAR FABIO RUBEN EDUARDO61700000014000+ 00       617
0832 035273SOSA PABLO FERNANDO        61700000091600+ 00       617
0832 035277TERAN MANUEL JOAQUIN       61700000008200+ 00       617
0215 035282VILLALBA MARCELO JAVIER    61700000031200+ 00       617
1632 035283ZABALA LUIS ALBERTO        61700000147800+ 00       617
C215 035286ZAPATA JUAN MANUEL         61700000012400+ 00       617
C232 035290AGUIRRE CRISTIAN ANDRES    61700000214100+ 00       617
C232 035291ARAPIAN SERGIO ROBERTO     61700000007800+ 00       617
C232 035306MEDINA LUIS ADOLFO         61700000045000+ 00       617
DN32 035308PELOZO HECTOR ADRIAN       61700000015500+ 00       617
0532 035324AVILES MARCELO SEBASTIAN   61700000062000+ 00       617
0532 035325DE LA CANAL RAUL ENRIQUE   61700000166400+ 00       617
0532 035326DIAZ MANUEL ALFREDO        61700000140000+ 00       617
0532 035327GARCIA FEDERICO DAMIAN     61700000351400+ 00       617
0532 035328INFANTE JORGE ANTONIO      61700000102800+ 00       617
0532 035332SAN MARTIN PEDRO GUSTAVO   61700000012400+ 00       617
0532 035334VILLARRUEL MARIO ARIEL     61700000052800+ 00       617
0532 035335YANEZ CLAUDIO CRISTIAN     61700000015500+ 00       617
0732 035345FLORES RAMON ANDRES        61700000116400+ 00       617
1432 035352MUNOZ CARLOS ALBERTO       61700000090400+ 00       617
1532 035363AVILES MATIAS OSCAR        61700000012400+ 00       617
C532 035369GUERRERO OSCAR IGNACIO     61700000062000+ 00       617
0532 035370KUNZ MARIO GUILLERMO       61700000059000+ 00       617
0532 035372PONCE LUCAS MATIAS MARTIN  61700000024800+ 00       617
C535 035376ROMERO DANIEL ULISES       61700000160400+ 00       617
C532 035377ROSALES NORBERTO NICOLAS   61700000007800+ 00       617
1532 035380MORALES JULIO EDUARDO      61700000074600+ 00       617
1532 035382VILLAGRA DIEGO DANIEL      61700000188100+ 00       617
C332 035383ALDAVEZ ROSANA BEATRIZ     61700000102600+ 00       617
C532 035384ARAVENA MARCELA ALEJANDRA  61700000088400+ 00       617
C132 035385AROVI VALERIA DE LOS ANGELE61700000012400+ 00       617
1032 035386BESERRA NOELIA ANAHI       61700000037200+ 00       617
C232 035387CENTURION SILVIA VERONICA  61700000038800+ 00       617
DS32 035388DARIA SOFIA ERIKA          61700000012400+ 00       617
C432 035389ENDRIZZI PAULA MARCELA     61700000078000+ 00       617
3535 035393MIRANDA DEOLINDA NOEMI     61700000014000+ 00       617
0732 035399SOLIS CARINA ALEJANDRA     61700000010000+ 00       617
SC32 035400SPERONI NOELIA SOLEDAD     61700000032600+ 00       617
0432 035401URIGUEN MARCELA FABIANA    61700000088400+ 00       617
3032 035405AYENAO LORENA ALEJANDRA    61700000125600+ 00       617
0732 035407VEGA PATRICIA NOELIA       61700000007800+ 00       617
C132 035410AQUINO PABLO JAVIER        61700000024800+ 00       617
0232 035417GONZALEZ DARIO GUILLERMO   61700000016000+ 00       617
0732 035418MENDOZA ARIEL FABIAN       61700000001700+ 00       617
1114 035421OJEDA EDGARDO RAMON        61700000035800+ 00       617
C133 035425SOSA RAMON ARIEL           61700000012400+ 00       617
1132 035427ZALAZAR ARIEL GUILLERMO    61700000048100+ 00       617
1232 035429CANLE SEBASTIAN ROBERTO    61700000124300+ 00       617
1232 035434GONZALEZ JORGE AMERICO     61700000032600+ 00       617
1232 035441PERALTA JUAN MANUEL EMILIO 61700000085400+ 00       617
1232 035442PEREZ GASTON ALBERTO       61700000051200+ 00       617
1232 035449USTARIZ ANGEL DEACOMO      61700000115200+ 00       617
0432 035454LASTRE HECTOR MARIO        61700000012400+ 00       617
1032 035455NISSEN CLAUDIA NOEMI       61700000072900+ 00       617
C433 035459AMODEO SILVANA VERONICA    61700000596067+ 00       617
2233 035465PAREDES JOSE TOMAS         61700000015600+ 00       617
1333 035474PEREZ MARCELA ADRIANA      61700000124000+ 00       617
C133 035508DE LUCIA VANESA HAYDEE     61700000077500+ 00       617
C232 035509DELGADO CRISTIAN JAVIER    61700000683039+ 00       617
C233 035527JUAREZ NASSO LUCIANA MARIA 61700000038800+ 00       617
0815 035539PAREDES DANIELA ROCIO      61700000012400+ 00       617
0215 035542POMETTI ADRIANA ALEJANDRA  61700000102500+ 00       617
RP16 035544RODRIGUEZ GRACIELA MIRNA AN61700000020200+ 00       617
C432 035545RODRIGUEZ MARIELA NATALIA  61700000020200+ 00       617
C132 035550RUIZ MARCELO ALEJANDRO     61700000037200+ 00       617
OS33 035556TOLOSA MARCELA MABEL       61700001054800+ 00       617
0732 035563ISLAN DIEGO RAUL           61700000008200+ 00       617
3432 035567ANDINO ANTONIO SEBASTIAN   61700000102800+ 00       617
3432 035569BENITEZ ANA MARIA          61700000024800+ 00       617
C432 035574DUARTE CLAUDIO DARIO       61700000078000+ 00       617
1132 035577GONZALEZ EDGARDO FAVIO     61700000012400+ 00       617
1132 035578HERRERA ALBERTO DANIEL     61700000056000+ 00       617
EC16 035581LEDESMA CARLOS HORACIO     61700000024800+ 00       617
0432 035582LOBOS ULISES DAMIAN        61700000088600+ 00       617
0433 035593SALVATIERRA PABLO MARTIN   61700000024800+ 00       617
C432 035597TERESCZUK JUAN ANTONIO     61700000076000+ 00       617
C134 035598VERA PEDRO PABLO           61700000755333+ 00       617
C232 035602AQUINO ALEJANDRO MANUEL    61700000080000+ 00       617
1315 035603ASTORGA FERNANDO ANDRES    61700000049600+ 00       617
0815 035615CANDIA FERNANDO GASTON     61700000012400+ 00       617
1032 035622DAVALOS GUSTAVO DANIEL     61700000196900+ 00       617
C132 035631ESPINDOLA WALTER ARIEL     61700000126200+ 00       617
C134 035633ESTECHE GUSTAVO ISAIAS     61700000015500+ 00       617
DS34 035634FELIPE LUCAS EMMANUEL      61700000046500+ 00       617
0214 035641GARCIA GABRIEL ALEJANDRO   61700000012400+ 00       617
C132 035643GOMEZ GABRIEL ALBERTO      61700000037200+ 00       617
1432 035646HUBE MARCELO ZOILO         61700000015600+ 00       617
1132 035649KUCERA LEONARDO DAMIAN     61700000032600+ 00       617
C132 035650LARROZA PEDRO ROLANDO      61700000541200+ 00       617
C132 035664NORIEGA JULIO RICARDO      61700000053000+ 00       617
C232 035675ROMANO RODOLFO DAMIAN      61700000037200+ 00       617
C132 035676ROMERO ARMANDO GUSTAVO EDUA61700000012400+ 00       617
1232 035677RONDEAU FERNANDO RAUL      61700000024800+ 00       617
0232 035685SANTILLAN GERMAN ADOLFO    61700000104000+ 00       617
C115 035688TORRIELLI MIGUEL ANGEL     61700000015500+ 00       617
DS32 035692VEGA ALEJANDRO GABRIEL     61700000032600+ 00       617
1932 035695VIDAL DANIEL ADRIAN        61700000062000+ 00       617
0732 035699ZABALA ARIEL PABLO         61700000008200+ 00       617
0432 035700ZAPATA SMIT DIEGO MAXIMILIA61700000007800+ 00       617
1432 035702QUILODRAN ALEJANDRO GABRIEL61700000060600+ 00       617
0832 035707ALTUNA MIRYAM ELIZABETH    61700000091700+ 00       617
3532 035717CASTRO GISELA NOEMI YAMILA 61700000107600+ 00       617
1132 035720DIAZ RITA                  61700000012400+ 00       617
OS32 035730IBANEZ GABRIELA ALEJANDRA  61700000729567+ 00       617
OS33 035743ROJAS DANIELA VERONICA     61700000071600+ 00       617
C432 035748TINTE CINTIA VALERIA       61700000062000+ 00       617
0232 035750TUCCI ERIKA ISABEL         61700000012400+ 00       617
AS32 035752VERON SANDRA KARINA        61700000118400+ 00       617
EC32 035755LLANES KARINA ANDREA       61700000032600+ 00       617
1032 035759CHAPARRO NESTOR FABIAN     61700000087400+ 00       617
DS32 035762DOMINGUEZ ROBERTO UBALDO   61700000032600+ 00       617
OS32 035767GARCIA MIGUEL ANGEL        61700000386600+ 00       617
DN33 035777ALFONSO PAOLA BEATRIZ      61700000028000+ 00       617
EP32 035778ASSELBORN ROMINA SOLEDAD   61700000012400+ 00       617
0416 035795CORDOBA MARIA EUGENIA      61700000153500+ 00       617
1332 035797FERNANDEZ TABOADA GUADALUPE61700000096100+ 00       617
3033 035798PEREZ ROCIO ELISABET       61700000082200+ 00       617
1332 035802CANALIS ANALIA ANABEL      61700000007800+ 00       617
0833 035805INSAURRALDE ERIKA LUJAN    61700000062400+ 00       617
0733 035810ARTICO DENIER ADRIAN ESTEBA61700000015600+ 00       617
2133 035818DA SILVA DIEGO EZEQUIEL    61700000035800+ 00       617
C515 035820DIAKOVSKY JUDITH NOEMI     61700000070000+ 00       617
C233 035830MEDINA WALTER JAVIER       61700000012400+ 00       617
0432 035848ARRIGHI ESTEBAN OMAR       61700000119200+ 00       617
1032 035849BARRIOS RICARDO ABEL       61700000322800+ 00       617
C632 035850BENITEZ DARIO MARTIN       61700000037200+ 00       617
C132 035852CABRERA LUIS ARMANDO       61700000077800+ 00       617
0732 035866GALARZA CARLOS SIMEON      61700000039000+ 00       617
1432 035872HUENTECOY DAVID FERNANDO   61700000046500+ 00       617
C632 035874LEGUIZAMON JULIO EDGARDO   61700000060800+ 00       617
C132 035875LOPEZ DANIEL SERGIO        61700000024800+ 00       617
C132 035876LOPEZ JULIO CESAR          61700000381316+ 00       617
1932 035877MEDINA VICTOR DANIEL       61700000012400+ 00       617
C132 035878MENDOZA CRISTIAN ALEJANDRO 61700000300875+ 00       617
0732 035880MORILLA PABLO JEREMIAS     61700000074800+ 00       617
DN32 035886RUSSO MARIANO              61700000012400+ 00       617
SC33 035899IBARRA IVANA MARIEL        61700000072900+ 00       617
0232 035907GIMENEZ GABRIELA DEL CARMEN61700000012400+ 00       617
C732 035909GOMEZ DIEGO GABRIEL        61700000038800+ 00       617
C232 035911LOPEZ CLAUDIO HERNAN       61700000012400+ 00       617
1033 035917MEDINA HUGO ARMANDO        61700000805600+ 00       617
OS33 035934ENGEL CARINA ETHEL         61700000961333+ 00       617
1033 035939OLMEDO ANDREA ANAHI        61700000024800+ 00       617
1032 035941CHAMORRO GUSTAVO ANTONIO   61700000012400+ 00       617
1532 035943DOMINGUEZ JUAN CARLOS      61700000200200+ 00       617
1532 035944GALARZA SERGIO RAMON       61700000012400+ 00       617
1532 035946SOSA DANIEL ESTEBAN        61700000035700+ 00       617
0533 035952MANRIQUEZ PATRICIO ALEJANDR61700000059000+ 00       617
1633 035954VILLA JULIO SEBASTIAN      61700000069800+ 00       617
0233 035966BONSIGNORE VERONICA ALEJAND61700000024800+ 00       617
C433 035975CIRIGLIANO PAULA VERONICA  61700000012400+ 00       617
C733 035982GARRAHAN CAROLINA          61700000054600+ 00       617
C133 035984GONZALEZ CIOFFI CECILIA ALE61700000012400+ 00       617
1216 035993NIELI ANDREA CAROLINA      61700000102800+ 00       617
CF16 035994PEREZ FERNANDO DANIEL      61700000986133+ 00       617
DN16 035998TERRILE JULIETA            61700000062000+ 00       617
OS33 036003OVIEDO MONICA MERCEDES     61700000024800+ 00       617
2232 036012HIDALGO RODOLFO ANTONIO    61700000014000+ 00       617
2232 036013NUNEZ ALDO ISMAEL          61700000090400+ 00       617
2232 036016SEGOVIA JORGE ARMANDO      61700000028800+ 00       617
2232 036017SUBIA SERGIO HERNAN        61700000113200+ 00       617
C314 036025ANTIQUEO CRISTINA INES     61700000097800+ 00       617
1514 036039CHAMORRO PEDRO ALFREDO     61700000058400+ 00       617
0716 036042CORIA MAURICIO EMANUEL     61700000074500+ 00       617
EP14 036051FERNANDEZ MATIAS GREGORIO  61700000600000+ 00       617
2214 036063GOMEZ MARIO ALBERTO        61700000024800+ 00       617
C514 036072LEGUIZAMON FERNANDO DANIEL 61700000063600+ 00       617
1614 036077MEDINA JUAN DANIEL         61700000122500+ 00       617
C314 036078MENDOZA CYNTHIA SOLEDAD    61700000023400+ 00       617
0214 036084OLGUIN PAULO SEBASTIAN     61700000046500+ 00       617
0714 036085PALACIOS JUAN MARIANO      61700000038800+ 00       617
C114 036088REJALA RICARDO ALFREDO     61700000600000+ 00       617
C215 036092ROMANCZUK ROSA ELISABET    61700000059300+ 00       617
RP14 036095SANDON SONIA IRENE         61700000024800+ 00       617
2514 036097SEPULVEDA FERNANDO EMANUEL 61700000021800+ 00       617
OS14 036101AGUILAR GABRIELA ANABELA   61700000032600+ 00       617
C315 036104FERNANDEZ CARMEN ROCIO     61700000108700+ 00       617
1214 036115VARANO JOSE LUIS           61700000012400+ 00       617
DT14 036117ZALAZAR NORMA PAOLA        61700000028000+ 00       617
DN32 036126BAREIRO LEANDRO RICARDO    61700000020200+ 00       617
SC32 036128BARRIOS RUBEN ORLANDO      61700000007800+ 00       617
SC32 036133CARDOSO MARIANO ANDRES     61700000076000+ 00       617
C432 036142ERNST GABRIEL ALEJANDRO    61700000037200+ 00       617
0732 036145GAETANI FRANCISCO DANIEL   61700000021800+ 00       617
0832 036151GARCIA PABLO CRISTIAN      61700000112000+ 00       617
C115 036157GONZALEZ HUGO              61700000400000+ 00       617
1032 036160ISENDORF LUCAS EDUARDO     61700000080000+ 00       617
0832 036164LEDESMA DARIO ALFREDO      61700000012400+ 00       617
C132 036165LEDESMA JAVIER OMAR        61700000105800+ 00       617
0832 036171MAIZARES JOSE RAMON        61700000124400+ 00       617
0832 036173MAMANI JAVIER ALEJANDRO    61700000012400+ 00       617
C232 036176MOLINA FACUNDO CRUZ        61700000024800+ 00       617
C232 036187RICCI CHRISTIAN OMAR       61700000038900+ 00       617
1632 036189ROMERO FELIX OSCAR         61700000029600+ 00       617
C132 036193SCHWEIGEL GERARDO MATIAS   61700000007800+ 00       617
1032 036194SOSA NELSON OSCAR          61700000138500+ 00       617
0832 036196SUBIRATS MARIO ANTONIO     61700000037200+ 00       617
C333 036198TORRES MARIANO ARIEL       61700000045000+ 00       617
0832 036199UZQUEDA EMILIO FEDERICO    61700000037700+ 00       617
C132 036201ZAPATA LUCAS EMILIANO      61700000077700+ 00       617
DS32 036204DIEZ MERCEDES ELISABETH    61700000039000+ 00       617
2532 036209SINEO MIRIAM PAOLA         61700000063800+ 00       617
C132 036233ANGEL GOMEZ JUAN CARLOS    61700000012400+ 00       617
C733 036247BARRIOS LUCIANA CAROLINA   61700000012400+ 00       617
DN33 036248CABRAL KARINA LILIANA      61700000076200+ 00       617
OS33 036252GONZALEZ AYELEN            61700000012400+ 00       617
0233 036256PALACIOS ANALIA ROSAURA    61700000012400+ 00       617
AS33 036258URQUIZA SILVIA ZULEMA      61700000012400+ 00       617
AP14 036271OJEDA DAMIAN FACUNDO       61700000900000+ 00       617
C514 036273ROMERO ROGELIO MARTIN      61700000071600+ 00       617
0832 036276DURAN JULIANA CARMEN RAIMUN61700000037200+ 00       617
0833 036280HEREDIA JAIME RUBEN        61700000037200+ 00       617
C432 036293LOPEZ FERNANDO JOSE        61700000015600+ 00       617
0615 036302BATRUNI GUSTAVO GABRIEL    61700000046600+ 00       617
DS32 036306CARDOSO ARIEL ALEJANDRO    61700000021800+ 00       617
2232 036307CARRASCO ADOLFO OSCAR      61700000020200+ 00       617
1632 036310CHOCOBAR JOSE OMAR         61700000504200+ 00       617
C515 036319GONZALEZ SILVIO RODOLFO    61700000110600+ 00       617
C332 036321GUTIERREZ SANTIAGO         61700000254800+ 00       617
C332 036328MAIDANA CARLOS ANDRES      61700000015500+ 00       617
1632 036338OCARANZA WALTER ESTEBAN    61700000086800+ 00       617
0832 036339OROSCO JUAN MANUEL         61700000037200+ 00       617
DS32 036343PEREZ PABLO MARTIN         61700000015500+ 00       617
DS32 036348ROLON GUSTAVO RAMON        61700000122800+ 00       617
C132 036352SPERONI LEONARDO MARTIN    61700000053000+ 00       617
C532 036354SUAREZ WALTER HERNANDO     61700000189900+ 00       617
1432 036356THORP SERGIO ANDRES        61700000074400+ 00       617
1532 036357TOLABA RUBEN MARCELO       61700000012400+ 00       617
3432 036359TORALES RODRIGO ARMANDO    61700001111067+ 00       617
C732 036363CARRILLO ANA CECILIA       61700000052700+ 00       617
0732 036365ETCHEVERRY GABRIELA BEATRIZ61700000152300+ 00       617
C132 036373ALBANO JULIO OSCAR         61700000961333+ 00       617
1032 036378ALVARENGA JUAN ANTONIO     61700000012400+ 00       617
0432 036379ALVAREZ FERNANDO RICARDO   61700000037200+ 00       617
C232 036389BAREIRO GERMAN EMMANUEL    61700000073400+ 00       617
C632 036391BAZAN PABLO SEBASTIAN      61700000073000+ 00       617
C132 036392BENITEZ ALCIDES            61700000177500+ 00       617
1533 036400CAMPOZANO EDGARDO FABIAN   61700000480667+ 00       617
0532 036403CASAL SAUL HORACIO         61700000143600+ 00       617
1133 036409CORREA CLAUDIO JAVIER      61700000024800+ 00       617
1132 036416DOMINGUEZ CRISTIAN GABRIEL 61700000012400+ 00       617
C132 036417DUARTE MARIO RAMON         61700000012400+ 00       617
0732 036419ESCALANTE EDGARDO VICTOR   61700000028000+ 00       617
0732 036429GALLARDO LUIS ALFREDO      61700000079200+ 00       617
0732 036430GARCIA PABLO DANIEL        61700000016200+ 00       617
1032 036431GAUNA RAMON ARIEL          61700000580200+ 00       617
C132 036437GOMEZ JUAN RAMON           61700000053000+ 00       617
1535 036447LEMOS CRISTIAN ADOLFO      61700000024800+ 00       617
C132 036448LENCINA JUAN RAMON         61700000182000+ 00       617
C132 036449LESCANO CARLOS CESAR       61700000600000+ 00       617
C232 036451LOZANO JUAN MIGUEL ALEJANDR61700000015500+ 00       617
1032 036452LUGO EDUARDO ABEL          61700000128000+ 00       617
1132 036459MARCOFF SEBASTIAN PEDRO    61700000107300+ 00       617
C532 036460MARQUEZ ABILIO RAFAEL      61700000145700+ 00       617
DS32 036466MENDOZA MARCELO LUIS       61700000065200+ 00       617
C133 036467MERLO RUBEN HORACIO        61700000012400+ 00       617
1532 036472MORALES SEBASTIAN DIDIER   61700000133400+ 00       617
CF32 036474NOCELLI NORBERTO DAMIAN    61700000038800+ 00       617
C132 036479OJEDA LUCAS DANIEL         61700000037200+ 00       617
1032 036482OVANDO HORACIO FABIAN      61700000484200+ 00       617
C132 036488POZZAGLIO ADRIAN HUMBERTO  61700000312400+ 00       617
0732 036489RAPACCIOLI CLAUDIO JAVIER  61700000038800+ 00       617
1432 036491REYES JOSE MARIA           61700000110200+ 00       617
0733 036492RIOS CLAUDIO CESAR         61700000007800+ 00       617
1132 036494RODRIGUEZ HORACIO HECTOR   61700000051400+ 00       617
0433 036508SEQUEIRA CLAUDIO MARCELO   61700000071400+ 00       617
1132 036514SOSA SERGIO DANIEL         61700000024800+ 00       617
C232 036515SOTELO WALTER ARIEL        61700000037200+ 00       617
1532 036526AVILA MIRTA NOEMI          61700000062100+ 00       617
3533 036528BENITEZ ALBA CRISTINA      61700000015500+ 00       617
3033 036533FLORES ANA BELEN           61700000038800+ 00       617
RP32 036542VENTOS LORENA JESICA       61700001042400+ 00       617
1533 036548FIGUEROA EDGARDO SERGIO    61700000012400+ 00       617
C132 036549GORLERO CRISTIAN LEONARDO  61700000079100+ 00       617
1416 036556ALFONSO SAUCEDO PAOLA YANIN61700000066700+ 00       617
C116 036562DELGADO DANIELA ALDANA     61700000015500+ 00       617
DN16 036563DIAZ MARIA CAROLINA        61700000012400+ 00       617
C416 036571MANSILLA LORENA VIVIANA    61700001167333+ 00       617
1032 036595LOPEZ ORLANDO DANIEL       61700000121800+ 00       617
0432 036596MANZANELLI MAURICIO ROBERTO61700000062000+ 00       617
DS32 036598NUNEZ ODILIO ROBERTO       61700000024800+ 00       617
C132 036600QUEVEDO DANIEL MARCELO     61700000007800+ 00       617
C732 036601SERVENTI LEANDRO JOSE      61700000412000+ 00       617
C433 036607GUERRERO JACINTA           61700000102800+ 00       617
SC33 036608BARBERA CRISTIAN SEBASTIAN 61700000007800+ 00       617
OS32 036614CROSTA ANA INES            61700000024800+ 00       617
C416 036619QUINA MARIA SOL            61700000007800+ 00       617
DN33 036620STISSI ALDANA SOLEDAD      61700000012400+ 00       617
EP33 036622DAGLIO GUSTAVO OMAR        61700000451200+ 00       617
0532 036624BRAVO EDUARDO DAMIAN       61700000234300+ 00       617
0532 036627GATICA JOSE DANIEL         61700000127200+ 00       617
0532 036630MOLINA CARLOS ALFREDO      61700000056000+ 00       617
0532 036631NAVARRETE JOSE CARLOS      61700000007800+ 00       617
0532 036633QUINTREL DANIEL ALBERTO    61700000031000+ 00       617
0532 036634TORRES MARLIN OMAR         61700000176900+ 00       617
C332 036641PALAVECINO LUIS ALBERTO    61700000024800+ 00       617
C133 036646ESPINDOLA NATALIA CINTHIA  61700000357000+ 00       617
0832 036648ARIAS PENA CARLOS DANIEL   61700000024800+ 00       617
0832 036652QUIROZ CARLOS DANIEL       61700000024800+ 00       617
C332 036654RUIZ JUAN GUSTAVO          61700000073000+ 00       617
0832 036657VILTE LUIS CARLOS          61700000012400+ 00       617
1232 036659ANDREU JOSE MARIA          61700000066700+ 00       617
1232 036660ARREGUI GABRIEL ADALBERTO  61700000046600+ 00       617
1232 036665DIEGO SEBASTIAN GABRIEL    61700000085300+ 00       617
1232 036667LERTORA HECTOR PABLO       61700000180000+ 00       617
1232 036668MALDONADO JUAN IGNACIO     61700000020200+ 00       617
1232 036671BARRETO JESSICA ESTER      61700000057400+ 00       617
1632 036678LAMAS CESAR ARIEL          61700000049600+ 00       617
1632 036682PUCHETA DANTE GUSTAVO      61700000090000+ 00       617
1632 036686VILLARROEL MARCOS IVAN     61700000139700+ 00       617
3415 036709GARAY MICHELLON MARIELA CEC61700000012400+ 00       617
1233 036730WILLHUBER LUIS ALFONSO     61700000152200+ 00       617
1032 036735BAREIRO SUSANA             61700000012400+ 00       617
C732 036742CONTRERA LAURA VERONICA    61700000078000+ 00       617
1933 036744ESTEPA LILIANA NOEMI       61700000032600+ 00       617
C433 036749GARCETE ANDREA VIVIANA     61700000012400+ 00       617
0733 036761MACIEL NOELIA JOANA        61700000036600+ 00       617
1932 036765OTAZU NOELIA GISELE        61700000062000+ 00       617
1032 036769RIVERO BETIANA GISELA      61700000024800+ 00       617
SC33 036771ROJAS NANCY LUCRECIA       61700000078000+ 00       617
DN32 036772ROLDAN NANCY PAOLA         61700000012400+ 00       617
0833 036776SEGOVIA CELIA SOLEDAD      61700000012400+ 00       617
C132 036790BRAVO MIGUEL ALEJANDRO     61700000027900+ 00       617
1132 036795CARBALLO JAVIER VICTOR LUIS61700000024800+ 00       617
1033 036804ESPINOSA ROSSO ALBERTO MART61700000062000+ 00       617
0732 036807FERNANDEZ DARDO ARGENTINO  61700000014000+ 00       617
AP32 036809FERNANDEZ RICARDO FABIAN   61700000600000+ 00       617
1033 036816INVERNIZZI FACUNDO MARTIN  61700000126500+ 00       617
1033 036830NUNEZ NELSON ORLANDO       61700000012400+ 00       617
1232 036831PAEZ ANDRES ESTEBAN        61700000012400+ 00       617
C132 036835PEREZ SERGIO ALEJANDRO     61700000020200+ 00       617
0433 036836POGGIO LUCAS SEBASTIAN     61700000131800+ 00       617
C132 036846ROJAS MARTIN ANIBAL        61700000024800+ 00       617
0732 036855ZARINSKY PABLO ADRIAN      61700000008200+ 00       617
0433 036857VENDRAMINI ALEXIS KEVIN    61700000149000+ 00       617
0532 036859MORALES LEANDRO SEBASTIAN  61700000071300+ 00       617
0833 036862VALDERRAMA ABEL CONRADO    61700000115200+ 00       617
C532 036870ESCOBAR SERGIO EDUARDO     61700000007800+ 00       617
1132 036877FRIAS CARLOS GUSTAVO       61700000015500+ 00       617
1232 036878LEVI JOSE ALBERTO          61700000024800+ 00       617
0833 036883ALDANA CAROLINA FABIOLA    61700000012400+ 00       617
0835 036884BATALLANO SONIA BEATRIZ    61700000051200+ 00       617
1033 036892BARRIOS RICHARD ARIEL      61700000007800+ 00       617
3016 036896MAYOL MONICA ARACELI       61700000160200+ 00       617
1333 036904RUHL PABLO ANDRES          61700000101400+ 00       617
1133 036905TOLOZA GUSTAVO FRANCISCO   61700000194200+ 00       617
0532 036909BRITEZ GERARDO RAMON       61700000028000+ 00       617
0735 036910BARRIOS PAOLA MARIA ITATI  61700000007800+ 00       617
OS33 036915CERVINI ALICIA PAULA       61700000012400+ 00       617
OS33 036919FISCHMAN SILVIA ANDREA     61700000024800+ 00       617
DN16 036922KLOSTER LUCILA MARIA       61700000020200+ 00       617
OS33 036926PELTZER JORGE SANTIAGO     61700000007800+ 00       617
1133 036937PERRONE FLORINDO JAVIER    61700000024800+ 00       617
OS33 036938ZOLORZANO GLADYS NOEMI     61700000052700+ 00       617
3033 036939ABBONA MARIA VICTORIA      61700000100800+ 00       617
OS33 036941BOURGEOIS MARIANO OMAR     61700000024800+ 00       617
C633 036943DOMINGUEZ NADIA GISELE     61700000113400+ 00       617
OS33 036946LAGUARDIA FRANCISCO JOSE   61700000024800+ 00       617
0233 036949MORALES PATRICIA VALERIA   61700000015500+ 00       617
C433 036951SANCHEZ ROMINA BEATRIZ     61700000020200+ 00       617
C233 036958BORDON JUAN PABLO          61700000000600+ 00       617
3532 036959BORDON JULIAN MATEO        61700000015600+ 00       617
C333 036962CANCHI HECTOR EDUARDO      61700000217100+ 00       617
0832 036963CRUZ GONZALO SAUL          61700000008800+ 00       617
0832 036964DE LA COLINA JUAN EDUARDO  61700000007800+ 00       617
1433 036966ESCOBAR JESUS CRISTIAN ANDR61700000043400+ 00       617
1932 036973GODOY MARCELO ROMAN        61700001304667+ 00       617
1032 036975GOMEZ FERNANDO DANIEL      61700000007800+ 00       617
0734 036980COLOMA OSCAR IGNACIO       61700000007800+ 00       617
0732 036990MOLINA VICTOR ANIBAL       61700000001000+ 00       617
1133 036993NAVARRO MAURICIO RAMON     61700000049600+ 00       617
C332 036995OJEDA JUAN MANUEL          61700000104200+ 00       617
C333 036997OLIVERA ROLANDO SILVIO     61700000024800+ 00       617
C233 037001OZUNA DOMINGO PASCUAL      61700000007800+ 00       617
2232 037005POZADAS MIGUEL ANGEL       61700000049600+ 00       617
0432 037007QUIROGA SEBASTIAN          61700000077600+ 00       617
C233 037016SALINAS LEANDRO EMMANUEL   61700000024800+ 00       617
OS32 037022SEGOVIA SERGIO BENJAMIN    61700000012400+ 00       617
DS32 037024TOLEDO ALDO ANDRES         61700000015500+ 00       617
C332 037032ZACARIAS CARLOS ALBERTO    61700000037200+ 00       617
1633 037036ACOSTA SILVIA SOLEDAD      61700000054400+ 00       617
0732 037041GOITIA LAURA SOLEDAD       61700000051300+ 00       617
DN32 037045PALACIOS ALBA ROSALIA      61700000023300+ 00       617
1733 037060PENA MIRIAN LUJAN          61700000192000+ 00       617
DN33 037081ALGRANATI ANDREA SOLEDAD   61700000026400+ 00       617
C315 037086ALBARRACIN NESTOR EZEQUIEL 61700000215800+ 00       617
DN14 037088ALVEZ DANIEL HERNAN        61700000012400+ 00       617
1215 037103ESPINOLA ADRIAN RAMON      61700000070000+ 00       617
3215 037105FERNANDEZ DANIEL SEBASTIAN 61700000012400+ 00       617
1215 037110FRISCHEISEIN CARLOS AVELINO61700000110200+ 00       617
2114 037113GIMENEZ JOSE MARIA         61700000031000+ 00       617
DS14 037115GOGLIO MATIAS EZEQUIEL     61700000024800+ 00       617
1614 037116GOMEZ JULIO CESAR          61700000026400+ 00       617
C115 037130MARTINEZ EDUARDO ARIEL     61700000012400+ 00       617
1915 037132MEDINA JUAN ESTEBAN        61700000012400+ 00       617
0215 037133MEDINA RUBEN ALCIDES       61700000007800+ 00       617
C115 037134MEDINA YOLANDA VANESA      61700000600000+ 00       617
C515 037135MENCIA ALEJANDRO EUGENIO   61700000074400+ 00       617
3415 037137MINO LUIS ALBERTO          61700000024800+ 00       617
C215 037140MOLINA SERGIO DANIEL       61700000031000+ 00       617
DN15 037144ORMACHEA GABRIEL ALEJANDRO 61700000012400+ 00       617
1015 037146ORTIZ DIEGO ANTONIO        61700000037200+ 00       617
C415 037147ORTIZ LOURDES NOEMI        61700000012400+ 00       617
SC14 037148OULEHLA EDGAR DAVID        61700000024800+ 00       617
DN15 037152PELOZO CRISTIAN ANDRES     61700000070000+ 00       617
C115 037170VELAZQUEZ FRANCISCO ALBERTO61700000037200+ 00       617
C115 037171VILLALBA DIEGO SAUL        61700000038800+ 00       617
SC15 037172VILLEGAS NOELIA GABRIELA   61700000032600+ 00       617
DN15 037178BIRARELLI MAXIMILIANO      61700000046500+ 00       617
0415 037179BOBADILLA DIEGO MARTIN     61700000028000+ 00       617
3433 037190CARRIZO CLAUDIA MARIANGEL  61700000040300+ 00       617
1032 037194LOPEZ CLAUDIA CRISTINA     61700000082200+ 00       617
DS32 037195MONZON SILVINA LOURDES     61700000085800+ 00       617
1032 037197NISSEN PATRICIA VIVIANA    61700000101200+ 00       617
OS33 037199ARAVENA CRISTIAN WALTER    61700000024800+ 00       617
C233 037210VILLALBA RICARDO           61700000080000+ 00       617
C733 037222DIAZ NATALIA MARIA ELISA   61700000086800+ 00       617
DS32 037235AQUINO GUSTAVO RAMON       61700000012400+ 00       617
1232 037236ARENAS DANIELA PAOLA       61700000012400+ 00       617
1032 037239BAREIRO SANTIAGO ARIEL     61700000277200+ 00       617
0232 037251CACERES DIONEL ENZO        61700000020200+ 00       617
2232 037252CALIVA FRANCISCO DANIEL    61700000049600+ 00       617
0433 037253CARABAJAL FACUNDO MARTIN   61700000015600+ 00       617
0733 037256COLMAN NELSON DANIEL       61700000023800+ 00       617
1133 037265DOLZ MELINA NOELIA         61700000024800+ 00       617
SC33 037273FRIAS MILTON ALEXIS        61700000015500+ 00       617
2233 037275GARCIA GERMAN              61700000062000+ 00       617
1133 037279GOI SILVIA KARINA          61700000065200+ 00       617
2533 037289JACOB MARIBEL SILVINA      61700000199700+ 00       617
1232 037294LINDAO SERGIO ENRIQUE      61700000038800+ 00       617
C233 037297MAGALLANES NORBERTO ESTEBAN61700000343333+ 00       617
DS32 037303MARQUEZ GUSTAVO JAVIER     61700000062000+ 00       617
2133 037314NUNEZ DIEGO SEBASTIAN      61700000024800+ 00       617
SC33 037318OLIVEIRA PATRICIA MARIANA  61700000012400+ 00       617
C233 037327PRIBYL JOSE ANIBAL         61700000015500+ 00       617
3433 037336SANCHEZ CARLOS HUMBERTO    61700000107000+ 00       617
C133 037340SENES DANIEL RAFAEL        61700000052800+ 00       617
C133 037341SILVA PABLO RAMIRO         61700000012400+ 00       617
EP33 037348SUAREZ RICARDO FELIX       61700000012400+ 00       617
C132 037349TORRES CRISTIAN MARCELO    61700000012400+ 00       617
0233 037355VELIZ KARINA FERNANDA      61700000024800+ 00       617
1133 037359ACEVEDO NANCY EDITH        61700000049600+ 00       617
2533 037367BISTERFELD SILVINA LORENA  61700000023300+ 00       617
C533 037374GONZALEZ GERMAN            61700000077600+ 00       617
1933 037377LOMBARDINI ANDREA BEATRIZ  61700000072900+ 00       617
C234 037380OBREGON CANDIDO DAVID      61700000032600+ 00       617
1033 037393GALEANO IRMA NOEMI         61700000012400+ 00       617
C433 037395IBANEZ SOLANGE ALEJANDRA   61700000024800+ 00       617
1933 037399SAENZ VALIENTE JULIA NOEMI 61700000035700+ 00       617
0233 037400SANCHEZ ANALIA CECILIA     61700001123467+ 00       617
0232 037406BOGADO HECTOR HORACIO      61700000056000+ 00       617
3432 037412GIANETTI BRIAN EMMANUEL    61700000079100+ 00       617
1333 037416MOLINA ERIKA ELIZABETH     61700000062000+ 00       617
C233 037417OTAZO ROXANA VERONICA      61700000015600+ 00       617
0832 037419RAMOS ISAAC MARCELO        61700000040400+ 00       617
DS33 037422ROMERO CRISTIAN OSCAR      61700000015500+ 00       617
C433 037424SOTELO ANALIA LORENA       61700000574133+ 00       617
C432 037428ZARACHO BEATRIZ CAROLINA   61700000051200+ 00       617
SC34 037462GOMEZ LUCAS SEBASTIAN      61700000012400+ 00       617
C733 037465NUNEZ ROSA ISABEL          61700000024800+ 00       617
C534 037466PORTILLO KARINA ALEJANDRA  61700000037200+ 00       617
C133 037467RAGGIO ROSAURA BEATRIZ     61700000024800+ 00       617
DN33 037476RAMIREZ CECILIA FABIANA    61700000049600+ 00       617
SC33 037477RICART JENNIFER            61700000103900+ 00       617
3533 037487CAMPOS FEDERICO ROBERTO    61700000040400+ 00       617
3533 037491GIGENA CRISTIAN GABRIEL    61700000007800+ 00       617
3533 037492JUAREZ CRISTIAN EDUARDO    61700000045000+ 00       617
0233 037495TORRES JUAN PABLO          61700000024800+ 00       617
C332 037497ALMIRON PAMELA LUJAN       61700000049600+ 00       617
DN33 037498AYALA PAOLA MALVINA        61700001480800+ 00       617
3532 037501ROMERO NORMA CECILIA       61700000114900+ 00       617
1133 037502SANCHEZ VALERIA GISELLE    61700000023400+ 00       617
C716 037513ADORNO ROMINA NOELIA       61700000024800+ 00       617
2533 037514BERTORELLO MASCARO GILDA PA61700000012400+ 00       617
3533 037519ENRIQUEZ RAMON ORLANDO     61700000082200+ 00       617
0434 037522PERON FEDERICO MANUEL      61700000024800+ 00       617
C733 037541GONZALEZ LILIANA GABRIELA  61700000012400+ 00       617
C332 037558SAMANIEGO ALBERTO AMADO    61700000292800+ 00       617
0233 037560SANTANA SEBASTIAN ALBERTO  61700000060500+ 00       617
1033 037565CUELLAR CELESTINO          61700000156600+ 00       617
OS33 037574MARTINEZ MARIA DE LOS ANGEL61700000020200+ 00       617
DS33 037577RAMIREZ JESSICA BETTIANA   61700000023300+ 00       617
C216 037579SALINAS GUADALUPE BELEN    61700000057400+ 00       617
CF34 037583CORONEL DANIEL EDUARDO     61700000024800+ 00       617
0234 037585FRIAS CARLOS DANIEL        61700000012400+ 00       617
C134 037586JARA DIEGO EMANUEL         61700000023400+ 00       617
DS33 037599WOLHEIN SABRINA SOLEDAD    61700000023400+ 00       617
C733 037602ROBBONE DAMIAN CRISTIAN    61700000015500+ 00       617
DS32 037603GONZALEZ ROSANA            61700000012400+ 00       617
C234 037618BORGES ROBERTO OSCAR       61700000012400+ 00       617
DN34 037619CALVIMONTE GABRIEL ALEJANDR61700000012400+ 00       617
OS34 037622ROSALES MIRIAM NANCY       61700000027900+ 00       617
OS34 037623SANCHEZ VANESA SOLEDAD     61700002183067+ 00       617
DS33 037630SILVA DIEGO ANGEL          61700000012400+ 00       617
C415 037634ACUNA CINTIA AGUSTINA      61700000012400+ 00       617
0215 037641BONFANTTI DIEGO ALBERTO    61700000062100+ 00       617
C115 037646BUSTOS FERNANDO EZEQUIEL   61700000057700+ 00       617
0215 037647CABRAL LEONARDO FAVIO      61700000102800+ 00       617
DS15 037651CASTRO DIEGO RICARDO       61700000037500+ 00       617
C415 037652CASTRO GISELA ROMINA       61700000028000+ 00       617
DN15 037657ESPECHE PAULA NOELIA ANABEL61700000222200+ 00       617
C415 037672LEDESMA IRMA GABRIELA BEATR61700000263300+ 00       617
0215 037677MARTINEZ LUIS GERARDO      61700000110800+ 00       617
0515 037682MELO NATALI SOLEDAD        61700000031100+ 00       617
DN15 037683MERELES MAXIMILIANO ANDRES 61700000549333+ 00       617
0415 037686MOLINA LUMILA ANTONIA      61700000173900+ 00       617
C415 037688NOCETTI ELBA VERONICA      61700000055800+ 00       617
0416 037689OJEDA JUAN PABLO           61700000117000+ 00       617
C415 037699PIRIS ROSANA ELIZABETH     61700001237200+ 00       617
0215 037702RAMOS JESUS ORLANDO        61700000049800+ 00       617
0215 037706REYNAGA ENZO FRANCO DARIO  61700000012400+ 00       617
0215 037721MARTINEZ JORGE DANIEL      61700000031000+ 00       617
DN15 037722ALVAREZ MARIA BELEN        61700000900000+ 00       617
C415 037725CASTILLOS JESUS REINALDO SE61700000031000+ 00       617
0416 037734ORIANI MARIANELA           61700000228100+ 00       617
0216 037742ALDAVEZ GUILLERMO RAUL     61700000012400+ 00       617
1433 037746ANADON RAUL ALBERTO        61700000183400+ 00       617
C232 037748ARANDA LUIS                61700000048200+ 00       617
3533 037750ARIAS CRISTIAN ALEXIS      61700000063600+ 00       617
C233 037753AVALOS JAVIER ALBERTO      61700000023300+ 00       617
C533 037756BARRIOS ARIEL RICARDO JESUS61700000031000+ 00       617
1132 037759BENITES IGNACIO RAMIRO     61700000068400+ 00       617
C733 037765BONFANTI ALEJANDRO DANTE   61700000012400+ 00       617
1033 037770BRUNEL RICARDO JOSE        61700000064000+ 00       617
0433 037773BUSTAMANTE CRISTIAN DANIEL 61700000086800+ 00       617
C733 037775CABRERA OSCAR EMILIO       61700000012400+ 00       617
C433 037779CANTEROS ANDRES ARMANDO    61700000007800+ 00       617
C433 037785CHAVEZ JUAN ALBERTO        61700000007800+ 00       617
C432 037791DESIMONE RODRIGO ANDRES    61700000600000+ 00       617
C133 037793DIEGUEZ LEANDRO MAXIMILIANO61700000024800+ 00       617
1933 037800ESPINDOLA CLAUDIO DANIEL   61700000020200+ 00       617
C133 037802FERNANDEZ HECTOR RENE      61700000040400+ 00       617
0233 037804FERNANDEZ DIEGO SEBASTIAN  61700000012400+ 00       617
0233 037812GAONA JORGE DANIEL         61700000037200+ 00       617
1033 037828INSFRAN CESAR ANTONIO      61700000064000+ 00       617
C232 037832LEDESMA VICTOR ALEJANDRO   61700000015600+ 00       617
1633 037836LOTO LUIS ALBERTO          61700000007800+ 00       617
DS33 037838LUQUE GABRIEL EDUARDO      61700000012400+ 00       617
1917 037841MAMANI MARTIN ROBERTO      61700000043400+ 00       617
0833 037848MARTINEZ DIEGO ADRIAN      61700000012400+ 00       617
SC33 037855MORALES MAURO ALEJANDRO    61700000024800+ 00       617
C233 037859MORINIGO LUCAS EZEQUIEL    61700000900000+ 00       617
1033 037861MURA GUSTAVO ORLANDO       61700000176200+ 00       617
C133 037862MURIAS FERNANDO ULISES     61700000012400+ 00       617
DS33 037868ORTEGA GUSTAVO FABIAN      61700000032600+ 00       617
0232 037881RANELLI DANIEL ANGEL       61700000012400+ 00       617
C333 037887RIVERO VICTOR              61700000107000+ 00       617
DS32 037904SILGUERO ERNESTO JUAN CARLO61700000062200+ 00       617
3433 037906SOTELO SEBASTIAN GABRIEL   61700000012400+ 00       617
DS33 037908STRUCIAT HORACIO AGUSTIN   61700000332800+ 00       617
C133 037909SUAREZ RODRIGO ALEJANDRO   61700000046500+ 00       617
C233 037912TOLABA HUGO ORLANDO        61700000038800+ 00       617
0233 037913TOLEDO PABLO ARIEL RAMON   61700000007800+ 00       617
C133 037914TONN CRISTIAN JONATAN      61700000600000+ 00       617
1933 037916TORRES AXEL CLAUDIO        61700000039000+ 00       617
3433 037918VALDEZ CRISTIAN ANDRES     61700000052800+ 00       617
1133 037919VALLEJOS JOSE GUILLERMO    61700000007800+ 00       617
C333 037922VARELA DIEGO SEBASTIAN     61700000087100+ 00       617
DS33 037925WORNAT FRANCISCO MATIAS    61700000012400+ 00       617
3432 037927ACOSTA MARCELA LUCIANA     61700000037200+ 00       617
C433 037929ALVAREZ SILVINA ROXANA     61700000078000+ 00       617
1433 037931DIAZ CAROLINA SOLANGE      61700000049600+ 00       617
0233 037939GIMENEZ CINTIA VANESA      61700000046500+ 00       617
C433 037943GONZALEZ LORENA NATALIA    61700000012400+ 00       617
DS33 037945GONZALEZ ROCIO SOLEDAD     61700000031100+ 00       617
C733 037947LAURE VANINA GISELLE       61700000024800+ 00       617
1633 037949LUNA MARTA VIRGINIA        61700000040000+ 00       617
SC33 037950MENDOZA ROSANA BEATRIZ     61700000020600+ 00       617
3433 037953PALACIO NATALIA CAROLINA   61700000015500+ 00       617
C433 037959PEREZ EDITH ALICIA         61700000015500+ 00       617
0233 037963RAMIREZ FANNY ELIZABETH    61700000035700+ 00       617
C433 037964RIQUELME PAOLA GISELLE     61700000049600+ 00       617
1433 037966RODRIGUEZ ALEGRE CYNTIA ROM61700000139700+ 00       617
1933 037990DENING PABLO ERNESTO       61700001030000+ 00       617
ES16 038005GOMEZ GUSTAVO GABRIEL      61700000961333+ 00       617
1633 038006GOMEZ DIONISIO ALBERTO     61700000023300+ 00       617
0616 038012LENCINAS DALIA YOLANDA     61700000031000+ 00       617
C533 038020NICOTRA ARIEL FERNANDO     61700000080600+ 00       617
OS33 038026RODRIGUEZ MIRTA ANALIA     61700001363800+ 00       617
C133 038028SANDOVAL MARIO ALEJANDRO   61700000012400+ 00       617
C434 038033VERA ALDANA SABRINA        61700000658200+ 00       617
0434 038037BORTHIRY CYNTHIA GUADALUPE 61700000062000+ 00       617
C134 038041CASTELLI VICTOR HUGO       61700000015500+ 00       617
C234 038042ESCOBAR MARISA LUCIA       61700000012400+ 00       617
0434 038048PEREZ AGUSTIN EMILIANO     61700000054400+ 00       617
C533 038055ARENAS CINTIA LORENA       61700000146100+ 00       617
0433 038057BARBERA MARIA CELESTE      61700000007800+ 00       617
OS33 038061DINO ALDANA SOLEDAD        61700000400000+ 00       617
0233 038063GUTIERREZ MARISA GABRIELA  61700000051200+ 00       617
DN33 038064MATEO MARIANA GISELLE      61700000012400+ 00       617
0216 038066RAGGIO MALDONADO ROSA VANIN61700000012400+ 00       617
C533 038070VERA CLAUDIA PAOLA         61700000012400+ 00       617
DS33 038076GONZALEZ LEANDRO MATIAS    61700000446333+ 00       617
DS34 038078ZAYAS JORGE VALENTIN       61700000031000+ 00       617
1033 038079RODRIGUEZ MIGUEL ANGEL     61700000086900+ 00       617
C333 038080ROJAS ROMINA ELIZABETH     61700000024800+ 00       617
1533 038083ARROYO MAURO EZEQUIEL      61700000035700+ 00       617
1133 038085BERON MARTIN ADRIAN        61700000037200+ 00       617
C133 038089CAMPOS ADRIAN GASTON       61700000045300+ 00       617
1033 038097MOLINA MENDEZ ANA FLORENCIA61700000128000+ 00       617
2533 038098PASCUAL ANDREA BEATRIZ     61700000090400+ 00       617
1317 038103TORINO VALERIA SOLEDAD     61700000116400+ 00       617
C133 038104VELARDEZ GERARDO EZEQUIEL  61700000012400+ 00       617
C434 038110CABANA SOLEDAD ALCIRA      61700000031000+ 00       617
0434 038112FRANK JESUS ALBERTO        61700000181600+ 00       617
SC34 038114GUARINO YANINA SOLEDAD     61700000091500+ 00       617
C133 038115LOPEZ LEANDRO IVAN         61700000015600+ 00       617
DN34 038119PERALTA MARCELA ALEJANDRA  61700000012400+ 00       617
DS34 038120POLAK CRISTIAN ALBERTO     61700000012400+ 00       617
C634 038121SOSA ALEJANDRA ISABEL      61700000015500+ 00       617
0233 038123DOMINGUEZ ROMINA ELIZABETH 61700000012400+ 00       617
3533 038125GONZALEZ SONIA MARILU      61700000031100+ 00       617
C533 038128SUELDO VERONICA ALEJANDRA  61700000084400+ 00       617
SC33 038129BENITEZ NUNEZ GRACIELA     61700000083700+ 00       617
0233 038130CABALERI JESICA ROMINA     61700000012400+ 00       617
1534 038142JURADO RICARDO RAMON       61700000024800+ 00       617
C333 038152SOLANO ALDO DANIEL         61700000125800+ 00       617
1616 038159GUTIERREZ LEONOR           61700000046600+ 00       617
C534 038164CARTES JAVIER FERNANDO     61700000049600+ 00       617
0215 038179SAMUDIO LEONARDO EZEQUIEL  61700000755333+ 00       617
0215 038181RUIZ DIAZ ADAN             61700000480667+ 00       617
C215 038185SILVA MEZA MARCELO EZEQUIEL61700000074400+ 00       617
