DN10 025716MEDINA RAUL EDUARDO        62000000711300+ 00       620
DN10 027546MEZA CRISTINA MABEL        62000000711300+ 00       620
DN10 027572VELARDE JUAN EDUARDO       62000000711300+ 00       620
C211 028165ROJAS TOMAS CEFERINO       62000000711300+ 00       620
DN10 028168ROMERO PABLO CESAR         62000000711300+ 00       620
C511 028179TOKAYUK MARCELO HORACIO    62000000711300+ 00       620
DN10 029213ACUNA RICARDO ALBERTO      62000000711300+ 00       620
C211 029216AQUINO GABRIEL ESTEBAN     62000000711300+ 00       620
RP11 029262MONTENEGRO MARCELO OSCAR   62000000711300+ 00       620
0211 029289SUAREZ WALTER DARIO        62000000711300+ 00       620
DN10 029512GONZALEZ NESTOR DANIEL     62000000711300+ 00       620
C110 029517MOREL DIEGO ALEJANDRO      62000000711300+ 00       620
C411 029518SORIA JUAN MANUEL          62000000711300+ 00       620
0611 029559MEDINA GUSTAVO ALBERTO     62000000711300+ 00       620
DN11 029562OLIVERA JOSE JULIAN        62000000711300+ 00       620
DN11 029575CANTEROS CRISTIAN ALFREDO  62000000711300+ 00       620
DN11 029577LOREIRO SERGIO FABIAN      62000000711300+ 00       620
C211 029757CERRUDO FACUNDO SEBASTIAN  62000000711300+ 00       620
C412 029763BLANCO ROSANA GRACIELA     62000000711300+ 00       620
RP11 029775GONZALEZ POMYKALA DIEGO DAV62000000711300+ 00       620
0712 029780LEZCANO GUSTAVO FABIAN     62000000711300+ 00       620
C211 029788MERINO CARLOS ADRIAN       62000000711300+ 00       620
0211 029802SORIA MERCADO ISMAEL ADALBE62000000711300+ 00       620
DN11 029810SANCHEZ CRISTIAN JAVIER    62000000711300+ 00       620
C614 029864BALGUENET CARLOS RODOLFO   62000000486300+ 00       620
1412 030019FERNANDEZ DIMAS JAVIER     62000000711300+ 00       620
1211 030025ALVELA ESTEBAN ALBERTO     62000000711300+ 00       620
1511 030033CANESSINI ALEJANDRO ADRIAN 62000000711300+ 00       620
1912 030036CRIPPA RAUL CESAR          62000000711300+ 00       620
0411 030039GONZALEZ ALEJANDRO ESTEBAN 62000000711300+ 00       620
DS11 030040GONZALEZ ROQUE ADRIAN      62000000711300+ 00       620
OS11 030044MALICH PABLO ELISEO        62000000711300+ 00       620
EP11 030047PAIVA GRISELDA ANALIA      62000000711300+ 00       620
2212 030086SOLAR MARTIN CEFERINO      62000000711300+ 00       620
DN12 030404PAOLUCCI NATALIA ALEJANDRA 62000000711300+ 00       620
3412 030406ZARATE LUCRECIA ARACELI    62000000711300+ 00       620
C112 030513ALDERETE RICARDO EVELIO    62000000711300+ 00       620
C215 030523CANESSINI JORGE DARIO      62000000486300+ 00       620
3412 030529FLORES DIEGO OSCAR         62000000711300+ 00       620
C412 030544PAVON PAOLA BEATRIZ        62000000711300+ 00       620
1312 030549ROMEO GUSTAVO MARTIN       62000000711300+ 00       620
C112 030550SEGOVIA ENRIQUE GUILLERMO  62000000711300+ 00       620
DN11 030559GOROSITO CARBALLO FABIO REN62000000711300+ 00       620
0212 030560HERRERA NELSON DAVID       62000000711300+ 00       620
C513 030561LEGUIZAMON RAMON JULIAN    62000000486300+ 00       620
DN11 030562QUINTRAMAN JORGE ALEJANDRO 62000000711300+ 00       620
0212 030938SENOFF JORGE MARCELO       62000000711300+ 00       620
CF12 030942CABRERA DANIEL ALEJANDRO   62000000711300+ 00       620
C612 030950FIORINO MARIA DE LOS MILAGR62000000711300+ 00       620
DS12 030954GONZALEZ JORGE ABRAHAM     62000000711300+ 00       620
0212 030959MASOERO NESTOR ARIEL       62000000711300+ 00       620
ES12 030967RAICH WALTER ARIEL         62000000711300+ 00       620
C112 030973SOTO ALDO DANIEL           62000000711300+ 00       620
C112 030974VARGAS RICARDO ALBERTO     62000000711300+ 00       620
C513 031257WACELINKA ALDO PABLO JOSE  62000000486300+ 00       620
DN12 031322FIGUEROA TRABADO JOSE LUIS 62000000711300+ 00       620
C613 031396FERNANDEZ FERNANDO HERNAN  62000000486300+ 00       620
C513 031398MALICH FRANCO ABELARDO     62000000486300+ 00       620
C512 031399BLANCO MARCELO ESTEBAN     62000000711300+ 00       620
CF12 031401MEZA FERNANDO ARIEL        62000000711300+ 00       620
0212 031402GARCIA DIEGO ALBERTO       62000000711300+ 00       620
C413 031407LLANO YOLANDA ESTER        62000000486300+ 00       620
0412 031408VALENZUELA RAFAEL OMAR     62000000711300+ 00       620
EP12 031409RIOS OSCAR MANUEL          62000000711300+ 00       620
C312 031412GUAYMAS MAXIMILIANO DEMETRI62000000711300+ 00       620
1012 031415ROMAN MIGUEL ALBERTO       62000000711300+ 00       620
1012 031416LUNA MAURICIO SEBASTIAN    62000000711300+ 00       620
1512 031420RIQUELME PEDRO FABIAN      62000000711300+ 00       620
C212 031425PEDRAZA CARLOS RUBEN       62000000711300+ 00       620
DS12 031431ESCALANTE CRISTIAN FERNANDO62000000711300+ 00       620
DN12 031434MATHIEU EMILIANA URSULA    62000000711300+ 00       620
0614 031465OCAMPO WALTER HORACIO      62000000486300+ 00       620
C114 031483SANCHEZ JAVIER GUSTAVO     62000000486300+ 00       620
C130 031844BREST ANDREA GABRIELA      62000000250000+ 00       620
1915 032019SEQUEIRA GONZALEZ SEBASTIAN62000000486300+ 00       620
C512 032027PALACIOS DIEGO MANUEL      62000000711300+ 00       620
0212 032031SALTO DAFNE ROSANA         62000000711300+ 00       620
1713 032040ARANDA HORACIO JAVIER      62000000486300+ 00       620
DN12 032041AYALA PABLO MANUEL         62000000711300+ 00       620
C212 032042AYALA REYNALDO DANIEL      62000000711300+ 00       620
CF13 032045CARO CARLOS ALEJANDRO      62000000486300+ 00       620
C213 032049FERNANDEZ JOSE ORLANDO     62000000486300+ 00       620
0413 032051GIMENEZ IVAN JAVIER        62000000486300+ 00       620
3012 032052HERRERA SERGIO VICTOR      62000000711300+ 00       620
DN13 032053HERRERO FRANCO             62000000486300+ 00       620
OS13 032055JARA MARCELO FABIAN        62000000486300+ 00       620
C113 032057MACIEL LUIS ERBERTO        62000000486300+ 00       620
3413 032059MEDINA RENE RAMON          62000000486300+ 00       620
C113 032061REAL ARIEL NOLBERTO        62000000486300+ 00       620
C112 032064SIRI SEBASTIAN ALEJANDRO   62000000711300+ 00       620
C112 032065SOLIS GLADYS ELIZABETH     62000000711300+ 00       620
C112 032069RODRIGUEZ RAUL ALBERTO     62000000711300+ 00       620
C113 032130ALFONZO GUSTAVO ARIEL      62000000486300+ 00       620
C114 032283PISANI JOSE LUIS           62000000486300+ 00       620
C114 032315SUSSINI CARLOS FERNANDO    62000000486300+ 00       620
DN13 032339SANTAMARIA MARIA DANIELA   62000000486300+ 00       620
DT12 032496WOBORIL RAUL ALOIS         62000000711300+ 00       620
DT14 032533GONZALEZ HANNA DIEGO ALEJAN62000000486300+ 00       620
0715 032625AQUINO RAFAEL ALEJANDRO    62000000486300+ 00       620
C214 032653CANDIA DANIEL ARTURO       62000000486300+ 00       620
SC15 032654CARDOZO LUIS ANTONIO       62000000486300+ 00       620
C114 032660CISNEROS PABLO GUILLERMO   62000000486300+ 00       620
DN15 032740NIETO LUIS ALBERTO         62000000486300+ 00       620
0515 032742NUNGESSER JUAN MANUEL      62000000486300+ 00       620
C215 032768REY JORGE DANIEL           62000000486300+ 00       620
C414 032769RIO DANIEL GERVASIO        62000000486300+ 00       620
C615 032782SANCHEZ PABLO MATIAS       62000000486300+ 00       620
DS15 032889MEDINA RAUL ALEJANDRO      62000000486300+ 00       620
DS13 032993AQUINO NATALIA ANDREA      62000000486300+ 00       620
C413 032999CARUSO LORENA PAOLA        62000000486300+ 00       620
0213 033000CATRILEO JUAN VICTOR       62000000486300+ 00       620
1313 033001CENTURION NATALIA SOLEDAD  62000000486300+ 00       620
C113 033003CIMBARO JAVIER RAMON       62000000486300+ 00       620
C513 033005DIAZ CRISTIAN ADOLFO       62000000486300+ 00       620
C413 033008FUERTES SONIA VIVIANA      62000000486300+ 00       620
SC13 033010GALMARINI CRISTIAN DANIEL  62000000486300+ 00       620
C113 033012GUTTLEIN NATALIO ORTENCIO  62000000486300+ 00       620
0713 033014JUAREZ ROLANDO FIDEL       62000000486300+ 00       620
0613 033015LIZARDIA JUAN CARLOS       62000000486300+ 00       620
0613 033016LOPEZ JORGE LUIS           62000000486300+ 00       620
C113 033021MEDINA LEANDRO ARIEL       62000000486300+ 00       620
CF13 033022MEDINA MIGUEL ANGEL        62000000486300+ 00       620
C113 033027MORENO JORGE DANIEL        62000000486300+ 00       620
C113 033028MUGICA NAHUEL              62000000486300+ 00       620
C213 033034RIGONATTO DIEGO ENRIQUE    62000000486300+ 00       620
C313 033038SARMIENTO HUGO ALBERTO     62000000486300+ 00       620
C113 033039SOSA FRANCISCO ALBERTO     62000000486300+ 00       620
DN12 033040SUSSINI JAVIER ALEJANDRO   62000000711300+ 00       620
0613 033041TISSONE ALEJANDRO JAVIER   62000000486300+ 00       620
SC13 033043TORRENS MARIANO EDUARDO    62000000486300+ 00       620
C413 033044URQUIZA SANDRA MARIELA     62000000486300+ 00       620
DN13 033046VARGAS VIVIANA BEATRIZ     62000000486300+ 00       620
C213 033048VILCAVIL NESTOR JAVIER     62000000486300+ 00       620
0513 033052MACIOCHA JUAN PABLO        62000000486300+ 00       620
SU13 033055ROMAN CORONEL JORGE MARTIN 62000000486300+ 00       620
OS13 033058MUNOZ GASTON ISMAEL        62000000486300+ 00       620
C416 033100DIAZ SERGIO ARIEL          62000000250000+ 00       620
EC16 033115GALEANO LEANDRO            62000000250000+ 00       620
DN13 033207ALLENDE MARIA ANGELICA     62000000486300+ 00       620
0215 033280SILVERIO DARIO SEBASTIAN   62000000486300+ 00       620
OS14 033291SERVAT FRANCO WALTER HERNAN62000000486300+ 00       620
OS15 033341FLORES MARIANA VERONICA    62000000486300+ 00       620
C313 033413ACOSTA SILVANA PATRICIA    62000000486300+ 00       620
DN13 033414AGUILAR PAULO ISRAEL       62000000486300+ 00       620
DS13 033419CHAMORRO SERGIO OMAR       62000000486300+ 00       620
DN13 033420CUEVAS ALBERTO ANTONIO     62000000486300+ 00       620
DS13 033423ESPINOZA SABRINA SOLEDAD   62000000486300+ 00       620
0413 033426GIACOMETTI JORGE ALFREDO   62000000486300+ 00       620
0213 033428LESCANO FABIAN GUSTAVO     62000000486300+ 00       620
SC13 033431ORELLANA LEONARDO EZEQUIEL 62000000486300+ 00       620
0713 033433POLIDORI JOSE LEONARDO     62000000486300+ 00       620
0213 033436TORRES NATALIA INES        62000000486300+ 00       620
0213 033438VILLEGAS PATRICIA CECILIA  62000000486300+ 00       620
EP15 033440CIDOSKI CARLOS ESTEBAN     62000000486300+ 00       620
1114 033441GONZALEZ DAIANA ESTEFANIA  62000000486300+ 00       620
1913 033443MEZA CAROLINA PAOLA        62000000486300+ 00       620
ES13 033445FUERTES MILENA RUTH        62000000486300+ 00       620
C613 033447GONZALEZ SILVIA ALEJANDRA  62000000486300+ 00       620
OS14 033448GUTIERREZ SANDRO ALBERTO   62000000486300+ 00       620
3513 033449MINO MARCELO OSCAR         62000000486300+ 00       620
C413 033450NUNEZ PAULA CAROLINA       62000000486300+ 00       620
C115 033465BOGADO JORGE ISIDRO        62000000486300+ 00       620
3415 033518NUNEZ LUIS ALFREDO         62000000486300+ 00       620
C215 033726BONETI EDUARDO JAVIER      62000000486300+ 00       620
0714 033781BLANCO JUAN MANUEL         62000000486300+ 00       620
C116 033835CARO CLAUDIO ALEJANDRO     62000000250000+ 00       620
3515 033883SANCHEZ CESAR LUIS         62000000486300+ 00       620
1932 033907GODOY ALBERTO ELIGIO       62000000250000+ 00       620
SC14 033909ACOSTA FERNANDEZ ROSA MARIA62000000486300+ 00       620
0715 033936GAONA CLAUDIO MARCELO      62000000486300+ 00       620
C115 033942LUNA CLAUDIO ADOLFO        62000000486300+ 00       620
DS15 034040SOLIS CRISTIAN DANIEL      62000000486300+ 00       620
C113 034088ALCARAZ HECTOR EDGARDO     62000000486300+ 00       620
C213 034089ALCARAZ ILIANA MARIANELA   62000000486300+ 00       620
0213 034094BRAVO MANUEL ALEJANDRO     62000000486300+ 00       620
1914 034097ESCALANTE OSCAR ADOLFO     62000000486300+ 00       620
C413 034099ESPINOSA MARIA LUZ DE LOS A62000000486300+ 00       620
C513 034101GOMEZ OSVALDO ADRIAN       62000000486300+ 00       620
C113 034104GUTIERREZ NORBERTO ALEJANDR62000000486300+ 00       620
C213 034105GUTIERREZ RAMON ADRIAN     62000000486300+ 00       620
1015 034107IRALA MAURO ALEJANDRO      62000000486300+ 00       620
DN13 034119PAREDES SEBASTIAN ALBERTO  62000000486300+ 00       620
1013 034121PERALTA JORGE              62000000486300+ 00       620
1613 034137TURIANO DIEGO EZEQUIEL     62000000486300+ 00       620
AP13 034139ZACARIAS VIVIANA HAYDEE    62000000486300+ 00       620
C214 034142ACUNA FRANCISCO JAVIER     62000000486300+ 00       620
0214 034143ARMOA ARY BRAHIN           62000000486300+ 00       620
0714 034146LEDESMA CARLOS ADRIAN      62000000486300+ 00       620
2114 034149OTAZU SERGIO MARTIN        62000000486300+ 00       620
DN16 034185DI PAULO JUAN MANUEL       62000000250000+ 00       620
0718 034219MOSQUEDA CAROLINA MARIA ITA62000000250000+ 00       620
3213 034383LALANDA JULIO JONATAN      62000000486300+ 00       620
DS14 034385MERLO JOSE LUIS            62000000486300+ 00       620
1713 034386ORELLANA FABIAN ALEJANDRO  62000000486300+ 00       620
C216 034450ABATTE SOSA CHRISTIAN ARIEL62000000250000+ 00       620
DN15 034457ARANDA VICTOR CRUZ         62000000486300+ 00       620
C515 034471BRAVO MARIO DARIO          62000000486300+ 00       620
1015 034636MINARRO CLAUDIO ERNESTO    62000000486300+ 00       620
C132 034682BITRAN GABRIELA SUSANA     62000000250000+ 00       620
C515 034716MARTINEZ WALTER EDUARDO    62000000486300+ 00       620
C115 034874FRIAS ANTONIO BERNABE      62000000486300+ 00       620
0415 034911PAREDES SERGIO EZEQUIEL    62000000486300+ 00       620
1415 034940VERON RAMON GUSTAVO        62000000486300+ 00       620
0715 034998BRITEZ ARIEL OSCAR         62000000486300+ 00       620
2215 035009IVANOVICH JOSE ROBERTO     62000000486300+ 00       620
1715 035024VELAZQUEZ HUGO FACUNDO     62000000486300+ 00       620
1914 035052MAIGUA FABIANA CECILIA     62000000486300+ 00       620
C714 035060MOREL SAMANTA JUDIT        62000000486300+ 00       620
C314 035067ROJAS MARINA SOLEDAD       62000000486300+ 00       620
2514 035081ANDRADA SEBASTIAN ANTONIO  62000000486300+ 00       620
DN15 035087MORIONES JAVIER MARTIN     62000000486300+ 00       620
CF15 035160AGUIRRE CRISTIAN ALEJANDRO 62000000486300+ 00       620
0215 035282VILLALBA MARCELO JAVIER    62000000486300+ 00       620
0615 035340CANTEROS MARCOS ADRIAN     62000000486300+ 00       620
0816 035540PEREZ PABLO AUGUSTO        62000000250000+ 00       620
EC16 035581LEDESMA CARLOS HORACIO     62000000250000+ 00       620
1315 035603ASTORGA FERNANDO ANDRES    62000000486300+ 00       620
0815 035615CANDIA FERNANDO GASTON     62000000486300+ 00       620
3415 035624DE LOS SANTOS CRISTIAN DARI62000000486300+ 00       620
C216 035668OVIEDO JUAN MIGUEL         62000000250000+ 00       620
C115 035688TORRIELLI MIGUEL ANGEL     62000000486300+ 00       620
0732 035746SANCHEZ NAVARRO GLORIA MABE62000000250000+ 00       620
0732 035803GAMARRA MANUEL GABRIEL     62000000250000+ 00       620
1617 035835SALAZAR JOSE ANTONIO       62000000250000+ 00       620
C115 035854CARRIZO ALEJANDRO JAVIER   62000000486300+ 00       620
C315 035865FRANCO DIEGO ARMANDO       62000000486300+ 00       620
DS15 035873LEDESMA JUAN EDUARDO       62000000486300+ 00       620
C115 035896ALONSO CRISTIAN MARCELO    62000000486300+ 00       620
C115 035956ACOSTA FERNANDEZ CAROLINA V62000000486300+ 00       620
1214 036034CAMANO AMALIA SOLEDAD      62000000486300+ 00       620
0214 036038CENTURION JESUS MARIA      62000000486300+ 00       620
1514 036039CHAMORRO PEDRO ALFREDO     62000000486300+ 00       620
C614 036044DELLAGNOLO CRISTIAN MARCELO62000000486300+ 00       620
EP14 036051FERNANDEZ MATIAS GREGORIO  62000000486300+ 00       620
1714 036054FRETES GUILLERMO DANIEL    62000000486300+ 00       620
C114 036056GALLAGHER WALTER HERNAN    62000000486300+ 00       620
1214 036060GAUTO RAUL CESAR           62000000486300+ 00       620
C614 036061GOMEZ GABRIELA ELIZABETH   62000000486300+ 00       620
C114 036065GONZALEZ JOSE MATIAS       62000000486300+ 00       620
0214 036073LESCANO GASTON EMANUEL     62000000486300+ 00       620
DN14 036076LUNA SANDRA MELISA         62000000486300+ 00       620
1614 036077MEDINA JUAN DANIEL         62000000486300+ 00       620
1714 036082OCAMPO NESTOR FABIAN       62000000486300+ 00       620
AP14 036086PEREZ VICTOR ARIEL         62000000486300+ 00       620
0815 036107KIRILUK GONZALO FABIAN     62000000486300+ 00       620
C215 036110PIRIZ BLANCO ROBERTO AMADEO62000000486300+ 00       620
0614 036112SANABRIA CESAR DANIEL      62000000486300+ 00       620
1214 036115VARANO JOSE LUIS           62000000486300+ 00       620
1414 036116VARGAS SERGIO MARTIN       62000000486300+ 00       620
C114 036270GOMEZ ACOSTA MAURO EXEQUIEL62000000486300+ 00       620
0615 036302BATRUNI GUSTAVO GABRIEL    62000000486300+ 00       620
SC14 036386AVILA CRISTIAN EDUARDO     62000000486300+ 00       620
C115 036505SANCHEZ CESAR GABRIEL      62000000486300+ 00       620
C116 036517TOLOZA RUBEN DARIO         62000000250000+ 00       620
C116 036562DELGADO DANIELA ALDANA     62000000250000+ 00       620
C416 036571MANSILLA LORENA VIVIANA    62000000250000+ 00       620
1616 036579RODRIGUEZ MARTA CLARISA    62000000250000+ 00       620
C416 036619QUINA MARIA SOL            62000000250000+ 00       620
0415 036714MIRAMONT INES              62000000486300+ 00       620
3515 036852TOLEDO MANUEL ALEJANDRO    62000000486300+ 00       620
1615 036911ALVERO MARIA CAROLINA      62000000486300+ 00       620
C215 037084AGUERO SERGIO NICOLAS      62000000486300+ 00       620
C315 037086ALBARRACIN NESTOR EZEQUIEL 62000000486300+ 00       620
C115 037087ALDERETE NESTOR NICOLAS EMM62000000486300+ 00       620
C414 037093BERNARDIS CRISTINA GISELA  62000000486300+ 00       620
SC15 037094BLANCO LEONARDO NICOLAS    62000000486300+ 00       620
C315 037095BOLLE MONICA RAQUEL        62000000486300+ 00       620
EP15 037096BRUNEL LUIS FERNANDO       62000000486300+ 00       620
DS15 037097CABRERA RICARDO EMMANUEL   62000000486300+ 00       620
C615 037098CANTERO RAFAEL IGNACIO     62000000486300+ 00       620
SC15 037100CARUSO CLAUDIO MARCELO     62000000486300+ 00       620
C115 037101DONNET JONATAN SERGIO      62000000486300+ 00       620
3215 037105FERNANDEZ DANIEL SEBASTIAN 62000000486300+ 00       620
C314 037106FERNANDEZ VICTOR HUGO      62000000486300+ 00       620
0716 037107FERNANDEZ WALTER DARIO     62000000250000+ 00       620
1515 037109FRANCO OLGA VALERIA        62000000486300+ 00       620
1215 037110FRISCHEISEIN CARLOS AVELINO62000000486300+ 00       620
1715 037112GALEANO JAVIER ANGEL DE JES62000000486300+ 00       620
DS15 037114GODOY ERICA NOELIA         62000000486300+ 00       620
DS14 037115GOGLIO MATIAS EZEQUIEL     62000000486300+ 00       620
DS15 037117GONZALEZ ALAN DIEGO        62000000486300+ 00       620
2515 037118GONZALEZ JAVIER ALEJANDRO  62000000486300+ 00       620
C515 037119GONZALEZ JORGE MARIANO     62000000486300+ 00       620
C415 037120GUERRA IVANA MARIEL        62000000486300+ 00       620
C114 037122KOULOSKI PAULINO JAVIER    62000000486300+ 00       620
CF15 037123LEDESMA EDUARDO OSCAR      62000000486300+ 00       620
C115 037124LEIVA EVARISTO DANIEL      62000000486300+ 00       620
C215 037125LOMBARDINI ARNALDO GASTON  62000000486300+ 00       620
C316 037126LOPEZ JUAN MANUEL          62000000250000+ 00       620
C114 037127LOVEY GUSTAVO DANIEL       62000000486300+ 00       620
3015 037128MAIDANA GUSTAVO DANIEL     62000000486300+ 00       620
AP15 037129MANCUELLO CRISTIAN ARIEL   62000000486300+ 00       620
C115 037130MARTINEZ EDUARDO ARIEL     62000000486300+ 00       620
1915 037132MEDINA JUAN ESTEBAN        62000000486300+ 00       620
0215 037133MEDINA RUBEN ALCIDES       62000000486300+ 00       620
C115 037134MEDINA YOLANDA VANESA      62000000486300+ 00       620
0215 037138MINO MARTIN EDILBERTO      62000000486300+ 00       620
C215 037139MIRANDA EDUARDO FABIAN     62000000486300+ 00       620
C215 037140MOLINA SERGIO DANIEL       62000000486300+ 00       620
0616 037142MURDOCH FERNANDO RAMON     62000000250000+ 00       620
1015 037146ORTIZ DIEGO ANTONIO        62000000486300+ 00       620
C415 037147ORTIZ LOURDES NOEMI        62000000486300+ 00       620
SC14 037148OULEHLA EDGAR DAVID        62000000486300+ 00       620
C715 037149OVIEDO MARIELA EDITH       62000000486300+ 00       620
C514 037150PAREDES CLAUDIA ANDREA     62000000486300+ 00       620
C215 037153PEREIRA FRANCO EXEQUIEL    62000000486300+ 00       620
C615 037154RAMIREZ SAMANTA GRACIELA   62000000486300+ 00       620
C215 037155RIVERO ROCIO BEATRIZ       62000000486300+ 00       620
C416 037156ROCABADO DANIEL ALBERTO    62000000250000+ 00       620
0214 037157RODRIGUEZ ENRIQUE RAMON    62000000486300+ 00       620
1114 037158RODRIGUEZ SIXTO ANTONIO    62000000486300+ 00       620
C215 037159ROTELA GABRIEL EDUARDO     62000000486300+ 00       620
1015 037161SANTILLAN RICARDO ARIEL    62000000486300+ 00       620
DS15 037162SAUCEDO JONATHAN JORDAN    62000000486300+ 00       620
DS15 037163SILVA MEZA MATIAS EDUARDO  62000000486300+ 00       620
CF14 037165SOSA MAXIMILIANO EMANUEL   62000000486300+ 00       620
C515 037166STOLL CARLOS RODRIGO       62000000486300+ 00       620
ES14 037168UZAIN RAMON ALEJANDRO      62000000486300+ 00       620
C214 037169VELARDE ALDO SEBASTIAN     62000000486300+ 00       620
C115 037170VELAZQUEZ FRANCISCO ALBERTO62000000486300+ 00       620
SC15 037172VILLEGAS NOELIA GABRIELA   62000000486300+ 00       620
C115 037173WESTER MARCOS BRIAN RAMON  62000000486300+ 00       620
0215 037174ZACARIAS CRISTIAN NESTOR   62000000486300+ 00       620
C415 037176BENOZIO ROCIO BELEN        62000000486300+ 00       620
C415 037177BIRARELLI HECTOR LEANDRO   62000000486300+ 00       620
DN14 037181MALVASO VICENTE SIMON      62000000486300+ 00       620
0515 037182OLMEDO EMMANUEL ULISES     62000000486300+ 00       620
1314 037184PAREDES CARLOS EMMANUEL    62000000486300+ 00       620
ES15 037185PARRA ALEXANDRA BEATRIZ    62000000486300+ 00       620
DN17 037445MAUREGUI JIMENA ELISABET   62000000250000+ 00       620
EP14 037546PARRA MARCELO DAVID        62000000486300+ 00       620
C116 037547ALVAREZ FRANCO DAMIAN      62000000250000+ 00       620
C615 037633ABREGU JONATHAN MAXIMILIANO62000000486300+ 00       620
C415 037634ACUNA CINTIA AGUSTINA      62000000486300+ 00       620
DS15 037635ALCARAZ CYNTHIA GISELLE    62000000486300+ 00       620
C615 037636ALVAREZ MATIAS EZEQUIEL    62000000486300+ 00       620
C515 037637AMARO MARCOS ESTEBAN       62000000486300+ 00       620
DN15 037638BANEGAS KARINA DEL CARMEN  62000000486300+ 00       620
0215 037641BONFANTTI DIEGO ALBERTO    62000000486300+ 00       620
C715 037643BRAVO ADRIANA ROMINA       62000000486300+ 00       620
0415 037645BRYS MARTIN SANTIAGO       62000000486300+ 00       620
C115 037646BUSTOS FERNANDO EZEQUIEL   62000000486300+ 00       620
0215 037647CABRAL LEONARDO FAVIO      62000000486300+ 00       620
2115 037649CARDOZO ESPINOSA MARCOS EZE62000000486300+ 00       620
DS15 037651CASTRO DIEGO RICARDO       62000000486300+ 00       620
C415 037652CASTRO GISELA ROMINA       62000000486300+ 00       620
C115 037655DIDONE WALDEMAR OSCAR      62000000486300+ 00       620
SC15 037656DORREGO NICOLAS ENRIQUE    62000000486300+ 00       620
C115 037658FERNANDEZ LEONARDO DE JESUS62000000486300+ 00       620
DN15 037660FLORES NAHIR ROCIO MAILEN  62000000486300+ 00       620
C115 037662GLOCK LEONARDO ARIEL       62000000486300+ 00       620
C415 037665GOMEZ PAMELA IVANA         62000000486300+ 00       620
C515 037666GRAELLS LEANDRO JULIO      62000000486300+ 00       620
1415 037668IBANEZ MARCELO RICARDO     62000000486300+ 00       620
C415 037672LEDESMA IRMA GABRIELA BEATR62000000486300+ 00       620
DT15 037674MAIDANA JUAN CARLOS        62000000486300+ 00       620
0215 037676MARQUEZ LEONIDAS ALEJANDRO 62000000486300+ 00       620
0215 037677MARTINEZ LUIS GERARDO      62000000486300+ 00       620
C115 037679MAZACOTE RUBEN DARIO       62000000486300+ 00       620
C115 037680MEDINA CRISTIAN LUIS       62000000486300+ 00       620
0515 037682MELO NATALI SOLEDAD        62000000486300+ 00       620
DN15 037683MERELES MAXIMILIANO ANDRES 62000000486300+ 00       620
C415 037684MEZA LEILA MARINA          62000000486300+ 00       620
0415 037686MOLINA LUMILA ANTONIA      62000000486300+ 00       620
ES15 037687MULLER VERONICA ROMINA     62000000486300+ 00       620
C415 037688NOCETTI ELBA VERONICA      62000000486300+ 00       620
0416 037689OJEDA JUAN PABLO           62000000250000+ 00       620
SC15 037691OTAZU SERGIO ADRIAN        62000000486300+ 00       620
CF15 037692OVIEDO NESTOR FABIAN       62000000486300+ 00       620
C515 037694PAREDES RUBEN EMANUEL      62000000486300+ 00       620
0515 037695PAREDES RUBEN GASTON       62000000486300+ 00       620
1515 037696PEREZ RUBENS ADRIAN GASTON 62000000486300+ 00       620
C215 037698PEREZ DORREGO SERGIO DANIEL62000000486300+ 00       620
C315 037700PONCE GUTIERREZ GISELLE INE62000000486300+ 00       620
C415 037701QUINTANA GISELA ROCIO      62000000486300+ 00       620
0215 037702RAMOS JESUS ORLANDO        62000000486300+ 00       620
0415 037703RAMOS MANUEL ANGEL         62000000486300+ 00       620
C615 037704RAMOS MILANO FEDERICO      62000000486300+ 00       620
C115 037705RECALDE MARCELO DANIEL     62000000486300+ 00       620
0215 037706REYNAGA ENZO FRANCO DARIO  62000000486300+ 00       620
DS15 037709RODRIGUEZ EMANUEL ALEJANDRO62000000486300+ 00       620
EP15 037711ROJAS MONICA YANINA DALILA 62000000486300+ 00       620
C115 037712ROMERO WALTER HERNAN       62000000486300+ 00       620
0215 037713SOSA MARIANO EZEQUIEL      62000000486300+ 00       620
CF15 037719VERON MARCELA ALIANA       62000000486300+ 00       620
C415 037725CASTILLOS JESUS REINALDO SE62000000486300+ 00       620
1615 037727FERNANDEZ MARCOS SEBASTIAN 62000000486300+ 00       620
CF15 037730POCLAVA PABLO LUCIANO      62000000486300+ 00       620
1915 037731SORIA GERARDO GERMAN       62000000486300+ 00       620
0216 037742ALDAVEZ GUILLERMO RAUL     62000000250000+ 00       620
0733 037951NUNEZ CINTIA SOLEDAD       62000000250000+ 00       620
3517 037997FIAD MANUEL HORACIO        62000000250000+ 00       620
ES16 038005GOMEZ GUSTAVO GABRIEL      62000000250000+ 00       620
1617 038029SANJINES ANDREA EVANGELINA 62000000250000+ 00       620
1933 038069TOLEDO EZEQUIEL LEONARDO   62000000250000+ 00       620
1316 038084BERON PAULA VIRGINIA       62000000250000+ 00       620
1133 038085BERON MARTIN ADRIAN        62000000250000+ 00       620
3017 038094MASOERO DIEGO ALBERTO      62000000250000+ 00       620
1715 038175JARA MAXIMILIANO ARIEL     62000000486300+ 00       620
C215 038177TOLEDO PABLO SEBASTIAN     62000000486300+ 00       620
C315 038178BRITEZ CRISTIAN RAMON      62000000486300+ 00       620
0215 038179SAMUDIO LEONARDO EZEQUIEL  62000000486300+ 00       620
AP15 038180ZIPAN ALBERTO PEDRO SANTIAG62000000486300+ 00       620
0215 038181RUIZ DIAZ ADAN             62000000486300+ 00       620
CF15 038182MENDOZA GUILLERMO DAVID    62000000486300+ 00       620
C515 038183MATEVE MARTIN              62000000486300+ 00       620
2115 038184PERNOCHI ANGELA EVELYN     62000000486300+ 00       620
C215 038185SILVA MEZA MARCELO EZEQUIEL62000000486300+ 00       620
3516 038201SANDEZ RUBEN OSVALDO       62000000250000+ 00       620
C516 038209PAVON DANIEL ANSELMO       62000000250000+ 00       620
C516 038226ACHUCARRO DANIEL SEBASTIAN 62000000250000+ 00       620
C434 038336ALDERETE SALVATIERRA VERONI62000000250000+ 00       620
CF16 038462GONZALEZ ANA LAURA         62000000250000+ 00       620
C715 038475ALAVAR ALICIA DE LOS ANGELE62000000486300+ 00       620
1615 038476ALCARAZ SOTO JORGE DANIEL  62000000486300+ 00       620
C115 038477AMARGAN AUGUSTO ORLANDO    62000000486300+ 00       620
C315 038478AMARILLA NANCY MERCEDES    62000000486300+ 00       620
C115 038481BAEZ ADRIAN ESTEBAN        62000000486300+ 00       620
CF15 038482BERNAL LOURDES VIVIANA     62000000486300+ 00       620
CF15 038484BOLLE GISELLA DORIS        62000000486300+ 00       620
C215 038485CANDIA MAIRA JUDITH        62000000486300+ 00       620
C715 038487CARRIZO VELASQUEZ CINTIA AL62000000486300+ 00       620
0615 038489CORTES RUBEN               62000000486300+ 00       620
C416 038490CUELLAR MALVINA ANDREA     62000000250000+ 00       620
DS15 038491CUSI CRISTIAN FEDERICO GONZ62000000486300+ 00       620
CF15 038492DALDOVO JOSE MARIA         62000000486300+ 00       620
CF15 038493DOMINGUEZ CRISTIAN EMMANUEL62000000486300+ 00       620
0215 038495ESCOBAR ALFREDO ANDRES     62000000486300+ 00       620
C215 038496FERNANDEZ FERNANDO FABIAN  62000000486300+ 00       620
C115 038498FERNANDEZ WALTER IVAN      62000000486300+ 00       620
OS15 038500FRIAS ELSA TRINIDAD        62000000486300+ 00       620
1315 038501GALLARDO MARIANELA SOLANGE 62000000486300+ 00       620
0215 038503GIMENEZ GABRIEL ANGEL      62000000486300+ 00       620
C516 038505GONZALEZ DANIEL RAMON      62000000250000+ 00       620
1316 038506GUZMAN MARIA FIORELLA      62000000250000+ 00       620
C415 038508LEGUIZAMON ARIANA PATRICIA 62000000486300+ 00       620
C515 038509LEMOS CORIA PABLO SEBASTIAN62000000486300+ 00       620
0215 038510MALDONADO ANGEL JOSUE      62000000486300+ 00       620
C115 038511MARTINEZ MARTIN EXEQUIEL   62000000486300+ 00       620
0215 038512MARTINEZ MATIAS MAURO      62000000486300+ 00       620
0215 038513MEDICI HUGO FACUNDO        62000000486300+ 00       620
C115 038514MIKULAS HERNAN EDGARDO     62000000486300+ 00       620
C215 038515MINO JUAN MANUEL           62000000486300+ 00       620
C415 038517MORA MARIANA GISELLE       62000000486300+ 00       620
C615 038518OVIEDO MATIAS ALEJANDRO    62000000486300+ 00       620
0215 038519PAREDES SANCHEZ BENITO ELIA62000000486300+ 00       620
0415 038520PARRA RICHARD ANATOLI      62000000486300+ 00       620
C215 038521PEDRIDO FRANCO LEONARDO    62000000486300+ 00       620
C115 038523PEREYRA HERNAN RAMIRO      62000000486300+ 00       620
C515 038524PEREZ ARTURO MIGUEL ANGEL  62000000486300+ 00       620
C115 038525PONSETTO GODALI NELSON ESTE62000000486300+ 00       620
0215 038526PRIETO LEONARDO FABIAN     62000000486300+ 00       620
C115 038527QUIROZ HECTOR RAUL         62000000486300+ 00       620
1615 038528RIGONATTO ANTONIO EMMANUEL 62000000486300+ 00       620
0216 038529RIVAROLA MATIAS SEBASTIAN  62000000250000+ 00       620
CF15 038530RIVERO MARTIN ALEJANDRO    62000000486300+ 00       620
C715 038531RODRIGUEZ EDITH ANALIA     62000000486300+ 00       620
C515 038539SIRI GERMAN ALBERTO        62000000486300+ 00       620
DN15 038540SORIA MARIA EUGENIA        62000000486300+ 00       620
C415 038541SOSA MARIA LIDIA           62000000486300+ 00       620
0815 038542SOTO VICTOR DAMIAN         62000000486300+ 00       620
SC15 038543SULLCA ARIEL CELEDONIO MART62000000486300+ 00       620
AP15 038544TITO FRANCO ANTONIO        62000000486300+ 00       620
1915 038545TORRES GONZALO SEBASTIAN   62000000486300+ 00       620
C215 038546VERA MARCELA LIDIA         62000000486300+ 00       620
0616 038548VILLALOBO LUCIANA SAMANTA  62000000250000+ 00       620
EP15 038549YEGROS SIXTA CONCEPCION    62000000486300+ 00       620
0215 038551ZAPATA FACUNDO EMANUEL     62000000486300+ 00       620
0215 038556FIGUEROA FACUNDO NICOLAS   62000000486300+ 00       620
DN15 038563PEREZ PAWELKOWSKI JULIA VIC62000000486300+ 00       620
RP15 038565TEODORO ROMINA PAOLA       62000000486300+ 00       620
CF16 038569CAGGIANO HUGO ANDRES       62000000250000+ 00       620
DN15 038613ALARCON SAULO LEONARDO     62000000486300+ 00       620
CF15 038615CANETE ALFREDO RENE        62000000486300+ 00       620
C115 038616RUSSO RICARDO HERNAN       62000000486300+ 00       620
C215 038618GUTIERREZ DIEGO ARMANDO    62000000486300+ 00       620
C217 038666CANELO MARIA CECILIA       62000000250000+ 00       620
C316 038847FERNANDEZ CINTIA GRISELDA  62000000250000+ 00       620
CF16 038857PENNA VANINA PAOLA         62000000250000+ 00       620
C234 038868ZERON MATIAS HERNAN        62000000250000+ 00       620
0417 039093DI PAOLO MARIA NOEL        62000000250000+ 00       620
0717 039094FLEITAS DIEGO ANTONIO      62000000250000+ 00       620
RP17 039103RAMIREZ LUCAS MATIAS       62000000250000+ 00       620
C317 039137CHAUQUE JULIETA RAQUEL     62000000250000+ 00       620
C616 039157ALBARENGA ROSANA           62000000250000+ 00       620
3515 039158ALVARADO ROGELIO ABEL      62000000486300+ 00       620
DN15 039159ANASGO ANDREA SILVANA DEL V62000000486300+ 00       620
C216 039160ARANDIGA EMILIANO          62000000250000+ 00       620
C216 039161ARAUJO ADRIAN OMAR         62000000250000+ 00       620
C315 039162AVEIRO JUAN MANUEL         62000000486300+ 00       620
1916 039164BAREIRO FERNANDA BEATRIZ   62000000250000+ 00       620
C416 039165BAREIRO GABRIELA NOEMI     62000000250000+ 00       620
C215 039166BAREIRO JUAN PABLO         62000000486300+ 00       620
C116 039169BENITEZ ARMANDO RAMON      62000000250000+ 00       620
SC15 039172BUSTOS JOSE LUIS           62000000486300+ 00       620
C416 039173CABALLERO SILVANA NOELIA   62000000250000+ 00       620
OS15 039174CARAMINOLA GONZALEZ JOAN MA62000000486300+ 00       620
C716 039179CRUZ ROMINA ELIZABETH      62000000250000+ 00       620
C115 039184FLORES LUCAS SEBASTIAN     62000000486300+ 00       620
3516 039185FRANCO CRISTIAN GABRIEL    62000000250000+ 00       620
C215 039186FRANCO FEDERICO MARTIN     62000000486300+ 00       620
EP16 039189GARCIA MABEL               62000000250000+ 00       620
DS15 039192GONZALEZ LEONARDO XAVIER   62000000486300+ 00       620
0816 039194IBANEZ NESTOR FERNANDO ALBE62000000250000+ 00       620
DN15 039195INSAURRALDE MARCOS BRAHIM  62000000486300+ 00       620
C315 039197LEANO ALFREDO GUSTAVO      62000000486300+ 00       620
AP15 039199LOPEZ SEBASTIAN ANDRES     62000000486300+ 00       620
C615 039201MARIN CECILIA MICAELA      62000000486300+ 00       620
C215 039202MARTINEZ GUSTAVO ALEJANDRO 62000000486300+ 00       620
C715 039203MAYO DALMA FERNANDA        62000000486300+ 00       620
0515 039204MEDICI FERNANDO ANIBAL     62000000486300+ 00       620
SC15 039207MILESI FERNANDO OSCAR      62000000486300+ 00       620
C215 039210NITTMANN HENRY DANIEL      62000000486300+ 00       620
1516 039213PARRA LAURA RAQUEL         62000000250000+ 00       620
1716 039215PINERO DA SILVA DIEGO FERNA62000000250000+ 00       620
DS15 039217RICART ESTEFANIA           62000000486300+ 00       620
1116 039218RIQUELME MAXIMILIANO NICOLA62000000250000+ 00       620
ES15 039220ROSAS MARIO MATIAS         62000000486300+ 00       620
C215 039222SORIA JULIO HERNAN         62000000486300+ 00       620
0215 039223SUONELA EDGARDO MATILDO    62000000486300+ 00       620
DN15 039224TONIOLO ELIAS EMANUEL      62000000486300+ 00       620
DN15 039225TORRENS FEDERICO ESTEBAN   62000000486300+ 00       620
C615 039226TORRES GONZALO JAVIER      62000000486300+ 00       620
2115 039229VILLALBA JAVIER MAMERTO    62000000486300+ 00       620
0215 039231VILTE MARIO NICOLAS        62000000486300+ 00       620
C315 039234CRUZ SEBASTIAN JORGE       62000000486300+ 00       620
C615 039236INSAURRALDE MIRNA SOLEDAD  62000000486300+ 00       620
C516 039237MENDOZA MILLAR ELIAS IVAN  62000000250000+ 00       620
C716 039238SANABRIA LUZ YANINA        62000000250000+ 00       620
DN15 039239SANCHEZ ALEJANDRA ROSALIA  62000000486300+ 00       620
EP16 039240SANCHEZ ERIKA NEREA ELIZABE62000000250000+ 00       620
DN15 039241SANTANDER MARIA JULIETA CAR62000000486300+ 00       620
3434 039515CENCHA FRIAS GASTON LEONARD62000000250000+ 00       620
C215 039532FERMAN JAVIER MARIANO      62000000486300+ 00       620
CF16 039556MC CUBBIN WILSON ROGER     62000000250000+ 00       620
DN17 039593FIORENTINO BUZARQUIZ MAURO 62000000250000+ 00       620
DT16 039684RODRIGUEZ ALEJANDRO EZEQUIE62000000250000+ 00       620
C115 039695LESCANO MARTIN LUIS        62000000486300+ 00       620
1516 039696MOSQUEIRA ARIEL LEANDRO    62000000250000+ 00       620
DS16 039697VOGLER PAUL STEFANO        62000000250000+ 00       620
DN15 039698MANGUELLO WALTER EZEQUIEL  62000000486300+ 00       620
DT15 039701MONZON EZEQUIEL DAVID      62000000486300+ 00       620
0217 039804DUARTE IVAN EZEQUIEL       62000000250000+ 00       620
1434 039964ABRAHAM ADRIAN MARCELO     62000000250000+ 00       620
C117 039989CEPEDA SUSANA ELIZABETH    62000000250000+ 00       620
C117 039997ESPINOZA ESTEFANIA         62000000250000+ 00       620
C116 040019RODRIGUEZ REGUEIRO ANDREA B62000000250000+ 00       620
AP15 040038INSAURRALDE CARLOS RENE    62000000486300+ 00       620
C316 040039PANIAGUA JONATAN GUILLERMO 62000000250000+ 00       620
0417 040177MELGARE MARINA MARISA      62000000250000+ 00       620
C517 040185PONTE MARILEN MERCEDES     62000000250000+ 00       620
0615 040230SAIEGG RUTH ELISA          62000000486300+ 00       620
CF16 040328ALAVAR LUIS JOSUE          62000000250000+ 00       620
C216 040330ALEJO DIEGO JAVIER         62000000250000+ 00       620
3516 040331ALVAREZ RICARDO GABRIEL    62000000250000+ 00       620
C116 040332ARCE KAREN JOHANA          62000000250000+ 00       620
C116 040334BARRIOS CLAUDIO PAUL       62000000250000+ 00       620
0216 040335BENITEZ FRANCISCO ISAAC    62000000250000+ 00       620
0716 040336BENITEZ DIEGO HERNAN       62000000250000+ 00       620
C516 040337BENITEZ EDGARDO NEREO      62000000250000+ 00       620
ES16 040340BUSTOS DANIELA SOLEDAD     62000000250000+ 00       620
C216 040341CACERES JOSE EZEQUIEL      62000000250000+ 00       620
C416 040343CANTEROS GOMEZ ERIK ELIESER62000000250000+ 00       620
DS16 040345CENTENO MAXIMILIANO NAHUEL 62000000250000+ 00       620
1916 040348CRUZ OSCAR FERNANDO        62000000250000+ 00       620
0216 040349CUELLAR CRISTIAN ANGEL GABR62000000250000+ 00       620
C116 040350DELGADO JORGE ARIEL        62000000250000+ 00       620
SC16 040352DOMINGUEZ PAOLA GISELLA    62000000250000+ 00       620
C216 040353DUARTE JORGE MARCELO       62000000250000+ 00       620
C116 040355EIJO LEANDRO JAVIER        62000000250000+ 00       620
C416 040356ENSINA CAROLINA SOLEDAD    62000000250000+ 00       620
0416 040358ESTRADA JONATHAN JAVIER    62000000250000+ 00       620
C416 040359FERNANDEZ FABIANA SABRINA  62000000250000+ 00       620
DS16 040361FLORES ARY NAHUEL          62000000250000+ 00       620
3016 040362FLORES ELIANA              62000000250000+ 00       620
EP16 040363GARCIA YOANA GISEL         62000000250000+ 00       620
C516 040364GIMENEZ WILMAR RAMON       62000000250000+ 00       620
0216 040365GIMENEZ MARIA DEL CARMEN   62000000250000+ 00       620
DN16 040366GOMEZ FEDERICO GABRIEL     62000000250000+ 00       620
C616 040367GOMEZ IAN AGUSTIN          62000000250000+ 00       620
1016 040368GOMEZ RUBEN DARIO          62000000250000+ 00       620
1616 040369GUTIERREZ NICOLAS EZEQUIEL 62000000250000+ 00       620
2516 040370HABERKON GONZALO NAHUEL    62000000250000+ 00       620
C416 040371HURTADO ALVEZ CAMILA ALEJAN62000000250000+ 00       620
0216 040372KUSMERIK SERGIO MAURO      62000000250000+ 00       620
0216 040373LEDESMA FABIAN             62000000250000+ 00       620
1916 040380MEZA JOSE DAVID            62000000250000+ 00       620
DN16 040381MEZA ROLANDO OWEN          62000000250000+ 00       620
1216 040382MORLIO MIGUEL JONAS        62000000250000+ 00       620
C116 040383OTAZU DANIEL PEDRO MANUEL  62000000250000+ 00       620
C516 040387PONCE MAXIMILIANO EZEQUIEL 62000000250000+ 00       620
C116 040388QUIROZ LUIS ALBERTO        62000000250000+ 00       620
DS16 040389REALES PEDRO SALOMON       62000000250000+ 00       620
C516 040390ROMERO RICHARD ADRIAN      62000000250000+ 00       620
DS16 040393SANCHEZ MAURICIO OSVALDO   62000000250000+ 00       620
0216 040395VILTES LUIS ALBERTO        62000000250000+ 00       620
C116 040399BLANCO EDUARDO JAVIER      62000000250000+ 00       620
0816 040401DURANDAL YANINA ZULEMA     62000000250000+ 00       620
C416 040404LEMOS CARLOS LEONARDO      62000000250000+ 00       620
DN16 040405PRADO PABLO GASTON         62000000250000+ 00       620
C216 040406SAMANIEGO ALEJANDRO GABRIEL62000000250000+ 00       620
C616 040409BERNAL GUSTAVO GERMAN      62000000250000+ 00       620
ES16 040412GOMEZ YESENIA DAIANA       62000000250000+ 00       620
C116 040413LEMOS FRANCO RAUL          62000000250000+ 00       620
0416 040416PADIN CESAR NAHUEL         62000000250000+ 00       620
1616 040418TORRES GASTON RODRIGO      62000000250000+ 00       620
C116 040419VARGAS NELSON JAVIER       62000000250000+ 00       620
C716 040420VELAZQUEZ CARLOS IGNACIO   62000000250000+ 00       620
2516 040578FANEGO JONATHAN ARIEL      62000000250000+ 00       620
DN15 040862MARTINEZ RODRIGUEZ D GABRIE62000000486300+ 00       620
3517 040884VITTAR SARA LORENA         62000000250000+ 00       620
DN16 040919AYALA MARIANO JOSE MARCELO 62000000250000+ 00       620
C416 040921BEDOGNI JANINA VANESA      62000000250000+ 00       620
C716 040922CASTRO MARIA LUJAN         62000000250000+ 00       620
C316 040924CRUZ FABIANA MARIA DEL VALL62000000250000+ 00       620
C216 040925CRUZ GABRIEL FERNANDO      62000000250000+ 00       620
1016 040926DE AMBROSIO ROBERTO FERNAND62000000250000+ 00       620
C416 040929EGEA NATALIA SOLEDAD       62000000250000+ 00       620
AP16 040930ESTEVEZ BELTRAME SABRINA NA62000000250000+ 00       620
C416 040931FERNANDEZ ANAHI FLORENCIA B62000000250000+ 00       620
C416 040932FERNANDEZ PAULA MARILYN    62000000250000+ 00       620
C116 040933FLORES HECTOR JACINTO      62000000250000+ 00       620
C316 040935GALLARDO ESCALADA TOMAS FAC62000000250000+ 00       620
3216 040936GALLARDO CYNTHIA ROXANA    62000000250000+ 00       620
1316 040938GIMENEZ DAIANA MARIA LUZ   62000000250000+ 00       620
C116 040939GODOY JUAN JOSE            62000000250000+ 00       620
1016 040940GODOY NESTOR EMMANUEL      62000000250000+ 00       620
2216 040941GOMEZ EDGARDO LIONEL       62000000250000+ 00       620
DN16 040942GOMEZ EMMANUEL EIFER       62000000250000+ 00       620
C316 040943GONZALEZ RODRIGO MANUEL    62000000250000+ 00       620
C716 040944IRIGARAY CARLA SOLANGE     62000000250000+ 00       620
C716 040947KARAPUTNEY MARIA ANAHIR    62000000250000+ 00       620
0216 040948LOPEZ CRISTIAN OMAR        62000000250000+ 00       620
ES16 040949LUJAN CAMILA ANABELLA      62000000250000+ 00       620
C716 040950MAMANI NATALIA VERONICA    62000000250000+ 00       620
C616 040952MARECO MARCELO FERNANDO    62000000250000+ 00       620
C116 040953MARTINEZ FERNANDO GABRIEL  62000000250000+ 00       620
0216 040954MARTINEZ MARIA DE LOS ANGEL62000000250000+ 00       620
C216 040955MARTINEZ PABLO EDUARDO     62000000250000+ 00       620
C516 040956MAZO LUCAS SEBASTIAN       62000000250000+ 00       620
0216 040957MEDINA CARLOS GUSTAVO WALTE62000000250000+ 00       620
C216 040959MOREIRA FEDERICO GERMAN    62000000250000+ 00       620
DS16 040961ORELLANA ANDREA ANAHI      62000000250000+ 00       620
3416 040963PETESE LEANDRO MIGUEL      62000000250000+ 00       620
DS16 040965QUIROZ LISANDRO IVAN       62000000250000+ 00       620
C716 040966REALES NADIA GRACIELA DEL R62000000250000+ 00       620
C416 040967REYNAGA TATIANA SORAYA     62000000250000+ 00       620
CF16 040968RIOS HECTOR RODOLFO        62000000250000+ 00       620
2516 040969RODRIGUEZ DIEGO LEONARDO   62000000250000+ 00       620
1716 040973RUIZ YESICA SOLEDAD        62000000250000+ 00       620
1916 040974SANTILLAN LUCAS DANIEL     62000000250000+ 00       620
0716 040975SEVERICH LUCAS FABRICIO    62000000250000+ 00       620
DS16 040976TRAGHETTI CARLOS MATIAS    62000000250000+ 00       620
DS16 040977VALENCIA PABLO EZEQUIEL    62000000250000+ 00       620
0416 040978WAGNERT RODRIGO JAVIER     62000000250000+ 00       620
1916 040979YUSKOW CLAUDIO EXEQUIEL    62000000250000+ 00       620
0216 040981ARANDA CRISTIAN ARIEL      62000000250000+ 00       620
1516 040987RODRIGUEZ DOS SANT CESAR NI62000000250000+ 00       620
CF16 040990STRACUZZI JONATHAN ARIEL   62000000250000+ 00       620
0216 040992TEJERINA ROMINA NATALIA    62000000250000+ 00       620
DN16 040993VANACOR DELIA VANESIA      62000000250000+ 00       620
C217 041135STOCCO GLADIS ANABELA      62000000250000+ 00       620
C416 041239SUAREZ OSCAR ANTONIO       62000000250000+ 00       620
C216 041259ACUNA EGEA LIHUEL LUJAN    62000000250000+ 00       620
1516 041260ACUNA ARIEL ALEJANDRO      62000000250000+ 00       620
C516 041261AYLAN HORACIO LUIS         62000000250000+ 00       620
3416 041262BENITEZ DANIEL ALBERTO     62000000250000+ 00       620
1016 041263BREST ANTONELLA ABIGAIL    62000000250000+ 00       620
0616 041264CENTENO JORGE ADRIAN       62000000250000+ 00       620
0216 041265GALARZA JOSE DAMIAN        62000000250000+ 00       620
C116 041266GAUNA RAUL NICOLAS         62000000250000+ 00       620
C516 041268GONZALEZ ANEIDA MARISEL    62000000250000+ 00       620
0816 041269LEGUIZAMON MAXIMILIANO EMAN62000000250000+ 00       620
3516 041270PONCE JOSE VICTOR          62000000250000+ 00       620
SC16 041271RODRIGUEZ DIEGO NICOLAS    62000000250000+ 00       620
EP16 041272ROJAS CLEMENTE AGUSTIN     62000000250000+ 00       620
C216 041274FARANA VICTOR NICOLAS      62000000250000+ 00       620
C616 041275MINO MATIAS EMMANUEL       62000000250000+ 00       620
C216 041276MOLINAS EMILIANO DANIEL    62000000250000+ 00       620
OS16 041317FERNANDEZ ANALIA MARIA ELSA62000000250000+ 00       620
EC17 041363FAVALE JUAN MANUEL         62000000250000+ 00       620
DN16 041451MAZZOGLIO Y NABAR MARTIN JA62000000250000+ 00       620
C116 041703AMARILLA LIDIA ANDREA      62000000250000+ 00       620
1316 041705ARANDA GRACIELA DIANA      62000000250000+ 00       620
C416 041706ARCE SILVIA AGUSTINA       62000000250000+ 00       620
C316 041707ARIAS SILVANA LUCIA        62000000250000+ 00       620
0716 041708AVILES EUGENIA LEONOR      62000000250000+ 00       620
1516 041709BARANDALLA MIRNA CYNTHIA RA62000000250000+ 00       620
0816 041711BARRO NICOLAS AGUSTIN      62000000250000+ 00       620
1316 041713BENITEZ MICAELA ANAHI      62000000250000+ 00       620
EP16 041715BLANCO SOLANGE ALEJANDRA   62000000250000+ 00       620
0416 041717CARDOZO AYLEN DEL MILAGRO  62000000250000+ 00       620
CF17 041719CHONKA ESTEBAN EZEQUIEL    62000000250000+ 00       620
C416 041722FLORES JENNIFER MARIEL     62000000250000+ 00       620
C516 041723GALLO JESICA NOELI         62000000250000+ 00       620
DS16 041725GOMEZ RUBEN ALEJANDRO      62000000250000+ 00       620
C416 041726HERMOZA ANDREA NATALIA     62000000250000+ 00       620
C516 041729MAIZARES DAVID AUGUSTO     62000000250000+ 00       620
AI16 041730MARCHESANO CECILIA CARMEN  62000000250000+ 00       620
C416 041731MARTINEZ MARCELA ALEJANDRA 62000000250000+ 00       620
C316 041736NOLASCO MARTA VERONICA     62000000250000+ 00       620
C216 041738PALIARI MARIO GABRIEL      62000000250000+ 00       620
0816 041739PARAGUAYO NAHIR LEONARDA   62000000250000+ 00       620
EP16 041740PEREZ FLORENCIA MAGALI     62000000250000+ 00       620
DN16 041743PONCE YAMILA SOLEDAD       62000000250000+ 00       620
C316 041745QUISPE JONATAN GABRIEL     62000000250000+ 00       620
C116 041747RODRIGUEZ JONATHAN ESTEBAN 62000000250000+ 00       620
C516 041749ROMANIUK JORGE DANIEL      62000000250000+ 00       620
C616 041752SELSER RODRIGO MARTIN      62000000250000+ 00       620
DN16 041753SENA JUAN MANUEL           62000000250000+ 00       620
C416 041755SOLIS REBECA ELISA SILVINA 62000000250000+ 00       620
2216 041756SORUCO NANCY INES          62000000250000+ 00       620
C316 041760TEJERINA DAIANA GISELA     62000000250000+ 00       620
C716 041763VARGAS DANIELA ABIGAIL     62000000250000+ 00       620
1516 041765ZAMORA SERGIO ADRIAN       62000000250000+ 00       620
EC16 041769CESPEDES MATIAS NICOLAS    62000000250000+ 00       620
1616 041770CISNERO EDITH DEL VALLE    62000000250000+ 00       620
1316 041773ORTEGA CECILIA MARCELA     62000000250000+ 00       620
0616 041775PEREYRA OSCAR MATIAS       62000000250000+ 00       620
DN16 041776RIOS JAQUELINA ELIZABETH   62000000250000+ 00       620
SC16 041972AGUIRRE SERGIO LEONEL      62000000250000+ 00       620
DN16 041973AMARILLA ALEJANDRA DESIREE 62000000250000+ 00       620
DS16 041974AVALOS DIEGO HERNAN        62000000250000+ 00       620
3416 041975BANEGAS MAXIMILIANO GASTON 62000000250000+ 00       620
C216 041977BRAMBILA ALEJANDRA SOLEDAD 62000000250000+ 00       620
1616 041978CAMPOS RODOLFO JESUS       62000000250000+ 00       620
C616 041980GONZALEZ GERARDO GERMAN    62000000250000+ 00       620
OS16 041981JIMENEZ OVELAR PABLA GISELA62000000250000+ 00       620
1316 041982KALINOSKI MARCELO DANIEL   62000000250000+ 00       620
C216 041983MAIZARES CESAR MANUEL ERNES62000000250000+ 00       620
C716 041984MALDONADO SOFIA LOURDES    62000000250000+ 00       620
0616 041985MEDINA GABRIELA ANAHI      62000000250000+ 00       620
C616 041986PEREIRA FABIANA ESTER      62000000250000+ 00       620
1216 041987ROBLES HERNAN EZEQUIEL     62000000250000+ 00       620
1916 041988RODRIGUEZ ALEXIS GABRIEL   62000000250000+ 00       620
C116 041990RUIZ JOSE IGNACIO          62000000250000+ 00       620
DS16 041991WESTER ALEXIS OMAR         62000000250000+ 00       620
C616 041992YASNIKOWSKI ALEJANDRO GABRI62000000250000+ 00       620
0216 041993BENITEZ NATALIA SOLEDAD    62000000250000+ 00       620
C316 041995GONZALEZ NADIA ALEJANDRA   62000000250000+ 00       620
DN17 042163DEVELLUK LAURA GISELLE     62000000250000+ 00       620
C217 042228FEREZIN CRISTIAN NAHUEL    62000000250000+ 00       620
C116 042286ALVAREZ VEUTHEY EZEQUIEL RU62000000250000+ 00       620
C416 042564AGUIRRE EMILIO JOSE        62000000250000+ 00       620
C116 042567AVILA GUILLERMO EXEQUIEL   62000000250000+ 00       620
3016 042570BERNAL FERNANDO SEBASTIAN  62000000250000+ 00       620
0216 042572CORONEL JUAN DANIEL        62000000250000+ 00       620
SC16 042576GONZALEZ LARA YAMILA       62000000250000+ 00       620
3216 042577GONZALEZ FARFAN FABIAN     62000000250000+ 00       620
C116 042578GUERRA JUAN PABLO          62000000250000+ 00       620
C116 042579GUERRERO MAXIMILIANO       62000000250000+ 00       620
C416 042581JIMENEZ GUILLERMO JOSE     62000000250000+ 00       620
3416 042584MACIA ADRIAN ARIEL         62000000250000+ 00       620
ES16 042585MALICH LUCAS EMILIO        62000000250000+ 00       620
CF16 042586MARINANCO RUBEN ARIEL      62000000250000+ 00       620
EP16 042587MEDINA EDUARDO MARCOS      62000000250000+ 00       620
DS16 042588MIRANDA JAIRO DAVID        62000000250000+ 00       620
C516 042589MIRANDA PRISCILA MAILEN    62000000250000+ 00       620
DN16 042592PEREZ ERIC NICOLAS         62000000250000+ 00       620
C516 042594RUIZ ROMERO CARLOS IVAN    62000000250000+ 00       620
0816 042596TAPIA JONATAN ALEXIS       62000000250000+ 00       620
DN16 042599CHAMORRO NATALIA ROCIO     62000000250000+ 00       620
C516 042601CORREA GERMAN GUSTAVO      62000000250000+ 00       620
C216 042602LOPEZ MARIO FERNANDO       62000000250000+ 00       620
EC16 042606SANTROVICH RAMON MATHIAS   62000000250000+ 00       620
1116 042950ALBARENGA CARLOS CESAR     62000000250000+ 00       620
0216 042952CORONEL ALEJANDRO DANIEL   62000000250000+ 00       620
C116 042954ESCALANTE MAGALI SOLANGE   62000000250000+ 00       620
0216 042955GILIO ZARATE ARIEL ERNESTO 62000000250000+ 00       620
C216 042956SILVA RODRIGO EMANUEL      62000000250000+ 00       620
C616 042957TORRES ELIAS MAXIMILIANO   62000000250000+ 00       620
3516 042958TORRES NESTOR DARIO        62000000250000+ 00       620
1517 042959ORTIZ MARCOS ALEXANDER     62000000250000+ 00       620
1416 042960TASTACA GENARO RAUL        62000000250000+ 00       620
C416 042962CISNEROS MALEN BARBARA AIU 62000000250000+ 00       620
1216 042963DO CARMO CRISTIAN MARCELO  62000000250000+ 00       620
1216 042966LOPEZ PEREZ CESAR ARIEL    62000000250000+ 00       620
1916 042967OVEJERO ESTEBAN GABRIEL    62000000250000+ 00       620
DN16 042968RAMIREZ CHRISTIAN GABRIEL  62000000250000+ 00       620
ES16 042969REYES LORENA ITATI         62000000250000+ 00       620
C735 043535SANCHEZ ARCAJO DENIS EZEQUI62000000250000+ 00       620
DN16 043542ALVES RICARDO JAVIER       62000000250000+ 00       620
C116 043544AQUINO NELSON FABIAN       62000000250000+ 00       620
DN16 043545CABALLERO MARIELA NATALIA  62000000250000+ 00       620
2117 043547CIARES PATRICIA VIVIANA    62000000250000+ 00       620
3016 043552FLORES GABRIEL ALEJANDRO   62000000250000+ 00       620
1516 043553GARCIA SERGIO LEONARDO     62000000250000+ 00       620
CF16 043557OCSA ELMER EMILIANO        62000000250000+ 00       620
0216 043558RAMIREZ GABRIELA YESICA AND62000000250000+ 00       620
C516 043559REJALA SILVANA ANTONELLA   62000000250000+ 00       620
0516 043562RUPPEL SEBASTIAN DANIEL    62000000250000+ 00       620
1417 043563SANCHEZ VICTOR NICOLAS     62000000250000+ 00       620
C616 043566VILLARRUEL EDUARDO DAMIAN  62000000250000+ 00       620
SU17 043570GREPO MIGUEL ANGEL         62000000250000+ 00       620
0217 043572LUNA BRIAN DAVID           62000000250000+ 00       620
1216 043576BENEDIT LUIS MARIA         62000000250000+ 00       620
EP16 043581HORIANSKI ROSMARI          62000000250000+ 00       620
0816 043583RAMOS JULIANA NOEL         62000000250000+ 00       620
0235 044452MENDEZ LAURA GRACIELA      62000000250000+ 00       620
1417 044933ALBRECHT ADOLFO JUAN       62000000250000+ 00       620
2517 044934ALCARAZ SOTO GUSTAVO DANIEL62000000250000+ 00       620
C317 044937ARQUIZA FACUNDO GABRIEL    62000000250000+ 00       620
3517 044938BASTIDA NICOLAS JAVIER     62000000250000+ 00       620
AP17 044940CAFFERATA LEANDRO GABRIEL  62000000250000+ 00       620
1017 044944ESQUIVEL ALAN GABRIEL      62000000250000+ 00       620
DN17 044945FLORES MARIA JOSE          62000000250000+ 00       620
C317 044947GONZALEZ LUDMILA MARIANELA 62000000250000+ 00       620
2217 044949HORRISBERGER ADRIANA ELIZAB62000000250000+ 00       620
0817 044950JATON HECTOR EMILIO        62000000250000+ 00       620
0217 044954LOPEZ LOURDES SOFIA        62000000250000+ 00       620
CF17 044955MAIDANA ALEXIA DANIELA     62000000250000+ 00       620
0417 044958MOCARQUER SERANTES SELIM SA62000000250000+ 00       620
C217 044959MOLINA SEBASTIAN NAHUEL    62000000250000+ 00       620
0717 044962ORTIZ FACUNDO SEBASTIAN    62000000250000+ 00       620
DN17 044965PERCINCULA JUAN CRISTIAN MA62000000250000+ 00       620
0517 044967PRA RODRIGO JULIAN         62000000250000+ 00       620
0517 044968ROJAS GONZALEZ CESAR RICARD62000000250000+ 00       620
1417 044969SANCHEZ PEREZ SANTIAGO JOSE62000000250000+ 00       620
ES16 044971SILVA IGNACIO JAVIER       62000000250000+ 00       620
C417 044972SMIT CAROLINA FABIANA      62000000250000+ 00       620
C517 044973SOLANO LUCIANO AGUSTIN     62000000250000+ 00       620
C717 044974STACUL ANTONELLA           62000000250000+ 00       620
0717 044977URZAGASTI VICTOR MARCELO   62000000250000+ 00       620
1217 044978VELARDEZ FERNANDO NICOLAS  62000000250000+ 00       620
DN17 044983SALAZAR GIULIANA MAGALI    62000000250000+ 00       620
1517 044986AQUINO ROQUE AGUSTIN       62000000250000+ 00       620
3017 044989GOMEZ SERGIO GABRIEL       62000000250000+ 00       620
0817 044990LOPEZ SANTIAGO HECTOR      62000000250000+ 00       620
CF17 044993MARTINEZ ANGEL DAVID       62000000250000+ 00       620
0717 044994MERLO IGNACIO SEBASTIAN    62000000250000+ 00       620
3517 044996ODERA JONATAN EZEQUIEL     62000000250000+ 00       620
2217 044997OJEDA MIGUEL ANGEL         62000000250000+ 00       620
1117 045000RODRIGUEZ LUCIANO GABRIEL  62000000250000+ 00       620
1617 045002STROCEN IVAN               62000000250000+ 00       620
1617 045003TABOADA RODRIGO EZEQUIEL   62000000250000+ 00       620
1117 045011FLORES GASTON DANIEL       62000000250000+ 00       620
2217 045015VARGAS FACUNDO MAXIMILIANO 62000000250000+ 00       620
C718 045280FERNANDEZ MAIRA ALEXANDRA  62000000250000+ 00       620
C117 046272AREVALOS JESICA MICAELA    62000000250000+ 00       620
3017 046275BAEZ FACUNDO EZEQUIEL      62000000250000+ 00       620
1218 046279CHAMORRO JONATHAN WILLIAM  62000000250000+ 00       620
C717 046283CORIA MARCOS IVAN          62000000250000+ 00       620
C317 046284CORTEZ GASTON WENCESLADO   62000000250000+ 00       620
1717 046285DE SIMON JEREMIAS ROBERTINO62000000250000+ 00       620
0417 046291GIMENEZ OFELIO RAMON       62000000250000+ 00       620
DN18 046294HOLZER DENIS MIGUEL        62000000250000+ 00       620
C218 046296LANDAIDA KAREN EVELYN      62000000250000+ 00       620
1517 046298LUNA SIMOINE HECTOR HORACIO62000000250000+ 00       620
EP17 046300MAIDANA EZEQUIEL ENRIQUE   62000000250000+ 00       620
0217 046302MEDINA DAIANA MICAELA      62000000250000+ 00       620
1517 046305MEZA FACUNDO ALEXANDRO     62000000250000+ 00       620
1617 046307MORALES LUCAS NICOLAS      62000000250000+ 00       620
3518 046310PERTICARINI LEANDRO EZEQUIE62000000250000+ 00       620
ES17 046311PIEDRABUENA DANIEL ALBERTO 62000000250000+ 00       620
DN17 046312PITRA CYNTHIA LILIANA      62000000250000+ 00       620
C317 046315QUEVEDO RODRIGO EMANUEL    62000000250000+ 00       620
1417 046317RAMIREZ YANINA SOLEDAD     62000000250000+ 00       620
DN17 046319RIBEROS KARINA LETIZIA DEL 62000000250000+ 00       620
1918 046321RIOS SILVANA MARISOL       62000000250000+ 00       620
2117 046322ROBLEDO TATIANA MARISEL    62000000250000+ 00       620
EP17 046323RODRIGUEZ AILIN AYMARA     62000000250000+ 00       620
1317 046324RODRIGUEZ MANUEL ALEJANDRO 62000000250000+ 00       620
3217 046325ROMERO FABIAN ALEJANDRO    62000000250000+ 00       620
1117 046327ROMERO LOPEZ FACUNDO FEDERI62000000250000+ 00       620
DN17 046328SAJAMA MARCELO ANDRES      62000000250000+ 00       620
0217 046330TARABAY AXEL IVAN          62000000250000+ 00       620
0218 046336VILLALBA NELSON JESUS      62000000250000+ 00       620
1517 046338YAPURA SERGIO FABIAN       62000000250000+ 00       620
C217 046339ZARATE MATIAS NICOLAS      62000000250000+ 00       620
1217 046392FARFAN JUAN ANTONIO        62000000250000+ 00       620
C617 046394MARINO KAREN NATALI        62000000250000+ 00       620
DN17 046397PASTOR RICARDO IVAN        62000000250000+ 00       620
C417 046398ROMAN GIMENA AYELEN        62000000250000+ 00       620
CF17 046401SILVEIRA MELANY BELEN      62000000250000+ 00       620
DN17 046404VILLALBA EMILIO GABRIEL    62000000250000+ 00       620
C418 046407BARBONA MARTINEZ FLORENCIA 62000000250000+ 00       620
0617 046410RAMOS MATIAS NICOLAS       62000000250000+ 00       620
1417 046411ROTELA EMANUEL ERNESTO     62000000250000+ 00       620
1135 046442ESPINOSA MARIA BELEN       62000000250000+ 00       620
3518 047190AGUERO VILLARES NOELIA DAIA62000000250000+ 00       620
C618 047192ALI AMADO EBRAIM HECTOR    62000000250000+ 00       620
CF18 047193ANTIQUEO EZEQUIEL ESTEBAN  62000000250000+ 00       620
1518 047195BEJARANO HERNAN ABELARDO   62000000250000+ 00       620
1518 047197BRUSTIA CAMILA LUJAN       62000000250000+ 00       620
C318 047199CARABALLO LUCIANA BELEN    62000000250000+ 00       620
0718 047202COPA DELGADO JESUS ANGEL   62000000250000+ 00       620
C418 047203CUARTERON ELIAS NAHUEL     62000000250000+ 00       620
C618 047204DELLAMEA MICAELA ALDANA    62000000250000+ 00       620
2218 047207ESCOBAR CARLA NATASHA      62000000250000+ 00       620
2118 047210GIMENEZ GONZALO MIGUEL     62000000250000+ 00       620
C418 047211GOMEZ IGARZA BIANCA NAIMID 62000000250000+ 00       620
0618 047212GONZALEZ EMANUEL           62000000250000+ 00       620
C618 047217GUAYMAS CRISTIAN OSCAR     62000000250000+ 00       620
2118 047220LEYES JORGE ADRIAN         62000000250000+ 00       620
0418 047226MANSILLA GUTMAN NAHUEL MAXI62000000250000+ 00       620
C318 047229MERLO ANDRES SEBASTIAN     62000000250000+ 00       620
0618 047230MIRANDA RODRIGO EMANUEL    62000000250000+ 00       620
1018 047231MURDOCH EDUARDO EZEQUIEL   62000000250000+ 00       620
0818 047232NAVARRO RODRIGO AGUSTIN    62000000250000+ 00       620
1318 047234PEREZ SANTIAGO GABRIEL     62000000250000+ 00       620
C218 047239QUILES JORGE EMANUEL       62000000250000+ 00       620
DN18 047242RECALDE CLAUDIO FEDERICO   62000000250000+ 00       620
C118 047243RETAMOZO PAULA AYELEN      62000000250000+ 00       620
0818 047244RIOS JORGE IGNACIO JOAQUIN 62000000250000+ 00       620
C718 047249SALDIVAR MARILIN ROCIO     62000000250000+ 00       620
1118 047251SANTILLAN GABRIEL FEDERICO 62000000250000+ 00       620
3518 047252SHORT FRANCISCO MATIAS     62000000250000+ 00       620
C218 047254SULIGOY ARIANA             62000000250000+ 00       620
EP18 047258VARGAS ANGEL GASTON ARIEL  62000000250000+ 00       620
0218 047260VERA IRMA CELESTE MAGALI   62000000250000+ 00       620
C318 047264ZAYAS BOJANOVICH AGOSTINA F62000000250000+ 00       620
OS18 047267BOLLE CRISTINA             62000000250000+ 00       620
OS18 047270DUARTE BRENDA NOELI        62000000250000+ 00       620
DN18 047272IBARROLA JESICA GISEL      62000000250000+ 00       620
DN18 047276ROMERO SORONDO LEONARDO DAV62000000250000+ 00       620
0518 047278AILAN LAUTARO NICOLAS ALVAR62000000250000+ 00       620
C318 047283CORDOBA FACUNDO RODRIGO    62000000250000+ 00       620
0718 047284FIGUEROA DORA ANAHI        62000000250000+ 00       620
3018 047285GAUNA GERARDO ARIEL        62000000250000+ 00       620
C518 047290INSFRAN ELIANA CELESTE     62000000250000+ 00       620
1418 047292ORELLANA FEDERICO ANTONIO  62000000250000+ 00       620
SU18 047297GAITAN LUIS ALBERTO        62000000250000+ 00       620
C436 047769GUTIERREZ ADRIANA NOEMI    62000000250000+ 00       620
C718 048230AGUILERA DOLORES           62000000250000+ 00       620
SC18 048231AGUIRRE SARAH SOFIA        62000000250000+ 00       620
C718 048233ALFARO MATIAS GABRIEL      62000000250000+ 00       620
C318 048234ARRUA CARDOZO ANDREA       62000000250000+ 00       620
SC18 048235AVILA LUCAS ELIAS          62000000250000+ 00       620
DN18 048236BENTANCOUR LUCIANO NICOLAS 62000000250000+ 00       620
C118 048237BERNASCONI MILAGROS AZUL   62000000250000+ 00       620
OS18 048239BRAVO LORENA SABRINA       62000000250000+ 00       620
C218 048241CASERES CORNEJO BALEN NOELI62000000250000+ 00       620
C118 048242CASTILLO CAMILA GISELLE    62000000250000+ 00       620
0218 048245CORIA LO PRESTI SANTIAGO EM62000000250000+ 00       620
2118 048246CRISTALDO GONZALO FABIAN   62000000250000+ 00       620
DS18 048250DOMINGUEZ JUAN PABLO       62000000250000+ 00       620
C418 048256GALEANO GONZALO GERMAN     62000000250000+ 00       620
3418 048257GALLARDO AXEL ALEJO        62000000250000+ 00       620
C118 048260GITIMAYER CRISTIAN EZEQUIEL62000000250000+ 00       620
C118 048263GONZALEZ PABLO EZEQUIEL    62000000250000+ 00       620
C718 048264GONZALEZ SAAVEDRA KATHERINE62000000250000+ 00       620
CF18 048266JARA LOURDES ESTRELLA      62000000250000+ 00       620
C418 048267JUAREZ ROMINA NATALIA      62000000250000+ 00       620
C118 048268KORNUTA CRISTIAN ALEJANDRO 62000000250000+ 00       620
DS18 048269KURPSKI BRAIAN DIEGO       62000000250000+ 00       620
CF18 048270LAVERGUE HORACIO ALFREDO   62000000250000+ 00       620
DN18 048274MAIDANA MAGALI BELEN       62000000250000+ 00       620
SC18 048277MEDRANO EVER EZEQUIEL      62000000250000+ 00       620
DN18 048279MENDOZA IVAN GERMAN        62000000250000+ 00       620
C118 048280MILENS ALEJANDRO EZEQUIEL  62000000250000+ 00       620
CF18 048281MORINIGO ALEJANDRO DAMIAN  62000000250000+ 00       620
0218 048288PEREIRA JUANA CAROLINA     62000000250000+ 00       620
C218 048290PIRIS VICTORIA LUJAN       62000000250000+ 00       620
DS18 048291PONS TOMAS ENEAS           62000000250000+ 00       620
DN18 048294RIOS MAYRA LUANA           62000000250000+ 00       620
AP18 048296RODRIGUEZ LUDMILA AGUSTINA 62000000250000+ 00       620
1918 048297ROMEO RUGGERO JOAQUIN      62000000250000+ 00       620
DS18 048298ROMERO ANGEL DAVID         62000000250000+ 00       620
AI18 048300SALTO ROCIO ANNABELLA      62000000250000+ 00       620
DN18 048302SANTILLAN YANINA ELISABET  62000000250000+ 00       620
C218 048303SAUCEDO DAIANA DENISE      62000000250000+ 00       620
1718 048304SOLEY MARIANELLA SOLEDAD   62000000250000+ 00       620
DN18 048305SORIA GUIDO SEBASTIAN      62000000250000+ 00       620
DN18 048306SOSA DEBORA GEORGINA       62000000250000+ 00       620
OS18 048307TAINSKI LUISANA NERINA     62000000250000+ 00       620
OS18 048314YEGROS BALMORI SERGIO ADRIA62000000250000+ 00       620
RP18 048316ZAMORA CAMILA BELEN        62000000250000+ 00       620
1118 048318CHOQUE DYLAN NAIM          62000000250000+ 00       620
0718 048320LOHAIZA JORGE ALEJANDRO    62000000250000+ 00       620
0418 048324MOLINA MARIA DE LOS ANGELES62000000250000+ 00       620
C118 048326ROJAS FACUNDO TOMAS        62000000250000+ 00       620
0518 048327SANCHEZ AGUSTINA FERNANDA  62000000250000+ 00       620
3518 048328SOTO FERNANDO ARIEL        62000000250000+ 00       620
C418 048329TREVIZAN AGUSTIN DAMIAN    62000000250000+ 00       620
DS18 048332BAEZ DIEGO JOSE            62000000250000+ 00       620
1918 048333BANEGAS AGUSTIN BENITO     62000000250000+ 00       620
DN18 048335CUELLAR CAMILA ESTER       62000000250000+ 00       620
CF18 048341MAYO MARCELO FRANCISCO     62000000250000+ 00       620
DS18 048342MEDINA LUCIANO IGNACIO     62000000250000+ 00       620
OS18 048343RAMIREZ JULIAN NAHUEL      62000000250000+ 00       620
C718 048345RUJODSKI MARIA ABIGAIL     62000000250000+ 00       620
C618 048426ACOSTA ALAN DANIEL         62000000250000+ 00       620
1118 048427AGUADO LUCAS NAHUEL        62000000250000+ 00       620
C618 048428AGUIRRE LORENA PATRICIA    62000000250000+ 00       620
C418 048429AGUIRRE LOURDES ANNA       62000000250000+ 00       620
0718 048430ALBORNOZ PABLO AGUSTIN     62000000250000+ 00       620
C318 048431ANCICH CARLA AGUSTINA      62000000250000+ 00       620
1318 048432ANZALDO MARTINEZ FLORENCIA 62000000250000+ 00       620
C618 048433AR?VALO SERGIO FERNANDO    62000000250000+ 00       620
C218 048434BAZAN MARCOS ARIEL         62000000250000+ 00       620
C318 048435BRUNO PALACIOS FRANCISCO AG62000000250000+ 00       620
AP18 048436BRUZZO JUAN BOSCO          62000000250000+ 00       620
C518 048437CABAA ARELLANO ALAN MARTIN62000000250000+ 00       620
C418 048440CASTELLANO MARLENE CAROLINA62000000250000+ 00       620
C518 048441CRUZ GASTON ARIEL          62000000250000+ 00       620
0718 048442DA SILVA CASANDRA AMARU    62000000250000+ 00       620
0618 048443DEHEZA GERONIMO ALEJANDRO  62000000250000+ 00       620
AP18 048444DEL VALLE MIRIAM ALEJANDRA 62000000250000+ 00       620
SC18 048445DESIDERIO IBARRA ABRIL LEON62000000250000+ 00       620
C518 048446DIAZ LUCIANA AGUSTINA      62000000250000+ 00       620
AP18 048447DIAZ MAT?AS ALFREDO        62000000250000+ 00       620
1418 048448DINO FABRICIO ABEL         62000000250000+ 00       620
1118 048449ESCOBAR JOSE IGNACIO       62000000250000+ 00       620
AP18 048450FERNANDEZ MAGALI RUFINA    62000000250000+ 00       620
AP18 048451GALARZA PALOMA BELEN       62000000250000+ 00       620
C218 048452GARCIA CARLOS IGNACIO      62000000250000+ 00       620
3518 048453GARCIA JENNIFER SOFIA      62000000250000+ 00       620
1118 048454GONZALEZ MARIANGELES ANDREA62000000250000+ 00       620
0718 048455GONZALEZ MATIAS EXEQUIEL   62000000250000+ 00       620
0718 048457HUENUL MICAELA AYELEN      62000000250000+ 00       620
C518 048461LANDAIDA MATIAS HUGO       62000000250000+ 00       620
0718 048462MARTINEZ DANIELA JUDITH    62000000250000+ 00       620
C518 048463MEDINA CINTIA GABRIELA     62000000250000+ 00       620
0618 048465MELLA NICOLAS ADRIAN       62000000250000+ 00       620
C718 048466MERELES SANTIAGO NAHUEL DAV62000000250000+ 00       620
DS18 048468MONTERO FEDERICO NAHUEL    62000000250000+ 00       620
AP18 048470NOBLE WALTER ELIAS         62000000250000+ 00       620
3518 048472PALACIOS MAGALI ITATI      62000000250000+ 00       620
DN18 048473PANIAGUA BELEN ROMINA      62000000250000+ 00       620
C618 048474PEREZ LEONARDO ALFREDO     62000000250000+ 00       620
0718 048475PEREZ LEANDRO EZEQUIEL     62000000250000+ 00       620
0618 048476PORCO MAMANI SORAYA BELEN  62000000250000+ 00       620
C518 048477RAMIREZ LEANDRO EZEQUIEL   62000000250000+ 00       620
0418 048479RETAMOZO CARLOS AGUSTIN    62000000250000+ 00       620
C618 048480RODRIGUEZ ALEJO CRISTOPHER 62000000250000+ 00       620
DS18 048481SAAVEDRA LEONARDO DAVID    62000000250000+ 00       620
SC18 048482SEGURA ARIANA DENISE       62000000250000+ 00       620
1618 048483SERRANO SALVADOR JAVIER HER62000000250000+ 00       620
C318 048484TREJO FERNANDO FELIPE      62000000250000+ 00       620
C418 048486VILCHEZ BIANCHI AYELEN MICA62000000250000+ 00       620
2218 048487WALTER JONATHAN EMANUEL    62000000250000+ 00       620
DN18 048488AQUINO BENCHARSKI MARIA LUJ62000000250000+ 00       620
DN18 048489ASEF MAYRA GRACIELA        62000000250000+ 00       620
CF18 048490CARDOZO DECOUD SOFA AILEN 62000000250000+ 00       620
1218 048491FLEITA DAIANA SOLEDAD      62000000250000+ 00       620
DS18 048492GIMENEZ MALENA VALENTINA   62000000250000+ 00       620
C318 048493GUAYMAS ABEL MAXIMILIANO   62000000250000+ 00       620
DS18 048494MANSILLA LUCA EXEQUIEL     62000000250000+ 00       620
C518 048495PAREDES MATIAS ALEJANDRO   62000000250000+ 00       620
DN18 048496SANCHEZ IVAN RODRIGO       62000000250000+ 00       620
C618 048497SOTELO CELESTE MICAELA     62000000250000+ 00       620
C418 048498VILLARREAL SABRINA AYEL?N  62000000250000+ 00       620
1536 048727LOPEZ MIGUEL DAVID         62000000250000+ 00       620
C137 049051TOLEDO LAUTARO FEDERICO    62000000250000+ 00       620

