1530 029816BRUNA VICTOR RAMON         60300003722406+ 00       603
ES30 031182PENNELLA JUAN MARTIN       60300012552000+ 00       603
DS30 031219SERRA GASTON               60300001099240+ 00       603
0730 031530SPERONI MONICA MABEL       60300000850000+ 00       603
C331 031599CIPRIAN GUSTAVO RUBEN      60300013012141+ 00       603
1731 031693LOMBARDINI ALEJANDRO LUIS M60300000635850+ 00       603
C512 032027PALACIOS DIEGO MANUEL      60300001989000+ 00       603
0231 032134AQUINO JOSE DE LA CRUZ     60300011950741+ 00       603
0231 032161BULLON ROBERTO CARLOS      60300011950741+ 00       603
C231 032309SERRANO ARNALDO ANDRES     60300011950741+ 00       603
C231 032392CABRERA ANDRES SEBASTIAN   60300004176509+ 00       603
0731 032452OJEDA ROLANDO HERIBERTO    60300003112545+ 00       603
DS31 032639BIRARELLI CARLOS OMAR      60300011669459+ 00       603
0631 032824MORALES RITA CECILIA       60300006305368+ 00       603
DS15 032889MEDINA RAUL ALEJANDRO      60300012386371+ 00       603
OS31 033601BARRIOS ANALIA PATRICIA    60300002128145+ 00       603
1132 033667DOLZ MARIA BELEN           60300010809679+ 00       603
0432 034507GRIN CARLOS ALBERTO        60300010808966+ 00       603
C231 034509GUTIERREZ HORACIO DAVID    60300011400163+ 00       603
C332 034717MERLO RAUL LEOPOLDO        60300011482393+ 00       603
1232 034846ARIAS WALTER FABIAN        60300002180850+ 00       603
SC32 034886GUERRERO CARLOS OMAR       60300010557313+ 00       603
C114 035061ORTEGA LEONARDO MARTIN     60300016207229+ 00       603
1732 035236MEDINA ALDO DANIEL         60300010557313+ 00       603
DN32 035308PELOZO HECTOR ADRIAN       60300007891991+ 00       603
C232 035309PINTOS ANDRES EDUARDO      60300000248143+ 00       603
1132 035318SOLER FRANCO SEBASTIAN     60300011611931+ 00       603
C332 035383ALDAVEZ ROSANA BEATRIZ     60300011804193+ 00       603
C132 035414CHAMORRO WALTER ANTONIO    60300011804193+ 00       603
C532 035661MENDOZA RUBEN FRANCISCO    60300012016781+ 00       603
0432 035700ZAPATA SMIT DIEGO MAXIMILIA60300010897890+ 00       603
C116 035957AGRA NANCY JUDITH          60300011561229+ 00       603
1714 036054FRETES GUILLERMO DANIEL    60300015867193+ 00       603
C132 036408CORONEL NESTOR JAVIER      60300011551827+ 00       603
0233 036444INSAURRALDE CHRISTIAN SEBAS60300010327326+ 00       603
1633 036605ZAVOISKI PEDRO FABIAN      60300009080446+ 00       603
C433 036607GUERRERO JACINTA           60300009191863+ 00       603
0833 036653RAMOS ERNESTO SEBASTIAN    60300009080446+ 00       603
1233 036880DE VRIES RICARDO DARIO     60300009390118+ 00       603
C733 036976GOMEZ JUAN MANUEL          60300009080446+ 00       603
0733 037073ROMERO JOSE LUIS           60300008265675+ 00       603
C115 037087ALDERETE NESTOR NICOLAS EMM60300004469709+ 00       603
1314 037184PAREDES CARLOS EMMANUEL    60300015271709+ 00       603
DS32 037235AQUINO GUSTAVO RAMON       60300010304947+ 00       603
C233 037297MAGALLANES NORBERTO ESTEBAN60300009080446+ 00       603
1233 037309MILLAMAN MARIO ALFREDO     60300006207822+ 00       603
0634 038167DOS SANTOS CARLOS ALBERTO  60300004451665+ 00       603
C233 038333ZENIQUEL ALEJANDRO         60300004820167+ 00       603
C634 038596ROMERO RAUL JUAN RAMON     60300009595059+ 00       603
C233 038730HERRERA NOELIA SOLEDAD     60300006027348+ 00       603
1133 038893BALLEJOS HUGO DARIO        60300008761473+ 00       603
C133 038906CABRAL RAFAEL              60300001469833+ 00       603
C333 038921CHAVEZ MARIANA MICAELA     60300008868976+ 00       603
0233 038983LIQUIN RAUL SANTIAGO       60300008868976+ 00       603
0717 038990LUCERO SARRIAS MARCOS DANIE60300009269390+ 00       603
C133 039069TORRES LUCAS DANIEL        60300005538000+ 00       603
C234 039100MONTALBINI CARLOS ALEXIS   60300008000000+ 00       603
1034 039112AYALA NESTOR FREDY         60300001759812+ 00       603
C434 039117MAZUREK FLAVIA RUTH        60300008345364+ 00       603
0816 039194IBANEZ NESTOR FERNANDO ALBE60300006545008+ 00       603
3415 039206MERLO WALTER JAVIER        60300002609354+ 00       603
C333 039266AVILA MIGUEL ANGEL         60300008761473+ 00       603
C334 039445VALDERRAMA GUILLERMO ESTEBA60300008225787+ 00       603
0634 039712HERNANDEZ CESAR ALFREDO    60300004347694+ 00       603
0217 039804DUARTE IVAN EZEQUIEL       60300006384710+ 00       603
C734 039835GONZALEZ HERNAN OSCAR      60300008345364+ 00       603
C434 039869MOLINA SABRINA MERCEDES    60300009491088+ 00       603
2234 039920SALAZAR FELIX FERNANDO     60300005356106+ 00       603
CF34 040116MOREYRA LEONARDO           60300009387118+ 00       603
C134 040155VALLEJOS ADRIAN EZEQUIEL   60300002825814+ 00       603
C634 040248FERRANDO CRISTIAN ALEJANDRO60300002239436+ 00       603
C634 040435ANDRES JOSE EMANUEL        60300009387118+ 00       603
C134 040436ANIBAL JOSE MARIA          60300001620000+ 00       603
C234 040777OLIVA LAURA CECILIA        60300008134872+ 00       603
1134 041057DE MATO ALEJANDRO ALBERTO  60300009283147+ 00       603
1034 041329PARRA BERNARDO LUIS        60300008029626+ 00       603
C334 041369FIGUEROA DIAZ SILVIA MARINA60300000011556+ 00       603
1934 041375GOMEZ SERGIO DANIEL        60300007834968+ 00       603
0734 041408ROIG EMMANUEL ISMAEL OSMAR 60300003559770+ 00       603
C434 041546SCHULTHEIS ROCIO YASMIN    60300006316190+ 00       603
1334 041818CABRAL WILFREDO HORACIO    60300008383477+ 00       603
0634 041828COLMAN JORGE DANIEL        60300002308223+ 00       603
0834 041869LEDESMA DANIEL GONZALO     60300007932297+ 00       603
C334 041923TEYSSIER LUCAS DANIEL      60300000288752+ 00       603
C134 042041ESCOBAR JUAN JOSE          60300007932297+ 00       603
OS35 042148AGUIRRE GISELLE LORENA     60300007545304+ 00       603
0734 042330DEGROSSI EMMANUEL EDGARDO  60300007924380+ 00       603
AP35 042697BENITEZ MELANIA SOLANGE    60300007446448+ 00       603
C134 042793LEDESMA JUAN CARLOS        60300007828327+ 00       603
1234 043031TRINCHANT MARIA ANDREA     60300008375560+ 00       603
DS35 043528DIMURO NADIA EDITH         60300001297914+ 00       603
0235 043722MARTINETTI IVAN DANIEL     60300005245500+ 00       603
1035 043779SANCHEZ GABRIEL OMAR       60300007347592+ 00       603
C235 043790SIGNORELLO LEONEL FERNANDO 60300007347592+ 00       603
0535 044049RODRIGUEZ MAXIMILIANO ANDRE60300007873446+ 00       603
C135 044102SANCHEZ BUHR SANDRA VIVIANA60300000576225+ 00       603
C335 044613BARBEITO GABRIELA ALEJANDRA60300008495616+ 00       603
2135 044735MUNOZ ADRIAN FACUNDO       60300007248736+ 00       603
0735 044741ORTEGA CARLOS EMMANUEL     60300008495616+ 00       603
C635 044889FLEITA CENTURION JONATHAN L60300007248736+ 00       603
C135 045093FERRARI CARLOS ADRIAN      60300007248736+ 00       603
C435 045158MONZON ELIZABETH ESTEFANIA 60300001449431+ 00       603
0535 045435PISARELLO MICHAEL FERNANDO 60300007673308+ 00       603
0635 045472ACOSTA VICTOR EDUARDO      60300004372366+ 00       603
1535 045528TRINIDAD ELVIS LEONARDO    60300007497851+ 00       603
0635 045535HERNANDEZ LUCAS DAMIAN     60300007585580+ 00       603
C435 045561CANETE PATRICIA GABRIELA   60300000169830+ 00       603
C136 046255BARRETO MAIA LORENZA MARIEL60300008488746+ 00       603
C235 046353NIZ PAOLA GISELA           60300007237608+ 00       603
0235 046729MORINIGO HECTOR GABRIEL    60300000410520+ 00       603
C636 046877GRAHL ALAN JAVIER          60300006804180+ 00       603
C636 048080ZABALA EBER MATIAS         60300006613477+ 00       603
C137 048651FERNANDEZ JUAN MANUEL      60300006217240+ 00       603
0737 048724LOPEZ BRUNO MAXIMILIANO    60300001999400+ 00       603

