DN10 023411NANCUAN VICTOR ADRIAN      61100000000380+ 00       611
3431 024078MAIDANA ROBERTO            61100000000380+ 00       611
DN11 025186TULLO LILIANA ANTONIA      61100000000380+ 00       611
DN10 025716MEDINA RAUL EDUARDO        61100000000380+ 00       611
DN10 026894ALVAREZ SONIA MARIELA      61100000000380+ 00       611
0212 027323CEVALLOS MARIA MAGDALENA   61100000000380+ 00       611
0213 027534GONZALEZ SANDRA FABIANA    61100000000380+ 00       611
DN10 027537GUARINO JOSE LUIS          61100000000380+ 00       611
DN10 027546MEZA CRISTINA MABEL        61100000000380+ 00       611
C711 027554OULEHLA CARLOS DANIEL      61100000000380+ 00       611
DN10 027572VELARDE JUAN EDUARDO       61100000000380+ 00       611
DN11 027588MARTINEZ RUBEN FRANCISCO   61100000000380+ 00       611
DN14 027993VARGAS MARIANA             61100000000380+ 00       611
C130 028011MOLINA MIGUEL EDUARDO      61100000000380+ 00       611
ES30 028103SOLANO LUIS ALBERTO        61100000000380+ 00       611
C212 028136GONZALEZ PABLO DANIEL      61100000000380+ 00       611
C211 028165ROJAS TOMAS CEFERINO       61100000000380+ 00       611
DN10 028168ROMERO PABLO CESAR         61100000000380+ 00       611
C511 028179TOKAYUK MARCELO HORACIO    61100000000380+ 00       611
1532 028474AGUILA JOSE OSVALDO        61100000000380+ 00       611
0213 028520BOLLINI MARIA VERONICA     61100000000380+ 00       611
C513 028599PEREYRA PABLO EGIDIO       61100000000380+ 00       611
OS12 028648BETERETTE MARIA DEL CARMEN 61100000000380+ 00       611
2530 028713MONTES SERGIO ADRIAN       61100000000380+ 00       611
0630 028933MAIDANA RICARDO DANIEL OSCA61100000000380+ 00       611
C231 028949MOLINA VICTOR FERNANDO     61100000000380+ 00       611
0730 029139SALINAS RITA ELIZABETH     61100000000380+ 00       611
DN10 029213ACUNA RICARDO ALBERTO      61100000000380+ 00       611
C211 029216AQUINO GABRIEL ESTEBAN     61100000000380+ 00       611
DN10 029256MARTIN RICARDO HIPOLITO    61100000000380+ 00       611
RP11 029262MONTENEGRO MARCELO OSCAR   61100000000380+ 00       611
AI11 029282SALAZAR RAUL ALEJANDRO     61100000000380+ 00       611
0211 029289SUAREZ WALTER DARIO        61100000000380+ 00       611
DN11 029350CUCCARESE GUILLERMO RAUL   61100000000380+ 00       611
DN10 029512GONZALEZ NESTOR DANIEL     61100000000380+ 00       611
DS13 029513HERRERA RUBEN DARIO        61100000000380+ 00       611
C111 029515LEGUIZAMON ARNALDO DANIEL  61100000000380+ 00       611
C110 029517MOREL DIEGO ALEJANDRO      61100000000380+ 00       611
C411 029518SORIA JUAN MANUEL          61100000000380+ 00       611
CF11 029523ARIAS DIEGO ALEJANDRO      61100000000380+ 00       611
AS13 029540GALLI JORGE ALFREDO        61100000000380+ 00       611
DS11 029552LEVIU JAVIER WALTER        61100000000380+ 00       611
0611 029559MEDINA GUSTAVO ALBERTO     61100000000380+ 00       611
DN11 029562OLIVERA JOSE JULIAN        61100000000380+ 00       611
0211 029566ROTELA JUAN ERNESTO        61100000000380+ 00       611
DN11 029575CANTEROS CRISTIAN ALFREDO  61100000000380+ 00       611
DN11 029577LOREIRO SERGIO FABIAN      61100000000380+ 00       611
DS30 029708SCUDERI ANALIA             61100000000380+ 00       611
C211 029757CERRUDO FACUNDO SEBASTIAN  61100000000380+ 00       611
C412 029763BLANCO ROSANA GRACIELA     61100000000380+ 00       611
RP11 029775GONZALEZ POMYKALA DIEGO DAV61100000000380+ 00       611
0511 029778JUAREZ MARCELO MIGUEL      61100000000380+ 00       611
0712 029780LEZCANO GUSTAVO FABIAN     61100000000380+ 00       611
C212 029783LOZA RUBEN DARIO           61100000000380+ 00       611
C211 029788MERINO CARLOS ADRIAN       61100000000380+ 00       611
SC11 029790MORALES GASTON VICTOR      61100000000380+ 00       611
0711 029792ORTIZ SERGIO ANTONIO       61100000000380+ 00       611
C311 029800SILVERO CLAUDIO DANIEL     61100000000380+ 00       611
0211 029802SORIA MERCADO ISMAEL ADALBE61100000000380+ 00       611
0611 029803VARGAS MIGUEL ORLANDO      61100000000380+ 00       611
DN11 029810SANCHEZ CRISTIAN JAVIER    61100000000380+ 00       611
1530 029816BRUNA VICTOR RAMON         61100000000380+ 00       611
C614 029864BALGUENET CARLOS RODOLFO   61100000000380+ 00       611
DN30 030006ROJAS LILIANA GABRIELA     61100000000380+ 00       611
SC30 030013SORIA ALEJANDRA ILEANA     61100000000380+ 00       611
C111 030018FERNANDEZ ARIEL EDUARDO    61100000000380+ 00       611
1412 030019FERNANDEZ DIMAS JAVIER     61100000000380+ 00       611
1912 030022OVANDO CARLOS ALBERTO      61100000000380+ 00       611
C111 030024RODRIGUEZ SERGIO GUSTAVO   61100000000380+ 00       611
1211 030025ALVELA ESTEBAN ALBERTO     61100000000380+ 00       611
C412 030030BRANDI PIERINA DEL CARMEN  61100000000380+ 00       611
1511 030033CANESSINI ALEJANDRO ADRIAN 61100000000380+ 00       611
1912 030036CRIPPA RAUL CESAR          61100000000380+ 00       611
1111 030037FERNANDEZ ANGEL MARCELO    61100000000380+ 00       611
0411 030039GONZALEZ ALEJANDRO ESTEBAN 61100000000380+ 00       611
DS11 030040GONZALEZ ROQUE ADRIAN      61100000000380+ 00       611
0512 030041HIDALGO WALTER CAMILO      61100000000380+ 00       611
C611 030042MACIOCHA ALFREDO ARIEL     61100000000380+ 00       611
OS11 030044MALICH PABLO ELISEO        61100000000380+ 00       611
EP11 030047PAIVA GRISELDA ANALIA      61100000000380+ 00       611
0230 030068GONZALEZ PABLO JAVIER      61100000000380+ 00       611
0732 030084RIQUELME ELVIRA TERESA     61100000000380+ 00       611
2212 030086SOLAR MARTIN CEFERINO      61100000000380+ 00       611
C614 030119BUGARI JESUS SANTOS        61100000000380+ 00       611
DN12 030122MURUA CAROLINA BEATRIZ     61100000000380+ 00       611
1912 030190BOGUN MARIEL NANCY         61100000000380+ 00       611
CF30 030195TROTTA MIGUEL JULIAN       61100000000380+ 00       611
DS30 030215AZATEGUI MARIO ARIEL       61100000000380+ 00       611
DN30 030296MURANO JUAN JOSE           61100000000380+ 00       611
DS30 030299PALOMINO JAVIER ALEJANDRO  61100000000380+ 00       611
C230 030302PAZ HECTOR MIGUEL          61100000000380+ 00       611
C130 030304PELOZO GUSTAVO JAVIER      61100000000380+ 00       611
DS30 030330SANCHEZ SANTIAGO JAVIER    61100000000380+ 00       611
0230 030331SANABRIA SILVIO GABRIEL    61100000000380+ 00       611
C631 030339SPERONI SERGIO LEONARDO    61100000000380+ 00       611
DN30 030341TORTORO GUSTAVO VICENTE    61100000000380+ 00       611
EP30 030347VERON ROBERTO OSCAR        61100000000380+ 00       611
1330 030361CABRAL MONICA BIBIANA      61100000000380+ 00       611
ES30 030391SILVEYRA PATRICIA VERONICA 61100000000380+ 00       611
2230 030398ZERPA SONIA BEATRIZ        61100000000380+ 00       611
DN12 030404PAOLUCCI NATALIA ALEJANDRA 61100000000380+ 00       611
3412 030406ZARATE LUCRECIA ARACELI    61100000000380+ 00       611
0414 030407BARRIOS LILIANA MABEL      61100000000380+ 00       611
ES31 030438LUNA OSVALDO CESAR         61100000000380+ 00       611
0630 030446ORTIZ CRISTIAN ADRIAN      61100000000380+ 00       611
C630 030471CREMADES FELICITAS         61100000000380+ 00       611
C112 030513ALDERETE RICARDO EVELIO    61100000000380+ 00       611
DN12 030514ALMARAS OSCAR DIONICIO     61100000000380+ 00       611
C112 030516ARRIAGADA GUSTAVO DANIEL   61100000000380+ 00       611
1712 030517AVILA FERNANDO HERMINIO    61100000000380+ 00       611
C215 030523CANESSINI JORGE DARIO      61100000000380+ 00       611
0212 030526DELGADO MABEL SOLEDAD      61100000000380+ 00       611
3412 030529FLORES DIEGO OSCAR         61100000000380+ 00       611
3512 030534LUTRINGER GUSTAVO DANIEL   61100000000380+ 00       611
DN12 030537MEDINA DANTE ERICK         61100000000380+ 00       611
C412 030544PAVON PAOLA BEATRIZ        61100000000380+ 00       611
C312 030546PEREZ FERNANDA SOLEDAD     61100000000380+ 00       611
1015 030548RODRIGUEZ ROBERTO MARTIN   61100000000380+ 00       611
1312 030549ROMEO GUSTAVO MARTIN       61100000000380+ 00       611
C112 030550SEGOVIA ENRIQUE GUILLERMO  61100000000380+ 00       611
C312 030552SILVA CISNERO ALICIA BEATRI61100000000380+ 00       611
DN11 030559GOROSITO CARBALLO FABIO REN61100000000380+ 00       611
0212 030560HERRERA NELSON DAVID       61100000000380+ 00       611
C513 030561LEGUIZAMON RAMON JULIAN    61100000000380+ 00       611
DN11 030562QUINTRAMAN JORGE ALEJANDRO 61100000000380+ 00       611
C612 030568CARDOZO LEONARDO ANDRES    61100000000380+ 00       611
DS30 030577ACEVEDO GUSTAVO AMADO      61100000000380+ 00       611
0630 030583ALVAREZ NESTOR OMAR        61100000000380+ 00       611
0630 030592BIZAMA ALEJANDRO FABIAN    61100000000380+ 00       611
1715 030601FERNANDEZ ESCOBAR RUBEN ALF61100000000380+ 00       611
C130 030667ALONSO GASTON GUILLERMO    61100000000380+ 00       611
0730 030674ARCE CRISTIAN JAVIER       61100000000380+ 00       611
C130 030675AREDES CARLOS ALBERTO      61100000000380+ 00       611
DN30 030682BABONI ALFREDO ANTONIO     61100000000380+ 00       611
C130 030686BARRIOS SERGIO DANTE       61100000000380+ 00       611
1130 030688BENITEZ GABRIEL ANDRES     61100000000380+ 00       611
C130 030689BENITEZ JUAN MANUEL        61100000000380+ 00       611
3430 030693BLANCO ORLANDO HUGO MAXIMIL61100000000380+ 00       611
3430 030697BRAVO MARCELO DANIEL       61100000000380+ 00       611
C130 030708CANDIA MIGUEL ANGEL        61100000000380+ 00       611
1930 030710CARDOZO CARLOS ALBERTO     61100000000380+ 00       611
1130 030711CASAL DANIEL MARCELINO     61100000000380+ 00       611
1130 030716CINAT VICTOR DAVID         61100000000380+ 00       611
C130 030717CLARION ROBERTO MARTIN     61100000000380+ 00       611
C730 030722CORTES ROBERTO DANIEL      61100000000380+ 00       611
0230 030724COSTILLA SAMUEL ENRIQUE    61100000000380+ 00       611
1030 030727CHENA PAULINO              61100000000380+ 00       611
0630 030728DELGADO ELVIO ALBERTO      61100000000380+ 00       611
C130 030741FLEYTA CRISTIAN ADRIAN     61100000000380+ 00       611
C231 030742FORTUNATO PABLO MARCO RODRI61100000000380+ 00       611
C230 030755GAUNA GUSTAVO RENE         61100000000380+ 00       611
SC30 030766HERRERA PABLO ANDRES       61100000000380+ 00       611
C130 030768IBARRA OSMAR FRANCO        61100000000380+ 00       611
C130 030770JARA RAMON ROLANDO         61100000000380+ 00       611
C130 030779LUNA ABELARDO DANIEL       61100000000380+ 00       611
C230 030782MAIDANA ALEJANDRO MIGUEL   61100000000380+ 00       611
C130 030793NEGRETTES ALCIDES DANIEL   61100000000380+ 00       611
C130 030794NIZ RUBEN ALCIDES          61100000000380+ 00       611
DN30 030797OCCELLI CLAUDIO ADRIAN     61100000000380+ 00       611
1730 030800OJEDA ROLANDO JAVIER       61100000000380+ 00       611
SC30 030802OVEJERO ESTEBAN NESTOR     61100000000380+ 00       611
3430 030805PANIAGUA ROBERTO CARLOS    61100000000380+ 00       611
1130 030808PEREYRA ALCIDES RUBEN      61100000000380+ 00       611
C230 030822RODRIGUEZ PABLO MIGUEL     61100000000380+ 00       611
C430 030823ROMAN SERGIO NORBERTO      61100000000380+ 00       611
C230 030824ROMERO DIEGO NICOLAS       61100000000380+ 00       611
C130 030826RUIZ CLAUDIO DANIEL        61100000000380+ 00       611
C230 030828SANABRIA EDGARDO EFIGENIO  61100000000380+ 00       611
RP30 030833SAUCEDO RUBEN ARIEL        61100000000380+ 00       611
DS30 030838SILVERA RAUL ALBERTO       61100000000380+ 00       611
3530 030839SLUSAR GERMAN RAUL         61100000000380+ 00       611
3430 030841STILLISANO JORGE MIGUEL    61100000000380+ 00       611
C130 030843TABARE DIEGO VICTOR        61100000000380+ 00       611
C130 030855ACOSTA ANALIA MARIELA      61100000000380+ 00       611
OS30 030858ALONSO NANCY INES          61100000000380+ 00       611
C130 030863BASUALDO MARIA GABRIELA    61100000000380+ 00       611
C430 030870COSSARI VANESA BEATRIZ     61100000000380+ 00       611
C130 030871CHAMORRO CYNTHIA YAMILA    61100000000380+ 00       611
C130 030882GONZALEZ MIRTA LUJAN       61100000000380+ 00       611
3430 030886LUNA BEATRIZ ELIZABETH     61100000000380+ 00       611
C230 030893OTAZO MARIA GLORIA         61100000000380+ 00       611
C630 030894RIOS ANDREA FABIANA        61100000000380+ 00       611
C130 030901AMICA VERONICA KARINA      61100000000380+ 00       611
0230 030910BERTONA CRISTIAN MARIO     61100000000380+ 00       611
SC30 030911CARDOZO ALBERTO OMAR       61100000000380+ 00       611
C130 030923SALINAS MARIA PATRICIA     61100000000380+ 00       611
1913 030928BRAUN CARLOS LEANDRO       61100000000380+ 00       611
3512 030930CACERES GUSTAVO ALEJANDRO  61100000000380+ 00       611
0212 030938SENOFF JORGE MARCELO       61100000000380+ 00       611
C112 030939AVENI JOSE LUIS FRANCISCO  61100000000380+ 00       611
CF12 030942CABRERA DANIEL ALEJANDRO   61100000000380+ 00       611
DN12 030948COSTADONI CRISTIAN RAMON   61100000000380+ 00       611
C612 030950FIORINO MARIA DE LOS MILAGR61100000000380+ 00       611
DS12 030954GONZALEZ JORGE ABRAHAM     61100000000380+ 00       611
0212 030959MASOERO NESTOR ARIEL       61100000000380+ 00       611
C612 030964PAZ CAROLINA BEATRIZ       61100000000380+ 00       611
ES12 030967RAICH WALTER ARIEL         61100000000380+ 00       611
C512 030970RODRIGUEZ SAEZ HUGO LUIS   61100000000380+ 00       611
C112 030973SOTO ALDO DANIEL           61100000000380+ 00       611
C112 030974VARGAS RICARDO ALBERTO     61100000000380+ 00       611
1930 030980AYALA EMILIANO             61100000000380+ 00       611
1930 030985GOMEZ DANIEL OMAR          61100000000380+ 00       611
C130 030989PUENTE GERONIMO ROMAN      61100000000380+ 00       611
C530 030994CHAPARRO OSCAR GABRIEL     61100000000380+ 00       611
SC30 030996PAREDES LUIS ALBERTO       61100000000380+ 00       611
C130 030997PASTOR FRANCISCO DAMIAN    61100000000380+ 00       611
C230 030998PEREIRA LUCIANO DIEGO      61100000000380+ 00       611
C130 031000VERON GUSTAVO ENRIQUE OMAR 61100000000380+ 00       611
SC30 031007SORIA DANIELA SILVINA      61100000000380+ 00       611
1130 031011ACEVEDO ARIEL CLEMENTE     61100000000380+ 00       611
C130 031013ACEVEDO JOSE LUIS          61100000000380+ 00       611
C230 031014ACOSTA CHRISTIAN ARIEL     61100000000380+ 00       611
1730 031015ACUNA JULIO CESAR          61100000000380+ 00       611
0230 031017AGUILAR VARGAS JUAN MARCELO61100000000380+ 00       611
C131 031022ALVAREZ PABLO ALEJANDRO    61100000000380+ 00       611
C430 031023AMARILLA OSCAR ANTONIO     61100000000380+ 00       611
C130 031025AVENI MARTIN FEDERICO      61100000000380+ 00       611
0430 031028BADER JUAN JOSE            61100000000380+ 00       611
C230 031030BARBONA DIEGO RAMON        61100000000380+ 00       611
C230 031033BARRANQUERO VICTOR DAVID   61100000000380+ 00       611
0730 031035BARRIOS SERGIO ARIEL       61100000000380+ 00       611
EP30 031038BENITEZ ANDRES DANIEL      61100000000380+ 00       611
DS30 031042CABRAL DAMIAN HUGO         61100000000380+ 00       611
1230 031043CABRERA JORGE DANIEL       61100000000380+ 00       611
C230 031044CABRERA ORLANDO CESAR      61100000000380+ 00       611
C630 031045CABRERA PEDRO GABRIEL      61100000000380+ 00       611
SC30 031046CACERES RUBEN DARIO        61100000000380+ 00       611
0230 031047CALDERON JAVIER GUSTAVO    61100000000380+ 00       611
0230 031049CALLOZZO CIFALA GUSTAVO DAN61100000000380+ 00       611
0233 031051CANETE HUGO EDUARDO        61100000000380+ 00       611
C130 031063CAYITA VICTOR ADRIAN       61100000000380+ 00       611
C230 031064CENA CHRISTIAN ARIEL       61100000000380+ 00       611
0233 031065CENTURION ANDRES EDUARDO   61100000000380+ 00       611
C630 031070CORIA HUGO MARTIN FACUNDO  61100000000380+ 00       611
C530 031074DIAZ JAVIER OSCAR          61100000000380+ 00       611
C130 031076DIAZ MIGUEL ANGEL          61100000000380+ 00       611
C430 031077DIEGUEZ ALBERTO JOSE       61100000000380+ 00       611
1730 031080DRAHANCHUK GUSTAVO GERMAN  61100000000380+ 00       611
C630 031081DUARTE PABLO ADRIAN        61100000000380+ 00       611
C130 031084ESCOBAR ANIBAL MAXIMILIANO 61100000000380+ 00       611
C730 031085ESCOBAR JOSE HECTOR        61100000000380+ 00       611
3430 031087ESQUIVEL EDUARDO NICOLAS   61100000000380+ 00       611
0630 031088ESQUIVEL PABLO ARIEL       61100000000380+ 00       611
1730 031090FALCON FERNANDO RENE       61100000000380+ 00       611
EP30 031091FARIAS JORGE JAVIER        61100000000380+ 00       611
C130 031093FERNANDEZ LEANDRO MARCELO  61100000000380+ 00       611
C130 031094FERNANDEZ MARCELO HERNAN   61100000000380+ 00       611
C130 031097FIGUEREDO DAVID GASTON     61100000000380+ 00       611
0730 031099FLORES GUSTAVO PABLO       61100000000380+ 00       611
C130 031102FRANCO HECTOR RUBEN        61100000000380+ 00       611
C530 031104FRETES WALTER FABIAN       61100000000380+ 00       611
2130 031105GALEANO CARLOS ARMANDO     61100000000380+ 00       611
CF30 031106GALLO MAURO HERNAN         61100000000380+ 00       611
0230 031107GAMARRA GREGORIO           61100000000380+ 00       611
C130 031109GARCIA MARIANO ALBERTO     61100000000380+ 00       611
C130 031110GARCIA OMAR ALEJANDRO      61100000000380+ 00       611
C230 031111GASTI CARLOS HECTOR        61100000000380+ 00       611
ES31 031115GODOY SERGIO DARIO         61100000000380+ 00       611
0630 031116GOMEZ CESAR MARTIN         61100000000380+ 00       611
0230 031118GOMEZ DIEGO MARTIN         61100000000380+ 00       611
C130 031120GOMEZ WALTER MARTIN        61100000000380+ 00       611
1030 031124GUTIERREZ JUAN MARCELO     61100000000380+ 00       611
C531 031126GUTIERREZ RUBEN ARNALDO    61100000000380+ 00       611
C530 031132JACOB DANIEL OSCAR         61100000000380+ 00       611
DN30 031136LACUADRA VICTOR MARIANO    61100000000380+ 00       611
0230 031137LAGORIO CRISTIAN ALEJANDRO 61100000000380+ 00       611
0230 031138LEDESMA HECTOR JAVIER      61100000000380+ 00       611
3230 031140LESCANO LUCAS ARMANDO      61100000000380+ 00       611
C230 031143LOPEZ ALBERTO ANIBAL       61100000000380+ 00       611
SC30 031147LOPEZ GODOY HECTOR DARIO   61100000000380+ 00       611
C230 031150MAGUNA LUIS ALBERTO        61100000000380+ 00       611
C130 031152MANSILLA LUIS ENRIQUE      61100000000380+ 00       611
1130 031153MANSILLA RAFAEL SERGIO     61100000000380+ 00       611
ES30 031156MARTINEZ ALBERTO DANIEL    61100000000380+ 00       611
C130 031161MIERES ORLANDO JAVIER      61100000000380+ 00       611
0730 031162MOLINA ADRIAN GABRIEL      61100000000380+ 00       611
C130 031163MOLINA HECTOR ALBERTO      61100000000380+ 00       611
1131 031166MONZON ANGEL ARIEL         61100000000380+ 00       611
CF30 031168MORALES ANGEL GABRIEL      61100000000380+ 00       611
C130 031172NAVARRO ARIEL WALBERTO     61100000000380+ 00       611
C130 031174OBREGON GREGORIO           61100000000380+ 00       611
C132 031177OKULCZYK VICTOR JAVIER     61100000000380+ 00       611
0730 031178ORTEGA MARCELO RUBEN       61100000000380+ 00       611
C130 031179OSUNA MATIAS LEONARDO      61100000000380+ 00       611
ES30 031182PENNELLA JUAN MARTIN       61100000000380+ 00       611
1730 031183PEREZ HECTOR LUIS          61100000000380+ 00       611
0733 031188PUPPO GUSTAVO JAVIER       61100000000380+ 00       611
C130 031191RAMIREZ VICTOR ALEJANDRO   61100000000380+ 00       611
0630 031193RAMOA CARLOS GABRIEL       61100000000380+ 00       611
C130 031194RIOS LEONARDO OMAR         61100000000380+ 00       611
C130 031197ROBLEDO PABLO RAFAEL       61100000000380+ 00       611
0730 031202ROMAN ANGEL NORBERTO       61100000000380+ 00       611
C130 031203ROMERO FERNANDO SEBASTIAN  61100000000380+ 00       611
C130 031206ROMERO MARIO RAUL          61100000000380+ 00       611
1330 031208RUPPEL RODRIGO FACUNDO     61100000000380+ 00       611
C130 031214SANTILLAN JOSE ERNESTO     61100000000380+ 00       611
1134 031215SAUCO RAMON CATALINO NAZARE61100000000380+ 00       611
1730 031218SENOFF GUSTAVO GABRIEL     61100000000380+ 00       611
DS30 031219SERRA GASTON               61100000000380+ 00       611
EP30 031220SHEARER CARLOS LEONARDO    61100000000380+ 00       611
C130 031221SILVA MAZUQUELLES MIGUEL AN61100000000380+ 00       611
1730 031222SOLEY LUIS FRANCISCO       61100000000380+ 00       611
C133 031223SORIA CLAUDIO DOMINGO      61100000000380+ 00       611
DS30 031224SORIA MARIANO NICOLAS      61100000000380+ 00       611
0630 031227SOSA SIMON DANIEL          61100000000380+ 00       611
C130 031228SPADA ANTONIO LUIS         61100000000380+ 00       611
0732 031229SPERONI CESAR LUIS         61100000000380+ 00       611
C133 031230SPERONI MARIO ALBERTO      61100000000380+ 00       611
0830 031231SUAREZ HUGO ALDO           61100000000380+ 00       611
1130 031232SUAREZ JUAN RAUL           61100000000380+ 00       611
DS30 031234TARCAYA LUIS ALBERTO       61100000000380+ 00       611
C230 031244VALLEJOS DIEGO             61100000000380+ 00       611
C230 031246VARESCO GERARDO MIGUEL     61100000000380+ 00       611
C230 031250VELCOFF CLAUDIO NICOLAS    61100000000380+ 00       611
DS30 031251VERA JORGE VIDAL           61100000000380+ 00       611
C136 031252VERA RAMON GERMAN          61100000000380+ 00       611
1730 031254VERON GUSTAVO JAVIER       61100000000380+ 00       611
C513 031257WACELINKA ALDO PABLO JOSE  61100000000380+ 00       611
0630 031261ACEVEDO MARIA AURELIA      61100000000380+ 00       611
1030 031262ACOSTA TORRES LORENA SOLEDA61100000000380+ 00       611
1730 031263AHUMADA LAURA CORINA       61100000000380+ 00       611
1030 031264ALARCON VIVIANA RAMONA     61100000000380+ 00       611
OS30 031266BOBIS GLADYS ESTHER        61100000000380+ 00       611
1430 031269CHANQUEO ELCIRA            61100000000380+ 00       611
C430 031272CORREA LOURDES ANALIA      61100000000380+ 00       611
0230 031274DEL VALLE ELISA            61100000000380+ 00       611
1230 031279GIMENEZ CLAUDIA FERNANDA   61100000000380+ 00       611
C112 031282GONZALEZ ELEONORA MARCELA  61100000000380+ 00       611
AI13 031285LANZILLOTTA GRACIELA  SUSAN61100000000380+ 00       611
0230 031296MORENO MARIANA RAQUEL      61100000000380+ 00       611
C730 031297MRHAC MARIELA CINTHIA      61100000000380+ 00       611
C730 031298MRHAC YANINA PAOLA         61100000000380+ 00       611
SC30 031299PEREZ PATRICIA ELISABET    61100000000380+ 00       611
OS30 031300RAMIREZ ROMINA ANDREA      61100000000380+ 00       611
DN30 031302RETAMAR SANDRA GABRIELA    61100000000380+ 00       611
0230 031304RIOS CARMEN LORENA         61100000000380+ 00       611
C630 031306SANCHEZ ROMINA CECILIA     61100000000380+ 00       611
DS30 031307TAPIA REGNER ANDREA FABIANA61100000000380+ 00       611
C130 031308TOLEDO VERONICA MARIELA    61100000000380+ 00       611
0230 031309TORRES ROMINA LILIANA      61100000000380+ 00       611
1730 031312BAEZ CLAUDIO ARIEL         61100000000380+ 00       611
C212 031319SESE GUSTAVO GABRIEL RAMIRO61100000000380+ 00       611
DN12 031322FIGUEROA TRABADO JOSE LUIS 61100000000380+ 00       611
1714 031326YEDRO ERNESTO DANIEL       61100000000380+ 00       611
ES30 031333AYALA ABELINO              61100000000380+ 00       611
1333 031334BANEGAS MARIA DE LOS ANGE  61100000000380+ 00       611
DT30 031336FEIJOO CARLOS HERNAN       61100000000380+ 00       611
C231 031337INSAURRALDE PABLO ALEJANDRO61100000000380+ 00       611
0214 031341OCAMPOS HUGO DANIEL        61100000000380+ 00       611
DT30 031342REYNE JOSE RAUL            61100000000380+ 00       611
DN30 031349MEJIA LAURA BEATRIZ        61100000000380+ 00       611
1730 031350MICHONOVICH GLENDA         61100000000380+ 00       611
0230 031353RIVAS EMMANUEL             61100000000380+ 00       611
0230 031354RODRIGUEZ DIANA EVANGELINA 61100000000380+ 00       611
SC30 031357VILDOZA CAROLINA NATALIA   61100000000380+ 00       611
1230 031363BUENO OCTAVIO JAVIER       61100000000380+ 00       611
1031 031373SILVESTRI SILVANA PATRICIA 61100000000380+ 00       611
C330 031377ELGERT JUAN MANUEL         61100000000380+ 00       611
1130 031382TORRES NORBERTO            61100000000380+ 00       611
1630 031383GOUSSAL GLORIA CAROLINA    61100000000380+ 00       611
OS12 031385CASTRO SERGIO DANIEL       61100000000380+ 00       611
C130 031389GALEANO SERGIO HERNAN      61100000000380+ 00       611
EP12 031394SASSI HECTOR DANIEL        61100000000380+ 00       611
C613 031396FERNANDEZ FERNANDO HERNAN  61100000000380+ 00       611
DN12 031397FLORES ALEJANDRO JOSE      61100000000380+ 00       611
C513 031398MALICH FRANCO ABELARDO     61100000000380+ 00       611
C512 031399BLANCO MARCELO ESTEBAN     61100000000380+ 00       611
0812 031400AGUZIN VALERIA SOLEDAD     61100000000380+ 00       611
CF12 031401MEZA FERNANDO ARIEL        61100000000380+ 00       611
0212 031402GARCIA DIEGO ALBERTO       61100000000380+ 00       611
1212 031404FERREYRA EMILIO NICOLAS    61100000000380+ 00       611
C114 031405MATOSIAN DAMIAN NESTOR     61100000000380+ 00       611
C413 031407LLANO YOLANDA ESTER        61100000000380+ 00       611
0412 031408VALENZUELA RAFAEL OMAR     61100000000380+ 00       611
EP12 031409RIOS OSCAR MANUEL          61100000000380+ 00       611
DN12 031411MILISICH MIGUEL SEBASTIAN  61100000000380+ 00       611
C312 031412GUAYMAS MAXIMILIANO DEMETRI61100000000380+ 00       611
C212 031414ESCOBAR CRISTIAN JOSE      61100000000380+ 00       611
1012 031415ROMAN MIGUEL ALBERTO       61100000000380+ 00       611
1012 031416LUNA MAURICIO SEBASTIAN    61100000000380+ 00       611
DN12 031417CAFFERATA PABLO MARIANO    61100000000380+ 00       611
1512 031420RIQUELME PEDRO FABIAN      61100000000380+ 00       611
0513 031421ORTIZ MARTIN EDUARDO       61100000000380+ 00       611
C212 031425PEDRAZA CARLOS RUBEN       61100000000380+ 00       611
AP12 031426PARRA HUGO ORLANDO         61100000000380+ 00       611
1113 031427ISOLINI WALTER ARIEL       61100000000380+ 00       611
DS12 031431ESCALANTE CRISTIAN FERNANDO61100000000380+ 00       611
0412 031432GONZALEZ MARIELA LORENA    61100000000380+ 00       611
DN11 031433AVENI MATIAS ALBERTO       61100000000380+ 00       611
DN12 031434MATHIEU EMILIANA URSULA    61100000000380+ 00       611
DN12 031435POCLAVA WALTER GASTON      61100000000380+ 00       611
0430 031437AIMAR LEONARDO MARCELO     61100000000380+ 00       611
DN30 031441BLANCO MARCELO ROBERTO     61100000000380+ 00       611
C230 031444FERNANDEZ ESTEBAN EDUARDO  61100000000380+ 00       611
0430 031445FERNANDEZ LEONARDO JAVIER  61100000000380+ 00       611
1730 031446FLEITAS GUSTAVO SANTIAGO   61100000000380+ 00       611
C130 031447GARCIA ALBERTO ULISES      61100000000380+ 00       611
1730 031448GAUTO ESTEBAN RAMON        61100000000380+ 00       611
C630 031450GORDILLO LEONARDO ADRIAN   61100000000380+ 00       611
DN30 031457LOTO PABLO FEDERICO        61100000000380+ 00       611
C214 031458LUDUENA MARCOS ADRIAN      61100000000380+ 00       611
1730 031459MACIEL DELGADO MANUEL GERAR61100000000380+ 00       611
0230 031461MARGULES FERNANDO GABRIEL  61100000000380+ 00       611
1730 031464MONZON SERGIO OSCAR        61100000000380+ 00       611
0614 031465OCAMPO WALTER HORACIO      61100000000380+ 00       611
0730 031471PEREYRA DENIS JAVIER       61100000000380+ 00       611
C630 031474RASQUETTI MARIO DAMIAN     61100000000380+ 00       611
0430 031478RODRIGUEZ JOSE OMAR        61100000000380+ 00       611
C414 031481ROSSO PABLO OSCAR          61100000000380+ 00       611
C114 031483SANCHEZ JAVIER GUSTAVO     61100000000380+ 00       611
0430 031484SANTILLAN MARIO DANIEL     61100000000380+ 00       611
0730 031497BARBOZA TERESA CAROLINA    61100000000380+ 00       611
C212 031503CAAMANO ROXANA ISABEL      61100000000380+ 00       611
C113 031504CARO MARIA ANDREA          61100000000380+ 00       611
0230 031507COSTA GABRIELA INES        61100000000380+ 00       611
SC30 031508ERUT GISELA MARISOL        61100000000380+ 00       611
C130 031512LEZCANO SILVANA LEONOR     61100000000380+ 00       611
RP30 031520NAHIM ALDANA OFELIA        61100000000380+ 00       611
1630 031523PINOF KARINA BEATRIZ       61100000000380+ 00       611
C230 031525RODRIGUEZ ALEJANDRA        61100000000380+ 00       611
0730 031530SPERONI MONICA MABEL       61100000000380+ 00       611
C431 031539GUTIERREZ MIRIAM ANALIA    61100000000380+ 00       611
C130 031540FLORES HECTOR OMAR         61100000000380+ 00       611
0531 031544ABRAHAM HORACIO FERNANDO   61100000000380+ 00       611
1131 031545ACEVEDO FERNANDO JOSE      61100000000380+ 00       611
1030 031547ACOSTA SERGIO ADRIAN       61100000000380+ 00       611
C130 031551ALARCON SILVIO MARTIN      61100000000380+ 00       611
0231 031552ALBASI DIEGO SEBASTIAN     61100000000380+ 00       611
EP30 031553ALCARAZ RICARDO FABIAN     61100000000380+ 00       611
0230 031554ALDERETE JAVIER ADRIAN     61100000000380+ 00       611
0531 031557ALVAREZ PABLO SEBASTIAN    61100000000380+ 00       611
1430 031560ANDRADE FELIX ADRIAN       61100000000380+ 00       611
C230 031561ANTINAO JOSE LUIS          61100000000380+ 00       611
1230 031562ARANDA LEOPOLDO ALBERTO    61100000000380+ 00       611
0634 031564ARCOS TOMAS ARIEL          61100000000380+ 00       611
0430 031566ARIAS NORBERTO RAUL        61100000000380+ 00       611
C230 031567ARIAS VICTOR OSCAR         61100000000380+ 00       611
C531 031569AVILES ANDRES FLORINDO     61100000000380+ 00       611
1030 031571AYALA CRISTIAN DANIEL      61100000000380+ 00       611
EP30 031572BALMACEDA WALTER DANIEL    61100000000380+ 00       611
1030 031573BANGERTE MARCOS ANTONIO    61100000000380+ 00       611
3031 031577BASSA DIEGO MARTIN         61100000000380+ 00       611
0430 031578BELIZ PABLO EZEQUIEL       61100000000380+ 00       611
C130 031580BENITEZ JUAN CARLOS        61100000000380+ 00       611
SC30 031581BONATO GONZALO GABRIEL     61100000000380+ 00       611
1030 031582BORDON RUBEN IGNACIO       61100000000380+ 00       611
0530 031583BORTHIRY EDGAR SEBASTIAN   61100000000380+ 00       611
DS31 031584BRAVO FABIAN GERARDO       61100000000380+ 00       611
0531 031585BRAVO PABLO DANIEL         61100000000380+ 00       611
C230 031587CABALLERO CESAR AUGUSTO    61100000000380+ 00       611
0230 031589CACERES MAXIMILIANO ERNESTO61100000000380+ 00       611
0430 031590CACEREZ AGUSTIN ORLANDO    61100000000380+ 00       611
C230 031595CASTILLO RAMON ALBERTO     61100000000380+ 00       611
1530 031597CHARRAS ARIEL OSVALDO      61100000000380+ 00       611
C331 031599CIPRIAN GUSTAVO RUBEN      61100000000380+ 00       611
DS30 031600COCERES JOSE ALFREDO       61100000000380+ 00       611
0430 031602CORNEJO VAZQUEZ PABLO J.   61100000000380+ 00       611
0230 031603CRISTALDO ALDO ARIEL       61100000000380+ 00       611
C130 031604CRUZ LUIS ALBERTO          61100000000380+ 00       611
0631 031606CURUHUALA WALTER HUGO      61100000000380+ 00       611
SC30 031607DA ROSA ROBERTO CARLOS     61100000000380+ 00       611
0730 031610DEL BALZO SANTIAGO HERNAN  61100000000380+ 00       611
2131 031612DIAZ HECTOR RENE           61100000000380+ 00       611
C130 031617DOMENECH JOSE ROBERTO      61100000000380+ 00       611
0730 031618DUARTE BRUNO MATIAS        61100000000380+ 00       611
C231 031619DUARTE RAFAEL ARMANDO      61100000000380+ 00       611
C230 031621EDELMAN OSCAR ALEJANDRO    61100000000380+ 00       611
C130 031622ENRIQUE FAVIO ALBERTO      61100000000380+ 00       611
C631 031626ETCHEGARAY CELSO GUSTAVO   61100000000380+ 00       611
C130 031630FERREIRA DOS SANTOS RAMON O61100000000380+ 00       611
C330 031631FLEITA WALTER RAFAEL       61100000000380+ 00       611
C230 031632FLORES DIEGO ARIEL         61100000000380+ 00       611
C230 031633FLORES DIEGO RAMON MARTIN  61100000000380+ 00       611
C230 031634FLORES EDUARDO ISMAEL      61100000000380+ 00       611
1431 031635FLORES LUIS EDUARDO        61100000000380+ 00       611
C131 031636FLORES MATIAS APOLINARIO   61100000000380+ 00       611
3431 031637FLORES OMAR EDUARDO        61100000000380+ 00       611
1130 031638FLORES RUBEN ANDRES        61100000000380+ 00       611
1930 031639FLOREZ FRANCISCO EMILIO    61100000000380+ 00       611
C230 031642FRANCO CRISTIAN EULISES    61100000000380+ 00       611
0431 031643FUNES VICTOR OSCAR         61100000000380+ 00       611
OS30 031645GALERA GASTON DARIO        61100000000380+ 00       611
SC31 031646GARCES HERNAN FACUNDO      61100000000380+ 00       611
0631 031648GARCIA RICARDO MANUEL      61100000000380+ 00       611
C130 031650GAUNA GUSTAVO FEDERICO     61100000000380+ 00       611
1730 031651GAUTO JORGE RENE           61100000000380+ 00       611
1431 031652GHERBI SERGIO JESUS        61100000000380+ 00       611
0231 031653GIMENEZ MARIO ANDRES       61100000000380+ 00       611
0231 031655GODOY MARTIN               61100000000380+ 00       611
1932 031656GODOY RUBEN ARMANDO        61100000000380+ 00       611
C231 031657GOMEZ DANIEL ALBERTO       61100000000380+ 00       611
0730 031661GOMEZ ACOSTA EDGARDO JAVIER61100000000380+ 00       611
C231 031663GONZALEZ ROQUE ELISEO      61100000000380+ 00       611
0730 031664GONZALEZ SERGIO DAVID      61100000000380+ 00       611
0431 031665GORBACHESKY FRANCO DAMIAN  61100000000380+ 00       611
C430 031671HERRERA DIEGO ALBERTO      61100000000380+ 00       611
C231 031672HERRERA GUSTAVO HORACIO    61100000000380+ 00       611
3431 031673HERRERA LEONARDO RAUL      61100000000380+ 00       611
C531 031674HERRERO CEFERINO ARTURO    61100000000380+ 00       611
1430 031675HUAIQUIL JULIO HUMBERTO    61100000000380+ 00       611
C230 031677IBARRA DIEGO SEBASTIAN     61100000000380+ 00       611
1231 031680JARA CRISTIAN DANIEL       61100000000380+ 00       611
0730 031682JUAREZ JUAN DANIEL         61100000000380+ 00       611
C130 031683KNORZ RAMON ADOLFO         61100000000380+ 00       611
1115 031688LEGUIZAMON GUSTAVO DANIEL  61100000000380+ 00       611
C230 031689LEIVA HECTOR RICARDO       61100000000380+ 00       611
1731 031693LOMBARDINI ALEJANDRO LUIS M61100000000380+ 00       611
C130 031694LOPEZ HUGO DARIO           61100000000380+ 00       611
C131 031696LUGO HORACIO MARCELO       61100000000380+ 00       611
0731 031698MACIEL DIEGO ALFREDO       61100000000380+ 00       611
C132 031699MACIEL RAMON LUCAS MATIAS  61100000000380+ 00       611
C330 031700MAIDANA FERNANDO DARIO     61100000000380+ 00       611
0231 031701MAJUL JULIO EUGENIO        61100000000380+ 00       611
2530 031704MARINO MARCELO FABIAN      61100000000380+ 00       611
0230 031708MARTINEZ JOSE AUGUSTO      61100000000380+ 00       611
C231 031710MARTINEZ RAUL ERNESTO      61100000000380+ 00       611
C130 031711MARTINEZ VICTOR JAVIER     61100000000380+ 00       611
CF30 031713MAYOL RUBEN DARIO          61100000000380+ 00       611
1130 031714MEDINA DANIEL HORACIO      61100000000380+ 00       611
0731 031716MEDINA DIARTE CARLOS DAVID 61100000000380+ 00       611
0731 031717MEDINA DIARTE RODOLFO CARLO61100000000380+ 00       611
C130 031718MENCIA OSVALDO ROGELIO     61100000000380+ 00       611
C230 031720MENDIETA MARTIN LUCAS      61100000000380+ 00       611
C331 031721MENDIETA GONZALEZ LEONARDO 61100000000380+ 00       611
C130 031723MERINO JORGE ORLANDO       61100000000380+ 00       611
1930 031724MERLO MAURICIO ALBERTO     61100000000380+ 00       611
C730 031729MONZON CLAUDIO JAVIER      61100000000380+ 00       611
C430 031731MUGICA ANDRES              61100000000380+ 00       611
2531 031732MUJICA JUAN JOSE           61100000000380+ 00       611
0631 031736NIEVA SEBASTIAN ALBERTO    61100000000380+ 00       611
1430 031737NIEVAS GUSTAVO SEBASTIAN   61100000000380+ 00       611
1730 031738NUNEZ JUAN MANUEL          61100000000380+ 00       611
C130 031741OCHOA CARLOS ALBERTO       61100000000380+ 00       611
0730 031742OJEDA DARIO ENRIQUE        61100000000380+ 00       611
DT31 031743OJEDA JORGE GABRIEL        61100000000380+ 00       611
1130 031744OJEDA JOSE OSCAR WALDEMAR  61100000000380+ 00       611
DS31 031745OLIVASTRO MARCELO ARIEL    61100000000380+ 00       611
C631 031746OLIVERA ALEJANDRO ALBERTO  61100000000380+ 00       611
0531 031748ORTIZ SEBASTIAN ARIEL      61100000000380+ 00       611
0530 031752PAREDES DANIEL ALEJANDRO   61100000000380+ 00       611
C230 031755PEREYRA RAUL OSCAR         61100000000380+ 00       611
C130 031756PEREZ JULIO RAFAEL         61100000000380+ 00       611
0730 031757PIMIENTA CESAR ADRIAN RAMON61100000000380+ 00       611
0731 031758PIMIENTA RODRIGO SEBASTIAN 61100000000380+ 00       611
DS31 031763QUINTERO PABLO DANIEL      61100000000380+ 00       611
C130 031767RAMIREZ HECTOR ALEJANDRO   61100000000380+ 00       611
1130 031768RECIO NORBERTO ARIEL       61100000000380+ 00       611
0730 031769RECIO WALTER GABRIEL       61100000000380+ 00       611
C231 031770RETAMOZO ANTONIO FERNANDO  61100000000380+ 00       611
0730 031771RIOS REINALDO ROBERTO      61100000000380+ 00       611
0231 031772RIQUELME CRISTIAN MARCELO  61100000000380+ 00       611
2230 031774RIVERO NORBERTO ORLANDO    61100000000380+ 00       611
0530 031777RODRIGUEZ DARIO CRISTOBAL  61100000000380+ 00       611
1731 031779RODRIGUEZ MARCOS SEBASTIAN 61100000000380+ 00       611
C130 031780ROJAS JORGE ARIEL          61100000000380+ 00       611
C331 031781ROJO PERALTA RAUL JAVIER   61100000000380+ 00       611
C130 031783ROMAN JOSE ORLANDO         61100000000380+ 00       611
OS31 031785ROMERO GONZALO MATIAS RENE 61100000000380+ 00       611
0731 031786ROMERO HECTOR GABRIEL      61100000000380+ 00       611
1530 031787ROMERO LOPEZ SERGIO ALBERTO61100000000380+ 00       611
0231 031788ROSALES ALBERTO MARTIN     61100000000380+ 00       611
1131 031789RUIZ JOSE LUIS MAGIN       61100000000380+ 00       611
C531 031791RUIZ DIAZ FABIAN ALFREDO   61100000000380+ 00       611
0730 031793SALAS DIEGO HERNAN         61100000000380+ 00       611
0730 031799SANCHEZ WALTER DANIEL      61100000000380+ 00       611
1631 031800SANDOVAL DIEGO             61100000000380+ 00       611
1331 031801SAPE JAVIER EDGARDO        61100000000380+ 00       611
0431 031802SAPE MANUEL ANDRES         61100000000380+ 00       611
1731 031803SCHIAFFINO ROBERTO JAVIER  61100000000380+ 00       611
0730 031807SEGOVIA EDGARDO AMILCAR    61100000000380+ 00       611
SC30 031809SENA LEONARDO JAVIER       61100000000380+ 00       611
C130 031810SEQUEIRA DIEGO ORLANDO     61100000000380+ 00       611
1131 031812SILVA ROQUE DANIEL         61100000000380+ 00       611
C230 031813SIMOVICH ALEXIS MIGUEL     61100000000380+ 00       611
C231 031814SOLIS WALTER DARIO         61100000000380+ 00       611
DN31 031816SOSA SERGIO HERNAN         61100000000380+ 00       611
C230 031817SOSA SERGIO SIMON          61100000000380+ 00       611
1231 031818SUAREZ CRISTIAN FERNANDO   61100000000380+ 00       611
3431 031820TEJADA SILVIO ANTONIO      61100000000380+ 00       611
0431 031823TREJO SILVANO DAVID        61100000000380+ 00       611
2131 031824URQUIZA MARIO RUBEN        61100000000380+ 00       611
C130 031825VALLEJOS JOSE LUIS         61100000000380+ 00       611
C231 031826VALLEJOS RUBEN ALBERTO     61100000000380+ 00       611
1231 031827VARGAS SANDRO DANIEL       61100000000380+ 00       611
1930 031828VELIZ PEDRO EMILIANO       61100000000380+ 00       611
C231 031830VERGARA SERGIO RAMON       61100000000380+ 00       611
1531 031831VERON JUAN RAMON           61100000000380+ 00       611
C230 031835VILLALBA CESAR RAFAEL      61100000000380+ 00       611
SU31 031837VILLAR RAMON JULIAN AMADEO 61100000000380+ 00       611
C130 031838WORNAT GUSTAVO HERNAN      61100000000380+ 00       611
BC30 031839ZABALA VICTOR HUGO         61100000000380+ 00       611
C230 031840ZALAZAR JORGE EDUARDO      61100000000380+ 00       611
C130 031841ZARDI DIEGO GUALBERTO      61100000000380+ 00       611
C330 031842ZDANOSKI FABIAN RAMON      61100000000380+ 00       611
C130 031844BREST ANDREA GABRIELA      61100000000380+ 00       611
SC30 031848ESTEBAN PAOLA VANESA       61100000000380+ 00       611
C131 031849FIGUEREDO ANGELINA SOLEDAD 61100000000380+ 00       611
C430 031853GARCIA MARISA CLAUDIA      61100000000380+ 00       611
OS30 031854GAUNA NATALIA ELISABETH    61100000000380+ 00       611
DN30 031855GIMENEZ MARIA EUGENIA      61100000000380+ 00       611
C430 031858GOMEZ MARTA SUSANA         61100000000380+ 00       611
DS30 031860GONZALEZ GABRIELA ANAHI    61100000000380+ 00       611
C731 031861GUTIERREZ ESTELA SUSANA    61100000000380+ 00       611
0731 031862INSAURRALDE NANCY RAMONA   61100000000380+ 00       611
C431 031863JIMENEZ MARCELA LORENA     61100000000380+ 00       611
ES30 031865MARTINEZ KARINA ANDREA     61100000000380+ 00       611
1031 031867MENDOZA ROSA MARIA         61100000000380+ 00       611
1930 031868MINO MIRTA VALERIA         61100000000380+ 00       611
0231 031869MONTEROS CASAS SILVINA INES61100000000380+ 00       611
C431 031870MORENO LAURA LETICIA       61100000000380+ 00       611
1130 031871MUNOZ NANCY GRACIELA       61100000000380+ 00       611
OS31 031872OCHOA SANDRA VALERIA       61100000000380+ 00       611
1631 031873ORDONEZ MARIA ENCARNACION  61100000000380+ 00       611
RP30 031874ORTIZ CLAUDIA ALEJANDRA    61100000000380+ 00       611
C631 031877PUTINANI GRACIELA SUSANA   61100000000380+ 00       611
C430 031879RIARTE MARIA BELEN         61100000000380+ 00       611
C130 031881RODRIGUEZ MIRTA MABEL      61100000000380+ 00       611
2530 031882ROMANI ARIADNA RUTH        61100000000380+ 00       611
0231 031883RUIZ DIAZ ANDREA KARINA    61100000000380+ 00       611
1030 031884SALDIVAR SANDRA EDITH      61100000000380+ 00       611
C731 031885SANCHEZ CINTIA LORENA      61100000000380+ 00       611
0230 031886SANCHEZ MARIA FLORENCIA    61100000000380+ 00       611
C230 031888SANTI LORENA ALEJANDRA     61100000000380+ 00       611
0230 031889SANTOS CAROLINA SOLEDAD    61100000000380+ 00       611
1630 031890TORRENS MILENA NATALIA     61100000000380+ 00       611
DS31 031891VASSILIO CLAUDIA RAQUEL    61100000000380+ 00       611
1731 031896OJEDA NORMA BEATRIZ        61100000000380+ 00       611
0431 031897RHOLHAISER MARCOS SEBASTIAN61100000000380+ 00       611
0431 031898RODRIGUEZ ROSANA STELLA    61100000000380+ 00       611
0531 031901GONZALEZ PABLO MIGUEL      61100000000380+ 00       611
0515 031904POMPEI JORGE EDUARDO       61100000000380+ 00       611
1931 031907SBARDELLA NOEMI DESIREE    61100000000380+ 00       611
0730 031908AVENTUROSO ERICA VIVIANA   61100000000380+ 00       611
0730 031909BREST LORENA VANESA        61100000000380+ 00       611
0814 031910CARBAJAL EDGARDO MIGUEL    61100000000380+ 00       611
C530 031913ROJAS SILVIA ANDREA        61100000000380+ 00       611
1014 031915GLERIA RUBEN CARLOS        61100000000380+ 00       611
1031 031917SANCHEZ CLAUDIA            61100000000380+ 00       611
1114 031918GOMEZ MIGUEL ANGEL         61100000000380+ 00       611
1714 031921BARRIOS LUISA EDIT         61100000000380+ 00       611
1730 031924RODRIGUEZ MIRIAM PAOLA     61100000000380+ 00       611
1730 031925SORIA RAMIRO               61100000000380+ 00       611
1730 031926VERON DIEGO JAVIER         61100000000380+ 00       611
C214 031927ACHINO NORA BEATRIZ        61100000000380+ 00       611
C614 031930BONISOLO ROSANA            61100000000380+ 00       611
DN13 031931CARDOZO ADRIANA VERONICA   61100000000380+ 00       611
C413 031943FRANZ SANDRA JOSEFINA      61100000000380+ 00       611
DN14 031945GRASSINI MARIA DANIELA     61100000000380+ 00       611
C112 031946IRAZU JUAN PABLO           61100000000380+ 00       611
CF30 031948MARTINEZ LUIS ALBERTO      61100000000380+ 00       611
0214 031972BLANCO GLADYS ELENA        61100000000380+ 00       611
DN14 031974PONTON MARIANA             61100000000380+ 00       611
DN31 031980ALVES COELHO LEANDRO ALBERT61100000000380+ 00       611
DN30 031983BUSTOS MARIO JAVIER        61100000000380+ 00       611
C131 031986CASTRO RICARDO ANGEL       61100000000380+ 00       611
1415 031988CRISO ROBERTO EDUARDO      61100000000380+ 00       611
DT30 031989DELLATORRE RAUL ALEJANDRO  61100000000380+ 00       611
DT30 031994FRANCO DIEGO ALEJANDRO     61100000000380+ 00       611
C231 032000HERRERA JOSE ANTONIO BERNAR61100000000380+ 00       611
1516 032001LUNA JORGE EDUARDO         61100000000380+ 00       611
RP31 032003MORAN ALICIA CRISTINA      61100000000380+ 00       611
C131 032004MOYANO MARCELA IRENE       61100000000380+ 00       611
1514 032006RAMIREZ GASTON ARIEL       61100000000380+ 00       611
OS30 032009ADORNO MARIANO ANDRES      61100000000380+ 00       611
C114 032010BATTAGLIA YAEL LILIANA     61100000000380+ 00       611
DN31 032011DE LEON EMILIANO MATIAS    61100000000380+ 00       611
DN30 032012DIAZ NATALIA SOLEDAD       61100000000380+ 00       611
DN15 032015LARROZA ROMINA SOLEDAD     61100000000380+ 00       611
C214 032016MAUREGUI MARIA CECILIA     61100000000380+ 00       611
1915 032019SEQUEIRA GONZALEZ SEBASTIAN61100000000380+ 00       611
1330 032020SONCINI DIEGO              61100000000380+ 00       611
C230 032024ROJAS AVELINA              61100000000380+ 00       611
C512 032027PALACIOS DIEGO MANUEL      61100000000380+ 00       611
0212 032028PORTILLO SERGIO ANDRES     61100000000380+ 00       611
0212 032031SALTO DAFNE ROSANA         61100000000380+ 00       611
C713 032033YASNIKOWSKI CINTIA CARINA  61100000000380+ 00       611
ES14 032034ANDRADE CHRISTIAN OSVALDO  61100000000380+ 00       611
CF13 032036FERNANDEZ ASSARO MATIAS GAS61100000000380+ 00       611
C712 032038ACUNA GRISELDA BEATRIZ     61100000000380+ 00       611
C312 032039AGUILAR ARIEL ALEJANDRO    61100000000380+ 00       611
1713 032040ARANDA HORACIO JAVIER      61100000000380+ 00       611
DN12 032041AYALA PABLO MANUEL         61100000000380+ 00       611
C212 032042AYALA REYNALDO DANIEL      61100000000380+ 00       611
C213 032043CACERES DARIO              61100000000380+ 00       611
CF13 032045CARO CARLOS ALEJANDRO      61100000000380+ 00       611
SC13 032047ENCINAS RAMON ANGEL        61100000000380+ 00       611
C213 032049FERNANDEZ JOSE ORLANDO     61100000000380+ 00       611
C212 032050FLORES FRANCO MARTIN       61100000000380+ 00       611
0413 032051GIMENEZ IVAN JAVIER        61100000000380+ 00       611
3012 032052HERRERA SERGIO VICTOR      61100000000380+ 00       611
DN13 032053HERRERO FRANCO             61100000000380+ 00       611
OS13 032055JARA MARCELO FABIAN        61100000000380+ 00       611
C214 032056LUKOWSKI SERGIO SEBASTIAN  61100000000380+ 00       611
C113 032057MACIEL LUIS ERBERTO        61100000000380+ 00       611
2112 032058MARQUEZ JULIO ERNESTO      61100000000380+ 00       611
3413 032059MEDINA RENE RAMON          61100000000380+ 00       611
C113 032061REAL ARIEL NOLBERTO        61100000000380+ 00       611
C112 032064SIRI SEBASTIAN ALEJANDRO   61100000000380+ 00       611
C112 032065SOLIS GLADYS ELIZABETH     61100000000380+ 00       611
C613 032066TORALES CARLOS JAVIER      61100000000380+ 00       611
C112 032069RODRIGUEZ RAUL ALBERTO     61100000000380+ 00       611
C613 032070RODRIGUEZ ROBERTO DANIEL   61100000000380+ 00       611
C231 032073ACEVEDO JUAN DOMINGO       61100000000380+ 00       611
C131 032074AGUERO ANGEL GABRIEL       61100000000380+ 00       611
0230 032075DIAZ FABIAN ARIEL          61100000000380+ 00       611
C131 032077GONZALEZ JULIO IGNACIO     61100000000380+ 00       611
1730 032078LAFUENTE MACIEL MARCOS ANTO61100000000380+ 00       611
C231 032079LIVA CARLOS RUBEN          61100000000380+ 00       611
C130 032080MENCIA VALENTIN ADRIAN     61100000000380+ 00       611
CF32 032081PENA MANUEL ALCIDES        61100000000380+ 00       611
C431 032082PONCE RICARDO DANIEL       61100000000380+ 00       611
DS31 032083RAMIREZ WALTER ABEL        61100000000380+ 00       611
SC31 032084RODRIGUEZ ROSANA           61100000000380+ 00       611
C431 032085ROLDAN JULIO RAUL          61100000000380+ 00       611
C430 032088VILLALBA ARNALDO DANIEL ALE61100000000380+ 00       611
CF31 032090SABINI MIRTA VALERIA       61100000000380+ 00       611
0731 032091ACUNA DARIO DANIEL         61100000000380+ 00       611
C130 032092TAPIA JOSE ARMANDO         61100000000380+ 00       611
C113 032098DANEILUK DANIEL ENRIQUE    61100000000380+ 00       611
C731 032100GALLARDO JOSE LUIS         61100000000380+ 00       611
SC31 032106NAVARRO JUAN JOSE          61100000000380+ 00       611
OS30 032109RATARI VICTOR ANGEL        61100000000380+ 00       611
DN30 032115ACEVEDO CARLOS GASTON      61100000000380+ 00       611
C131 032116ACOSTA MARTINEZ DIEGO ALFRE61100000000380+ 00       611
CF32 032117ACUNA ARIEL SEBASTIAN      61100000000380+ 00       611
0431 032118AFONSO MARIO ALBERTO       61100000000380+ 00       611
CF31 032120AGUAYO MIGUEL ANGEL        61100000000380+ 00       611
1715 032121AGUERO LUIS ALBERTO        61100000000380+ 00       611
C430 032122AGUILAR LUCIANO NICOLAS    61100000000380+ 00       611
0730 032123AGUIRRE ALEX DAMIAN        61100000000380+ 00       611
C130 032124ALANIS RAMON               61100000000380+ 00       611
DS30 032126ALBARRACIN DAVID MARCOS    61100000000380+ 00       611
C231 032127ALBORNOZ MAURO JAVIER      61100000000380+ 00       611
DS31 032128ALEGRE CRISTIAN ADRIAN     61100000000380+ 00       611
3531 032129ALFONSO MARIO ALBERTO      61100000000380+ 00       611
C113 032130ALFONZO GUSTAVO ARIEL      61100000000380+ 00       611
C130 032131ALVARENGA CESAR ESTEBAN    61100000000380+ 00       611
0231 032134AQUINO JOSE DE LA CRUZ     61100000000380+ 00       611
C131 032136ARDANS DANIEL ESTEBAN      61100000000380+ 00       611
2130 032137ARIAS LUCAS HERNAN         61100000000380+ 00       611
0731 032139ARVARCHUK WALTER DARIO     61100000000380+ 00       611
C231 032141BAEZ MARCOS ANDRES         61100000000380+ 00       611
C231 032142BAEZ MARIANO               61100000000380+ 00       611
C130 032143BAILEZ LUIS EDUARDO        61100000000380+ 00       611
1731 032144BALBUENA MARIO ANDRES      61100000000380+ 00       611
CF31 032145BARONI HERNAN JAVIER       61100000000380+ 00       611
0731 032147BARRERO CRISTIAN JAVIER    61100000000380+ 00       611
0731 032148BARRIOS DIEGO ARIEL        61100000000380+ 00       611
0731 032149BARRIOS JUAN RAMON         61100000000380+ 00       611
C230 032151BECERRA VICTOR HUGO        61100000000380+ 00       611
C231 032153BENITEZ ARIEL ESTEBAN      61100000000380+ 00       611
C131 032154BENITEZ PAREDES DERLIS OSVA61100000000380+ 00       611
C231 032155BLANCO CESAR LUIS          61100000000380+ 00       611
CF31 032156BOBADILLA RAMON ANDRES     61100000000380+ 00       611
EP31 032158BRITEZ SANTIAGO ADOLFO     61100000000380+ 00       611
C231 032159BRITOS ARMAZA CRISTIAN DAVI61100000000380+ 00       611
0231 032161BULLON ROBERTO CARLOS      61100000000380+ 00       611
C130 032162BUTOF SERGIO ORLANDO       61100000000380+ 00       611
1631 032164FRUHWALD VICTOR GABRIEL    61100000000380+ 00       611
C231 032166CALDERON DIEGO GUSTAVO     61100000000380+ 00       611
SU31 032167CANESSINI JORGE DANIEL     61100000000380+ 00       611
C130 032168CANTERO ARGENTINO MARCOS FA61100000000380+ 00       611
DS31 032169CARAM ARIEL CARLOS ELIAS   61100000000380+ 00       611
C231 032172CASTILLO JUAN HUGO         61100000000380+ 00       611
0630 032174CHAPARRO NELSON FEDERICO   61100000000380+ 00       611
0631 032176CIZEK CARLOS DANIEL        61100000000380+ 00       611
DS31 032177COLOMBO JUAN JOSE          61100000000380+ 00       611
C231 032178CONTRERAS CARLOS ALBERTO   61100000000380+ 00       611
1431 032179CORREA GONZALO GASTON      61100000000380+ 00       611
C130 032181COSTILLA MAXIMILIANO GUSTAV61100000000380+ 00       611
DS31 032182CRUZ GUILLERMO SEBASTIAN   61100000000380+ 00       611
DN31 032183CUENCA ANDRES ROBERTO      61100000000380+ 00       611
C231 032184CUESTA GERARDO SEBASTIAN   61100000000380+ 00       611
C130 032185DARIA CESAR ALFREDO        61100000000380+ 00       611
0231 032186DELGADO ROBERTO DANIEL     61100000000380+ 00       611
1131 032187DEMIANIUK GUSTAVO JAVIER   61100000000380+ 00       611
SC31 032188DI ANGELI MAXIMILIANO S.   61100000000380+ 00       611
AP31 032191DI NAPOLI JUAN MANUEL      61100000000380+ 00       611
DN33 032194DUTRIA ANGEL HUMBERTO      61100000000380+ 00       611
C231 032197ESCOBAR JOSE MARIA         61100000000380+ 00       611
1031 032198FERNANDEZ EDGARDO GABRIEL  61100000000380+ 00       611
CF31 032199FERNANDEZ MARCELO FABIAN   61100000000380+ 00       611
C231 032201FERVENZA MARTIN EDUARDO    61100000000380+ 00       611
1431 032202FIDALGO SANTIAGO ANGEL IGNA61100000000380+ 00       611
C131 032204FLOR ROBERTO EDUARDO       61100000000380+ 00       611
1431 032205FLORES EDUARDO ALEJANDRO   61100000000380+ 00       611
OS31 032206FRANCO GUILLERMO FERNANDO  61100000000380+ 00       611
SC31 032208GALEANO DANIEL ALBERTO     61100000000380+ 00       611
DS31 032209GALLARDO CRISTIAN ANIBAL   61100000000380+ 00       611
0631 032211GAONA CLAUDIO GABRIEL      61100000000380+ 00       611
3431 032213GAUNA AMADEO               61100000000380+ 00       611
SC31 032214GIMENEZ ALBERTO DAVID      61100000000380+ 00       611
1731 032215GIMENEZ MARCOS SEBASTIAN   61100000000380+ 00       611
1031 032216GOMEZ ANDRES ALFONSO       61100000000380+ 00       611
C231 032217GOMEZ DIEGO GASTON         61100000000380+ 00       611
C130 032220GOMEZ RAUL PEDRO DANIEL    61100000000380+ 00       611
1331 032226GRIN SERGIO DANIEL         61100000000380+ 00       611
DS31 032228HERRERA DIEGO MARCELO JAVIE61100000000380+ 00       611
DS31 032230HERRERA SERGIO DAVID       61100000000380+ 00       611
C130 032231IBANEZ BERNARDO MELCHOR    61100000000380+ 00       611
CF30 032233JIMENEZ MANUEL ALEJANDRO   61100000000380+ 00       611
C231 032235LANDRIEL JUAN HIGINIO      61100000000380+ 00       611
DS31 032237LEDESMA JUAN JOSE          61100000000380+ 00       611
C631 032240LEIVA WALTER DANIEL        61100000000380+ 00       611
C130 032241LENA MAURO LEONEL          61100000000380+ 00       611
0230 032242LESCAR PEDRO EDMUNDO       61100000000380+ 00       611
0230 032243LEZCANO MARCELO FABIAN     61100000000380+ 00       611
3431 032244LLANES JORGE RAUL          61100000000380+ 00       611
DS31 032245LOPEZ ANGEL RAMON          61100000000380+ 00       611
C231 032246LUZA MARCELO ANDRES        61100000000380+ 00       611
C130 032249MALDONADO FERNANDO FABIAN  61100000000380+ 00       611
1031 032250MAMBRIN FEDERICO JAVIER    61100000000380+ 00       611
0231 032251MARCIAL PAULO LUIS         61100000000380+ 00       611
1930 032252MARIN EDUARDO FABIAN       61100000000380+ 00       611
0631 032255MARTIN NICOLAS ARIEL       61100000000380+ 00       611
0731 032256MARTINEZ JOSE LUIS         61100000000380+ 00       611
1531 032257MARTINEZ JUAN ADOLFO       61100000000380+ 00       611
0231 032258MATALLAN FERNANDO GABRIEL  61100000000380+ 00       611
3231 032259MAURICIO JUAN JAVIER       61100000000380+ 00       611
0231 032261MERCALI FERNANDO ARIEL     61100000000380+ 00       611
0530 032262MERINO ALBERTO ALFREDO     61100000000380+ 00       611
0631 032266MOLINA ROBERTO DANIEL      61100000000380+ 00       611
0731 032267MOLINAS CLAUDIO TOMAS      61100000000380+ 00       611
0231 032269MUNOZ RUBEN EDUARDO        61100000000380+ 00       611
0231 032270MYKA DARIO GUSTAVO         61100000000380+ 00       611
C631 032271NIKOLOFF MIGUEL ANGEL      61100000000380+ 00       611
C231 032274OJEDA ULISES ROBERTO       61100000000380+ 00       611
DS31 032276PACHECO SERGIO FERNANDO    61100000000380+ 00       611
0231 032279PALAVECINO GUSTAVO DAVID   61100000000380+ 00       611
0431 032280PALL SERGIO OMAR           61100000000380+ 00       611
1031 032281PAREDES JOSE RAMON         61100000000380+ 00       611
C114 032283PISANI JOSE LUIS           61100000000380+ 00       611
1131 032286PUCHETA JAVIER HERNAN      61100000000380+ 00       611
C131 032289REBERTE GERARDO JAVIER     61100000000380+ 00       611
0831 032291REYNOSO MARTIN             61100000000380+ 00       611
AP31 032292RIVERO MARTIN ANIBAL       61100000000380+ 00       611
BC31 032294RODAS ANGEL MARIANO        61100000000380+ 00       611
1931 032295RODRIGUEZ MIGUEL FLORENCIO 61100000000380+ 00       611
ES31 032296RODRIGUEZ SERGIO HECTOR    61100000000380+ 00       611
0431 032297ROLDAN GUSTAVO FABIAN      61100000000380+ 00       611
C130 032298ROMAN ADALBERTO OLDEMAR    61100000000380+ 00       611
C231 032299ROMERO ARTURO GUSTAVO      61100000000380+ 00       611
C130 032303SALINAS NESTOR             61100000000380+ 00       611
CF31 032305SANDEZ SERGIO JAVIER       61100000000380+ 00       611
C230 032307SCHMIDT DIEGO IVAN         61100000000380+ 00       611
C231 032309SERRANO ARNALDO ANDRES     61100000000380+ 00       611
DN30 032310SOSA IVAN LUIS             61100000000380+ 00       611
C231 032314STRUSIAT CRISTIAN GASTON   61100000000380+ 00       611
C114 032315SUSSINI CARLOS FERNANDO    61100000000380+ 00       611
0431 032316TINELLI OSCAR ENRIQUE      61100000000380+ 00       611
0231 032318TONARELLI DIEGO ARIEL      61100000000380+ 00       611
C231 032322VELASCO ERNESTO FERNANDO   61100000000380+ 00       611
C231 032323VELAZQUEZ HECTOR MARTIN    61100000000380+ 00       611
0431 032324VENDRAMINI PABLO ROBERTO   61100000000380+ 00       611
C231 032327VILAS MARIANO DANIEL       61100000000380+ 00       611
C631 032328VILLARREAL OMAR OSCAR      61100000000380+ 00       611
C231 032329VIZCARRA MARIO ALBERTO     61100000000380+ 00       611
C130 032330YBARRA DIEGO ANTONIO       61100000000380+ 00       611
3531 032332ZANIN JOSE ARTURO          61100000000380+ 00       611
0231 032334ZELARAYAN MORALES GUSTAVO E61100000000380+ 00       611
OS14 032338PERNA EZEQUIEL HORACIO     61100000000380+ 00       611
DN13 032339SANTAMARIA MARIA DANIELA   61100000000380+ 00       611
1715 032340VILLALBA HORACIO ADRIAN    61100000000380+ 00       611
C230 032345BERRINO EMILIANO ROBERTO   61100000000380+ 00       611
1031 032346BOBEDA NICOLAS RAUL        61100000000380+ 00       611
C133 032347CABRAL ROBERTO LUIS        61100000000380+ 00       611
0731 032348FONTEINA WALTER JOSE MARIA 61100000000380+ 00       611
3431 032349LEIVA ARMANDO FABIAN       61100000000380+ 00       611
CF30 032350LIVA ALBERTO RAUL          61100000000380+ 00       611
0231 032352MONTERO GUILLERMO LUIS     61100000000380+ 00       611
C730 032353MONTOTO DIEGO SEBASTIAN    61100000000380+ 00       611
C331 032354RUIZ HUGO ORLANDO          61100000000380+ 00       611
0715 032355SOTO HECTOR ALEJANDRO      61100000000380+ 00       611
C531 032356STEDING CHRISTIAN ALAN     61100000000380+ 00       611
0231 032357VALLEJO TERCEROS RENEE ORLA61100000000380+ 00       611
DS31 032358ZARAGOZA EDUARDO JOAQUIN   61100000000380+ 00       611
C715 032361SANCHEZ HECTOR CARLOS      61100000000380+ 00       611
DN31 032364REINOSO DAIANA LAURA MERCED61100000000380+ 00       611
C331 032365GIBELLINI MAURO            61100000000380+ 00       611
C231 032366RIVAS MARCOS JAVIER        61100000000380+ 00       611
EP31 032367LUZUK GABRIELA MARISEL     61100000000380+ 00       611
0631 032374ALEJOS FERNANDO GASTON     61100000000380+ 00       611
C331 032375ALFONSO HECTOR ESTANISLAO  61100000000380+ 00       611
C131 032377ALVAREZ OSCAR ALBERTO      61100000000380+ 00       611
C231 032378AMARILLA ROLANDO JAVIER    61100000000380+ 00       611
0231 032379APONTE EDUARDO ALDO        61100000000380+ 00       611
0731 032380AQUINO EDUARDO OMAR        61100000000380+ 00       611
C130 032381ARAN MARIANO ALBERTO       61100000000380+ 00       611
C130 032382ARCE GARATE IVAN ANDRES    61100000000380+ 00       611
C231 032383ARRUA MARTIN MARCELO       61100000000380+ 00       611
SC31 032384AZAS FERNANDO LUIS         61100000000380+ 00       611
C131 032385BARREIRO JORGE ANIBAL      61100000000380+ 00       611
C231 032386BARRIOS RICARDO EVARISTO   61100000000380+ 00       611
0431 032387BASSA ROBERTO CARLOS       61100000000380+ 00       611
C531 032389BLANCO FEDERICO OSCAR      61100000000380+ 00       611
C231 032390BREST MARIO ALBERTO        61100000000380+ 00       611
C231 032391BREST RODOLFO EDUARDO      61100000000380+ 00       611
C231 032392CABRERA ANDRES SEBASTIAN   61100000000380+ 00       611
C231 032393CACERES JOSE LUIS          61100000000380+ 00       611
0731 032396CARAM SAPORITTI GABRIEL CES61100000000380+ 00       611
C130 032397CARBONELL FERNANDO EZEQUIEL61100000000380+ 00       611
0531 032399CARRASCO OMAR OSVALDO      61100000000380+ 00       611
C231 032402CENDRA MAURO SEBASTIAN     61100000000380+ 00       611
C230 032403CENTURION MIGUEL ANGEL     61100000000380+ 00       611
0231 032404CORTEZ CESAR ALFREDO       61100000000380+ 00       611
C130 032405CUENCA DANIEL DARIO        61100000000380+ 00       611
C231 032407DE BATTISTA FELIX JAVIER   61100000000380+ 00       611
0231 032409ENRIQUEZ CRISTIAN JOSE     61100000000380+ 00       611
C231 032410ESCALANTE HECTOR DANIEL    61100000000380+ 00       611
C131 032411ESQUIVEL DIEGO HORACIO     61100000000380+ 00       611
C430 032412FERNANDEZ IRENEO MARCELINO 61100000000380+ 00       611
C531 032413FERNANDEZ OSCAR JOSE       61100000000380+ 00       611
C215 032415FRANCO ARNALDO JAVIER      61100000000380+ 00       611
C231 032416GAITAN OSCAR DANIEL        61100000000380+ 00       611
C130 032418GALIMANY CHRISTIAN ENRIQUE 61100000000380+ 00       611
C130 032420GAONA ANGEL DE JESUS       61100000000380+ 00       611
C230 032421GAONA BRAULIO AVELINO      61100000000380+ 00       611
CF31 032422GARCIA SERGIO ANIBAL       61100000000380+ 00       611
C331 032425GONZALEZ JORGE OSCAR       61100000000380+ 00       611
0214 032427GOYENECHE JOSE ANTONIO GERM61100000000380+ 00       611
0431 032428GUTIERREZ PABLO ALEJANDRO  61100000000380+ 00       611
C231 032429HABA FERNANDO ANTONIO      61100000000380+ 00       611
0231 032430HERRERA OMAR SEBASTIAN     61100000000380+ 00       611
BC30 032433LEGUIZAMON DIEGO MAXIMILIAN61100000000380+ 00       611
C231 032434LLANEZA FRANCO IVAN        61100000000380+ 00       611
1731 032435LOPEZ JUAN JOSE            61100000000380+ 00       611
C131 032437LOPEZ SEBASTIAN DIEGO ROMAN61100000000380+ 00       611
C631 032439LUGO JESUS RAMON           61100000000380+ 00       611
C214 032440MAIDANA MIKUNDA CARLOS GUIL61100000000380+ 00       611
0631 032443MARTINEZ GUSTAVO ADRIAN    61100000000380+ 00       611
DN31 032445MARTINEZ PADILLA HERNAN MAU61100000000380+ 00       611
0731 032446MENDEZ DIEGO ALEJANDRO     61100000000380+ 00       611
C230 032447MIERES SIMON ARIEL         61100000000380+ 00       611
C231 032449MONTENEGRO DIEGO ALEJANDRO 61100000000380+ 00       611
C531 032450NUNEZ VICTOR HUGO          61100000000380+ 00       611
0731 032452OJEDA ROLANDO HERIBERTO    61100000000380+ 00       611
C231 032453ORREGO BENITO SANTIAGO     61100000000380+ 00       611
C231 032454ORREGO OSCAR MARCELO       61100000000380+ 00       611
C231 032455ORTIZ LUIS GUSTAVO         61100000000380+ 00       611
0231 032457PAIVA ANGEL EVARISTO       61100000000380+ 00       611
EP31 032458PASCUA EZEQUIEL MARTIN     61100000000380+ 00       611
C231 032459PENA PEYLOUBET ROQUE       61100000000380+ 00       611
0731 032460PEON JUAN MANUEL           61100000000380+ 00       611
0431 032461PERALTA GERARDO ANDRES     61100000000380+ 00       611
EP14 032462PEREYRA ALEJANDRO LUIS     61100000000380+ 00       611
DS31 032463PEREZ EZEQUIEL FRANCISCO   61100000000380+ 00       611
1231 032466PRES HUGO LEANDRO SEBASTIAN61100000000380+ 00       611
0231 032467RAMOS FABIAN               61100000000380+ 00       611
0631 032470RODRIGUEZ ADRIAN ERNESTO RA61100000000380+ 00       611
C231 032472ROVIRA GABRIEL ALBERTO     61100000000380+ 00       611
C231 032474RUJODSKI NELSON            61100000000380+ 00       611
C231 032476SALVATIERRA LUIS ALBERTO   61100000000380+ 00       611
DS31 032479SIERRA RAUL ERNESTO        61100000000380+ 00       611
C131 032480SILVERO FABRICIO LEONARDO  61100000000380+ 00       611
0431 032484SUAREZ HECTOR BAUTISTA     61100000000380+ 00       611
1331 032485SUSSINI BERNIGOLA JOSE MARI61100000000380+ 00       611
DT31 032486TAINSKI CESAR PABLO        61100000000380+ 00       611
OS31 032488TRUSZKOWSKI JUAN PABLO     61100000000380+ 00       611
C131 032489URRUTIA OSCAR ALBERTO      61100000000380+ 00       611
0731 032491VALLEJOS MARCELO ARIEL     61100000000380+ 00       611
1731 032495VERON LUCIO RAMON          61100000000380+ 00       611
DT12 032496WOBORIL RAUL ALOIS         61100000000380+ 00       611
SC31 032497YBARRA EMILIO PAULO        61100000000380+ 00       611
1131 032499ZENIQUEL GUSTAVO ARIEL     61100000000380+ 00       611
C131 032500ZUNIGA LUIS ALBERTO        61100000000380+ 00       611
3430 032501ABRINES MARIA VICTORIA     61100000000380+ 00       611
C631 032508FERNANDEZ MARIA DEL ROSARIO61100000000380+ 00       611
SC30 032510GUERRERO NATALIA ELIZABETH 61100000000380+ 00       611
RP31 032511RANDAZZO GISELA NOEMI      61100000000380+ 00       611
C730 032512SEGUI PAOLA ANDREA         61100000000380+ 00       611
DN31 032516VEGA PATRICIA ESTELA       61100000000380+ 00       611
DT31 032520GARCIA FERNANDO MIGUEL     61100000000380+ 00       611
1131 032522APONTE DIEGO               61100000000380+ 00       611
C531 032524COLIPI RAUL ERNESTO        61100000000380+ 00       611
1214 032527FURNARI CHRISTIAN DANIEL   61100000000380+ 00       611
DS14 032531BRAGGIO MARIANO JUAN LUIS  61100000000380+ 00       611
DT14 032533GONZALEZ HANNA DIEGO ALEJAN61100000000380+ 00       611
0730 032534SOSA ARMANDO FABIAN        61100000000380+ 00       611
3231 032535YAQUINTA ELSA CARINA       61100000000380+ 00       611
1931 032536LUGO VALERIA ROXANA        61100000000380+ 00       611
C231 032537BORZI MARIANA VALERIA      61100000000380+ 00       611
1731 032539GOMEZ CARINA ROSANA        61100000000380+ 00       611
1331 032541GRANDON MARIANO            61100000000380+ 00       611
C631 032543ZANETTI DIEGO ALEJANDRO    61100000000380+ 00       611
C113 032554CANALE MARIA MARTA         61100000000380+ 00       611
C114 032555CAPURRO GONZALO EDGARDO    61100000000380+ 00       611
OS31 032558CORIA PATRICIA LORENA      61100000000380+ 00       611
0214 032559COSLOVSKY MARIA CECILIA    61100000000380+ 00       611
C531 032562DIAZ TEMI GUSTAVO MARTIN   61100000000380+ 00       611
DS31 032572OCANO FABIAN LUIS          61100000000380+ 00       611
C131 032575ROCABADO HORACIO           61100000000380+ 00       611
OS31 032577SAIZ VIVIANA LUJAN         61100000000380+ 00       611
CF31 032579AGUIRRE CLAUDIO MARCELO    61100000000380+ 00       611
OS31 032582ABALOS BENJAMIN ROBERTO    61100000000380+ 00       611
C131 032583CAMPS MARCELO HORACIO      61100000000380+ 00       611
OS31 032584CASTILLO PABLO AGUSTIN     61100000000380+ 00       611
EP31 032585CASTRO FERNANDO DANIEL     61100000000380+ 00       611
0231 032586FERRO MARCOS ARIEL         61100000000380+ 00       611
C131 032587GONZALEZ GABRIEL ANIBAL    61100000000380+ 00       611
C414 032590GROSSANO ROXANA VALERIA    61100000000380+ 00       611
C131 032591HAPONIUK WALTER ALBERTO    61100000000380+ 00       611
0731 032594MARTINEZ RAMON ALBERTO     61100000000380+ 00       611
DT31 032597RAMIREZ FONSECA PABLO FERNA61100000000380+ 00       611
DS31 032598RIQUELME FERNANDO SEBASTIAN61100000000380+ 00       611
DN30 032600SOSA MARCELA LILIANA       61100000000380+ 00       611
C731 032601SUMA MARIA FERNANDA        61100000000380+ 00       611
DN31 032603ZANETTI LAURA DANIELA      61100000000380+ 00       611
DN15 032604AQUINO JAVIER ADRIAN       61100000000380+ 00       611
0731 032605BENITEZ MARCOS CEFERINO    61100000000380+ 00       611
0433 032606BORTHIRY POZNIAK DE ANALIA 61100000000380+ 00       611
DN31 032607CASTRO KARINA BEATRIZ      61100000000380+ 00       611
0231 032608MOLANES MELINA ALEJANDRA   61100000000380+ 00       611
0431 032609NOWAK GISELA ANDREA        61100000000380+ 00       611
0231 032611RODRIGUEZ CELESTE SOLEDAD  61100000000380+ 00       611
1331 032612TECHERA SILVIA SORAYA      61100000000380+ 00       611
DN31 032613TEVES MONICA EDITH         61100000000380+ 00       611
1731 032617GONZALEZ CRISTIAN MARCELO  61100000000380+ 00       611
0431 032618LOPEZ ANDREA LORENA        61100000000380+ 00       611
1731 032619ROMERO LUCIA NOEMI         61100000000380+ 00       611
ES31 032620ACEVEDO JUAN CARLOS        61100000000380+ 00       611
OS31 032621ACOSTA MARIO ALBERTO       61100000000380+ 00       611
0231 032622AGOSTINI JUAN IGNACIO      61100000000380+ 00       611
0730 032623AGUIRRE WALTER             61100000000380+ 00       611
C731 032624ALVAREZ BRUNO DANIEL       61100000000380+ 00       611
0715 032625AQUINO RAFAEL ALEJANDRO    61100000000380+ 00       611
CF31 032626ARANDA ARIEL NICOLAS       61100000000380+ 00       611
CF31 032627AREVALOS MANUEL SEBASTIAN  61100000000380+ 00       611
1130 032628ARGUELLO MARIO ALBERTO     61100000000380+ 00       611
0231 032629ARIAS MARIO GUALBERTO      61100000000380+ 00       611
DN31 032630ARREDONDO LUIS RUBEN       61100000000380+ 00       611
C331 032631AYALA JORGE ERNESTO        61100000000380+ 00       611
DS31 032632BAEZ OCTAVIO               61100000000380+ 00       611
1731 032634BATALLA MARIO ALEJANDRO    61100000000380+ 00       611
1131 032636BENITEZ ANTONIO FEDERICO   61100000000380+ 00       611
C531 032637BENITEZ JUAN GUSTAVO       61100000000380+ 00       611
1031 032638BERTUOL GREGORIO ADELMO    61100000000380+ 00       611
DS31 032639BIRARELLI CARLOS OMAR      61100000000380+ 00       611
C214 032640BOHM ENRIQUE ANTONIO       61100000000380+ 00       611
DS31 032642BORDON EDUARDO JAVIER      61100000000380+ 00       611
1131 032643BRITES RAMON ENRIQUE       61100000000380+ 00       611
C331 032644BURGOS DIEGO RAMON         61100000000380+ 00       611
DT31 032646BUSTO ALEJANDRO SEBASTIAN  61100000000380+ 00       611
C231 032647CABANA VICTOR HUGO         61100000000380+ 00       611
C231 032648CABRERA ALBERTO DAMIAN     61100000000380+ 00       611
1731 032650CAGNANI VICTOR HUGO        61100000000380+ 00       611
0631 032652CANARIO PEDRO JAVIER       61100000000380+ 00       611
C214 032653CANDIA DANIEL ARTURO       61100000000380+ 00       611
SC15 032654CARDOZO LUIS ANTONIO       61100000000380+ 00       611
0231 032655CARDOZO RAUL ANSELMO       61100000000380+ 00       611
0731 032656CATANEO LEONARDO DAVID     61100000000380+ 00       611
C313 032657CECCONE SOLIS CARLOS EDUARD61100000000380+ 00       611
0231 032659CISNEROS ARIEL ORLANDO     61100000000380+ 00       611
C114 032660CISNEROS PABLO GUILLERMO   61100000000380+ 00       611
CF31 032661COCERES JOSE RAMON         61100000000380+ 00       611
0631 032664CORREA GUSTAVO RUBEN       61100000000380+ 00       611
1631 032665CHOQUE ATILIO OSCAR        61100000000380+ 00       611
CF31 032666DAMIAN HERNAN GUSTAVO      61100000000380+ 00       611
0231 032672ERCEG EDUARDO MATIAS       61100000000380+ 00       611
2131 032673ESCOBEDO MANUEL ALEJANDRO  61100000000380+ 00       611
1031 032674ESPINOSA EDUARDO ALBERTO   61100000000380+ 00       611
C131 032677FARIZAN GASTON OSCAR       61100000000380+ 00       611
0431 032679FLORES HERNAN RAUL ELIAS   61100000000380+ 00       611
C131 032680FLORES ORLANDO IGNACIO     61100000000380+ 00       611
C331 032682GALVAN HUGO ORLANDO        61100000000380+ 00       611
C131 032685GAUNA CRISTIAN MARCOS      61100000000380+ 00       611
0730 032686GAUNA EDUARDO JAVIER       61100000000380+ 00       611
DN30 032690GODOY JUAN ALBERTO         61100000000380+ 00       611
0631 032691GOMEZ DANIEL ALEJANDRO     61100000000380+ 00       611
DS31 032692GOMEZ DAVID NELSON         61100000000380+ 00       611
SC31 032693GOMEZ EDUARDO DANIEL       61100000000380+ 00       611
BC31 032696GUZMAN CRISTIAN GUSTAVO    61100000000380+ 00       611
0631 032699HEREDIA RICARDO GUSTAVO    61100000000380+ 00       611
0731 032700IBANEZ ALCIDES FERNANDO    61100000000380+ 00       611
C531 032701JARA ARIEL ALEJANDRO       61100000000380+ 00       611
0531 032702JARA CRISTIAN ALBERTO      61100000000380+ 00       611
0730 032703JEREZ ROBERTO FACUNDO      61100000000380+ 00       611
0231 032704JUAREZ OSVALDO DANIEL      61100000000380+ 00       611
C531 032708LEDESMA CRISTIAN EMANUEL   61100000000380+ 00       611
1131 032713LOPEZ LUCAS FERNANDO       61100000000380+ 00       611
C131 032714LOPEZ LUIS DANIEL          61100000000380+ 00       611
1031 032715LOPEZ NESTOR FABIAN        61100000000380+ 00       611
1131 032716LOPEZ ROSENDO GABRIEL      61100000000380+ 00       611
0231 032717LUMBIA IVAN YANI           61100000000380+ 00       611
3531 032718LUQUE RAMON ARIEL          61100000000380+ 00       611
C631 032721MALDONADO SERGIO CAYETANO  61100000000380+ 00       611
0731 032722MARCHETTI CARLOS ARIEL     61100000000380+ 00       611
0231 032723MARIN GERARDO RUBEN        61100000000380+ 00       611
1731 032725MARTINEZ CLAUDIO DANIEL    61100000000380+ 00       611
DT13 032727MARTINEZ ROBERTO AUGUSTO   61100000000380+ 00       611
C131 032728MEDINA FERNANDO LAZARO     61100000000380+ 00       611
0231 032729MEIER GUILLERMO DAMIAN     61100000000380+ 00       611
C115 032730MELGAREJO JORGE ARIEL      61100000000380+ 00       611
3014 032731MENJIBAR CRISTIAN RAUL     61100000000380+ 00       611
0231 032732MONTANIA RAFAEL CESAR      61100000000380+ 00       611
C231 032733MONZON CARLOS ALBERTO      61100000000380+ 00       611
0231 032734MORALES LEZICA SEBASTIAN   61100000000380+ 00       611
1031 032735MORONI GUSTAVO DANIEL      61100000000380+ 00       611
C131 032736MUNIZ JUAN MANUEL          61100000000380+ 00       611
C130 032737MUNOZ NESTOR ALBERTO       61100000000380+ 00       611
3233 032738NABALLES OSVALDO GUSTAVO   61100000000380+ 00       611
0731 032739NEGRI CLAUDIO DARIO        61100000000380+ 00       611
DN15 032740NIETO LUIS ALBERTO         61100000000380+ 00       611
ES31 032741NIEVA OSCAR EDUARDO        61100000000380+ 00       611
0515 032742NUNGESSER JUAN MANUEL      61100000000380+ 00       611
0631 032743OBREQUE JULIO CESAR        61100000000380+ 00       611
DS31 032745OJEDA RAUL PABLO           61100000000380+ 00       611
0514 032746OJEDA VICTOR DANIEL        61100000000380+ 00       611
C131 032748PAGLIA ANIBAL              61100000000380+ 00       611
C430 032749PAIVA FABIAN ALBERTO       61100000000380+ 00       611
0231 032751PANIAGUA JOSE DIEGO        61100000000380+ 00       611
C231 032752PANIAGUA OMAR NELSON       61100000000380+ 00       611
0231 032753PARED LEONARDO JAVIER      61100000000380+ 00       611
C131 032754PARRA RUBEN ANTONIO        61100000000380+ 00       611
DS31 032755PATARCA PABLO GASTON       61100000000380+ 00       611
1931 032756PEREYRA HECTOR ADRIAN      61100000000380+ 00       611
0231 032757PEREYRA DA SILVA DANIEL ENR61100000000380+ 00       611
1731 032759PIRIS LUCIANO VICTOR       61100000000380+ 00       611
C130 032761QUEVEDO CARLOS RAMON       61100000000380+ 00       611
C730 032762QUINA FRANCISCO AGUSTIN    61100000000380+ 00       611
DS31 032763QUINA PABLO JESUS          61100000000380+ 00       611
0730 032764RABEZ ROLANDO ANTONIO      61100000000380+ 00       611
C431 032765RAMIREZ ARIEL SIXTO        61100000000380+ 00       611
C231 032766RAMIREZ ENRIQUE DAVID      61100000000380+ 00       611
DN31 032767RAMIREZ MOISES SAMUEL OSCAR61100000000380+ 00       611
C215 032768REY JORGE DANIEL           61100000000380+ 00       611
C414 032769RIO DANIEL GERVASIO        61100000000380+ 00       611
3530 032770RIOS FABIO DE JESUS        61100000000380+ 00       611
C431 032771RODRIGUEZ ALBERTO DE JESUS 61100000000380+ 00       611
C431 032773RODRIGUEZ JULIO CESAR      61100000000380+ 00       611
0231 032774ROJAS GUIDO OSCAR          61100000000380+ 00       611
0230 032775ROMERO SERGIO HERNAN       61100000000380+ 00       611
C131 032777ROUILLER GUSTAVO DANIEL    61100000000380+ 00       611
C231 032780SANCHEZ ALDO CARMELO       61100000000380+ 00       611
EC31 032781SANCHEZ ANGEL JOSE         61100000000380+ 00       611
C615 032782SANCHEZ PABLO MATIAS       61100000000380+ 00       611
0631 032783SANDOVAL MARTIN RAUL       61100000000380+ 00       611
3031 032784SANTANDER CLAUDIO FABIAN   61100000000380+ 00       611
C131 032785SCHIAPPA PIETRA GUSTAVO ERN61100000000380+ 00       611
C331 032786SENES CRISTIAN OSCAR       61100000000380+ 00       611
EC31 032787SERRIZUELA CRISTIAN ADRIAN 61100000000380+ 00       611
2131 032790SOSA HECTOR HERNAN         61100000000380+ 00       611
CF31 032791SOTELO ARIEL DARIO         61100000000380+ 00       611
DT31 032793SUAREZ ADRIAN ALEJANDRO    61100000000380+ 00       611
C131 032794TILL PATRICIO HERNAN       61100000000380+ 00       611
1031 032795TOLEDO JHONNY JOSE         61100000000380+ 00       611
2131 032796TOLOZA FAVIO GASTON        61100000000380+ 00       611
0231 032798TORRES JAVIER ENRIQUE      61100000000380+ 00       611
C231 032799VALENZUELA CRISTIAN MARCELO61100000000380+ 00       611
SC30 032800VALLEJOS GUILLERMO ANDRES  61100000000380+ 00       611
1131 032802VEGA MARIO DANIEL          61100000000380+ 00       611
0231 032803VEGA SERGIO LUIS           61100000000380+ 00       611
0431 032806VIDELA MAURO DAMIAN        61100000000380+ 00       611
1931 032807VILLARREAL ARNALDO DAVID   61100000000380+ 00       611
AP31 032808ZACARIAS HUGO MARIANO      61100000000380+ 00       611
C531 032809ZALAZAR MIGUEL ANGEL       61100000000380+ 00       611
SU31 032812BEDNAREK ROMINA PAULA      61100000000380+ 00       611
0431 032814CANZIANI CECILIA MARINA    61100000000380+ 00       611
3431 032815CEPEDA ROMINA ELIZABETH    61100000000380+ 00       611
1331 032818HIRSCHFELD MARIA ALEJANDRA 61100000000380+ 00       611
0514 032820JACQUET LILA JESSICA       61100000000380+ 00       611
1714 032821JARA CARINA ANDREA         61100000000380+ 00       611
C130 032822LEGUIZAMON PATRICIA ALEJAND61100000000380+ 00       611
0531 032823LOYOLA ANALIA VERONICA     61100000000380+ 00       611
0631 032824MORALES RITA CECILIA       61100000000380+ 00       611
DN31 032825PIZZANI NATALIA NOEMI      61100000000380+ 00       611
0431 032827SALABERRY MARIA MONICA     61100000000380+ 00       611
OS31 032828SENA ANGELA SOLEDAD        61100000000380+ 00       611
1931 032830VILLARREAL CAROLINA NATALIA61100000000380+ 00       611
C131 032831ZADNIK JOHANA PAOLA        61100000000380+ 00       611
CF15 032833OURAL CLAUDIO ROBERTO      61100000000380+ 00       611
CF32 032836GOMEZ SEQUEIRA HUGO ADOLFO 61100000000380+ 00       611
C231 032839SCROFANI GUSTAVO ALBERTO   61100000000380+ 00       611
SC31 032840VEGA LUIS ALBERTO          61100000000380+ 00       611
0231 032841ACEVEDO MARCOS ELIAS       61100000000380+ 00       611
C131 032848ARRUA AQUILES ANTONIO      61100000000380+ 00       611
C231 032850BENITEZ MATIAS ALEJANDRO   61100000000380+ 00       611
C234 032851BRIEGA DAVID MAXIMILIANO   61100000000380+ 00       611
1731 032852BRITEZ SERGIO DANIEL       61100000000380+ 00       611
0231 032854BUSTOS GERMAN DAVID        61100000000380+ 00       611
1731 032855CABANA CARLOS ALBERTO      61100000000380+ 00       611
C231 032856CABANA OSVALDO RAUL        61100000000380+ 00       611
1731 032857CABRERA HERIBERTO DANIEL   61100000000380+ 00       611
1031 032859CANO ALBERTO DANIEL        61100000000380+ 00       611
C231 032860CARRE JOSE LUIS            61100000000380+ 00       611
CF31 032862CESAR JAVIER MARCELO       61100000000380+ 00       611
C231 032868DIAZ HERNAN FELIPE         61100000000380+ 00       611
C131 032869FERREYRA MIGUEL ANGEL      61100000000380+ 00       611
1731 032870FLORES MARIO ALBERTO       61100000000380+ 00       611
0631 032871FLORES MARTIN ADRIAN       61100000000380+ 00       611
3432 032872FRANCOLINI FERNANDO ANDRES 61100000000380+ 00       611
C231 032873GAONA CLAUDIO DAVID        61100000000380+ 00       611
0531 032874GARCIA GASTON CARLOS       61100000000380+ 00       611
1931 032875GARCIA GUSTAVO SERGIO      61100000000380+ 00       611
C131 032876GODOY WALTER DAVID         61100000000380+ 00       611
DS31 032877GOMEZ ANIBAL BALDONADO     61100000000380+ 00       611
C231 032878GOMEZ ARIEL RAMON          61100000000380+ 00       611
DN31 032881LALIN MARCELO DARIO        61100000000380+ 00       611
3431 032882LEDESMA HORACIO DAVID      61100000000380+ 00       611
0731 032883LIBARDI VICTOR DANIEL      61100000000380+ 00       611
0231 032884LIZONDO JUAN MARTIN EZEQUIE61100000000380+ 00       611
C131 032885LOPEZ AMILCAR NICOLAS      61100000000380+ 00       611
0231 032886LOPEZ MARCO ANTONIO        61100000000380+ 00       611
0531 032888MEDINA ANDRES CEFERINO     61100000000380+ 00       611
DS15 032889MEDINA RAUL ALEJANDRO      61100000000380+ 00       611
0731 032890MEZA ARIEL RAMON           61100000000380+ 00       611
0731 032891MINO MIGUEL ANGEL          61100000000380+ 00       611
0231 032892MORINIGO JORGE RUBEN       61100000000380+ 00       611
C231 032894NACIMIENTO MARCELO AUGUSTO 61100000000380+ 00       611
1731 032896NUNEZ LUIS MARIO           61100000000380+ 00       611
SC15 032898ORREGO FRERES CRISTIAN ARIE61100000000380+ 00       611
DS31 032899PAZ GABRIEL EDUARDO        61100000000380+ 00       611
1231 032900PEREYRA FRANCISCO ALBERTO  61100000000380+ 00       611
SC31 032901PEREZ GUILLERMO ORLANDO    61100000000380+ 00       611
1731 032904PROCHASKO DIEGO ALEJANDRO  61100000000380+ 00       611
C631 032905RAMIREZ CESAR AUGUSTO      61100000000380+ 00       611
DN31 032906RAMIREZ CLAUDIO ADRIAN     61100000000380+ 00       611
OS15 032907REYES LEONEL ISAAC         61100000000380+ 00       611
C131 032908RIVAROLA JORGE OMAR        61100000000380+ 00       611
DN31 032909ROBLEDO FERNANDO DANIEL    61100000000380+ 00       611
C331 032910RODRIGUEZ CARLOS ARIEL     61100000000380+ 00       611
1131 032912ROMERO ROBERTO ALEXIS EMANU61100000000380+ 00       611
C131 032913SALGADO FERNANDO OMAR      61100000000380+ 00       611
0615 032915SANCHEZ OMAR FERNANDO      61100000000380+ 00       611
3231 032916SAUCEDO PABLO MARCELO MARTI61100000000380+ 00       611
0431 032917SELTENREIT LUCAS DAMIAN    61100000000380+ 00       611
0531 032918SOLANO FABIAN MARTIN       61100000000380+ 00       611
CF31 032920STRUSIAT CLAUDIO OSCAR     61100000000380+ 00       611
0231 032921TISEIRA EDGARDO WALTER HERN61100000000380+ 00       611
C131 032922TOLEDO NESTOR ARIEL        61100000000380+ 00       611
1331 032923TUR MARCOS ORESTE          61100000000380+ 00       611
1131 032924ULLOA ENZO ANDRES          61100000000380+ 00       611
0231 032925VALLEJO ANGEL GABRIEL      61100000000380+ 00       611
C131 032926VARGAS ALEJANDRO JAVIER    61100000000380+ 00       611
1131 032927VERA FERNANDO ARIEL        61100000000380+ 00       611
0431 032928VILLA MAXIMO RAMON         61100000000380+ 00       611
C131 032929VILLALBA FERNANDO JAVIER   61100000000380+ 00       611
0732 032930ZAPPORITTI CLAUDIO ADOLFO S61100000000380+ 00       611
0731 032931ZARZA SABADINI CARLOS CESAR61100000000380+ 00       611
1131 032932ZENIQUEL JOSE LUIS         61100000000380+ 00       611
C131 032933ZERUFFO ALBERTO HERNAN     61100000000380+ 00       611
C731 032934BARRIONUEVO VERONICA ALEJAN61100000000380+ 00       611
1131 032936CANCELARICH ANDREA ELISABET61100000000380+ 00       611
C331 032937CARAMELLO SANDRA EVELIN    61100000000380+ 00       611
1131 032938CARBALLO KAREN PAMELA INES 61100000000380+ 00       611
3031 032939HERRERO YANINA PAOLA       61100000000380+ 00       611
3031 032941MATUS VICTORIA LORENA      61100000000380+ 00       611
1130 032942NOVOTNY ROSANA GLADYS      61100000000380+ 00       611
CF15 032954GRAGEDA GILBERTO ROLANDO   61100000000380+ 00       611
3415 032960PEREA JORGE LUIS           61100000000380+ 00       611
DN31 032966ALVAREZ VICTOR HUGO        61100000000380+ 00       611
0231 032968GOMEZ ANDRES LUIS          61100000000380+ 00       611
0731 032969PEREZ SANDRA SUSANA        61100000000380+ 00       611
C431 032971RODRIGUEZ SUSANA BEATRIZ   61100000000380+ 00       611
3414 032972SORBELLO JUAN CARLOS       61100000000380+ 00       611
C231 032974VARGAS LETICIA ERICA       61100000000380+ 00       611
0731 032976ESPINEL PABLO MARIANO      61100000000380+ 00       611
1131 032977PEREYRA JULIO ANDRES       61100000000380+ 00       611
SC31 032978ALARCON ANDREA FABIANA     61100000000380+ 00       611
0215 032979BONATO LAURA LILIANA       61100000000380+ 00       611
C131 032981ESTABILLO RAMIRO ARIEL     61100000000380+ 00       611
1931 032983MANRIQUE SERGIO GABRIEL    61100000000380+ 00       611
DN31 032984MATEO NATALIA NAHIR        61100000000380+ 00       611
1031 032986RAMIREZ NADIA JOSEFINA     61100000000380+ 00       611
SC31 032987ALARCON GRACIELA KARINA    61100000000380+ 00       611
DS13 032993AQUINO NATALIA ANDREA      61100000000380+ 00       611
DN13 032995BARRIOS SONIA MARIELA      61100000000380+ 00       611
0213 032997CAMPOS JORGE GABRIEL       61100000000380+ 00       611
DS13 032998CARDOZO MARCELO GASTON     61100000000380+ 00       611
C413 032999CARUSO LORENA PAOLA        61100000000380+ 00       611
0213 033000CATRILEO JUAN VICTOR       61100000000380+ 00       611
1313 033001CENTURION NATALIA SOLEDAD  61100000000380+ 00       611
C113 033003CIMBARO JAVIER RAMON       61100000000380+ 00       611
C413 033004CONESA MELINA ALEJANDRA    61100000000380+ 00       611
C513 033005DIAZ CRISTIAN ADOLFO       61100000000380+ 00       611
0213 033006ESCALADA SONIA ESTELA      61100000000380+ 00       611
C313 033007FASSA RODOLFO OMAR         61100000000380+ 00       611
C413 033008FUERTES SONIA VIVIANA      61100000000380+ 00       611
2513 033009GALEANO MATILDE            61100000000380+ 00       611
SC13 033010GALMARINI CRISTIAN DANIEL  61100000000380+ 00       611
0413 033011GONZALEZ MARTIN SEBASTIAN  61100000000380+ 00       611
C113 033012GUTTLEIN NATALIO ORTENCIO  61100000000380+ 00       611
0713 033014JUAREZ ROLANDO FIDEL       61100000000380+ 00       611
0613 033015LIZARDIA JUAN CARLOS       61100000000380+ 00       611
0613 033016LOPEZ JORGE LUIS           61100000000380+ 00       611
DN13 033018MARTINS GIMENEZ GABRIELA IR61100000000380+ 00       611
C713 033020MEDINA ERNESTO ABEL        61100000000380+ 00       611
C113 033021MEDINA LEANDRO ARIEL       61100000000380+ 00       611
CF13 033022MEDINA MIGUEL ANGEL        61100000000380+ 00       611
AI13 033023MEDINA OMAR                61100000000380+ 00       611
C513 033025MONTT SEBASTIAN EMANUEL    61100000000380+ 00       611
C113 033027MORENO JORGE DANIEL        61100000000380+ 00       611
C113 033028MUGICA NAHUEL              61100000000380+ 00       611
SC13 033029OJEDA ORNALDO GUILLERMO    61100000000380+ 00       611
0213 033033QUIROZ HECTOR DARIO        61100000000380+ 00       611
C213 033034RIGONATTO DIEGO ENRIQUE    61100000000380+ 00       611
0813 033036ROJAS ROBERTO CARLOS       61100000000380+ 00       611
C113 033037RUIZ RICARDO EMANUEL       61100000000380+ 00       611
C313 033038SARMIENTO HUGO ALBERTO     61100000000380+ 00       611
C113 033039SOSA FRANCISCO ALBERTO     61100000000380+ 00       611
DN12 033040SUSSINI JAVIER ALEJANDRO   61100000000380+ 00       611
0613 033041TISSONE ALEJANDRO JAVIER   61100000000380+ 00       611
DS13 033042TOMASONI ADRIAN ALEJANDRO  61100000000380+ 00       611
SC13 033043TORRENS MARIANO EDUARDO    61100000000380+ 00       611
C413 033044URQUIZA SANDRA MARIELA     61100000000380+ 00       611
DN13 033046VARGAS VIVIANA BEATRIZ     61100000000380+ 00       611
C213 033048VILCAVIL NESTOR JAVIER     61100000000380+ 00       611
2213 033049VILLALBA JULIO CESAR       61100000000380+ 00       611
0513 033052MACIOCHA JUAN PABLO        61100000000380+ 00       611
SU13 033055ROMAN CORONEL JORGE MARTIN 61100000000380+ 00       611
DN13 033057ISASI FRANCO MAXIMILIANO   61100000000380+ 00       611
OS13 033058MUNOZ GASTON ISMAEL        61100000000380+ 00       611
C131 033062ACUNA PEDRO MANUEL         61100000000380+ 00       611
2131 033063ADELL SERGIO JOSE          61100000000380+ 00       611
1631 033064AEBICHER ARMANDO MAURICIO  61100000000380+ 00       611
C231 033065ALARCON RAMON MARCO        61100000000380+ 00       611
C731 033066ALTAMIRANO CRISTIAN MARCELO61100000000380+ 00       611
1631 033067ALTAMIRANO JORGE ARIEL     61100000000380+ 00       611
0231 033069AMENDOLARA FERNANDO JAVIER 61100000000380+ 00       611
0231 033070ARCE PABLO ROBERTO         61100000000380+ 00       611
0231 033071ARCE ROMANO SANTIAGO ALEJAN61100000000380+ 00       611
DS31 033072ATENCIO RICARDO ALEJANDRO  61100000000380+ 00       611
0231 033073BATISTA PABLO EMILIO       61100000000380+ 00       611
C131 033075BISTOLETTI JUAN ANGEL      61100000000380+ 00       611
DS31 033077BRAVO PABLO ARIEL          61100000000380+ 00       611
C231 033078BRINOCCOLI CLAUDIO GASPAR  61100000000380+ 00       611
C714 033079BARBOTTI MARIELA EUFEMIA   61100000000380+ 00       611
0431 033080CABRAL HECTOR ADRIAN       61100000000380+ 00       611
1631 033081CABRERA GERMAN ALEJANDRO   61100000000380+ 00       611
SC31 033082CACERES GABRIEL ALEJANDRO  61100000000380+ 00       611
0231 033083CALVEIRA CESAR ANDRES      61100000000380+ 00       611
0231 033084CANDANEDO MARTIN           61100000000380+ 00       611
0231 033085CASTRO DIEGO RUBEN         61100000000380+ 00       611
2131 033086GONZALEZ LIBERTAD VERONICA 61100000000380+ 00       611
C231 033088COCERES MARTIN GASTON      61100000000380+ 00       611
C131 033089COLLIARD DARIO RAUL        61100000000380+ 00       611
C231 033090CONCA PABLO ANTONIO ESTEBAN61100000000380+ 00       611
C231 033091CONTRERAS PORTO GABRIEL HER61100000000380+ 00       611
0231 033095DIAZ ADRIAN MARCELO        61100000000380+ 00       611
C131 033097DIAZ DIEGO NICOLAS         61100000000380+ 00       611
1131 033098DIAZ MARCELO DAVID         61100000000380+ 00       611
0231 033099DIAZ RAMON AGUSTIN         61100000000380+ 00       611
C416 033100DIAZ SERGIO ARIEL          61100000000380+ 00       611
C231 033101DOMINGORENA NESTOR ADRIAN  61100000000380+ 00       611
0231 033102DOMINGUEZ DARIO ALBERTO    61100000000380+ 00       611
0731 033104ESCOBAR HECTOR ALEJANDRO   61100000000380+ 00       611
C131 033105ESQUIVEL JUAN MARCELO      61100000000380+ 00       611
0231 033107FALCO OSCAR ALBERTO        61100000000380+ 00       611
1031 033108FERNANDEZ CESAR SAMUEL DAVI61100000000380+ 00       611
0231 033109FERNANDEZ DELFIN EDUARDO   61100000000380+ 00       611
1431 033110FERNANDEZ LEONARDO DAVID   61100000000380+ 00       611
1131 033112FLEITA DIEGO ROBERTO       61100000000380+ 00       611
C731 033113FLORES DANIEL EDUARDO      61100000000380+ 00       611
EC16 033115GALEANO LEANDRO            61100000000380+ 00       611
3531 033116GALEANO PABLO JAVIER       61100000000380+ 00       611
C216 033117GALVAN FERNANDO ARIEL      61100000000380+ 00       611
1231 033119GARCIA ROBERTO MANUEL      61100000000380+ 00       611
1131 033121GIMENEZ GERARDO FRANCISCO  61100000000380+ 00       611
C131 033123GOMEZ ANGEL LEONARDO       61100000000380+ 00       611
3231 033124GOMEZ FRANCO VICTOR        61100000000380+ 00       611
C231 033126GOMEZ WALTER DANIEL        61100000000380+ 00       611
C131 033127GONZALEZ DANIEL LEOCADIO   61100000000380+ 00       611
C231 033128GONZALEZ GUSTAVO GABRIEL   61100000000380+ 00       611
0731 033130KOWALSKY GERARDO JUAN PABLO61100000000380+ 00       611
0531 033131KUNZ CARLOS ALBERTO        61100000000380+ 00       611
C131 033132LANGE CARLOS EDGARDO       61100000000380+ 00       611
C431 033133LATAPIE MARCELO DANIEL     61100000000380+ 00       611
C131 033134LEZCANO JULIO ARGENTINO    61100000000380+ 00       611
1131 033135LOBERA SERGIO              61100000000380+ 00       611
AP31 033136LOPEZ FERNANDO LUIS        61100000000380+ 00       611
1131 033137LOPEZ MARCOS SEBASTIAN     61100000000380+ 00       611
CF31 033138LOPEZ PEDRO ALEJANDRO      61100000000380+ 00       611
2131 033139LUGO ROBERTO MIGUEL        61100000000380+ 00       611
0831 033140MALDONADO ARIEL WILSON     61100000000380+ 00       611
C431 033141MANSILLA NESTOR LEONARDO   61100000000380+ 00       611
SC31 033142MARCIAL JAVIER ALBERTO     61100000000380+ 00       611
DN15 033143MARTINEZ DIEGO FERNAN      61100000000380+ 00       611
CF31 033146MEDINA DANIEL HERNAN       61100000000380+ 00       611
C431 033149MENDEZ DIEGO LUIS          61100000000380+ 00       611
C231 033151MONTES RODOLFO MIGUEL      61100000000380+ 00       611
0731 033153MORALES JORGE RAFAEL ANTONI61100000000380+ 00       611
3531 033154MOSQUEDA ANDRES DANIEL     61100000000380+ 00       611
C231 033155ORELLANA CRISTIAN ALBERTO  61100000000380+ 00       611
OS31 033157PONCE MAXIMILIANO ERNESTO  61100000000380+ 00       611
C231 033158PUEBLA FABIAN GUILLERMO    61100000000380+ 00       611
C231 033159QUINTANA LEONARDO DAVID    61100000000380+ 00       611
DN31 033160RAMIREZ ARIEL GUSTAVO      61100000000380+ 00       611
0231 033161RICO GONZALO ARIEL         61100000000380+ 00       611
1031 033162RIVERO GUSTAVO DAMIAN      61100000000380+ 00       611
0231 033164ROLDAN WALTER ALEJANDRO    61100000000380+ 00       611
CF31 033165ROMERO MANUEL ALBERTO      61100000000380+ 00       611
C531 033167SAEZ JAVIER OSCAR          61100000000380+ 00       611
C231 033168SALCEDO MARCELO LUCAS EMANU61100000000380+ 00       611
0231 033169SALDANA GUSTAVO FABIAN     61100000000380+ 00       611
3431 033170SANCHEZ WALTER OSCAR       61100000000380+ 00       611
0231 033171SANDOVAL VICTOR HUGO       61100000000380+ 00       611
C231 033172SANTILLAN CRISTIAN JAVIER  61100000000380+ 00       611
0431 033175SELTENREIT MARIO HECTOR    61100000000380+ 00       611
CF31 033178SORIA CRISTIAN ARIEL       61100000000380+ 00       611
3531 033180TOLEDO RAMON LUIS          61100000000380+ 00       611
0531 033181TRALCAL DIEGO OSCAR        61100000000380+ 00       611
C231 033182VALLEJOS JULIO GERARDO     61100000000380+ 00       611
1214 033183VAZQUEZ ALSIDE ROMAN       61100000000380+ 00       611
C131 033185ZAMORANO JUAN RAMON        61100000000380+ 00       611
DT31 033186ZAPATA LEONARDO OSCAR      61100000000380+ 00       611
3431 033189ANDRADA ALICIA LOURDES     61100000000380+ 00       611
C731 033190AREVALO ALICIA RAQUEL      61100000000380+ 00       611
1931 033191ARMANDO VERONICA NATALIA   61100000000380+ 00       611
3431 033192BARBERIS ELIANA CARINA     61100000000380+ 00       611
C431 033193BENITEZ ROXANA ALEJANDRA   61100000000380+ 00       611
0531 033194COSTANZO DAIANA VANINA     61100000000380+ 00       611
C131 033195EGUREN JORGELINA EDITH     61100000000380+ 00       611
1731 033196GAUVRY ANGELA ITATI        61100000000380+ 00       611
CF31 033198LEVY JOHANNA               61100000000380+ 00       611
OS31 033199MARTINEZ LORENA NATALIA    61100000000380+ 00       611
3031 033200NOWAK DEBORA VANINA        61100000000380+ 00       611
DS31 033202RABOSSI KARINA NATALIA     61100000000380+ 00       611
1731 033203ROJAS CRISTINA MABEL       61100000000380+ 00       611
CF32 033204SANDOVAL MIGUEL ANGEL      61100000000380+ 00       611
1031 033205SILVEIRA LAURA NOEMI       61100000000380+ 00       611
C731 033206TARRAGA CLAUDIA RAQUEL     61100000000380+ 00       611
DN13 033207ALLENDE MARIA ANGELICA     61100000000380+ 00       611
1031 033210BRITEZ RODRIGO RAMON       61100000000380+ 00       611
C231 033211CARADONNA GABRIELA IVONE   61100000000380+ 00       611
C715 033214CASALE FERNANDO ARIEL      61100000000380+ 00       611
OS14 033216DAVIDIAN LORENA LIA        61100000000380+ 00       611
C115 033224GONZALEZ EDUARDO ALBERTO   61100000000380+ 00       611
DN14 033225GONZALEZ CABADAS DE ROSA   61100000000380+ 00       611
C431 033230MACIOCHA CLAUDIA CECILIA   61100000000380+ 00       611
0713 033232MEDINA MARIA DE LOS ANGELES61100000000380+ 00       611
CF14 033235PARRA ANA MARIA            61100000000380+ 00       611
DN15 033238RUBINI LEONARDO            61100000000380+ 00       611
DS15 033244SOSA SERGIO DANIEL         61100000000380+ 00       611
1015 033247VEGA HECTOR TOMAS          61100000000380+ 00       611
C131 033248BAEZ SERGIO ELENO          61100000000380+ 00       611
3431 033249LARRETAPE MARTIN JAVIER    61100000000380+ 00       611
1931 033250CERBINO VICTOR HUGO        61100000000380+ 00       611
1931 033252PAGANO YANINA PAOLA        61100000000380+ 00       611
SC31 033255QUINA JUAN MANUEL          61100000000380+ 00       611
1631 033257SANCHEZ ROSA MARCELA       61100000000380+ 00       611
0531 033258SEQUEIRA GONZALEZ YANINA   61100000000380+ 00       611
C231 033261ABOITIZ FABRICIO ADRIAN    61100000000380+ 00       611
C631 033262AGUERO LEONARDO JORGE      61100000000380+ 00       611
1731 033263AGUERO RAMON OSCAR         61100000000380+ 00       611
0231 033264ALDERETE DIEGO RENE DAVID  61100000000380+ 00       611
1931 033265ALIENDES CARLOS ALBERTO    61100000000380+ 00       611
C131 033266BENITEZ FERNANDO OSCAR     61100000000380+ 00       611
1915 033267BRUZON FERNANDO GABRIEL    61100000000380+ 00       611
C131 033268BUSTOS JAVIER              61100000000380+ 00       611
0731 033269CACERES GUSTAVO ALCIDES    61100000000380+ 00       611
DN31 033270CHILISI ALBERTO DANIEL     61100000000380+ 00       611
1431 033271HERRERA SERGIO DANIEL      61100000000380+ 00       611
OS31 033272HERRERA SILVIO EDGARDO     61100000000380+ 00       611
C131 033273LOPEZ WALTER RENE          61100000000380+ 00       611
0531 033274MASSARA DARIO JESUS        61100000000380+ 00       611
1431 033275MILLAQUEO HECTOR EDUARDO   61100000000380+ 00       611
C131 033278RIVERO MARIO EZEQUIEL      61100000000380+ 00       611
0215 033280SILVERIO DARIO SEBASTIAN   61100000000380+ 00       611
C131 033281YUNGBLUT DANIEL GUILLERMO  61100000000380+ 00       611
0231 033283BILLORDO MIGUEL ANGEL      61100000000380+ 00       611
0414 033285CARRIL ESTEFANIA PAZ       61100000000380+ 00       611
OS14 033291SERVAT FRANCO WALTER HERNAN61100000000380+ 00       611
OS14 033292GORGONE JORGE WALTER       61100000000380+ 00       611
1631 033293ABREGU SERGIO ARIEL        61100000000380+ 00       611
C131 033294ALARCON RAUL JAVIER MARTIN 61100000000380+ 00       611
0731 033296AYALA ALDO RAMON           61100000000380+ 00       611
1131 033298BAEZ JUAN ABDON ALEJANDRO  61100000000380+ 00       611
3431 033299BAEZ PABLO ENRIQUE         61100000000380+ 00       611
0231 033300BALOCCO DAVID RUBEN        61100000000380+ 00       611
C531 033302BARRIONUEVO GUSTAVO DANIEL 61100000000380+ 00       611
2131 033303BENITEZ JOSE ANTONIO       61100000000380+ 00       611
1131 033304BILUNYK MARCELO OSCAR      61100000000380+ 00       611
0731 033305BILUNYK NESTOR IVAN        61100000000380+ 00       611
C131 033306SMAHLIJ JORGE DANIEL       61100000000380+ 00       611
DS31 033307BRITES JAVIER ANTONIO      61100000000380+ 00       611
C231 033308CABRERA HECTOR EDUARDO     61100000000380+ 00       611
C131 033310CASCO RAMON ANGEL          61100000000380+ 00       611
SC15 033311CORTEZ MIGUEL ANGEL        61100000000380+ 00       611
0531 033313FERREYRA NICOLAS ARIEL     61100000000380+ 00       611
DS31 033314FIORINO CHRISTIAN JAVIER   61100000000380+ 00       611
1431 033315FLORES RODRIGO ANTONIO     61100000000380+ 00       611
C132 033316INSAURRALDE WALTER ADRIAN  61100000000380+ 00       611
C731 033319OJEDA LUCAS SEBASTIAN      61100000000380+ 00       611
C231 033320OLIVER OSCAR OMAR          61100000000380+ 00       611
DS31 033321QUIROZ MARIO RAUL          61100000000380+ 00       611
1131 033322RAMIREZ SERGIO FERNANDO    61100000000380+ 00       611
0231 033324NOGUERA JOSE ORLANDO       61100000000380+ 00       611
1431 033327YANEZ JUAN JOSE            61100000000380+ 00       611
0214 033330BIANCHINI KARINA ANA       61100000000380+ 00       611
C431 033332CACERES XIMENA YANINA      61100000000380+ 00       611
C215 033334CANELO KARINA VERONICA     61100000000380+ 00       611
C731 033335CIPRIAN MARIA ELENA        61100000000380+ 00       611
C214 033339DEZI MARISA SUSANA         61100000000380+ 00       611
