DN10 025716MEDINA RAUL EDUARDO        60800000575500+ 00       608
DN10 026894ALVAREZ SONIA MARIELA      60800001435092+ 00       608
0213 027534GONZALEZ SANDRA FABIANA    60800000866667+ 00       608
DN10 027537GUARINO JOSE LUIS          60800000084000+ 00       608
C711 027554OULEHLA CARLOS DANIEL      60800000523400+ 00       608
C211 028165ROJAS TOMAS CEFERINO       60800000400000+ 00       608
C511 028179TOKAYUK MARCELO HORACIO    60800000919000+ 00       608
0630 028933MAIDANA RICARDO DANIEL OSCA60800000179000+ 00       608
0730 029139SALINAS RITA ELIZABETH     60800000375000+ 00       608
DN10 029213ACUNA RICARDO ALBERTO      60800001342867+ 00       608
C211 029216AQUINO GABRIEL ESTEBAN     60800000190000+ 00       608
DS11 029552LEVIU JAVIER WALTER        60800001800000+ 00       608
DN11 029575CANTEROS CRISTIAN ALFREDO  60800000078000+ 00       608
C412 029763BLANCO ROSANA GRACIELA     60800000488400+ 00       608
RP11 029775GONZALEZ POMYKALA DIEGO DAV60800000325743+ 00       608
0511 029778JUAREZ MARCELO MIGUEL      60800000400000+ 00       608
C311 029800SILVERO CLAUDIO DANIEL     60800000300000+ 00       608
C614 029864BALGUENET CARLOS RODOLFO   60800000025000+ 00       608
1912 030022OVANDO CARLOS ALBERTO      60800000605000+ 00       608
C412 030030BRANDI PIERINA DEL CARMEN  60800000347625+ 00       608
1511 030033CANESSINI ALEJANDRO ADRIAN 60800002000000+ 00       608
DS11 030040GONZALEZ ROQUE ADRIAN      60800000903658+ 00       608
C611 030042MACIOCHA ALFREDO ARIEL     60800000544250+ 00       608
OS11 030044MALICH PABLO ELISEO        60800000400000+ 00       608
EP11 030047PAIVA GRISELDA ANALIA      60800000579000+ 00       608
DN30 030296MURANO JUAN JOSE           60800000821125+ 00       608
1330 030361CABRAL MONICA BIBIANA      60800001320000+ 00       608
0414 030407BARRIOS LILIANA MABEL      60800000250000+ 00       608
ES31 030438LUNA OSVALDO CESAR         60800000908300+ 00       608
0630 030446ORTIZ CRISTIAN ADRIAN      60800000179000+ 00       608
DN12 030537MEDINA DANTE ERICK         60800000971667+ 00       608
1312 030549ROMEO GUSTAVO MARTIN       60800001710000+ 00       608
DN11 030559GOROSITO CARBALLO FABIO REN60800000694250+ 00       608
1930 030710CARDOZO CARLOS ALBERTO     60800001411667+ 00       608
CF12 030942CABRERA DANIEL ALEJANDRO   60800000057000+ 00       608
1930 030980AYALA EMILIANO             60800000339100+ 00       608
1130 031011ACEVEDO ARIEL CLEMENTE     60800000750000+ 00       608
C230 031014ACOSTA CHRISTIAN ARIEL     60800000540000+ 00       608
0430 031028BADER JUAN JOSE            60800000571750+ 00       608
C630 031045CABRERA PEDRO GABRIEL      60800000025000+ 00       608
C630 031081DUARTE PABLO ADRIAN        60800000025000+ 00       608
C130 031084ESCOBAR ANIBAL MAXIMILIANO 60800000500000+ 00       608
1030 031124GUTIERREZ JUAN MARCELO     60800000807500+ 00       608
C530 031132JACOB DANIEL OSCAR         60800001422000+ 00       608
C230 031143LOPEZ ALBERTO ANIBAL       60800000969000+ 00       608
1130 031153MANSILLA RAFAEL SERGIO     60800000556667+ 00       608
C130 031191RAMIREZ VICTOR ALEJANDRO   60800000319200+ 00       608
C130 031214SANTILLAN JOSE ERNESTO     60800000500000+ 00       608
1134 031215SAUCO RAMON CATALINO NAZARE60800000840000+ 00       608
DS30 031224SORIA MARIANO NICOLAS      60800000375000+ 00       608
0630 031227SOSA SIMON DANIEL          60800000179000+ 00       608
C430 031272CORREA LOURDES ANALIA      60800000360000+ 00       608
1333 031334BANEGAS MARIA DE LOS ANGE  60800001650000+ 00       608
0214 031341OCAMPOS HUGO DANIEL        60800000400000+ 00       608
CF12 031401MEZA FERNANDO ARIEL        60800000720000+ 00       608
EP12 031409RIOS OSCAR MANUEL          60800000357143+ 00       608
C212 031425PEDRAZA CARLOS RUBEN       60800000325000+ 00       608
DS12 031431ESCALANTE CRISTIAN FERNANDO60800000469375+ 00       608
DN30 031441BLANCO MARCELO ROBERTO     60800000298625+ 00       608
0430 031484SANTILLAN MARIO DANIEL     60800002000000+ 00       608
0430 031566ARIAS NORBERTO RAUL        60800002000000+ 00       608
0430 031578BELIZ PABLO EZEQUIEL       60800000725333+ 00       608
0430 031602CORNEJO VAZQUEZ PABLO J.   60800000304000+ 00       608
1930 031639FLOREZ FRANCISCO EMILIO    60800000283200+ 00       608
0431 031643FUNES VICTOR OSCAR         60800000095000+ 00       608
0431 031665GORBACHESKY FRANCO DAMIAN  60800000710500+ 00       608
CF30 031713MAYOL RUBEN DARIO          60800000480000+ 00       608
1930 031724MERLO MAURICIO ALBERTO     60800001980000+ 00       608
2531 031732MUJICA JUAN JOSE           60800000681224+ 00       608
1430 031737NIEVAS GUSTAVO SEBASTIAN   60800000050000+ 00       608
DT31 031743OJEDA JORGE GABRIEL        60800000320000+ 00       608
1731 031779RODRIGUEZ MARCOS SEBASTIAN 60800000430000+ 00       608
0730 031793SALAS DIEGO HERNAN         60800000550000+ 00       608
0431 031802SAPE MANUEL ANDRES         60800000720000+ 00       608
C231 031814SOLIS WALTER DARIO         60800001075000+ 00       608
C231 031830VERGARA SERGIO RAMON       60800000300000+ 00       608
C330 031842ZDANOSKI FABIAN RAMON      60800000320000+ 00       608
C430 031853GARCIA MARISA CLAUDIA      60800001000000+ 00       608
C731 031861GUTIERREZ ESTELA SUSANA    60800000110000+ 00       608
C731 031885SANCHEZ CINTIA LORENA      60800000110000+ 00       608
0431 031898RODRIGUEZ ROSANA STELLA    60800000282000+ 00       608
0730 031909BREST LORENA VANESA        60800000480000+ 00       608
1014 031915GLERIA RUBEN CARLOS        60800000325000+ 00       608
1915 032019SEQUEIRA GONZALEZ SEBASTIAN60800000907475+ 00       608
0212 032031SALTO DAFNE ROSANA         60800000750000+ 00       608
C713 032033YASNIKOWSKI CINTIA CARINA  60800000475000+ 00       608
ES14 032034ANDRADE CHRISTIAN OSVALDO  60800000417825+ 00       608
C213 032043CACERES DARIO              60800000910200+ 00       608
CF13 032045CARO CARLOS ALEJANDRO      60800000080000+ 00       608
C213 032049FERNANDEZ JOSE ORLANDO     60800000100000+ 00       608
2112 032058MARQUEZ JULIO ERNESTO      60800000518500+ 00       608
C112 032069RODRIGUEZ RAUL ALBERTO     60800000952000+ 00       608
C613 032070RODRIGUEZ ROBERTO DANIEL   60800000025000+ 00       608
C431 032085ROLDAN JULIO RAUL          60800000322222+ 00       608
DS31 032177COLOMBO JUAN JOSE          60800000750000+ 00       608
1131 032187DEMIANIUK GUSTAVO JAVIER   60800000090000+ 00       608
1331 032226GRIN SERGIO DANIEL         60800000280000+ 00       608
1930 032252MARIN EDUARDO FABIAN       60800001230175+ 00       608
C114 032283PISANI JOSE LUIS           60800002000000+ 00       608
1931 032295RODRIGUEZ MIGUEL FLORENCIO 60800002000000+ 00       608
0431 032297ROLDAN GUSTAVO FABIAN      60800000587500+ 00       608
C130 032298ROMAN ADALBERTO OLDEMAR    60800000557000+ 00       608
C231 032327VILAS MARIANO DANIEL       60800000320000+ 00       608
1031 032346BOBEDA NICOLAS RAUL        60800000807500+ 00       608
DS31 032358ZARAGOZA EDUARDO JOAQUIN   60800000329100+ 00       608
C715 032361SANCHEZ HECTOR CARLOS      60800000294000+ 00       608
C531 032389BLANCO FEDERICO OSCAR      60800000380000+ 00       608
DN31 032445MARTINEZ PADILLA HERNAN MAU60800001600000+ 00       608
DT31 032486TAINSKI CESAR PABLO        60800000650000+ 00       608
1131 032499ZENIQUEL GUSTAVO ARIEL     60800000620000+ 00       608
C131 032500ZUNIGA LUIS ALBERTO        60800000114000+ 00       608
3430 032501ABRINES MARIA VICTORIA     60800000366750+ 00       608
1131 032522APONTE DIEGO               60800000120000+ 00       608
1931 032536LUGO VALERIA ROXANA        60800000471500+ 00       608
1331 032612TECHERA SILVIA SORAYA      60800000820000+ 00       608
0431 032618LOPEZ ANDREA LORENA        60800000651667+ 00       608
0631 032652CANARIO PEDRO JAVIER       60800000179000+ 00       608
0231 032732MONTANIA RAFAEL CESAR      60800000433333+ 00       608
1031 032735MORONI GUSTAVO DANIEL      60800000303571+ 00       608
0731 032739NEGRI CLAUDIO DARIO        60800000550000+ 00       608
0631 032743OBREQUE JULIO CESAR        60800000089500+ 00       608
0514 032746OJEDA VICTOR DANIEL        60800000400000+ 00       608
C730 032762QUINA FRANCISCO AGUSTIN    60800000450000+ 00       608
C215 032768REY JORGE DANIEL           60800000050000+ 00       608
C414 032769RIO DANIEL GERVASIO        60800000210000+ 00       608
EC31 032787SERRIZUELA CRISTIAN ADRIAN 60800000563750+ 00       608
DT31 032793SUAREZ ADRIAN ALEJANDRO    60800000680000+ 00       608
C231 032799VALENZUELA CRISTIAN MARCELO60800000190000+ 00       608
1131 032802VEGA MARIO DANIEL          60800001070001+ 00       608
1931 032807VILLARREAL ARNALDO DAVID   60800000374625+ 00       608
0431 032814CANZIANI CECILIA MARINA    60800001920000+ 00       608
0631 032824MORALES RITA CECILIA       60800000331429+ 00       608
1931 032830VILLARREAL CAROLINA NATALIA60800000230000+ 00       608
CF31 032862CESAR JAVIER MARCELO       60800000500000+ 00       608
1931 032875GARCIA GUSTAVO SERGIO      60800000231825+ 00       608
1231 032900PEREYRA FRANCISCO ALBERTO  60800001176175+ 00       608
0615 032915SANCHEZ OMAR FERNANDO      60800000308333+ 00       608
CF31 032920STRUSIAT CLAUDIO OSCAR     60800000400000+ 00       608
1331 032923TUR MARCOS ORESTE          60800000800000+ 00       608
1131 032927VERA FERNANDO ARIEL        60800000060000+ 00       608
1131 032936CANCELARICH ANDREA ELISABET60800000050000+ 00       608
3031 032939HERRERO YANINA PAOLA       60800000595000+ 00       608
DN13 032995BARRIOS SONIA MARIELA      60800000119900+ 00       608
DS13 032998CARDOZO MARCELO GASTON     60800000500000+ 00       608
C413 033004CONESA MELINA ALEJANDRA    60800000375000+ 00       608
0213 033006ESCALADA SONIA ESTELA      60800002000000+ 00       608
C413 033008FUERTES SONIA VIVIANA      60800000210000+ 00       608
2513 033009GALEANO MATILDE            60800000573750+ 00       608
0613 033015LIZARDIA JUAN CARLOS       60800000089500+ 00       608
0613 033016LOPEZ JORGE LUIS           60800000514714+ 00       608
C713 033020MEDINA ERNESTO ABEL        60800000315714+ 00       608
C113 033021MEDINA LEANDRO ARIEL       60800000166000+ 00       608
CF13 033022MEDINA MIGUEL ANGEL        60800000080000+ 00       608
0213 033033QUIROZ HECTOR DARIO        60800000331667+ 00       608
C313 033038SARMIENTO HUGO ALBERTO     60800000300000+ 00       608
DN12 033040SUSSINI JAVIER ALEJANDRO   60800000500000+ 00       608
C413 033044URQUIZA SANDRA MARIELA     60800001350000+ 00       608
1631 033081CABRERA GERMAN ALEJANDRO   60800000450000+ 00       608
C416 033100DIAZ SERGIO ARIEL          60800000590400+ 00       608
1131 033121GIMENEZ GERARDO FRANCISCO  60800000110000+ 00       608
1131 033135LOBERA SERGIO              60800000600000+ 00       608
AP31 033136LOPEZ FERNANDO LUIS        60800000080000+ 00       608
C231 033158PUEBLA FABIAN GUILLERMO    60800000050000+ 00       608
0431 033175SELTENREIT MARIO HECTOR    60800000470000+ 00       608
CF31 033178SORIA CRISTIAN ARIEL       60800000080000+ 00       608
1214 033183VAZQUEZ ALSIDE ROMAN       60800002000000+ 00       608
0531 033194COSTANZO DAIANA VANINA     60800000335000+ 00       608
1731 033196GAUVRY ANGELA ITATI        60800000064000+ 00       608
1731 033203ROJAS CRISTINA MABEL       60800000239500+ 00       608
1031 033205SILVEIRA LAURA NOEMI       60800000309091+ 00       608
DS15 033244SOSA SERGIO DANIEL         60800001200000+ 00       608
1931 033252PAGANO YANINA PAOLA        60800000550000+ 00       608
1931 033265ALIENDES CARLOS ALBERTO    60800000110250+ 00       608
C131 033266BENITEZ FERNANDO OSCAR     60800000750000+ 00       608
1915 033267BRUZON FERNANDO GABRIEL    60800001476342+ 00       608
1431 033271HERRERA SERGIO DANIEL      60800000200000+ 00       608
1131 033298BAEZ JUAN ABDON ALEJANDRO  60800000560000+ 00       608
DT31 033366ORIGUELA NATALIO ANDRES    60800000373500+ 00       608
0231 033376GIRONDO PABLO GABRIEL      60800000763167+ 00       608
EC31 033382MELGAREZ GUILLERMO ALEJANDR60800000362150+ 00       608
0413 033426GIACOMETTI JORGE ALFREDO   60800001057000+ 00       608
C213 033432ORMACHEA DIEGO ALBERTO     60800000515000+ 00       608
1114 033441GONZALEZ DAIANA ESTEFANIA  60800000050000+ 00       608
1913 033443MEZA CAROLINA PAOLA        60800001576450+ 00       608
ES13 033445FUERTES MILENA RUTH        60800000294675+ 00       608
C613 033447GONZALEZ SILVIA ALEJANDRA  60800000450000+ 00       608
C413 033450NUNEZ PAULA CAROLINA       60800000383333+ 00       608
1131 033453ARAUJO MAURICIO            60800000060000+ 00       608
C131 033466BORJAS BENITEZ HECTOR GERMA60800000166000+ 00       608
DS31 033480DI NAPOLI JAVIER CARLOS    60800000700000+ 00       608
1131 033503LEDESMA PABLO DANIEL       60800000060000+ 00       608
1431 033509MALDONADO DAVID HERNAN     60800000425000+ 00       608
CF15 033512MEIER MARCELO ALEJANDRO    60800000650000+ 00       608
3415 033518NUNEZ LUIS ALFREDO         60800000366667+ 00       608
1131 033539SAUCEDO SEBASTIAN CESAR    60800000650000+ 00       608
0431 033561FEININGER NATALIA SOLEDAD  60800000256500+ 00       608
DS33 033568GONZALEZ NORMA ALICIA      60800000300000+ 00       608
C431 033581RAMIREZ MARIELA VIVIANA    60800000057000+ 00       608
0431 033589VILLAFANE ROMINA GISELA    60800000510000+ 00       608
0431 033614ILLANES ORTIZ ANGELICA CECI60800001260000+ 00       608
1032 033638AGUERO HUGO EVER           60800000991667+ 00       608
2232 033663VILTE RODRIGO DAVID        60800000050000+ 00       608
1132 033667DOLZ MARIA BELEN           60800000100000+ 00       608
0415 033682SUAREZ DIEGO DANIEL        60800001750000+ 00       608
1132 033717GARCIA OLGA ROSANA         60800000550000+ 00       608
1931 033741LOPEZ GUSTAVO RODOLFO      60800000183375+ 00       608
C231 033756VEGA JOSE MANUEL           60800000350000+ 00       608
0631 033765RUBILAR PAMELA ANALIA      60800000308333+ 00       608
1431 033771GONZALEZ VERONICA VIVIANA  60800000050000+ 00       608
CF32 033787BUSTAMANTE LUIS ALBERTO    60800000350000+ 00       608
1131 033815AGUIRRE MARCELO ARIEL      60800000650000+ 00       608
C131 033824BARBONA FERNANDO MARTIN    60800000700000+ 00       608
1931 033833CABRERA WALTER ANTONIO     60800000793000+ 00       608
1931 033875PORTILLO DARIO CESAR       60800000657917+ 00       608
0434 033884SANCHEZ JAVIER HUMBERTO    60800000776667+ 00       608
0431 033885SARRIA MATIAS JESUS        60800000120000+ 00       608
1931 033888TARCAYA EMANUEL ALEJANDRO  60800000311667+ 00       608
C731 033894BLANCO CLAUDIA NOEMI       60800000145000+ 00       608
C431 033898GALEANO SONIA GLADYS       60800000360000+ 00       608
1531 033899LEMOS GABRIELA ROSANA      60800000060000+ 00       608
2231 033931CRUZ DANIEL ROLANDO        60800000325000+ 00       608
1631 033933EGUEZ PABLO DAVID          60800000337500+ 00       608
2231 033934ESPARZA RUTH LORENA        60800000675000+ 00       608
2231 033938HERRERA ANALIA SILVINA     60800000712500+ 00       608
C331 033950ROJAS NATALIA ALEJANDRA    60800000405000+ 00       608
0831 033952SENES ANDREA VALERIA       60800000370000+ 00       608
C432 033975MOYANO SILVIA DE LOS ANGELE60800000300000+ 00       608
DT32 033978ORIETA ERNESTO RICARDO     60800000228000+ 00       608
C631 034004CANTEROS DEGROSSI FABRICIO 60800000025000+ 00       608
0432 034019GAITAN RAUL SEBASTIAN      60800000510000+ 00       608
0415 034039SAENZ VALIENTE ROBERTO FABI60800000216000+ 00       608
C631 034042SOSA SERGIO DANIEL         60800000025000+ 00       608
0431 034051BENITEZ IVANA ANALIA       60800002000000+ 00       608
1031 034053CANO VIVIANA ESTER         60800000308750+ 00       608
CF31 034062PARRA LORENA PAOLA         60800000100000+ 00       608
C431 034063SANCHEZ EVA VANINA         60800000050000+ 00       608
C614 034100FRETTIS CARLOS LIONEL      60800000025000+ 00       608
C213 034105GUTIERREZ RAMON ADRIAN     60800000156250+ 00       608
C114 034108KALENIUK CLAUDIA MABEL     60800000334333+ 00       608
1113 034113MARTINEZ RODRIGO EMMANUEL  60800000130000+ 00       608
C213 034117ORTEGA CINTHIA VANESA      60800000612000+ 00       608
1613 034137TURIANO DIEGO EZEQUIEL     60800000300000+ 00       608
C214 034142ACUNA FRANCISCO JAVIER     60800000108000+ 00       608
0214 034143ARMOA ARY BRAHIN           60800000350000+ 00       608
0714 034146LEDESMA CARLOS ADRIAN      60800000550000+ 00       608
2114 034149OTAZU SERGIO MARTIN        60800000668667+ 00       608
1115 034167CARDOZO CELINA CLAUDIA     60800000330000+ 00       608
0231 034169CARLANDO ALEJANDRO DANIEL  60800000204000+ 00       608
1315 034186DIAZ NATALIA LIS           60800001210700+ 00       608
1432 034196GOMEZ ELIANA ELISA         60800000100000+ 00       608
1115 034234RODRIGUEZ IRENE DE LAS MERC60800000200000+ 00       608
2231 034288AVILA LUIS ESTEBAN         60800000060000+ 00       608
0631 034296CABRAL WALTER ANDRES       60800000300000+ 00       608
1731 034298CAMELINO MYRIAM VIVIANA    60800000060000+ 00       608
0631 034302CHAVEZ DIEGO MARTIN        60800000325000+ 00       608
2231 034305COCHA CLAUDIO RUBEN        60800000100000+ 00       608
C531 034308DIAZ LAURA EDITH           60800000164000+ 00       608
2231 034318FLORES ALFREDO DIEGO       60800000060000+ 00       608
1432 034319FLORES JESSICA TAMARA      60800000050000+ 00       608
0631 034322GOMEZ OLGA CRISTINA        60800000325000+ 00       608
1131 034337MOLINARI MONICA LAURA      60800000200000+ 00       608
0432 034341OTROSKY LAURA VIVIANA      60800000470000+ 00       608
0731 034346RODRIGUEZ DIEGO MIGUEL ANTO60800000070000+ 00       608
2231 034348ROMERO PABLO ORLANDO       60800000110000+ 00       608
1132 034365MARCOFF RUBEN DARIO        60800000500000+ 00       608
1132 034370ARGUELLO VIVIANA BEATRIZ   60800000490000+ 00       608
DS13 034382CHAPARRO ENZO HAROLDO MAXIM60800000554250+ 00       608
C713 034384LUNA LUIS ESTEBAN          60800000090000+ 00       608
1713 034386ORELLANA FABIAN ALEJANDRO  60800000129500+ 00       608
1432 034393GIMENEZ SILVANA CECILIA    60800000650000+ 00       608
C432 034397PACHECO MARIA ROSA         60800001161667+ 00       608
0416 034399SONCINI VANESA GABRIELA    60800000905000+ 00       608
RP32 034408CAGGIANO MARIA BELEN       60800000550000+ 00       608
1032 034459AYALA VICTOR EMANUEL       60800000325000+ 00       608
0431 034467BLANCO MAXIMILIANO GERMAN  60800001710000+ 00       608
C515 034471BRAVO MARIO DARIO          60800000400000+ 00       608
1132 034496FERNANDEZ GOMES MART LUIS C60800000550000+ 00       608
1131 034506GONZALEZ JOSE DANIEL       60800000650000+ 00       608
0432 034507GRIN CARLOS ALBERTO        60800000810000+ 00       608
EP31 034522MACHADO HUGO LUIS          60800000350000+ 00       608
C232 034526MEDINA ABEL HERNAN         60800000450000+ 00       608
1132 034543PELYNIO EUGENIO TEOFILO    60800001984000+ 00       608
1931 034544PEREZ ALEJANDRO RUBEN      60800000698450+ 00       608
0431 034574VIDELA FERNANDO ARIEL      60800002000000+ 00       608
0733 034588CANTEROS KARINA SOLEDAD    60800000300000+ 00       608
1332 034589CARABAJAL VALERIA VIRGINIA 60800000550000+ 00       608
C432 034593CENTURION CAROLINA ALEJANDR60800000050000+ 00       608
DN32 034595CRISTALDO MARIA LUISA      60800000114000+ 00       608
C431 034600FERNANDEZ ANGELICA         60800000390000+ 00       608
C431 034613OJEDA CINTHIA GISELA       60800000240000+ 00       608
1332 034620SELTENREIT ELSA NOEMI      60800001214200+ 00       608
1332 034622TOSSI MARIA CELICA         60800000290000+ 00       608
C432 034627VILCHEZ MARIA FERNANDA     60800000360000+ 00       608
CF32 034632DE ANTONI ARIEL ALEJANDRO  60800000160000+ 00       608
DS32 034652PALAVECINO JAVIER ALEJANDRO60800000749100+ 00       608
CF31 034662CORTEZ MURILLO GABRIELA NAT60800000250000+ 00       608
1732 034678MAIDANA DANIEL SANTIAGO    60800000320000+ 00       608
1132 034684COSTANZO MARIA JOSE        60800000290000+ 00       608
0633 034704CALDERON JAVIER ALEJANDRO  60800000313333+ 00       608
0432 034709GONZALEZ MARIO SEBASTIAN   60800000630000+ 00       608
0432 034713MANARIN CRISTIAN ALEJANDRO 60800001131778+ 00       608
CF32 034722SUAREZ WALTER ADRIAN       60800000160000+ 00       608
0532 034732ALVAREZ JOSE AUGUSTO       60800000514000+ 00       608
C432 034746ESQUIVEL CLAUDIA MARCELA   60800000210000+ 00       608
C114 034766HERRERA FERNANDO OSCAR     60800000311833+ 00       608
EC32 034768MONTEROS CASAS SEBASTIAN HE60800000065250+ 00       608
C232 034774VIDELA MARIANO ROMAN       60800000095000+ 00       608
0632 034776CHAPARRO NADIA SOLEDAD     60800000089500+ 00       608
C232 034778DOMINGUEZ LORENA ALCIRA    60800000385333+ 00       608
CF32 034793AYBAR PABLO RODRIGO        60800000160000+ 00       608
C732 034822MARTINEZ MARA ALEJANDRA    60800000290000+ 00       608
DT32 034824VALDEZ ADRIANA EMILSE      60800000096375+ 00       608
1232 034846ARIAS WALTER FABIAN        60800002000000+ 00       608
1232 034875GAETE LUIS DANIEL          60800000450000+ 00       608
C232 034885GUERRERO CARLOS ALBERTO    60800000057000+ 00       608
0731 034897MARTINEZ ARIEL FERNANDO    60800000500000+ 00       608
2216 034906OLMEDO DIEGO MARTIN        60800000300000+ 00       608
C632 034937VEGA PABLO ROBERTO         60800000025000+ 00       608
0432 034942WALTER GONZALO ANTONIO     60800000460000+ 00       608
1432 034945AGUILAR NELIDA ARGENTINA   60800000150000+ 00       608
EP31 034950CARDOZO ANDREA VERONICA    60800000371250+ 00       608
C432 034958MIRANDA ELENA ELVIRA       60800000420000+ 00       608
C732 034961OLIVERA ADA MABEL          60800000850000+ 00       608
1332 034963PONCE MARINA ALICIA        60800001180000+ 00       608
DS14 035040CRISTALDO HERNAN MIGUEL PAS60800000057000+ 00       608
0614 035043FERNANDEZ MARIELA NOEMI    60800000089500+ 00       608
1914 035048GUANCA RODRIGO JAVIER      60800000351150+ 00       608
1914 035050KALENIUK CINTHIA ADRIANA SO60800000506100+ 00       608
1914 035052MAIGUA FABIANA CECILIA     60800000056250+ 00       608
C414 035054MARQUEZ GABRIELA GISELA    60800000670000+ 00       608
0614 035066RIVAROLA CRISTIAN ANTONIO  60800000089500+ 00       608
CF14 035070SEPULVEDA SEBASTIAN EDUARDO60800000180000+ 00       608
1014 035085JUAREZ MARIO ALBERTO       60800000325000+ 00       608
CF14 035086MELO VICTOR OSVALDO        60800000320000+ 00       608
C514 035089PAREDES ROLON MARIA CRISTIN60800000598000+ 00       608
2232 035096CRUZ AMERICO ALBERTO       60800000050000+ 00       608
DS32 035104LIQUIN JORGE FABIAN        60800000189000+ 00       608
2232 035115BURGOS MONICA SOLEDAD      60800000280000+ 00       608
2217 035119NOLASCO GRISELDA JUDITH    60800000385000+ 00       608
C332 035135CABALLERO VERONICA VALERIA 60800000355000+ 00       608
1132 035137FERNANDEZ PAOLA VERONICA   60800000260000+ 00       608
C614 035150GARAY JUAN JOSE            60800000025000+ 00       608
CF15 035160AGUIRRE CRISTIAN ALEJANDRO 60800000425000+ 00       608
1932 035178BENITEZ MARIO ALBERTO      60800000333909+ 00       608
1032 035182CABALLERO SERGIO DANIEL    60800000375000+ 00       608
1132 035219JARA SAUCEDO JOSE EDUARDO M60800000040000+ 00       608
1932 035226LOBOS CRISTIAN HUGO        60800000300000+ 00       608
C632 035230LOPEZ LEONARDO FABIAN      60800000025000+ 00       608
0432 035241MOLLEKER HECTOR LUIS       60800001732000+ 00       608
1132 035248OVEJERO RODOLFO CESAR      60800000600000+ 00       608
0832 035264ROJAS ALFREDO DANTE        60800000336000+ 00       608
C232 035293BARRETO LUIS ALEJANDRO     60800000050000+ 00       608
C632 035317SEDANO LEONARDO DANIEL     60800000025000+ 00       608
0615 035340CANTEROS MARCOS ADRIAN     60800000268500+ 00       608
0432 035341CAPPELLO MAXIMILIANO GERMAN60800001581000+ 00       608
0632 035343CORDOBA SORAIRE GABRIEL EDU60800000326667+ 00       608
0632 035344DIMUNDO DIEGO GABRIEL      60800000089500+ 00       608
0632 035349MARTINEZ GABRIEL JORGE     60800000179000+ 00       608
1432 035352MUNOZ CARLOS ALBERTO       60800000050000+ 00       608
C332 035383ALDAVEZ ROSANA BEATRIZ     60800000360000+ 00       608
DS32 035388DARIA SOFIA ERIKA          60800000197625+ 00       608
1732 035394OTAZU VERONICA ISABEL      60800000449000+ 00       608
1332 035396RHOLHAISER YANINA PAOLA    60800000053200+ 00       608
1114 035421OJEDA EDGARDO RAMON        60800000480000+ 00       608
1232 035434GONZALEZ JORGE AMERICO     60800000450000+ 00       608
1232 035449USTARIZ ANGEL DEACOMO      60800001573000+ 00       608
1132 035456DOMENECH KARINA BEATRIZ    60800000500000+ 00       608
2233 035465PAREDES JOSE TOMAS         60800000060000+ 00       608
C133 035469FRANCO VANESA GRISELDA     60800000566667+ 00       608
1333 035474PEREZ MARCELA ADRIANA      60800002000000+ 00       608
1933 035507CUSIN CAROLINA ALEJANDRA   60800000057000+ 00       608
C432 035574DUARTE CLAUDIO DARIO       60800000328667+ 00       608
1132 035578HERRERA ALBERTO DANIEL     60800000050000+ 00       608
C632 035580LATYN JORGE LUIS           60800000025000+ 00       608
EC16 035581LEDESMA CARLOS HORACIO     60800001185000+ 00       608
0615 035583MAIDANA ALBERTO LEANDRO    60800000089500+ 00       608
C732 035584MIRANDA DELGADO ADRIANA KAR60800000114000+ 00       608
1132 035586NAIDENOFF DANIEL BENJAMIN  60800000960000+ 00       608
EC32 035587PENNELLA ALEJANDRO GASTON  60800000356725+ 00       608
1133 035589RODRIGUEZ JUAN RAMON       60800000540000+ 00       608
1732 035590RODRIGUEZ NILSON GUSTAVO   60800000564000+ 00       608
C134 035598VERA PEDRO PABLO           60800000535500+ 00       608
1315 035603ASTORGA FERNANDO ANDRES    60800000290000+ 00       608
C532 035605AYALA MARCOS CLAUDIO       60800000914000+ 00       608
OS14 035614CAFFERATA MAURO DANIEL     60800000386250+ 00       608
0815 035615CANDIA FERNANDO GASTON     60800000405000+ 00       608
0232 035625DE LOS SANTOS DARIO SEBASTI60800000672583+ 00       608
C632 035627DIAZ SEBASTIAN RODRIGO     60800000025000+ 00       608
C132 035643GOMEZ GABRIEL ALBERTO      60800000533333+ 00       608
1432 035646HUBE MARCELO ZOILO         60800000050000+ 00       608
3415 035683SANDOVAL MAXIMILIANO RAMON 60800000147750+ 00       608
C532 035701LUNA OMAR ADRIAN ALBERTO   60800000040000+ 00       608
C432 035704ACOSTA ERICA LORENA        60800000360000+ 00       608
C432 035705AGUIRRE DANIELA ANDREA     60800000390000+ 00       608
0832 035707ALTUNA MIRYAM ELIZABETH    60800000525000+ 00       608
0632 035709BARANOVICH SUSANA BEATRIZ  60800000682500+ 00       608
C432 035710BARRIOS SILVIA MARGARITA   60800000050000+ 00       608
1132 035720DIAZ RITA                  60800000050000+ 00       608
C732 035723ESCOBAR MARIA ARGENTINA    60800000180000+ 00       608
C432 035726FRANCO ACOSTA ANALIA       60800000050000+ 00       608
1332 035737ORTIZ ROCIO CELESTE        60800000054200+ 00       608
C432 035748TINTE CINTIA VALERIA       60800000532500+ 00       608
1132 035751VERGARA CLAUDIA ALEJANDRA  60800000563333+ 00       608
0733 035782BARRIOS ANALIA VERONICA    60800000130000+ 00       608
C732 035785FERNANDEZ MARIA DE LOS MILA60800000360000+ 00       608
1932 035790MAIDANA JULIANA VANESA     60800000546592+ 00       608
0416 035795CORDOBA MARIA EUGENIA      60800000570000+ 00       608
1932 035808RATARI MIGUEL ANGEL        60800000825000+ 00       608
1432 035872HUENTECOY DAVID FERNANDO   60800000381887+ 00       608
1932 035877MEDINA VICTOR DANIEL       60800000400000+ 00       608
CF32 035885RUIZ FERNANDO ADRIAN       60800000933333+ 00       608
RP32 035905CACERES SILVIA EDITH       60800000180000+ 00       608
1932 035910HAUTEVILLE STELLA MARIS    60800000200550+ 00       608
1932 035913RAGGIO MARTHA VANESA       60800000394500+ 00       608
2232 036018VARGAS RODOLFO ALEJANDRO   60800000060000+ 00       608
1314 036029BORDA MARIANA ELIZABETH    60800000820000+ 00       608
C515 036037CENTURION EDUARDO DANTE    60800000257000+ 00       608
1514 036039CHAMORRO PEDRO ALFREDO     60800000808333+ 00       608
C414 036058GALVASTRO ROMINA SOLEDAD   60800000610000+ 00       608
0614 036064GOMEZ SERGIO GABRIEL       60800000420929+ 00       608
RP14 036071LEDESMA LEONARDO RAFAEL    60800000364750+ 00       608
0214 036073LESCANO GASTON EMANUEL     60800002000000+ 00       608
DN14 036080MORE GONZALO MARTIN        60800000880000+ 00       608
C414 036083OJEDA VANESA SOLEDAD       60800000299500+ 00       608
C714 036091ROJAS MARIELA ALEJANDRA    60800000110000+ 00       608
C215 036092ROMANCZUK ROSA ELISABET    60800000344000+ 00       608
RP14 036095SANDON SONIA IRENE         60800001189183+ 00       608
2514 036097SEPULVEDA FERNANDO EMANUEL 60800000646389+ 00       608
C215 036110PIRIZ BLANCO ROBERTO AMADEO60800000099200+ 00       608
1016 036111RAMIREZ FRANCISCO JAVIER   60800000317500+ 00       608
2214 036114VALDES EDGARDO DANTE       60800000100000+ 00       608
DT14 036117ZALAZAR NORMA PAOLA        60800001390500+ 00       608
0832 036152GARCIA PABLO GERMAN        60800000645000+ 00       608
0832 036171MAIZARES JOSE RAMON        60800000877500+ 00       608
DT32 036246REYNOSO LILIANA BEATRIZ    60800000124900+ 00       608
C214 036269GOMEZ JUAN MANUEL          60800000150000+ 00       608
1933 036277BERTERRE MARTA BEATRIZ     60800000194400+ 00       608
DT32 036283ESCOBAR PABLO DARIO        60800000680000+ 00       608
1132 036303BENITEZ MAURO              60800000120000+ 00       608
C132 036308COLMAN LUIS MIGUEL         60800001153000+ 00       608
2232 036317GERBAN ADRIAN FERNANDO     60800000060000+ 00       608
C515 036319GONZALEZ SILVIO RODOLFO    60800000040000+ 00       608
1632 036338OCARANZA WALTER ESTEBAN    60800000458000+ 00       608
0732 036382ARANDA ROLANDO ENRIQUE     60800000402152+ 00       608
C132 036384AROVI FACUNDO DANIEL       60800001087500+ 00       608
C132 036408CORONEL NESTOR JAVIER      60800000400000+ 00       608
0432 036414DESCH CARLOS ALBERTO       60800001005333+ 00       608
1132 036416DOMINGUEZ CRISTIAN GABRIEL 60800001130000+ 00       608
0233 036444INSAURRALDE CHRISTIAN SEBAS60800000355556+ 00       608
1535 036447LEMOS CRISTIAN ADOLFO      60800000060000+ 00       608
C132 036448LENCINA JUAN RAMON         60800000482000+ 00       608
0432 036450LITTERINI PABLO RENE       60800000594500+ 00       608
1132 036459MARCOFF SEBASTIAN PEDRO    60800000500000+ 00       608
1132 036494RODRIGUEZ HORACIO HECTOR   60800000090000+ 00       608
0432 036501SACK ANDRES HECTOR         60800000690000+ 00       608
C232 036503SALINAS VICTOR DANIEL      60800000545000+ 00       608
C132 036504SANCHEZ ANGEL EMILIANO     60800000872222+ 00       608
0433 036508SEQUEIRA CLAUDIO MARCELO   60800000697000+ 00       608
1132 036514SOSA SERGIO DANIEL         60800000600000+ 00       608
C333 036529BORDON KARINA BEATRIZ      60800000320000+ 00       608
1132 036535GONZALEZ MARTEARENA CELIA A60800000080000+ 00       608
1533 036548FIGUEROA EDGARDO SERGIO    60800000450000+ 00       608
C316 036568GONZALEZ PANTOJA VIRGINIA P60800000300000+ 00       608
1633 036574MOLINS KARINA ANDREA       60800001500000+ 00       608
0433 036580SALAO ANALIA FABIANA       60800001674000+ 00       608
1932 036593GIMENEZ RUBEN ANTONIO      60800001648000+ 00       608
1932 036594LAGOS FERNANDO ESTEBAN MATI60800002000000+ 00       608
C132 036600QUEVEDO DANIEL MARCELO     60800000511800+ 00       608
2234 036602SORAIRE JULIO ARIEL        60800000557500+ 00       608
1733 036604VELAZQUEZ MARIANO NAHUEL   60800000360000+ 00       608
C433 036607GUERRERO JACINTA           60800000274200+ 00       608
0632 036636FLORES JOSE ROBERTO        60800000442000+ 00       608
0632 036639GUZMAN RAMIRO ANDRES       60800000383333+ 00       608
C132 036743CUTI KARINA ELIZABETH      60800000023500+ 00       608
1932 036765OTAZU NOELIA GISELE        60800000318000+ 00       608
C432 036767RAJOY SILVIA ANDREA        60800000050000+ 00       608
1032 036769RIVERO BETIANA GISELA      60800000708333+ 00       608
C732 036774SANDEZ SANDRA ANALIA       60800000090000+ 00       608
C232 036777SERRANO YANINA EMILSE      60800000100000+ 00       608
1932 036796CARDOZO MARIANO ALBERTO    60800000350000+ 00       608
0433 036826MAZA RUBEN DARIO           60800001682000+ 00       608
C132 036835PEREZ SERGIO ALEJANDRO     60800000114000+ 00       608
2133 036840RENZI JOSE CARLOS          60800002000000+ 00       608
2132 036845RODRIGUEZ MIGUEL HORACIO   60800002000000+ 00       608
1135 036851SPERONI DIEGO ARMANDO      60800000600000+ 00       608
0432 036867CABRERA GONZALO NICOLAS    60800000120000+ 00       608
1132 036877FRIAS CARLOS GUSTAVO       60800000330000+ 00       608
0835 036884BATALLANO SONIA BEATRIZ    60800000360000+ 00       608
CF32 036886MANCEL NADIA ELIZABETH     60800000120000+ 00       608
1333 036890SOMOZA MARIANA ELIZABETH   60800000627400+ 00       608
0433 036899CEPEDA MAURICIO JAVIER     60800000480000+ 00       608
CF32 036900CEQUEIRA RICARDO FABIAN    60800000080000+ 00       608
1133 036901DELGADO SERGIO RAUL        60800000960000+ 00       608
1133 036905TOLOZA GUSTAVO FRANCISCO   60800000050000+ 00       608
0532 036909BRITEZ GERARDO RAMON       60800000565333+ 00       608
EC33 036912BARBONA CECILIA MARIELA    60800000093225+ 00       608
1133 036937PERRONE FLORINDO JAVIER    60800000600000+ 00       608
3033 036939ABBONA MARIA VICTORIA      60800000076000+ 00       608
3532 036959BORDON JULIAN MATEO        60800000001500+ 00       608
1433 036966ESCOBAR JESUS CRISTIAN ANDR60800000100000+ 00       608
CF32 036987PALACIO VERONICA ELIZABETH 60800000450000+ 00       608
C132 037014RODRIGUEZ ALEJANDRO DAVID  60800000425000+ 00       608
1633 037036ACOSTA SILVIA SOLEDAD      60800000603500+ 00       608
AP32 037037ARZAMENDIA CLAUDIA VERONICA60800000100000+ 00       608
1932 037038BOGADO VALERIA JESICA      60800000400000+ 00       608
1533 037069LOYOLA RUBEN ALEJANDRO     60800000360000+ 00       608
0433 037074RIVOIRA JUAN JOSE          60800000120000+ 00       608
0714 037089ARANDA RICARDO JOSE        60800000550000+ 00       608
C315 037095BOLLE MONICA RAQUEL        60800000340000+ 00       608
EP15 037096BRUNEL LUIS FERNANDO       60800000800000+ 00       608
2114 037113GIMENEZ JOSE MARIA         60800002000000+ 00       608
C614 037121IBARRA GABRIEL ANDRES      60800000025000+ 00       608
C215 037125LOMBARDINI ARNALDO GASTON  60800000195000+ 00       608
3015 037128MAIDANA GUSTAVO DANIEL     60800000918649+ 00       608
AP15 037129MANCUELLO CRISTIAN ARIEL   60800001422500+ 00       608
1915 037132MEDINA JUAN ESTEBAN        60800000183875+ 00       608
0215 037133MEDINA RUBEN ALCIDES       60800000350120+ 00       608
0616 037142MURDOCH FERNANDO RAMON     60800000566667+ 00       608
C415 037147ORTIZ LOURDES NOEMI        60800000360000+ 00       608
DN15 037152PELOZO CRISTIAN ANDRES     60800000330000+ 00       608
C215 037153PEREIRA FRANCO EXEQUIEL    60800000736350+ 00       608
0214 037157RODRIGUEZ ENRIQUE RAMON    60800000300000+ 00       608
1015 037161SANTILLAN RICARDO ARIEL    60800000330556+ 00       608
CF14 037165SOSA MAXIMILIANO EMANUEL   60800001092667+ 00       608
C415 037176BENOZIO ROCIO BELEN        60800001000000+ 00       608
0415 037179BOBADILLA DIEGO MARTIN     60800000800000+ 00       608
1314 037184PAREDES CARLOS EMMANUEL    60800000347900+ 00       608
C732 037196MUNOZ SILVIA BEATRIZ       60800000010000+ 00       608
2533 037212FIGUEROA CELESTINA NOEMI   60800000223446+ 00       608
1933 037213VILLAGRA JESICA LOURDES    60800000513200+ 00       608
1315 037230RIVERO MALVINA CRISTINA    60800000290000+ 00       608
C433 037246BRAGA ALEJANDRO DANIEL     60800000360000+ 00       608
1133 037265DOLZ MELINA NOELIA         60800000090000+ 00       608
C633 037268ESPINDOLA SERGIO ISMAEL    60800000025000+ 00       608
0232 037270ESPINOZA ELIO RICARDO AGUST60800000300000+ 00       608
C632 037274GALIAN HECTOR ADOLFO       60800000450000+ 00       608
2533 037289JACOB MARIBEL SILVINA      60800000388800+ 00       608
C233 037295LOPEZ FEDERICO FERNANDO    60800000060000+ 00       608
C233 037296LOPEZ DENISE GABRIELA      60800000544000+ 00       608
C233 037297MAGALLANES NORBERTO ESTEBAN60800000370000+ 00       608
C433 037298MAIDANA MARIA LAURA        60800001205000+ 00       608
1716 037308MEZA FABIAN WALTER         60800000388000+ 00       608
1133 037313NAVARRO RODRIGO WALTER     60800000500000+ 00       608
2233 037354VELAZQUEZ DIEGO ARMANDO    60800000100000+ 00       608
C333 037371CUELLAR JOSEFA ANTONINA    60800000326667+ 00       608
1933 037377LOMBARDINI ANDREA BEATRIZ  60800001106078+ 00       608
C234 037380OBREGON CANDIDO DAVID      60800000380000+ 00       608
C733 037381OLMEDO HUGO ORLANDO        60800000350000+ 00       608
C434 037385VISKOVIC ROXANA LILIANA    60800000463125+ 00       608
DS33 037403RUIZ OSCAR DANIEL          60800000498667+ 00       608
C133 037413GIMENEZ FRANCO EMMANUEL    60800000566667+ 00       608
C433 037424SOTELO ANALIA LORENA       60800000090000+ 00       608
C232 037425STRUSIAT VICTOR DANIEL     60800000320000+ 00       608
EC34 037460DIAZ VIVIANA ELISA         60800000121800+ 00       608
1734 037469SOTO GRACIELA ELIZABETH    60800000229500+ 00       608
C233 037485BONFANTTI WALTER MATIAS    60800000546000+ 00       608
C332 037497ALMIRON PAMELA LUJAN       60800000390000+ 00       608
1133 037502SANCHEZ VALERIA GISELLE    60800000080000+ 00       608
2533 037514BERTORELLO MASCARO GILDA PA60800000158553+ 00       608
C233 037527BENITEZ WALTER ADRIAN      60800000375714+ 00       608
C134 037528CANTEROS ALBERTO RAMON     60800000340000+ 00       608
C133 037530CHIUCHIOLO GABRIEL RODOLFO 60800000250000+ 00       608
DN33 037532LAGRANA JOSE ALBERTO       60800001341050+ 00       608
C234 037534MEDINA VICTOR HUGO         60800000190000+ 00       608
DS34 037538SPERONI JORGE ALEJANDRO    60800001400000+ 00       608
C434 037582ARAUJO CLAUDIA MERCEDES    60800000390000+ 00       608
CF34 037583CORONEL DANIEL EDUARDO     60800000080000+ 00       608
C733 037587OJEDA MARGARITA INES       60800000165000+ 00       608
C616 037591CREMADES FLORENCIA         60800000025000+ 00       608
C415 037634ACUNA CINTIA AGUSTINA      60800000420000+ 00       608
C615 037650CASTILLO NELSON RAMON      60800000050000+ 00       608
2215 037654CORONEL ALAN GASTON        60800000100000+ 00       608
C115 037658FERNANDEZ LEONARDO DE JESUS60800000489750+ 00       608
0615 037661FRANCO LEANDRO NOE         60800000089500+ 00       608
C415 037665GOMEZ PAMELA IVANA         60800001442833+ 00       608
DT15 037674MAIDANA JUAN CARLOS        60800000705650+ 00       608
C415 037684MEZA LEILA MARINA          60800000379667+ 00       608
0415 037686MOLINA LUMILA ANTONIA      60800001170500+ 00       608
C415 037688NOCETTI ELBA VERONICA      60800000210000+ 00       608
CF15 037692OVIEDO NESTOR FABIAN       60800000120000+ 00       608
C215 037708RODRIGUEZ DANIELO EMILIANO 60800000396667+ 00       608
C415 037725CASTILLOS JESUS REINALDO SE60800000360000+ 00       608
CF15 037730POCLAVA PABLO LUCIANO      60800000486667+ 00       608
1134 037733SAMBRANO JAVIER EDGARDO    60800000600000+ 00       608
C432 037747ANCHAVAL CRISTIAN ANDRES   60800000210000+ 00       608
C132 037758BARRIOS CESAR GUSTAVO      60800000992833+ 00       608
C233 037772BURGUENO JONATAN MAURO     60800000150000+ 00       608
C133 037774CABALLERO CARLOS DANIEL    60800000933333+ 00       608
C432 037791DESIMONE RODRIGO ANDRES    60800000195000+ 00       608
C232 037798ESCOBAR MATIAS EMANUEL     60800000370000+ 00       608
1933 037801ESQUIVEL MARCO ANTONIO     60800000381800+ 00       608
1133 037806FERREIRA SERGIO DENIS      60800000090000+ 00       608
DS33 037809FLORES FELIPE JOSE LUIS    60800000159600+ 00       608
AP33 037818GIMENEZ FELIX EDGARDO      60800001150000+ 00       608
1917 037841MAMANI MARTIN ROBERTO      60800001501497+ 00       608
1033 037861MURA GUSTAVO ORLANDO       60800001642500+ 00       608
C333 037882RENGIJO GERARDO OMAR       60800000350000+ 00       608
1933 037916TORRES AXEL CLAUDIO        60800000209400+ 00       608
C433 037929ALVAREZ SILVINA ROXANA     60800000050000+ 00       608
C433 037936FLORES MARIA NORA          60800000780000+ 00       608
0233 037939GIMENEZ CINTIA VANESA      60800000350000+ 00       608
C733 037952ORTEGA CINTIA ELISABETH    60800000656667+ 00       608
0733 037962RAMIREZ JOANA LUCIA        60800000021600- 00       608
C433 037964RIQUELME PAOLA GISELLE     60800000135000+ 00       608
1433 037966RODRIGUEZ ALEGRE CYNTIA ROM60800000375000+ 00       608
C134 038036ALVARENGA NADIA LORENA     60800000340000+ 00       608
C234 038042ESCOBAR MARISA LUCIA       60800000977533+ 00       608
C535 038043FOSATI MARISEL LILIANA     60800000240000+ 00       608
1934 038051RAMIREZ JUAN ALBERTO       60800000748133+ 00       608
C533 038055ARENAS CINTIA LORENA       60800001289000+ 00       608
C533 038070VERA CLAUDIA PAOLA         60800000122000+ 00       608
1317 038082ALONSO CECILIA ANALIA      60800000250000+ 00       608
0233 038091FERNANDEZ OSCAR AMILCAR    60800000146400+ 00       608
1317 038103TORINO VALERIA SOLEDAD     60800000315000+ 00       608
0434 038112FRANK JESUS ALBERTO        60800002000000+ 00       608
C734 038117OLGUIN ANGELA PAOLA        60800000300000+ 00       608
C233 038122CABRERA MIGENS JAQUELINE EM60800000298000+ 00       608
0633 038134BOVERO MARCELO SEBASTIAN   60800000383333+ 00       608
0633 038144MEZA CRISTIAN DARIO        60800000089500+ 00       608
0634 038158GARCIA PATRICIA ANDREA     60800000179000+ 00       608
DN33 038211TOTO HAYDEE ELIZABETH      60800000330000+ 00       608
C133 038253DOMINGUEZ ENRIQUE JAVIER   60800000523667+ 00       608
ES33 038284MENDIETA JUAN RAMON        60800000301500+ 00       608
0433 038318SOSA MARIANA SOLEDAD       60800000750000+ 00       608
0633 038327VILLALBA JONATHAN MARTIN   60800000300000+ 00       608
DS33 038330VILLARREAL ELADIO ALEJANDRO60800000300000+ 00       608
1133 038353LORENZI DANIELA DE LOURDES 60800000050000+ 00       608
CF34 038364COCERES MARCELA VIVIANA    60800000260000+ 00       608
1334 038367OLIVERA ANDREA ROSANA      60800000727400+ 00       608
0634 038370WALKER ROSANA ANABEL       60800000308333+ 00       608
C433 038406CORONEL CECILIA            60800001317500+ 00       608
C733 038407DIAZ GABRIELA FERNANDA     60800000110000+ 00       608
C233 038408DUARTE CATALINA ELISABETH  60800000050000+ 00       608
1133 038416GOMEZ YAMILA EMILCE        60800000170000+ 00       608
C433 038432ORTIZ DORIS VALERIA        60800000420000+ 00       608
1933 038443RAMIREZ ROSANA INES        60800000105000+ 00       608
DN33 038459WOBORIL VERONICA SUSANA    60800000276550+ 00       608
0833 038468RAMOS JIMENA               60800000120000+ 00       608
C315 038478AMARILLA NANCY MERCEDES    60800000356667+ 00       608
CF15 038484BOLLE GISELLA DORIS        60800000240000+ 00       608
C516 038505GONZALEZ DANIEL RAMON      60800001125000+ 00       608
0415 038520PARRA RICHARD ANATOLI      60800000493000+ 00       608
1615 038528RIGONATTO ANTONIO EMMANUEL 60800000300000+ 00       608
1315 038534ROJAS GONZALEZ PAULA ADRIAN60800000560000+ 00       608
0815 038542SOTO VICTOR DAMIAN         60800000342000+ 00       608
DN15 038560MOREL CARLA YANINA         60800000188800+ 00       608
RP15 038565TEODORO ROMINA PAOLA       60800000747450+ 00       608
C215 038566ZORRILLA LUIS ANTONIO      60800000500000+ 00       608
1916 038570CARBONI JUAN PABLO         60800000063750+ 00       608
OS34 038592INSAURRALDE WALTER NICOLAS 60800000220800+ 00       608
0233 038598AYALA BUSTOS FERNANDA MARIS60800000302083+ 00       608
EC16 038610SANCHEZ SILVANA MARIELA    60800000079900+ 00       608
DN15 038613ALARCON SAULO LEONARDO     60800000330000+ 00       608
DT33 038653BAREIRO PABLO ROBERTO      60800000633850+ 00       608
1633 038659BERON CLAUDIO ALEJANDRO    60800000475000+ 00       608
C433 038693DIAZ IVANA GISEL           60800000450000+ 00       608
CF33 038702FERREIRA DOS SANTOS YAMIL  60800000080000+ 00       608
C733 038720GAZTAMBIDE ALICIA MARGOT   60800000180000+ 00       608
C133 038724GOMEZ DIEGO LEONARDO       60800000114000+ 00       608
C233 038730HERRERA NOELIA SOLEDAD     60800000278000+ 00       608
EP33 038733JACOB SERGIO OMAR          60800000325000+ 00       608
1133 038742LOPEZ JORGE RUBEN          60800000500000+ 00       608
C433 038747LOZA GABRIELA ALEJANDRA    60800000425000+ 00       608
DN33 038751MAIDANA ANIBAL AGUSTIN     60800000506225+ 00       608
1733 038761MERLO ALBERTO ALEJANDRO    60800000589800+ 00       608
1033 038773ORTIZ JAVIER ALEJANDRO     60800000375000+ 00       608
C133 038806SANCHEZ DANIEL EDUARDO     60800000803333+ 00       608
C433 038832VIZCARRA ANTONIA ELISABETH 60800000630000+ 00       608
EC34 038838PACCUSSE ANABELA NOEMI     60800000069850+ 00       608
C134 038865LAFITTE MARIA LUCRECIA     60800000156250+ 00       608
0434 038866LUGUERCIO VERONICA SORAYA  60800000320000+ 00       608
1933 038880ALBORNOZ PABLO CESAR       60800000830925+ 00       608
C333 038915CEBALLOS VICTOR HUGO       60800000300000+ 00       608
EC33 038932CUEZZO LUIS GUSTAVO        60800000300000+ 00       608
C333 038953GARCIA YESICA ALEJANDRA    60800000746608+ 00       608
C333 038954GARNICA JULIO CESAR        60800000503930+ 00       608
C133 038977LAGOS EDUARDO JOSE MARIA   60800001735275+ 00       608
C333 038992LUNA FERNANDO ALBERTO      60800000369913+ 00       608
C433 038993LUNA ALEJANDRO ANIBAL      60800000300000+ 00       608
C333 038997MAMANI MARIA VIRGINIA      60800001456667+ 00       608
EC33 039004MOREL JIMENA MARIEL        60800000889375+ 00       608
C333 039023PEDRAZA MARINA BEATRIZ     60800000639465+ 00       608
C333 039041RIVERO OSCAR ABEL          60800000300000+ 00       608
C334 039043RODRIGUEZ NELIDA ALICIA    60800000310000+ 00       608
C333 039044RODRIGUEZ CAROLINA JOANA   60800000482500+ 00       608
C333 039046ROLDAN MARCELO DANIEL      60800000363333+ 00       608
C333 039072VALDEZ GERMAN SAMUEL       60800000300000+ 00       608
CF33 039074VALLEJO CRISTIAN ROQUE     60800000500000+ 00       608
C333 039086ZAMBRANO CARMEN ROSA       60800000356667+ 00       608
1233 039087ZARATE NAHUEL DAVID        60800000600000+ 00       608
0434 039092DE TOMASO JESICA AMANCAY   60800000617500+ 00       608
2234 039116LOPEZ GARCIA STELLA MARIS  60800000050000+ 00       608
0234 039120VELAZQUEZ RODRIGUEZ GISELA 60800000668200+ 00       608
CF15 039155CAMPUZANO WALTER FABIAN    60800000770000+ 00       608
1916 039164BAREIRO FERNANDA BEATRIZ   60800000472800+ 00       608
C616 039167BAROFFI MIERS CLARISA NELID60800000591750+ 00       608
1615 039171BURGOS CRISTIAN FERNANDO   60800000650000+ 00       608
EP16 039189GARCIA MABEL               60800000304500+ 00       608
1915 039190GIMENEZ GONZALEZ ZACARIAS R60800000674800+ 00       608
C415 039200LUDUENA CARLA DANIELA      60800000365625+ 00       608
C615 039201MARIN CECILIA MICAELA      60800000025000+ 00       608
3415 039206MERLO WALTER JAVIER        60800001050500+ 00       608
DS15 039217RICART ESTEFANIA           60800000386025+ 00       608
1116 039218RIQUELME MAXIMILIANO NICOLA60800000120000+ 00       608
2115 039229VILLALBA JAVIER MAMERTO    60800000481667+ 00       608
C115 039232ACOSTA FLAVIA MARIANELA    60800000374000+ 00       608
C315 039234CRUZ SEBASTIAN JORGE       60800000490000+ 00       608
C516 039237MENDOZA MILLAR ELIAS IVAN  60800000327000+ 00       608
C716 039238SANABRIA LUZ YANINA        60800000045000+ 00       608
DN34 039268BANDEO JOSE LUIS           60800000211500+ 00       608
C333 039276BURGOS OLGA MERCEDES       60800000763636+ 00       608
0833 039298CRUZ MANUEL ALEJANDRO      60800000337500+ 00       608
CF16 039302DHUIN DANIEL AGUSTIN       60800000800000+ 00       608
0234 039311FERNANDEZ VIVIANA ALEJANDRA60800000415833+ 00       608
C233 039322GAUTO LUIS FABIAN          60800000090000+ 00       608
C433 039394PINTO JESICA LORENA        60800000210000+ 00       608
C333 039402RIVERA GABRIELA FERNANDA   60800000320000+ 00       608
C333 039403RIVERO MARIELA ISABEL      60800000327965+ 00       608
C233 039416ROMERO MARIANA FANNY ARACEL60800000620000+ 00       608
C434 039418ROMERO SANDRA VERONICA     60800000388889+ 00       608
C333 039419ROSALES ROMINA GICELT      60800000350000+ 00       608
2517 039423SANCHEZ GUSTAVO FABIAN     60800000213411+ 00       608
0833 039450VELASQUEZ NESTOR RAUL      60800000405000+ 00       608
1634 039451VILLAN AMILCAR CESAR       60800000300000+ 00       608
CF34 039455VIZCARRA JAQUELINA         60800000540000+ 00       608
OS34 039462AROVI JULIA NOEMI          60800002000000+ 00       608
C734 039475MONTENEGRO JULIETA EVANGELI60800000110000+ 00       608
C734 039483SEGURA MARIA LUJAN         60800000100000+ 00       608
0636 039531FELICETTI MARIA EUGENIA    60800000179000+ 00       608
0216 039554MANONELLES MARIA LETICIA   60800000095000+ 00       608
DN34 039596ASTORGA ANDAUR YESICA GLADY60800000425000+ 00       608
2534 039625CUEVAS MAURO JAVIER        60800001264772+ 00       608
0434 039634GAVELLA JAVIER OMAR        60800001724500+ 00       608
0434 039637KALINGER LUIS AGUSTIN      60800000241000+ 00       608
0434 039644PERRONE JOSE LUIS          60800000250000+ 00       608
0434 039647ROJAS AGUSTIN MAXIMILIANO  60800001320000+ 00       608
1333 039654GONZALEZ ANTONELLA YANEL   60800000790000+ 00       608
DT16 039684RODRIGUEZ ALEJANDRO EZEQUIE60800000500000+ 00       608
EC33 039689LOPEZ GIMENA ROMINA        60800001094917+ 00       608
EC33 039691SUELDO CLAUDIA VIVIANA     60800000207750+ 00       608
C115 039700BIRARELLI MARIANO ADOLFO   60800000528667+ 00       608
0633 039711GOROSITO PEDRO MATIAS      60800000325000+ 00       608
1434 039719MIRANDA ROBERTO MARTIN     60800000700000+ 00       608
1134 039733ACOSTA JUAN GABRIEL        60800001290000+ 00       608
1934 039772CABRAL HUGO HERNAN         60800000174600+ 00       608
C434 039786CHIATTONE NADIA DANIELA    60800000050000+ 00       608
C434 039787CIMA LAURA VIVIANA         60800000100000+ 00       608
C334 039807ESPINDOLA MIGUEL ANGEL     60800000300000+ 00       608
0434 039820GALLINAL GIMENA ANDREA     60800002000000+ 00       608
1934 039850LIZONDO MATIAS MIGUEL ANGEL60800000364200+ 00       608
C734 039855LOPEZ MARIANA ISABEL       60800000055000+ 00       608
C434 039869MOLINA SABRINA MERCEDES    60800000541200+ 00       608
1934 039873MOYA ARIEL ALBERTO         60800000141600+ 00       608
0434 039891PEDROZO CARLOS SAUL        60800000615000+ 00       608
1934 039904RANDAZZO ULISES WALDO      60800000144000+ 00       608
1934 039910RODRIGUEZ IVAN ELIAS       60800000263025+ 00       608
2234 039933SEGOVIA RODRIGO EZEQUIEL   60800000060000+ 00       608
1333 039940SOSA SILVINA ADRIANA       60800000450000+ 00       608
3534 039947TORRES NESTOR RAFAEL       60800000300000+ 00       608
C334 039956VILLABOA VICTOR DAVID      60800001250000+ 00       608
3534 039960ZALAZAR ARIEL DARIO        60800000300000+ 00       608
1434 039964ABRAHAM ADRIAN MARCELO     60800001000000+ 00       608
EC34 039965BAIZ JEREMIAS EMANUEL      60800001393112+ 00       608
EC34 039967MARTINEZ CARLOS EMANUEL    60800000223850+ 00       608
EC34 039970RAMALLO MELISA NATACHA     60800001389864+ 00       608
1933 039973LAFUENTE JONATAN EZEQUIEL  60800000721150+ 00       608
C433 039976SCIARDI ALEJANDRA FABIANA  60800000840000+ 00       608
C734 040003GONZALEZ NOELIA ISABEL     60800000055000+ 00       608
1334 040006LITTERINI JORGELINA        60800000067800+ 00       608
AP15 040038INSAURRALDE CARLOS RENE    60800000550000+ 00       608
0834 040048AVALOS ROMINA JORGELINA    60800000150000+ 00       608
1934 040076FERNANDEZ NADIA SABRINA    60800000911700+ 00       608
CF34 040077FERNANDEZ SILVANA LORENA   60800000580000+ 00       608
1934 040089GONZALEZ MARIA BELEN       60800002000000+ 00       608
C134 040095KALENIUK EDUARDO ANDRES    60800000800000+ 00       608
C134 040101MAIDANA TRIANA SOLEDAD     60800000166000+ 00       608
CF17 040103MANSILLA JOSE ARMANDO      60800000430000+ 00       608
DT34 040117NATELLO JUAN MANUEL        60800000330000+ 00       608
0834 040123OLIVERA GERMAN HUGO ALFREDO60800000405000+ 00       608
C134 040155VALLEJOS ADRIAN EZEQUIEL   60800000166000+ 00       608
OS34 040173GIMENEZ GUILLERMO ALEJANDRO60800000320000+ 00       608
0417 040177MELGARE MARINA MARISA      60800000595000+ 00       608
0234 040188VERRONE CHRISTIAN EMANUEL  60800000041625+ 00       608
C434 040189ARAYA MARIANO ANDRES       60800000135000+ 00       608
0434 040191CHINCA ANA LUZ             60800000870000+ 00       608
C334 040213VILLALBA MARIELA ALEJANDRA 60800000302500+ 00       608
0615 040230SAIEGG RUTH ELISA          60800000089500+ 00       608
C334 040240CONTRERA MIRNA VALERIA     60800000357500+ 00       608
DN34 040242CUEVAS REYNOSO MARTIN ALEXI60800000933333+ 00       608
C134 040266PEREZ NANCY RAMONA         60800000329250+ 00       608
C234 040268QUINONEZ CLAUDIA GISELLE   60800000050000+ 00       608
C434 040270RAMOS MARTA MARIANA        60800000360000+ 00       608
1334 040278SOSA LORENA VANESA         60800000850000+ 00       608
0434 040292PESSIO MARIA EMILIA        60800000360000+ 00       608
C634 040296AYRES JOAQUIN LEONARDO     60800000025000+ 00       608
C334 040300MARQUEZ HANNA LUIS ALBERTO 60800000300000+ 00       608
C434 040304MINO CLAUDIA MARIELA       60800001490000+ 00       608
1034 040308SILVEYRA ESTELA MABEL      60800000750000+ 00       608
C634 040314ESPECHE ANABELL NOEMI      60800000050000+ 00       608
3433 040317MANSILLA SILVANA CAROLINA  60800000308250+ 00       608
C216 040341CACERES JOSE EZEQUIEL      60800000300000+ 00       608
1916 040348CRUZ OSCAR FERNANDO        60800000211200+ 00       608
0416 040358ESTRADA JONATHAN JAVIER    60800002000000+ 00       608
1616 040369GUTIERREZ NICOLAS EZEQUIEL 60800000300000+ 00       608
1916 040379MERKA GUIDO MARTIN         60800000247200+ 00       608
0816 040401DURANDAL YANINA ZULEMA     60800000600000+ 00       608
C116 040402JAMBLE SERGIO FERNANDO     60800000331500+ 00       608
DN16 040403JUAREZ DOMENECH HEBER FEDER60800000331150+ 00       608
C416 040404LEMOS CARLOS LEONARDO      60800001983000+ 00       608
1334 040429ACUNA JOSE LUIS            60800001890000+ 00       608
1334 040431AGUILAR JESICA MARTA DEL VA60800001021533+ 00       608
C734 040434ALMARAZ DEBORA ELIANA      60800000300000+ 00       608
1334 040477CORONEL SILVANA ANDREA     60800001154200+ 00       608
1034 040505ISENDORF AIDALI MARIA DEL C60800000309091+ 00       608
DS34 040529OTAZU TAMARA SOLEDAD       60800000350000+ 00       608
EC34 040598GOITEA GUILLERMO GUSTAVO   60800000120000+ 00       608
C134 040618SANCHEZ MARCELA ALEJANDRA  60800000680000+ 00       608
0234 040621BAREIRO JOSE LUIS          60800000500000+ 00       608
1934 040627GONZALEZ HUGO ERNESTO      60800000366667+ 00       608
0634 040630RIVERO GALEANO DENIS EMMANU60800000089500+ 00       608
DS34 040631RODRIGUEZ MAURICIO JAVIER  60800000466667+ 00       608
0434 040659PEREZ EPINAL EMILSE LUCIANA60800000256500+ 00       608
EC34 040771AGUILAR GUSTAVO MAXIMILIANO60800000298350+ 00       608
0734 040772ALEGRE CAROLINA NOELIA     60800000187500+ 00       608
0517 040786LAVOZ CHAMSEDDIN MARCIA LOR60800000150000+ 00       608
1334 040801BALDIVIEZO GISELA YESICA   60800000026600+ 00       608
C134 040803BENITEZ ROMINA SOLEDAD     60800000166000+ 00       608
EP34 040815INIGUEZ MICAELA SABRINA    60800000340000+ 00       608
0634 040817MAINECUL MARTIN IGNACIO    60800000089500+ 00       608
C734 040822REVIGLIO CRISTINA SOLEDAD  60800000245000+ 00       608
C434 040832VALDERRAMA NANCY MABEL     60800001156457+ 00       608
EC34 040887ZORRILLA HEIDI MELINA      60800000122400+ 00       608
AS34 040890BRUNO FRANCO MAURICIO      60800000433333+ 00       608
1534 040893CASTRO JESSICA DANIELA     60800000060000+ 00       608
C734 040897GALARZA CLAUDIO JAVIER     60800000778500+ 00       608
C134 040903PAZ ANGELICA DEL CARMEN    60800000057000+ 00       608
2516 040916AREVALO JUAN GABRIEL       60800000199362+ 00       608
C416 040921BEDOGNI JANINA VANESA      60800000360000+ 00       608
1016 040926DE AMBROSIO ROBERTO FERNAND60800000375000+ 00       608
1016 040940GODOY NESTOR EMMANUEL      60800000495833+ 00       608
C716 040944IRIGARAY CARLA SOLANGE     60800000090000+ 00       608
1916 040970RODRIGUEZ JOSE LUIS        60800000588600+ 00       608
1916 040974SANTILLAN LUCAS DANIEL     60800000154725+ 00       608
1916 040979YUSKOW CLAUDIO EXEQUIEL    60800002000000+ 00       608
C516 040989RUEDA YESICA MAGDALENA     60800000406000+ 00       608
CF16 040990STRACUZZI JONATHAN ARIEL   60800001088000+ 00       608
C334 041031BERMUDEZ MARIA LAURA       60800000627083+ 00       608
C133 041054CUEVAS REYNOSO CRISTIAN ARI60800001033333+ 00       608
C434 041083IBARRA CLAUDIO ORLANDO     60800000380000+ 00       608
C434 041105NAVARRO CLARA ELIZABETH    60800000017500+ 00       608
C434 041115PEREYRA VALERIA SOLEDAD    60800000240000+ 00       608
CF34 041132SOSA NORA NOELIA           60800000080000+ 00       608
C434 041165FABRE ELIANA NOEL          60800000195000+ 00       608
1434 041169FREIDIG ANABELA ROXANA     60800000018200+ 00       608
3534 041201ROSALEZ LILIANA STEFANI    60800000300000+ 00       608
EC34 041215ARRIOLA STEFANIA           60800001157500+ 00       608
0234 041219CANO NADIA SOLEDAD         60800000320000+ 00       608
1234 041220CERDA ADRIAN ERALDO        60800000715000+ 00       608
0734 041225GALVAN ANDREA FABIANA DEL V60800000615000+ 00       608
C434 041226GONZALEZ LORENA SOLEDAD    60800000045000+ 00       608
EC34 041250RETAMOZO PABLO EXEQUIEL    60800000722000+ 00       608
1016 041263BREST ANTONELLA ABIGAIL    60800000330556+ 00       608
0616 041264CENTENO JORGE ADRIAN       60800000089500+ 00       608
DS34 041281LOPEZ ADRIAN MAXIMILIANO   60800001391333+ 00       608
EC34 041320FRASSONI LEANDRO AGUSTIN   60800000436500+ 00       608
EC17 041363FAVALE JUAN MANUEL         60800000111600+ 00       608
C234 041367FERNANDEZ RICARDO RAUL     60800000800000+ 00       608
1434 041368FERRA MAURO ANDRES         60800000637500+ 00       608
0534 041374GIMENEZ JUAN MARCELO       60800000514000+ 00       608
C434 041379GONZALEZ BRENDA ANDREA     60800000842905+ 00       608
3534 041380IBANEZ VANESA YANINA DEL VA60800000300000+ 00       608
C434 041382LEGUIZAMON KARLA ABIGAIL   60800000050000+ 00       608
C435 041387MAMBRIN PAOLA ANDREA       60800000360000+ 00       608
C434 041391MEZA VIVIANA BEATRIZ       60800001328333+ 00       608
0734 041408ROIG EMMANUEL ISMAEL OSMAR 60800000350000+ 00       608
1934 041420TEJEDA VICTOR RUBEN        60800001085000+ 00       608
C734 041426VAUGDAGNA RODRIGO EMANUEL  60800000057000+ 00       608
1934 041436CISNEROS ELIANA MARIEL     60800000057000+ 00       608
1134 041452MOLINE YAEL ANABEL         60800000600000+ 00       608
EC34 041464ABRAHAM YANINA KARINA      60800000345000+ 00       608
0234 041476CABALIN RAUL ARIEL         60800000550000+ 00       608
1134 041478CARDOZO NATALIA MARISEL    60800000690000+ 00       608
C134 041485DA SILVA HERNAN JOSE       60800000237600+ 00       608
EC34 041497HERNANDEZ MARIA LAURA      60800000570583+ 00       608
EC34 041502MADRUGA MARIA GABRIELA     60800000495000+ 00       608
C234 041508OLIVEIRA RAMIRO SEBASTIAN  60800000400000+ 00       608
C434 041515SAN MARTIN ROMINA ALEJANDRA60800000327500+ 00       608
C234 041538LOPEZ DARDO ERIC           60800000380000+ 00       608
C434 041546SCHULTHEIS ROCIO YASMIN    60800002000000+ 00       608
1334 041557GONZALEZ NOELIA JENNIFER   60800000560000+ 00       608
C234 041594ESQUIVEL EZEQUIEL WALTER   60800000030100+ 00       608
1934 041613LAFUENTE LISANDRO GABRIEL  60800000477900+ 00       608
1934 041614LEIVA JOSE MARIA           60800000833333+ 00       608
DS34 041626MERELES JAVIER EZEQUIEL    60800000171375+ 00       608
CF34 041652RUIZ FEDERICO NAHUEL       60800000505000+ 00       608
CF34 041668TRUSZKOWSKI GABRIEL ANTONIO60800000080000+ 00       608
1234 041701TOLOZA CRISTIAN HUMBERTO   60800001250000+ 00       608
C116 041703AMARILLA LIDIA ANDREA      60800000114000+ 00       608
1316 041705ARANDA GRACIELA DIANA      60800000480000+ 00       608
C416 041706ARCE SILVIA AGUSTINA       60800000050000+ 00       608
2216 041710BARBONA ROBERTO HERMENEGILD60800000170000+ 00       608
0816 041711BARRO NICOLAS AGUSTIN      60800000470000+ 00       608
1316 041713BENITEZ MICAELA ANAHI      60800000179800+ 00       608
EP16 041715BLANCO SOLANGE ALEJANDRA   60800000365025+ 00       608
0416 041717CARDOZO AYLEN DEL MILAGRO  60800000695500+ 00       608
3016 041734MOREL MARIA LUISA          60800000067000+ 00       608
C216 041738PALIARI MARIO GABRIEL      60800000410000+ 00       608
0416 041751SANCHEZ QUIROGA FRANCO DANI60800000685000+ 00       608
2216 041756SORUCO NANCY INES          60800000120000+ 00       608
1016 041757SOSA DIEGO ELIAS           60800000453333+ 00       608
1516 041765ZAMORA SERGIO ADRIAN       60800000120000+ 00       608
EC16 041769CESPEDES MATIAS NICOLAS    60800000231025+ 00       608
1316 041773ORTEGA CECILIA MARCELA     60800001160000+ 00       608
0616 041775PEREYRA OSCAR MATIAS       60800000089500+ 00       608
1234 041812BONIFACIO MARCOS MATIAS    60800000500500+ 00       608
1434 041816BRIONES MARIO ALEJANDRO    60800000068200+ 00       608
0434 041817BUSTAMANTE GERMAN LEONARDO 60800000693500+ 00       608
2234 041822CARDOZO VIRGINIA DEL VALLE 60800000668750+ 00       608
DT16 041839EGUEZ MARIA BETSABE        60800000633760+ 00       608
C534 041846FERNANDEZ SERGIO SANTIAGO  60800000621759+ 00       608
1434 041850FLORES SEBASTIAN EDGARDO   60800000325000+ 00       608
0434 041854GATTI JOSE JOAQUIN         60800001590000+ 00       608
C334 041868LANUZA ABIGAIL MARIEL DE LO60800001018333+ 00       608
1234 041872LOPEZ ALVARO EMANUEL       60800000100000+ 00       608
C334 041875MARTINEZ PATRICIA BELEN    60800000366667+ 00       608
1434 041880NANNI HERNAN DEL VALLE     60800000312500+ 00       608
0634 041885ORTEGA VALENZUELA HECTOR EM60800000089500+ 00       608
EC34 041891PAVON DAVID                60800000783333+ 00       608
0634 041906ROLON RODRIGO ALEJANDRO    60800000089500+ 00       608
1334 041907RUIDIAZ MAIRA SOFIA        60800000540000+ 00       608
0634 041909SALAS JONATHAN EDGAR       60800000089500+ 00       608
1434 041913SAVALL JULIO ALEJANDRO     60800000086400+ 00       608
0434 041922TEVEZ GUILLERMO ALEJANDRO  60800000300000+ 00       608
0834 041937YACANTE JUAN MARCELO       60800000120000+ 00       608
C334 041939ZALAZAR MARTIN SEBASTIAN   60800000300000+ 00       608
C534 041942CACERES RICARDO JAVIER     60800000690000+ 00       608
0635 041954COMINETTI ROMANO PAOLO     60800000179000+ 00       608
0417 041966HERNANDEZ MARIBEL          60800000680000+ 00       608
C716 041984MALDONADO SOFIA LOURDES    60800000090000+ 00       608
0234 042011BARRIOS SERGIO ANDRES      60800001016989+ 00       608
1934 042013BENITEZ FIDELINO RAMON     60800000375000+ 00       608
C134 042034DE LA TORRE MATIAS EZEQUIEL60800000375000+ 00       608
3034 042067HAPPEL MAXIMILIANO EMANUEL 60800000665000+ 00       608
C334 042080MADARIAGA JESUS FABIAN     60800000300000+ 00       608
0434 042101PEREZ GASTON ERNESTO       60800002000000+ 00       608
EC34 042144GALEANO ANA MARIA          60800000458533+ 00       608
EC34 042145LEGUIZA GASTON PABLO       60800000168900+ 00       608
EC34 042146ROLON DIANA GLADYS         60800002000000+ 00       608
EC34 042199ALEGRE ALFREDO             60800000520000+ 00       608
1134 042210LIZARDIA CAROLINA ELBA     60800000110000+ 00       608
C434 042215RAMIREZ GRISELDA NOEMI     60800000260000+ 00       608
1435 042261VILLELLA VICTORIA DE LOS AN60800000050000+ 00       608
EC34 042265PERCARA PATRICIA           60800000024375+ 00       608
C116 042286ALVAREZ VEUTHEY EZEQUIEL RU60800000306125+ 00       608
C434 042313BURGOS WANDA MELISA        60800000165000+ 00       608
1934 042342FAEDDA DAVID JOSE SALVADOR 60800000302550+ 00       608
AP34 042355GAUNA GASTON GUILLERMO     60800000438750+ 00       608
C734 042364LIPARE JULIETA PAOLA       60800000110000+ 00       608
1434 042366LOIS ERIKA DAIANA          60800000050000+ 00       608
1934 042373LUNA LEONARDO ARIEL        60800000153600+ 00       608
C234 042377MALDONADO SERGIO ADRIAN    60800000300000+ 00       608
1934 042386MEZA ESTEFANIA BELEN       60800000292875+ 00       608
1934 042387MEZA EZEQUIEL MARCOS       60800000135000+ 00       608
1934 042390MORAN MARIANO ALEJANDRO    60800000330900+ 00       608
1434 042396O HIGGINS ROGER RODRIGO    60800000312500+ 00       608
1534 042411POSATINI ALCUCERO SERENA VI60800000369792+ 00       608
C234 042426RUKAVINA JULIETA ANDREA    60800000333333+ 00       608
EC34 042447VIDAL DARIO ARIEL          60800000290000+ 00       608
EC34 042465CORREA JOHANNA SOLEDAD     60800000528175+ 00       608
EC35 042468GONZALEZ LUCAS ALEJANDRO   60800000648608+ 00       608
2535 042480GARRONE MAURICIO DANIEL    60800000231809+ 00       608
1435 042493MARIPAN JUAN ALBERTO       60800000150000+ 00       608
1934 042509CUENCA FRANCO ALEJANDRO    60800000766667+ 00       608
C435 042519SUAREZ JESICA PAMELA       60800000230000+ 00       608
C216 042528LAFUENTE MARIA CECILIA     60800000036000+ 00       608
0434 042538URIZ DAVID IGNACIO         60800001328500+ 00       608
DT34 042545SICA MATIAS SEBASTIAN      60800000292275+ 00       608
EC34 042546SEGOVIA MELINA VIOLETA     60800000123900+ 00       608
0534 042554GIMENEZ WALTER EDUARDO     60800000501000+ 00       608
0816 042596TAPIA JONATAN ALEXIS       60800000324000+ 00       608
CF16 042603MANULAK DIEGO RICARDO      60800000160000+ 00       608
1116 042604MARTINEZ MAGALI MICAELA    60800002000000+ 00       608
EC16 042606SANTROVICH RAMON MATHIAS   60800000789908+ 00       608
EC16 042607VALENZUELA ABELARDO YAMIL  60800000116175+ 00       608
1134 042614FOGAR MATIAS HERNAN        60800000040000+ 00       608
DT35 042627ALONZO FERNANDO GABRIEL    60800000473750+ 00       608
C235 042630BORNEO HUGO JOSE           60800000050000+ 00       608
DT35 042637LEGUIZAMON DAVID EZEQUIEL  60800001345267+ 00       608
1934 042647ACOSTA PAMELA CELINA       60800000623442+ 00       608
C534 042681ALVAREZ MARCELO ALEJANDRO  60800000566667+ 00       608
1934 042686ARAVENA EMILIANO DAMIAN    60800000356400+ 00       608
AP35 042697BENITEZ MELANIA SOLANGE    60800000100000+ 00       608
3534 042724CORVALAN HECTOR DAVID      60800000300000+ 00       608
C134 042727CRUSSI FRANCO DARIO        60800000560000+ 00       608
1536 042728CUADRO JONATHAN ERALDO     60800000120000+ 00       608
1934 042755GARCIA CARLOS ABEL         60800000463608+ 00       608
AP34 042787INIGUEZ MACARENA AYELEN    60800000450000+ 00       608
C234 042788IVANCICH MARIA JOSE        60800000090000+ 00       608
C134 042793LEDESMA JUAN CARLOS        60800000416667+ 00       608
C234 042797LOCH IGNACIO EMMANUEL      60800000360000+ 00       608
C434 042817MEDINA MONICA BEATRIZ      60800000410000+ 00       608
CF34 042820MERINO NESTOR FABIAN       60800000160000+ 00       608
1134 042837PEREYRA LIS MARISOL        60800000110000+ 00       608
1935 042855RODRIGUEZ SILVA LEONARDO   60800000248475+ 00       608
0234 042859ROLON MIGUEL ANGEL         60800001220000+ 00       608
C434 042869SALVA JOHANNA ELISABETH    60800000500000+ 00       608
DS34 042874SERRANO KEVIN NEHUEN       60800000475000+ 00       608
C334 042887TORREZ CRISTIAN ADOLFO M.  60800001515000+ 00       608
1435 042906ZUBICH PATRICIO EMILIANO   60800000100000+ 00       608
EC35 042924LOVEY CARMEN ADRIANA       60800000333714+ 00       608
EC35 042926VARETTONI ROMINA SOL       60800000122375+ 00       608
EC35 042928CASTANO ELIAS NICIOLAS     60800000409075+ 00       608
EC35 042929GRAMAJO SERGIO LUIS        60800001046667+ 00       608
1935 042930QUEVEDO VALERIA MAGDALENA  60800000662800+ 00       608
1335 042932ADRIAN NATALIA             60800000810000+ 00       608
EC34 042945RODRIGUEZ FLORENCIA NOELI  60800000330000+ 00       608
EC34 042946SEGOVIA DANIELA            60800000426450+ 00       608
1916 042967OVEJERO ESTEBAN GABRIEL    60800000316667+ 00       608
2535 042973LITTERINI ALEXIS DAMIAN    60800000454742+ 00       608
0535 042985EGEA ANDREA GUADALUPE      60800000500000+ 00       608
1335 042988FALGARI SUSANA NOEMI       60800000120000+ 00       608
C534 042989FERNANDEZ MARTINEZ FACUNDO 60800000368000+ 00       608
0635 043006MANSILLA MARCELO ARIEL     60800000089500+ 00       608
CF35 043010OLIVA FABIOLA ANDREA       60800000260000+ 00       608
0435 043011ORDONEZ CECILIA MARIEL     60800000120000+ 00       608
0435 043014PATINO SERGIO ANIBAL       60800000731000+ 00       608
1435 043028SOLIS PATRICIA ALEJANDRA   60800000325000+ 00       608
0435 043043OTROSKY SILVINA SOLEDAD    60800000445000+ 00       608
1235 043051ALBANO WALTER GONZALO      60800001156300+ 00       608
0634 043052CORREA AYALA EMA DAIANA    60800000400000+ 00       608
C735 043095ROMERO MARCOS MIGUEL       60800000017500+ 00       608
1935 043096ROSALES JORGE CRISTIAN     60800000122400+ 00       608
1934 043102TOLEDO OSVALDO EMMANUEL    60800001107000+ 00       608
C437 043107BESTOSO CINTHIA MARIA NOE  60800000385000+ 00       608
RP35 043127BADO LORENA PAOLA          60800000346475+ 00       608
1335 043128JUGO NADIA TAMARA          60800000650000+ 00       608
EC35 043139SAROBE LEANDRO MARTIN      60800000050000+ 00       608
0418 043180CALCAPRINA JUAN CRUZ       60800000440000+ 00       608
1935 043181CALISTRO HILARIO GUILLERMO 60800001045550+ 00       608
C435 043207FERNANDEZ ROCIO ELIZABETH  60800000050000+ 00       608
C735 043219GOMEZ SILVANA BEATRIZ      60800000090000+ 00       608
1135 043252MOYA GISELLA SOLEDAD       60800000100000+ 00       608
C635 043258PELLIZZER DIEGO HERNAN     60800000025000+ 00       608
C435 043266REJALA LAURA BEATRIZ       60800000304167+ 00       608
1935 043296GAUTO PAOLA ARGENTINA      60800000166500+ 00       608
C436 043327AZAS DARIO JAVIER          60800000533333+ 00       608
EC34 043333INSAURRALDE CARLINA SOLEDAD60800000080000+ 00       608
1435 043337LUNA ROMINA PAOLA          60800000200000+ 00       608
2535 043338MARTIN PABLO RAFAEL        60800000428316+ 00       608
C235 043418CISNEROS MARIELA LUCIANA   60800000330000+ 00       608
1935 043445CONTRERA HECTOR DARIO      60800002000000+ 00       608
C435 043471MAMBRIN CRISTIAN FABIAN    60800000350000+ 00       608
1135 043479PELOZO ALEXIS NAHUEL       60800000130000+ 00       608
1235 043506RAMOS OLGA MONICA PATRICIA 60800000340000+ 00       608
1935 043515PITARO PONCE MIGUEL ALEJAND60800000443025+ 00       608
1335 043520GONZALEZ CAROLINA BELEN    60800001323700+ 00       608
1417 043563SANCHEZ VICTOR NICOLAS     60800000325000+ 00       608
1416 043565TEJERINA ALEJANDRO YAMIL   60800000637500+ 00       608
C517 043578CRUZ CESAR IVAN            60800000328000+ 00       608
0816 043583RAMOS JULIANA NOEL         60800000240000+ 00       608
1935 043593ACOSTA HERNAN              60800000057000+ 00       608
1735 043627BRITEZ RUBEN DAVID         60800000180000+ 00       608
0834 043652ESPINOSA SOFIA DIMPNA NAYME60800000360000+ 00       608
0435 043657FERNANDEZ GISELA ALEJANDRIN60800000220000+ 00       608
C735 043667FRIAS CAMILA BRENDA        60800000090000+ 00       608
C735 043669GALEANO MARIA DEL CARMEN   60800000225000+ 00       608
C135 043684GONZALEZ FEDERICO GUSTAVO  60800000450000+ 00       608
C735 043687GONZALEZ ALEJANDRA MARISEL 60800000110000+ 00       608
C235 043702LEDESMA GONZALO SEBASTIAN  60800000090000+ 00       608
C735 043708LUCHEKA SANDRA JOSEFINA    60800000110000+ 00       608
C235 043721MARTIN YESICA ANABEL       60800000090000+ 00       608
DS34 043735NACIMIENTO RICARDO SAMUEL  60800000500000+ 00       608
C235 043736NAULLE JOSE LUIS           60800000050000+ 00       608
1934 043739OJEDA LORENA SOLEDAD       60800000307440+ 00       608
C235 043749PEREZ NICOLAS ALBERTO      60800000450000+ 00       608
1735 043761RIQUELME JORGE RUBEN       60800000349000+ 00       608
1535 043766RODRIGUEZ MAIRA ALEJANDRA B60800000060000+ 00       608
C535 043774RUIZ ROMINA ROXANA         60800001250000+ 00       608
C235 043775SALAS PABLO CESAR          60800000415000+ 00       608
C435 043781SANCHEZ RICARDO ALEJANDRO  60800000340000+ 00       608
C435 043783SANTA CRUZ PAOLA ALEJANDRA 60800001300000+ 00       608
C135 043785SAUCEDO BRUNO GASTON       60800000340000+ 00       608
C135 043786SAUCEDO NICOLAS ALEJANDRO  60800000340000+ 00       608
C435 043787SEPULVEDA MELANIE ARACELI  60800000400000+ 00       608
DT35 043804VALENZUELA JONATHAN EZEQUIE60800001600000+ 00       608
C235 043813VILLANOVA GABRIELA SOLEDAD 60800000357650+ 00       608
1635 043820ZARATE RICARDO ISMAEL      60800000300000+ 00       608
EC35 043834CORONEL GRISEL MACARENA    60800000178200+ 00       608
EC35 043886BASUALDO JONATAN DANIEL    60800000095000+ 00       608
EC35 043892FLEYTAS MARIANO GONZALO    60800000873200+ 00       608
EC35 043903MAZZONI ELIZABETH PAOLA    60800000320000+ 00       608
1935 043906MONZON JESICA ROMINA       60800001050348+ 00       608
C435 043908NAVARRO EVA ALEJANDRA      60800000260000+ 00       608
1935 043909NOVAK GUSTAVO GABRIEL      60800000283800+ 00       608
C735 043911OJEDA MELINA ANABEL        60800000090000+ 00       608
EC35 043928URREJOLA DEMIAN FRANCO     60800000050000+ 00       608
EC35 043937BARBONA JULIETA SILVANA    60800000330000+ 00       608
1135 043944DELGADO CECILIA LORENA     60800002000000+ 00       608
EC35 043946FREDA FLORENCIA LOURDES    60800000098125+ 00       608
1935 043966SIMONE PAMELA YANINA       60800000225600+ 00       608
0635 043976ACEVEDO DENISE ANTONELLA   60800000310000+ 00       608
0635 043978AGUERO MARTIN EMANUEL      60800000089500+ 00       608
1435 043984DE GODOS JOSUE DAVID       60800000100000+ 00       608
2535 043997LUGANI CESAR MAXIMILIANO   60800000097200+ 00       608
1435 044002MATAMALA LUIS LEONEL       60800000100000+ 00       608
1435 044013PADULARROSA LUCAS GERARDO  60800000100000+ 00       608
C535 044016QUESADA MARINA BELEN       60800000610768+ 00       608
0435 044027STICKAR CRISTIAN NICOLAS   60800000532000+ 00       608
3035 044042DISER FERNANDO NICOLAS     60800000546429+ 00       608
0437 044044GETTE MARCO ANDRES         60800000690000+ 00       608
0435 044048RICCIARDO GUILLERMO EDUARDO60800000918000+ 00       608
0635 044050SALAS DAVID                60800000089500+ 00       608
0435 044052ZIMERMAN CESAR ALBERTO     60800000910000+ 00       608
DT35 044062ALBA LEANDRO TOMAS         60800000487733+ 00       608
1135 044065ANDRIJASEVICH ALEJANDRO RAM60800000050000+ 00       608
EC35 044066AYALA LUCAS VICENTE        60800000314286+ 00       608
C235 044083INCZE LUCAS ANDRES         60800000450000+ 00       608
EC35 044093POISA CARLOS ALBERTO       60800000310000+ 00       608
EC36 044094PRADO ROMINA JORGELINA     60800000756400+ 00       608
EC35 044096RIOS SILVIA ESTHER         60800000360000+ 00       608
CF35 044097RIVERO MARIELA EDITH       60800000350000+ 00       608
C135 044098ROTELLINI JUAN PABLO       60800000850000+ 00       608
DT35 044100SANCHEZ GONZALO HERNAN     60800000768975+ 00       608
EC35 044114ARIAS GABRIELA IVONNE      60800000178625+ 00       608
1935 044116BERNARDINI JUAN PABLO      60800001400450+ 00       608
DN35 044117BORGO FERNANDO DANIEL      60800000132000+ 00       608
1935 044124DEMITRI EDIT NOEMI         60800000057000+ 00       608
EC35 044130FRUTOS CANDELA ALDANA      60800000265000+ 00       608
1035 044133GOMEZ GABRIELA CAROLINA    60800000510000+ 00       608
EC35 044134IZQUIERDO ROMINA JAQUELINE 60800000845200+ 00       608
C235 044149PALACIOS Y CASAVIEJA ADRIAN60800000439650+ 00       608
C435 044152RETAMOZO YAMILA PAMELA     60800000660000+ 00       608
1935 044157SCHULTHEIS JOHANA MARISEL  60800000604625+ 00       608
0535 044161TORRES MARIA ELENA         60800000234000+ 00       608
C735 044178BALBUENA CINTHIA VERONICA E60800000135000+ 00       608
C735 044243ERNST GUILLERMO ANTONIO    60800000466667+ 00       608
C235 044274HERE?U MARISA RAQUEL       60800000050000+ 00       608
C235 044276ISAIAS STEFANIA YAEL       60800000915000+ 00       608
C135 044303MORA MARCELO AGUSTIN       60800000566667+ 00       608
0435 044357RUBIO LUCAS SEBASTIAN      60800000705000+ 00       608
C435 044360SAMANIEGO LUIS MAXIMILIANO 60800000250000+ 00       608
C435 044369SOLIS ALEJANDRO MARTIN     60800000210000+ 00       608
C735 044384VILLAGRA ALEXANDRA SOLANGE 60800000507000+ 00       608
1935 044468PRIVITERA DAIANA ANDREA    60800001358000+ 00       608
DS18 044481TALAVERA MATIAS NAHUEL     60800000384750+ 00       608
C235 044486VALDEZ YESICA SOLEDAD      60800000850000+ 00       608
0735 044496PALACIO JESSICA JOHANNA    60800000300000+ 00       608
C235 044506AYALA LEIVA ALEJANDRA ANDRE60800000150000+ 00       608
1935 044507BAZAN JUAN ALEJANDRO       60800001495000+ 00       608
C136 044512DOMINGUEZ MAXIMILIANO ADRIA60800000400000+ 00       608
CF35 044520GONZALEZ JAVIER ANDRES     60800000120000+ 00       608
CF35 044524LOPEZ JAZMIN ELIZABETH     60800000312000+ 00       608
C435 044534RAMO CRISTIAN EMMANUEL     60800000334333+ 00       608
C235 044538SAUCEDO LUCAS EMANUEL      60800000115000+ 00       608
C135 044565GARCIA LUCIA SOLEDAD       60800000450000+ 00       608
C735 044602AMARO ADRIANA NOEMI        60800000135000+ 00       608
C435 044615BELETTI JOSE SEBASTIAN     60800000360000+ 00       608
C435 044622BREARD LUIS ALBERTO        60800000351333+ 00       608
C235 044625BUSTOS JESUS MATIAS        60800000450000+ 00       608
C735 044655FAEDDA DAIANA PATRICIA KARE60800000360000+ 00       608
1735 044709LEITES MARIO ORLANDO       60800000265800+ 00       608
C235 044743ORTIZ JAQUELINE ELIZABETH  60800000300000+ 00       608
CF35 044758QUINTANA GONZALO ALEJANDRO 60800000120000+ 00       608
C335 044782SANCHEZ DIAZ LORENA ISABEL 60800000380000+ 00       608
1135 044784SAROBE JULIAN ANDRES       60800000680000+ 00       608
C235 044802TOLOZA DANIEL MAXIMILIANO  60800000320000+ 00       608
C335 044869AGOLINO DANIEL SALVADOR    60800000664000+ 00       608
1735 044873AYALA ALEJANDRO DANIEL     60800000385000+ 00       608
C135 044878CANIZA BRAIAN YOEL         60800000466667+ 00       608
0235 044915TOSINI PATRICIO EDUARDO    60800000042000+ 00       608
0535 044928GUAYMAS JESICA NOEMI       60800000400000+ 00       608
2517 044934ALCARAZ SOTO GUSTAVO DANIEL60800000346667+ 00       608
1017 044944ESQUIVEL ALAN GABRIEL      60800000314500+ 00       608
C317 044947GONZALEZ LUDMILA MARIANELA 60800000079500+ 00       608
1317 044951KOJUT MARIANELA ELIZABETH  60800000053200+ 00       608
0417 044958MOCARQUER SERANTES SELIM SA60800000962500+ 00       608
0517 044968ROJAS GONZALEZ CESAR RICARD60800000355333+ 00       608
C417 045010FARIAS CAROLINA YANEL      60800001936557+ 00       608
1117 045011FLORES GASTON DANIEL       60800000090000+ 00       608
C135 045033AMARILLA JONATHAN IVAN     60800000337000+ 00       608
C435 045068CATTALINI DELVALLE FERNANDO60800000050000+ 00       608
C435 045085ESCOBAR ROSANA ELIZABETH   60800000210000+ 00       608
1935 045127JARA LEONEL SEBASTIAN      60800000467603+ 00       608
1935 045176PEREIRA JAVIER ALEJANDRO   60800000845300+ 00       608
C435 045211SOLIS PAULA ROMINA ITATI   60800000050000+ 00       608
1135 045220TREJO GONZALO EZEQUIEL     60800000500000+ 00       608
1118 045243GONZALEZ VERONICA SOLEDAD  60800000120000+ 00       608
DN35 045288IBARS LILIANA NOEMI        60800000219875+ 00       608
C435 045325AGUIRRE VERONICA NATALIA   60800000550000+ 00       608
C435 045331DOMINGUEZ RITA ESTER       60800000320000+ 00       608
C235 045336GOMEZ SANDRA NOEMI         60800000340000+ 00       608
C435 045345PUCHETA MARGARITA ESTER    60800000555000+ 00       608
1435 045358CHAMBRET CLAUDIA ELISA     60800000312500+ 00       608
1935 045370RITU FEDERICO INAKI        60800001320000+ 00       608
2535 045399CUEVAS EMILIANO AGUSTIN    60800000891285+ 00       608
C535 045405ESCOBAR NELSON ANDRES      60800000450000+ 00       608
C436 045409FERREIRA VILLALBA GUILLERMO60800000057000+ 00       608
0435 045432PEREYRA MILTON DANIEL      60800002000000+ 00       608
0435 045447TORRES FITE LUCAS NICOLAS  60800000552500+ 00       608
0435 045452CORONEL OSCAR MARCELO      60800001462500+ 00       608
1435 045479BARRIGA JONATAN EZEQUIEL   60800000312500+ 00       608
1235 045489DOMINGUEZ GERMAN EZEQUIEL  60800000100000+ 00       608
1435 045491GAVILAN SANCHEZ LEANDRO ELI60800000312500+ 00       608
0635 045492GOMEZ LUCIANO ANDRES       60800000303462+ 00       608
1435 045493GONZALEZ MAURICIO MAXIMILIA60800000375000+ 00       608
0635 045496GRIFFITHS BRIAN MICHAEL    60800000089500+ 00       608
1435 045508MERA DANIEL ALEJANDRO      60800000325000+ 00       608
0635 045514PELOZO VALENTIN MANUEL JOSE60800000406167+ 00       608
0635 045535HERNANDEZ LUCAS DAMIAN     60800000383333+ 00       608
C235 045547AMARILLA XOANA ALEXA       60800000080000+ 00       608
1335 045576ESPINOSA ANDREA GISELA DEL 60800000412500+ 00       608
C435 045577ESQUIVEL GAUTO AURELIA EUFR60800000210000+ 00       608
C135 045580FERNANDEZ YAMILA LEONELA   60800000450000+ 00       608
C435 045590GIMENEZ BELEN ANAHI        60800000520000+ 00       608
C435 045591GONZALEZ YANINA SOLEDAD    60800000100000+ 00       608
C436 045594GUTIERREZ AYALA MARIA PAULA60800000433333+ 00       608
CF35 045595HABA MELISA NATALIA        60800000080000+ 00       608
C435 045598ISASMENDI Aldana MagalI    60800000050000+ 00       608
C435 045600JARA VALERIA GERALDINE     60800000495000+ 00       608
C435 045603LEMES MALVINA NOEMI        60800000340000+ 00       608
C435 045609MAJUL MARLENE              60800000180000+ 00       608
C435 045620NAVARRETE MARIQUENA SOLEDAD60800000615000+ 00       608
C435 045628PONCE NADIA ISABEL         60800000100000+ 00       608
C435 045636ROJAS NATALIA ANALIA       60800000050000+ 00       608
1535 045640RUIZ DIAZ ROMINA VANESA    60800000180000+ 00       608
C535 045641SALINAS ANDREA CELESTE     60800001790000+ 00       608
C435 045649SOSA GABRIELA JOHANNA      60800000165000+ 00       608
C435 045650SOSA LIDIA BELEN           60800000395000+ 00       608
C435 045651SOSA FLORENCIA ANDREA      60800000337500+ 00       608
C435 045657TORREZ PAOLA ROMINA        60800001215000+ 00       608
C436 045661VERON CAROLINA ANDREA      60800000050000+ 00       608
C535 045662VILLA CAMARGO ROSA BELEN   60800000850000+ 00       608
0235 045672ARANDA GASTON ALEJANDRO    60800000500000+ 00       608
C435 045687CABRAL LEONEL ALEJANDRO    60800000333333+ 00       608
C336 045696CHILIGUAY NELSON BENJAMIN  60800000300000+ 00       608
C136 045718GONZALEZ LUCAS ALBERTO     60800000450000+ 00       608
C135 045722GUERRERO BRUNO LEONARDO    60800000568958+ 00       608
CF35 045728LEDESMA LUIS OSCAR         60800000416667+ 00       608
0735 045730LOPEZ NESTOR MIGUEL GONZALO60800000655053+ 00       608
C335 045747OLIVERA DANIEL ALEJANDRO   60800000300000+ 00       608
1935 045784TROCHE GASTON EMMANUEL     60800000049125+ 00       608
C735 045789ZAPATA ALEXIS DANIEL       60800000057000+ 00       608
1135 045819GARAFFA Celica Ivana       60800000050000+ 00       608
C235 045877BARTOLOMEO GABRIELA SOLEDAD60800000128000+ 00       608
C735 045886FLEITAS CECILIA YANINA     60800000330000+ 00       608
0435 045900VILLEGAS SILVANA MATILDE   60800000708333+ 00       608
DT35 045912SOSA Gustavo Javier        60800000320000+ 00       608
C435 045936PARRA FLORENCIA AYELEN     60800000420000+ 00       608
C235 045937PENA LUCIA VIVIANA         60800000050000+ 00       608
C736 045938RIOS DEBORA GISELA         60800000335000+ 00       608
CF36 045944TAGUA MARILINA             60800000200000+ 00       608
C235 045947ZARATE EMILIA DAIANA       60800000540000+ 00       608
0736 045950CORDOBA MELISA AYALEN      60800000550000+ 00       608
C235 045982DEMIANIUK LILIANA MICAELA  60800000333333+ 00       608
CF35 045983ESTRADA CAROLINA CARLA GABR60800000080000+ 00       608
1336 045986FERNANDEZ PALACIOS ARACELI 60800000107900+ 00       608
C436 045992GONZALEZ GISELLA ISABEL    60800000050000+ 00       608
1335 045996LEGUIZAMON BRENDA ANAHI    60800000092100+ 00       608
C735 046008OLGUIN KAREN MILENA        60800000180000+ 00       608
1335 046021SELTENREIT GISELA PAOLA    60800001129700+ 00       608
SC35 046117IRIBARREN LUIS IVAN        60800001100000+ 00       608
1935 046205VILLEGAS LUIS MIGUEL       60800000370250+ 00       608
DS35 046208ZALAZAR JOSE ANTONIO       60800001400000+ 00       608
C235 046209ZEGARRA JAVIER             60800000285000+ 00       608
DS18 046278CEBALLOS CAPDEVILA JUAN MAR60800000532667+ 00       608
C217 046286DURAND NICOLAS HERNAN      60800000180000+ 00       608
1918 046321RIOS SILVANA MARISOL       60800000131400+ 00       608
CF17 046341BIRARELLI VICTOR GABRIEL   60800000168000+ 00       608
C717 046347ROJAS HELEN CAMILA         60800000450000+ 00       608
DT17 046348VAZQUEZ CAROLINA XIOMARA   60800000583400+ 00       608
C235 046353NIZ PAOLA GISELA           60800000450000+ 00       608
RP35 046359ACOSTA SABRINA MAGALI      60800000815383+ 00       608
DN35 046367CODEGA JAVIER ALBERTO      60800000346475+ 00       608
1917 046393GONZALEZ ARACELI MARCELA   60800000045000+ 00       608
C418 046407BARBONA MARTINEZ FLORENCIA 60800000570000+ 00       608
1135 046424CANDIA ARIAS KEILA DANIELA 60800000120000+ 00       608
1135 046442ESPINOSA MARIA BELEN       60800000030000+ 00       608
2535 046471OTERMIN NATALIA VANESA     60800000291684+ 00       608
0635 046483RESTUCCIA ANTONELLA        60800000268500+ 00       608
1335 046489ROMERO FERNANDA MARISOL    60800000922000+ 00       608
3035 046497SANCHEZ ALEJANDRO MARIA    60800000516667+ 00       608
C235 046509ASCONA HERNAN EMMANUEL     60800000490000+ 00       608
C237 046519MARTINEZ JULIETA LAURA     60800000450000+ 00       608
1935 046522REINOSO NICOLAS EZEQUIEL   60800000476925+ 00       608
C235 046526VILLALBA FLORENCIA MICAELA 60800000250000+ 00       608
C135 046597BARONE MARIA NATALIA       60800000578000+ 00       608
C436 046598BENITEZ AILEN JULIANA      60800000165000+ 00       608
C736 046607CIRILLO SOFIA DE LOS ANGELE60800000200000+ 00       608
C435 046608CONENNA IVANNA MARIEL      60800000290000+ 00       608
C435 046610DI BENEDETTO CARLA VICTORIA60800000210000+ 00       608
C735 046611DUTRIA IVANA SOLEDAD       60800000491600+ 00       608
C318 046612EG?EZ LOURDES AYEL?N       60800000700000+ 00       608
C436 046643SORIA CLAUDIA DANIELA      60800000100000+ 00       608
C435 046645VELIZ ANGELINA GRACIELA    60800000320000+ 00       608
0635 046652AMARILLA MAURO EXEQUIEL    60800000089500+ 00       608
C135 046666BOGADO FRANCISCO ESTEBAN   60800000700000+ 00       608
0235 046698FIGUEROA ELIAS EMANUEL     60800000351333+ 00       608
C236 046794LARA SILVANA VANESA        60800000480000+ 00       608
1936 046806AGUIRRE WALTER GABRIEL     60800001533333+ 00       608
C136 046817AYEYI HECTOR EXEQUIEL      60800000166000+ 00       608
1936 046843MAIDANA MARIA DE LOS ANGELE60800000444500+ 00       608
CF36 046923OBREGON FERRARI ALEXIS IGNA60800000350000+ 00       608
DT36 046982ALBARRACIN FRANCINE AGATA  60800000119400+ 00       608
0736 046989AVALOS ANDREA NOEMI        60800000010800- 00       608
C236 047034LOMBARDINI ROMINA SOLEDAD  60800000372900+ 00       608
C236 047057PACHECO DAIANA NATALIA     60800000293825+ 00       608
C236 047062QUINTEROS DANIELA JACQUELIN60800000400000+ 00       608
C436 047076VIVAS LARA NAIR            60800000430000+ 00       608
CF36 047150CASTRO YANINA EDITH        60800000560000+ 00       608
EC36 047151CINAT PABLO                60800001482000+ 00       608
1135 047157MERLO SILVANA HAYDEE       60800000622500+ 00       608
C435 047158PAREDES SILVANA PATRICIA   60800000050000+ 00       608
C435 047159PAZ CARLA CARINA           60800000260000+ 00       608
C435 047164ALVEZ CECILIA ELISABETH    60800000100000+ 00       608
1436 047183GONZALEZ DAIANA ANDREA     60800000050000+ 00       608
C418 047211GOMEZ IGARZA BIANCA NAIMID 60800001033333+ 00       608
1518 047219JOSE JENNIFER NICOLE       60800000240000+ 00       608
C518 047221LIQUIN MARIA FERNANDA      60800000400000+ 00       608
0418 047226MANSILLA GUTMAN NAHUEL MAXI60800000280000+ 00       608
1118 047251SANTILLAN GABRIEL FEDERICO 60800000060000+ 00       608
C718 047277SANTROVICHI SOFIA ELIZABETH60800000135000+ 00       608
2518 047293ROMAN DAVID NAHUEL         60800000289965+ 00       608
2136 047309CORDOBA VANESA BEATRIZ     60800000759333+ 00       608
EC36 047346SUPPA MICAEL NATAN         60800001012075+ 00       608
C636 047390ALVEZ MARIANO ALEJANDRO    60800000638500+ 00       608
C636 047418LOPEZ AGUSTIN MARIANO      60800000050000+ 00       608
1936 047464LIQUITAY PABLO ADRIAN      60800001400000+ 00       608
C736 047526DE LOS SANTOS MAIRA SOLEDAD60800000110000+ 00       608
CF36 047530ESCOBAR SABRINA BELEN      60800000080000+ 00       608
C736 047547LEGELEN BRENDA AGUSTINA    60800000114000+ 00       608
C436 047549LEIVA GISELA YANINA        60800000050000+ 00       608
1936 047576ACOSTA JUAN MANUEL         60800000400000+ 00       608
1936 047590ARIAS MARTIN ARIEL         60800000516667+ 00       608
1936 047607CARES GERARDO CATRIEL      60800000238800+ 00       608
1936 047686MENDEZ EXEQUIEL RAMON      60800000141000+ 00       608
1936 047712TREJO LUCAS OSVALDO        60800000332500+ 00       608
1736 047775LAFUENTE CAROLINA BELEN    60800000173500+ 00       608
2536 047779ARCE ANDREA ROXANA         60800000940900+ 00       608
1436 047824ANCALEPI GONZALEZ ANDRES SE60800000468750+ 00       608
1436 047919VIDAL JOSE ISMAEL          60800000312500+ 00       608
C336 047956LEIVA DANIELA ALEJANDRA    60800000330000+ 00       608
C336 047973SANDOBAL NELIDA DEL VALLE  60800000326667+ 00       608
C336 047975SOTO LUIS EDUARDO          60800000560000+ 00       608
C536 048004MIRANDA ANTONELLA MARIEL   60800000120000+ 00       608
1736 048022ACOSTA ANGELA BEATRIZ      60800000059000+ 00       608
C636 048077VAZQUEZ MATIAS ALBERTO     60800000050000+ 00       608
C636 048078YACHUK CARLOS ROBERTO      60800000025000+ 00       608
C636 048082LARA ALEJANDRO EDUARDO MIGU60800000025000+ 00       608
0436 048086BORTHIRY MARIA PAULA       60800000250000+ 00       608
0636 048136TABORDA JONATHAN FABIAN AND60800000310000+ 00       608
1336 048167BASSA JACQUELINE           60800000221500+ 00       608
1336 048168BENITEZ AGUSTINA DENISE    60800000080800+ 00       608
1336 048171GOMEZ CORREA VICTORIA      60800000026600+ 00       608
1336 048172QUINTERO MARIA DE LOS ANGEL60800000040700+ 00       608
1536 048179BARRIOS NICOLAS EDGARDO    60800000060000+ 00       608
1536 048183SABADINI FRANCO EXEQUIEL   60800000060000+ 00       608
1636 048187BOGADO ALMA VERONICA       60800000300000+ 00       608
1636 048188BRAVO LUCIANA INES         60800000300000+ 00       608
1636 048195MANSILLA GUSTAVO EXEQUIEL  60800000300000+ 00       608
2236 048207ESTEVEZ CHACANA JOSE IGNACI60800000300000+ 00       608
2536 048209BIANCHI MATIAS EMANUEL     60800000934597+ 00       608
0636 048210CABRERA CYNTHIA NOEMI      60800000300000+ 00       608
2536 048211DOMINGUEZ DAIANA ELIZABET  60800000225453+ 00       608
C718 048233ALFARO MATIAS GABRIEL      60800000090000+ 00       608
C218 048241CASERES CORNEJO BALEN NOELI60800000490000+ 00       608
C118 048242CASTILLO CAMILA GISELLE    60800000090000+ 00       608
DT18 048278MENA SEBASTIAN BRIAN       60800000117600+ 00       608
1918 048297ROMEO RUGGERO JOAQUIN      60800000096375+ 00       608
C218 048303SAUCEDO DAIANA DENISE      60800000445000+ 00       608
DN18 048317CAMPOS MACARENA SOLEDAD    60800000966000+ 00       608
3518 048328SOTO FERNANDO ARIEL        60800000300000+ 00       608
C418 048329TREVIZAN AGUSTIN DAMIAN    60800000360000+ 00       608
1918 048333BANEGAS AGUSTIN BENITO     60800000683333+ 00       608
OS18 048343RAMIREZ JULIAN NAHUEL      60800000650000+ 00       608
C137 048360PAEZ MICAELA YAEL          60800000341167+ 00       608
DN37 048363GOMEZ JAQUELINE ELISABET   60800000300000+ 00       608
C418 048429AGUIRRE LOURDES ANNA       60800000050000+ 00       608
1118 048454GONZALEZ MARIANGELES ANDREA60800001500000+ 00       608
C718 048466MERELES SANTIAGO NAHUEL DAV60800000090000+ 00       608
3518 048472PALACIOS MAGALI ITATI      60800000200500+ 00       608
0618 048476PORCO MAMANI SORAYA BELEN  60800000400000+ 00       608
SC18 048482SEGURA ARIANA DENISE       60800000190000+ 00       608
1618 048483SERRANO SALVADOR JAVIER HER60800000300000+ 00       608
CF18 048490CARDOZO DECOUD SOFA AILEN 60800000160000+ 00       608
1218 048491FLEITA DAIANA SOLEDAD      60800000800000+ 00       608
DN18 048496SANCHEZ IVAN RODRIGO       60800000313500+ 00       608
C618 048497SOTELO CELESTE MICAELA     60800000417500+ 00       608
C418 048498VILLARREAL SABRINA AYEL?N  60800000413000+ 00       608
EC37 048501TOSINI SANTIAGO IGNACIO    60800001708500+ 00       608
DT37 048508LEDESMA CINTHYA DANIELA    60800000101325+ 00       608
CF37 048512PINEYRO MARIA FERNANDA     60800000180000+ 00       608
EC37 048513GONZALEZ EMANUEL           60800000590400+ 00       608
1937 048523ACOSTA DYLAN NATANAEL      60800000350000+ 00       608
C236 048525ACU?A DYLAN ALFREDO        60800000352000+ 00       608
C237 048528AGUAYO MARIA GUADALUPE     60800000155000+ 00       608
0437 048533ALFONZO ALE JOAQUIN ALEXIS 60800000583667+ 00       608
C237 048556AYALA EDUARDO EZEQUIEL     60800000507000+ 00       608
C636 048580BRAVO DIEGO FABRICIO       60800001291000- 00       608
0236 048581BRAVO RICARDO SEBASTIAN    60800000720000+ 00       608
1937 048596CA?ETE DAVID ADRIAN        60800000893333+ 00       608
C636 048598CARBALLO ENZO ANDR?S       60800000702857+ 00       608
DN36 048600CARDOZO BRITEZ FERNANDO EZE60800000430500+ 00       608
C436 048617CORREA DEBORAH ESTEFANIA   60800000100000+ 00       608
DT36 048660FLORES FLORENCIA MAGAL?    60800000357950+ 00       608
C436 048670GIMENEZ ROCIO NADIN        60800000310000+ 00       608
C436 048723LOBOS MAYRA BELEN          60800000100000+ 00       608
C237 048741MAJUL MARIEL               60800000040000+ 00       608
C236 048755MEDINA PAULA DE LOS ANGELES60800000115000+ 00       608
C236 048767MONTERO MAZA BRAIAN ALEXIS 60800000386250+ 00       608
0536 048773MORON RODRIGO JAVIER       60800000381250+ 00       608
C236 048777MU?OZ NORA BEATRIZ         60800000115000+ 00       608
2136 048782NU?EZ NICOLAS SANTIAGO     60800000323750+ 00       608
DS37 048786OJEDA DIEGO EMANUEL        60800000323750+ 00       608
1536 048789OLIVERA EMANUEL ERMELINDO  60800000336250+ 00       608
C237 048790ORIBE JUAN JOSE            60800000323750+ 00       608
C537 048791OROZCO GOMEZ NAHUEL        60800000373750+ 00       608
C436 048793OTAZO ROCIO MARIEL         60800000360000+ 00       608
C637 048794OVIEDO RODRIGO JAVIER      60800000323750+ 00       608
C637 048797PAEZ QUIROZ NICOLAS GUSTAVO60800000323750+ 00       608
DN37 048799PALACIO DIEGO HERN?N       60800000323750+ 00       608
0236 048800PALOMINO RODRIGO DAMIAN    60800000323750+ 00       608
0236 048801PALOMINO SANTIAGO MARIANO  60800000386250+ 00       608
C537 048802PAREDES MAX KEVIN          60800000323750+ 00       608
1136 048803PARRA CINTHIA VIVIANA      60800000050000+ 00       608
0636 048804PARRA MATEO LAUTARO        60800000323750+ 00       608
DS37 048805PARRA MIGUEL ALEJANDRO     60800000381000+ 00       608
1936 048806PATI?O GERARDO FACUNDO     60800000323750+ 00       608
C636 048807PATRON SANTIAGO EMANUEL    60800000241250+ 00       608
0236 048808PEDRIDO LEANDRO JOAQUIN    60800000322750+ 00       608
2136 048812PERCHLIK GERARDO ADRIAN    60800000323750+ 00       608
C237 048814PEREYRA JUAN CRUZ          60800000323750+ 00       608
C436 048816PEREZ CLAUDIO NICOL?S      60800000323750+ 00       608
C537 048821PETZ IGNACIO GABRIEL       60800000323750+ 00       608
C636 048827QUI?ONES PATRICIO GASTON   60800000386250+ 00       608
C636 048829RAMIREZ ALEJANDRO GABRIEL  60800000323750+ 00       608
C236 048833REINAGA BRIAN PAUL         60800000323750+ 00       608
C137 048835RENOLDI SEGUI PEDRO AGUSTIN60800000336250+ 00       608
C136 048839RIO OJEDA CARLOS MATIAS    60800000700000+ 00       608
C236 048846RODRIGUEZ JUAN DIEGO       60800000348667+ 00       608
C236 048850ROLDAN GABRIEL ALEJANDRO   60800000506000+ 00       608
C236 048856ROMERO MAXIMILIANO DAVID   60800000323750+ 00       608
3437 048862SALAZAR ABEL MARCELO       60800000323750+ 00       608
2136 048863SALDA?A BANEGAS LUCA FABIAN60800000748750+ 00       608
C236 048864SALINA LUCAS EZEQUIEL      60800000385250+ 00       608
0637 048865SANCHEZ CAROLINA ELIZABETH 60800000300000+ 00       608
C236 048867SANCHEZ FEDERICO EZEQUIEL  60800000386250+ 00       608
C236 048869SANCHEZ MAXIMILIANO DAVID  60800000323750+ 00       608
0236 048870SANCHEZ TOMAS JAVIER       60800000323750+ 00       608
0236 048880SERRANO ALAN JOEL          60800000322750+ 00       608
C637 048886SKINDER EDUARDO FABIAN     60800000323750+ 00       608
C237 048898TOKAYUK ANA LUZ            60800000300000+ 00       608
1936 048916VIERA ALEXIS EZEQUIEL      60800000142200+ 00       608
C237 048918VILLALBA CRISTIAN ALBERTO  60800000323750+ 00       608
OS37 048921YAFFAR ALFREDO ALEJANDRO   60800001223750+ 00       608
0637 048963HEREDIA GEORGINA ELIZABETH 60800000089500+ 00       608
C237 049007DAMONTE STEFANIA EDITH     60800000450000+ 00       608
1537 049008LICERA PAMELA ALEJANDRA    60800000970000+ 00       608
C237 049052VALDEZ CINTIA DONINA       60800000450000+ 00       608
0637 049073ABELDANO NADIA ANAHI       60800000319000+ 00       608
C637 049209LOPEZ YANINA VANESA        60800000450000+ 00       608
1537 049225RAMOS VIVIANA BEATRIZ      60800000060000+ 00       608
1537 049245AGUAYO MARIELA DEL ROSARIO 60800000060000+ 00       608
1337 049323ESPINOSA FLORENCIA F?TIMA  60800000026600+ 00       608
C537 049407OLIVERA TAMARA LEYLEN      60800000400000+ 00       608
C237 049441ROCCHETTI CHRISTIAN IVAN   60800000450000+ 00       608
C437 049459SAYAVEDRA ELIANA VANESA    60800000210000+ 00       608
C137 049465SMIDT CARLOS MAXIMILIANO   60800000396667+ 00       608
C437 049468SOSA SILVANA NOELIA        60800000050000+ 00       608
EC37 049500BAREIRO ANASTACIA SOL      60800000498125+ 00       608
EC37 049501BENIGNO AYELEN ORIANA      60800001239025+ 00       608
EC37 049503ENRIQUEZ ROCIO BELEN       60800000050000+ 00       608
EC37 049505MATEO AGUSTINA ROCIO       60800000413750+ 00       608
EC37 049507ORTIZ SEBASTIAN            60800000660000+ 00       608
EC37 049509SOSA MARCIA LUCIANA        60800000325000+ 00       608
EC37 049512VELARDE VALERIA MILAGROS   60800000267200+ 00       608
1537 049528CHILKIEWICZ ANDREA ALEJANDR60800000120000+ 00       608
1337 049535GARCIA LARRAZABAL SOLANGE A60800000272000+ 00       608
0437 049578VILLA LORENA VERONICA      60800000850000+ 00       608
DN37 049588GARMENDIA TAMARA ANDREA    60800001016667+ 00       608
DN37 049594NU?EZ FELIX JAVIER         60800001000000+ 00       608
1937 049596PEREYRA CARLOS JOSE        60800000929825+ 00       608
C437 049600SOSA CINTIA ELIZABETH      60800000210000+ 00       608
C437 049602TERCEROS ROSANA RAQUEL     60800000300000+ 00       608
DN37 049619GOMEZ POGGIO MARIA TERESA  60800000095000+ 00       608
C237 049638MURANO CAMILA ABRIL        60800000450000+ 00       608
C437 049702BUSTOS ROCIO ALDANA        60800000240000+ 00       608
C237 049727GOMEZ LUDMILA BELEN        60800000490000+ 00       608
2537 049731HERRERO JEREMIAS           60800000375667+ 00       608
DN37 049732HIDALGO ROSAURA RAQUEL     60800000296000+ 00       608
2537 049765PORTILLO SILVIO EMMANUEL   60800000481922+ 00       608
1337 049771RODRIGUEZ GOMEZ VALENTINA  60800000027100+ 00       608
0537 049777SALAZAR MARTINA BELEN      60800000060000+ 00       608
