DS32 035652LEZCANO OSVALDO JAVIER     70700000038333+ 00       707
0215 037721MARTINEZ JORGE DANIEL      70700000118580+ 00       707
0633 038327VILLALBA JONATHAN MARTIN   70700000031311+ 00       707
C636 039730TORRES SEBASTIAN HUMBERTO  70700000041577+ 00       707
C636 047432SCAREL NICOLAS NAHUEL      70700000038586+ 00       707

