DN10 025716MEDINA RAUL EDUARDO        60400000036900+ 00       604
C230 031444FERNANDEZ ESTEBAN EDUARDO  60400000036900+ 00       604
DT31 031743OJEDA JORGE GABRIEL        60400000036900+ 00       604
OS30 031854GAUNA NATALIA ELISABETH    60400000036900+ 00       604
RP30 031874ORTIZ CLAUDIA ALEJANDRA    60400000036900+ 00       604
OS31 032488TRUSZKOWSKI JUAN PABLO     60400000036900+ 00       604
0231 032704JUAREZ OSVALDO DANIEL      60400000036900+ 00       604
DS13 032993AQUINO NATALIA ANDREA      60400000036900+ 00       604
CF13 033022MEDINA MIGUEL ANGEL        60400000082800+ 00       604
C731 033190AREVALO ALICIA RAQUEL      60400000082800+ 00       604
DN31 033572MENDEZ MYRIAN ESTELA       60400000036900+ 00       604
RP31 033775PAREDES MARIA FELISA       60400000036900+ 00       604
C131 033865MEDINA DIEGO ARMANDO       60400000036900+ 00       604
DT32 033979PEREYRA KRING MARTIN RAMON 60400000036900+ 00       604
DN32 034066AGUERO LORENA ELIZABETH    60400000128700+ 00       604
0732 034590CARAM SAPORITTI GRISELDA MA60400000036900+ 00       604
C213 034673TERRAZA LORENA MARIELA     60400000036900+ 00       604
C132 034821MARTINEZ ANA MICAELA DEL CA60400000036900+ 00       604
1914 035050KALENIUK CINTHIA ADRIANA SO60400000082800+ 00       604
1132 035586NAIDENOFF DANIEL BENJAMIN  60400000036900+ 00       604
C232 035658LUQUE NESTOR SEBASTIAN     60400000036900+ 00       604
C232 035742RODRIGUEZ PAOLA DE LOS ANGE60400000036900+ 00       604
DN14 036055FRIAS DIEGO HERNAN         60400000082800+ 00       604
DN14 036079MICAELLI JORGE ALBERTO     60400000082800+ 00       604
DT32 036246REYNOSO LILIANA BEATRIZ    60400000128700+ 00       604
DN32 036255ONZARI BODNAR JESSICA ELIZA60400000128700+ 00       604
0233 036256PALACIOS ANALIA ROSAURA    60400000128700+ 00       604
DN32 036370VIERA SUAREZ LORENA VANESA 60400000128700+ 00       604
OS32 036614CROSTA ANA INES            60400000036900+ 00       604
C515 037135MENCIA ALEJANDRO EUGENIO   60400000036900+ 00       604
DN33 037319OLMEDO MARIA VIRGINIA      60400000036900+ 00       604
3233 037542PUSS LAURA GRACIELA        60400000036900+ 00       604
C415 037659FERREYRA NADIA PATRICIA    60400000082800+ 00       604
DT15 037674MAIDANA JUAN CARLOS        60400000036900+ 00       604
1433 037746ANADON RAUL ALBERTO        60400000036900+ 00       604
SC32 037757BARRIOS HECTOR MAXIMILIANO 60400000082800+ 00       604
1433 037966RODRIGUEZ ALEGRE CYNTIA ROM60400000036900+ 00       604
0733 038025REA MARCELA ANDREA         60400000073800+ 00       604
C334 038038BUTOF NANCY MARGARITA      60400000036900+ 00       604
C333 038279LOPEZ SABAO CHRISTIAN JOSUE60400000036900+ 00       604
DN15 038563PEREZ PAWELKOWSKI JULIA VIC60400000128700+ 00       604
DT33 038653BAREIRO PABLO ROBERTO      60400000128700+ 00       604
C233 038730HERRERA NOELIA SOLEDAD     60400000082800+ 00       604
EC33 038932CUEZZO LUIS GUSTAVO        60400000082800+ 00       604
C335 038958GOMEZ SILVA RAMON DARIO    60400000036900+ 00       604
C333 039260ALZOGARAY HECTOR ARNALDO   60400000036900+ 00       604
C334 039265ARIAS JIMENA GABRIELA      60400000036900+ 00       604
ES33 039362MEZA DEBORA MARTA LORENA   60400000082800+ 00       604
C434 039407RODRIGUEZ ERICA YANINA     60400000036900+ 00       604
OS33 039540GRINSTEIN SEBASTIAN FEDERIC60400000036900+ 00       604
SC34 039594LEDO KARINA ALEJANDRA      60400000036900+ 00       604
DT15 039701MONZON EZEQUIEL DAVID      60400000128700+ 00       604
C334 040138ROJAS GUSTAVO ALEJANDRO    60400000036900+ 00       604
DN16 040366GOMEZ FEDERICO GABRIEL     60400000036900+ 00       604
SC34 040439ARECHABALA ANA LAURA       60400000174600+ 00       604
DN34 040774CASTRO LUCIA CECILIA       60400000036900+ 00       604
DN16 040927DUARTE JACQUELINE EDITH    60400000082800+ 00       604
SC34 041526CACERES EVELIN YAMILA      60400000082800+ 00       604
CF34 041668TRUSZKOWSKI GABRIEL ANTONIO60400000036900+ 00       604
0216 042572CORONEL JUAN DANIEL        60400000036900+ 00       604
SC35 043062ALFONSO DAVID MARTIN       60400000128700+ 00       604
1235 043239LUCERO NADIA PRISCILA      60400000036900+ 00       604
DT35 043360LERA LOREANA BELEN         60400000128700+ 00       604
0834 043652ESPINOSA SOFIA DIMPNA NAYME60400000036900+ 00       604
C235 043813VILLANOVA GABRIELA SOLEDAD 60400000036900+ 00       604
DN35 043967SUAREZ FLORENCIA KARINA    60400000174600+ 00       604
DN35 044073FELIX LORENA MARICEL       60400000036900+ 00       604
1935 044124DEMITRI EDIT NOEMI         60400000128700+ 00       604
SC35 044168ACEVEDO FLORENCIA JIMENA   60400000082800+ 00       604
1935 044507BAZAN JUAN ALEJANDRO       60400000128700+ 00       604
DN35 044575MICELI ROCIO DEL CIELO     60400000128700+ 00       604
C235 044743ORTIZ JAQUELINE ELIZABETH  60400000128700+ 00       604
C235 044854TOMADIN CINTHIA SOLEDAD    60400000036900+ 00       604
DN35 045060CABRERA CARLOS DANIEL      60400000036900+ 00       604
1935 045365MUNOZ PAULA DAIANA         60400000174600+ 00       604
SC35 045556BENITEZ SABRINA SOLEDAD    60400000036900+ 00       604
DN18 045858SARABIA MARIA BELEN        60400000036900+ 00       604
C335 045974ARROYO ANDREA LILIANA      60400000036900+ 00       604
DN35 046557MENES GLORIA JACQUELINE    60400000082800+ 00       604
EC36 046805GRIEGO STEFANIA GISELA     60400000036900+ 00       604
C236 046912MEDINA AXEL EZEQUIEL       60400000174600+ 00       604
SC36 046913MEDINA LEONARDO JAVIER     60400000266400+ 00       604
SC36 047063RETAMAR ANALIA ADRIANA     60400000036900+ 00       604
CF36 047072TOMADIN ROC?O ANAH?        60400000036900+ 00       604
DN36 047476OTRANTO BRENDA SOLEDAD     60400000082800+ 00       604
DT18 048283ONTIVERO CAMILA BELEN      60400000036900+ 00       604
EC37 048513GONZALEZ EMANUEL           60400000082800+ 00       604
DT36 048660FLORES FLORENCIA MAGAL?    60400000128700+ 00       604
DN37 049398MONTECINOS COLQUE MAXIMILIA60400000174600+ 00       604
DS37 049910AMARILLA SILVINA MARIANEL  60400000036900+ 00       604
ES37 049914ARAGON JOSEFINA MARTA      60400000082800+ 00       604
C237 049935BENITEZ LUIS ENRIQUE       60400000036900+ 00       604
DN37 049938BLADILO HUGO SEBASTIAN     60400000082800+ 00       604
C237 049946CAMIO DIAS PABLO JAVIER    60400000082800+ 00       604
C137 049947CANTERO HERNANDEZ ARIEL RAM60400000036900+ 00       604
0637 049957CHAVEZ JUAN PABLO          60400000036900+ 00       604
1237 049962COLMAN JUAN ARIEL          60400000082800+ 00       604
DN37 049965CORDOBA GONZALO MART?N     60400000036900+ 00       604
C137 049966CORREA WALTER DANIEL       60400000082800+ 00       604
C537 049970DIAZ CRISTINA SOLEDAD      60400000036900+ 00       604
C237 049971DIAZ WALTER NICOLAS        60400000128700+ 00       604
0237 049975ESCOBAR JUAN MANUEL        60400000128700+ 00       604
DN37 049977ESQUIVO MARTIN FEDERICO    60400000036900+ 00       604
C137 049985FERNANDEZ MELANY TALIA     60400000036900+ 00       604
C537 049986FERREYRA ROCIO AYELEN      60400000128700+ 00       604
0237 049987FIGUEREDO FABIO            60400000082800+ 00       604
0237 049988FIGUEROA LEANDRO LEONEL    60400000036900+ 00       604
ES37 049990FLORENTIN ACEVEDO PAMELA   60400000036900+ 00       604
RP37 049993FRAGA DANIEL ALBERTO       60400000082800+ 00       604
RP37 049996FUENTES ACOSTA MARIA FLOREN60400000128700+ 00       604
CF37 050001GARCIA ROMINA GABRIELA     60400000036900+ 00       604
AI37 050011GONZALEZ ANA LUISA         60400000036900+ 00       604
C237 050017GRANEROS CARLOS RICARDO    60400000036900+ 00       604
C737 050020HERMOSA VIVIANA BEL?N      60400000128700+ 00       604
0237 050025JUAREZ MARIA BELEN         60400000082800+ 00       604
DS37 050027LAWNY FRANCO               60400000128700+ 00       604
C237 050035LOBO YOSELI MARIA ROSA     60400000082800+ 00       604
0637 050044MARTINEZ ESMERALDA ANALIA  60400000036900+ 00       604
C137 050048MARTINO ELIANA ROCIO       60400000036900+ 00       604
C137 050062NAIDENOFF IGNACIO FACUNDO  60400000036900+ 00       604
C437 050066OJEDA MAYRA ROC?O          60400000128700+ 00       604
SC37 050068ORUETA CAMILA DAIARA       60400000174600+ 00       604
C137 050072PALADINO PABLO NAHUEL      60400000128700+ 00       604
C137 050073PALMA NICOLAS ALBERTO      60400000128700+ 00       604
3437 050078PEREZ LUCILA IVON          60400000082800+ 00       604
AI37 050094REZQUIN MARIELA BEATRIZ    60400000036900+ 00       604
1937 050104ROSTAN DAIANA MACARENA     60400000128700+ 00       604
ES37 050117SOSA GUSTAVO YAIR          60400000082800+ 00       604
2137 050121TOLEDO FRANCISCO GABRIEL   60400000036900+ 00       604
0637 050128VELAZQUEZ MAXIMILIANO ALEJA60400000036900+ 00       604
C537 050129VENTURA NICOLAS LEANDRO DAN60400000036900+ 00       604
C237 050133VILLAGRA RODRIGO MARTIN    60400000174600+ 00       604
C537 050134VILLALBA ERNESTO ADRIAN    60400000036900+ 00       604
2137 050135VILLALBA HECTOR EMMANUEL   60400000036900+ 00       604
C137 050136VILLALBA LUCAS EMANUEL     60400000036900+ 00       604

