AI11 029282SALAZAR RAUL ALEJANDRO     61800000321606+ 00       618
DN11 029810SANCHEZ CRISTIAN JAVIER    61800000745437+ 00       618
DS11 030040GONZALEZ ROQUE ADRIAN      61800000782870+ 00       618
OS11 030044MALICH PABLO ELISEO        61800003311047+ 00       618
EP11 030047PAIVA GRISELDA ANALIA      61800000210715+ 00       618
DN30 030296MURANO JUAN JOSE           61800000402226+ 00       618
SC30 030802OVEJERO ESTEBAN NESTOR     61800000810539+ 00       618
0233 031065CENTURION ANDRES EDUARDO   61800000328711+ 00       618
0230 031118GOMEZ DIEGO MARTIN         61800000866396+ 00       618
DN12 031322FIGUEROA TRABADO JOSE LUIS 61800001599286+ 00       618
RP30 031520NAHIM ALDANA OFELIA        61800000214839+ 00       618
DS31 031584BRAVO FABIAN GERARDO       61800000974901+ 00       618
OS31 031872OCHOA SANDRA VALERIA       61800000319614+ 00       618
OS30 032009ADORNO MARIANO ANDRES      61800000127723+ 00       618
OS13 032055JARA MARCELO FABIAN        61800006314559+ 00       618
C431 032085ROLDAN JULIO RAUL          61800000726678+ 00       618
0231 032261MERCALI FERNANDO ARIEL     61800001116047+ 00       618
RP31 032511RANDAZZO GISELA NOEMI      61800000412547+ 00       618
DS31 032639BIRARELLI CARLOS OMAR      61800001707454+ 00       618
0231 032655CARDOZO RAUL ANSELMO       61800001128052+ 00       618
0231 032841ACEVEDO MARCOS ELIAS       61800002898245+ 00       618
DS15 032889MEDINA RAUL ALEJANDRO      61800000129936+ 00       618
OS15 032907REYES LEONEL ISAAC         61800001629044+ 00       618
OS13 033058MUNOZ GASTON ISMAEL        61800000821407+ 00       618
C416 033100DIAZ SERGIO ARIEL          61800000291143+ 00       618
OS31 033157PONCE MAXIMILIANO ERNESTO  61800000591693+ 00       618
DS15 033244SOSA SERGIO DANIEL         61800000123882+ 00       618
OS14 033291SERVAT FRANCO WALTER HERNAN61800002185259+ 00       618
OS15 033341FLORES MARIANA VERONICA    61800000544110+ 00       618
OS14 033448GUTIERREZ SANDRO ALBERTO   61800000346170+ 00       618
DS31 033457BAREIRO WALTER RAMON       61800000854874+ 00       618
0231 033587VARGAS LAURA SOLEDAD       61800000408945+ 00       618
OS32 033655VARELA NAGORE SILVANA MYRIA61800006288485+ 00       618
DT32 033988VALLEJO CLAUDIO DANTE      61800000529877+ 00       618
C213 034089ALCARAZ ILIANA MARIANELA   61800001118931+ 00       618
C432 034159BORGES SILVIA MARCELA      61800000369144+ 00       618
0215 034223OLMEDO NILDA CECILIA       61800000430561+ 00       618
DS31 034316FERNANDEZ DANIEL GUSTAVO   61800003214199+ 00       618
EC32 034403FIORENTINO BUZARQUIZ CESAR 61800000370990+ 00       618
C132 034412DI MASI CRISTIAN NORBERTO  61800002036480+ 00       618
C732 034642MORENO ANA VALERIA         61800000352170+ 00       618
OS15 034665COCCIOLO MARIA VICTORIA    61800000139288+ 00       618
C432 034694GREPACHOK ANITA ISABEL     61800000597258+ 00       618
OS32 034779INOSTROZA MUNOZ VALERIA SOL61800000719283+ 00       618
C432 034788VARELA CINTIA MERCEDES     61800000180622+ 00       618
C115 034874FRIAS ANTONIO BERNABE      61800000414181+ 00       618
OS32 035022SUAREZ MAZA MONICA ANALIA  61800000814622+ 00       618
DS32 035251PENALOZA GIMENEZ CESAR DAMI61800000325201+ 00       618
C232 035290AGUIRRE CRISTIAN ANDRES    61800000413285+ 00       618
3432 035567ANDINO ANTONIO SEBASTIAN   61800002519617+ 00       618
3432 035569BENITEZ ANA MARIA          61800001240932+ 00       618
OS14 035614CAFFERATA MAURO DANIEL     61800000845968+ 00       618
OS32 035730IBANEZ GABRIELA ALEJANDRA  61800001129388+ 00       618
OS32 035767GARCIA MIGUEL ANGEL        61800001603232+ 00       618
1032 035849BARRIOS RICARDO ABEL       61800000401010+ 00       618
OS14 036101AGUILAR GABRIELA ANABELA   61800000703632+ 00       618
SC32 036133CARDOSO MARIANO ANDRES     61800000433157+ 00       618
C432 036142ERNST GABRIEL ALEJANDRO    61800000171597+ 00       618
0232 036175MERELES RAFAEL RAMON       61800000005859+ 00       618
C132 036178OJEDA MARCELO ALEJANDRO    61800000528999+ 00       618
AS33 036258URQUIZA SILVIA ZULEMA      61800001799967+ 00       618
SC14 036386AVILA CRISTIAN EDUARDO     61800001317243+ 00       618
C433 036607GUERRERO JACINTA           61800000485949+ 00       618
OS32 036614CROSTA ANA INES            61800000142639+ 00       618
C133 036739BRITOS ALEJANDRA LORENA    61800001050213+ 00       618
DN33 036768RASGIDO VANINA EVELIN      61800000990921+ 00       618
0232 036832PEGORARO CESAR WILFREDO    61800001495515+ 00       618
1133 037211CHAMORRO MARIA DE LOS ANGEL61800000170208+ 00       618
C433 037298MAIDANA MARIA LAURA        61800000180622+ 00       618
SC33 037318OLIVEIRA PATRICIA MARIANA  61800000208417+ 00       618
0232 037405BARRIOS LORENZO MARIANO    61800000500195+ 00       618
C733 037465NUNEZ ROSA ISABEL          61800002396901+ 00       618
DS32 037603GONZALEZ ROSANA            61800000737518+ 00       618
OS33 037628MARMOL VERONICA LILIA      61800000239921+ 00       618
DS15 037651CASTRO DIEGO RICARDO       61800000015713+ 00       618
0233 037812GAONA JORGE DANIEL         61800000279987+ 00       618
CF33 037869OZUNA DANTE JAVIER         61800000143345+ 00       618
C132 037942GONZALEZ GLORIA GRACIELA   61800000460398+ 00       618
C434 038033VERA ALDANA SABRINA        61800000329310+ 00       618
OS33 038067SILVA CYNTHIA BEATRIZ      61800001989025+ 00       618
DN34 038119PERALTA MARCELA ALEJANDRA  61800000484129+ 00       618
0233 038123DOMINGUEZ ROMINA ELIZABETH 61800000175080+ 00       618
DS33 038132GUERRERO CRISTIAN ALBERTO  61800000813097+ 00       618
0215 038181RUIZ DIAZ ADAN             61800000473312+ 00       618
C133 038254DUARTE MAURICIO LUIS ALFRED61800000170208+ 00       618
OS33 038375LOMBARDI JORGE GABRIEL     61800001682909+ 00       618
C715 038487CARRIZO VELASQUEZ CINTIA AL61800000363148+ 00       618
OS34 038595RANDAZZO OMAR ARIEL        61800000571388+ 00       618
0233 038662BRAVO GUSTAVO NESTOR JAVIER61800001183301+ 00       618
DS33 038812SILVA MAURICIO OSCAR       61800000484001+ 00       618
0233 038949FLORES ALAN JOEL           61800000783201+ 00       618
DN33 039049ROMERO LEANDRO ESTEBAN     61800001012362+ 00       618
OS15 039235CUEVAS DAVID DARIO         61800001328572+ 00       618
DS33 039359MARTINEZ MAURICIO ANDRES   61800000976724+ 00       618
C117 039479PERALTA MARTINEZ MARIA MACA61800004223169+ 00       618
3434 039907RIOS MIGUEL ANGEL          61800000606432+ 00       618
C234 040043ALCOBA MARIA FLORENCIA     61800001942304+ 00       618
DT34 040117NATELLO JUAN MANUEL        61800000432522+ 00       618
0234 040179MONZON MONICA BEATRIZ      61800000006558+ 00       618
OS34 040210SERGIO VALERIA IRENE       61800000951245+ 00       618
0235 040309TORALEZ ANGEL GABRIEL      61800001310574+ 00       618
1916 040400DUGANDRICH YAMILA NATASHA  61800000253910+ 00       618
OS16 040423DUARTE DAVID EMMANUEL      61800000106367+ 00       618
C234 040443AVALOS MIGUEL ADRIAN       61800000370554+ 00       618
DN34 040475COMERCI AGUSTIN MARIO      61800000479920+ 00       618
OS34 040611ARCE ACUNA FLORIDELMA      61800001229663+ 00       618
RP35 040612BALMER ANDREA ANAHI        61800000336156+ 00       618
EC34 040780ZERDA MELINA DE LOS ANGELES61800001287966+ 00       618
DT34 040896FERNANDEZ JUAN EDGARDO     61800000748165+ 00       618
C117 041007AGUIRRE MARCELO ROBERTO    61800001837898+ 00       618
OS34 041077GOMEZ JONATAN GONZALO      61800000079479+ 00       618
0234 041210VARRICA CLAUDIA ALEJANDRA  61800001424466+ 00       618
DN34 041258PALACIOS AGUILAR CARLOS ERN61800000386584+ 00       618
SU34 041282OPEZZO MAURO HECTOR        61800000121812+ 00       618
OS34 041315GARCIA FINK CARINA ANDREA  61800001302857+ 00       618
C134 041376GOMEZ ROMINA PAMELA        61800000038940+ 00       618
OS34 041541MEZA MELANY NATALIA        61800000970621+ 00       618
C234 041660SISTERNA EDUARDO NICOLAS   61800000143481+ 00       618
OS16 041981JIMENEZ OVELAR PABLA GISELA61800000577085+ 00       618
C134 042065GUTIERREZ CARLOS ANDRES    61800000253303+ 00       618
DN34 042099PANIAGUA TADEO JOSE ALBERTO61800000524791+ 00       618
OS35 042148AGUIRRE GISELLE LORENA     61800000722065+ 00       618
OS34 042451VINCI NOELIA               61800000158988+ 00       618
EC35 042459MARZULLO MATIAS RAMON      61800001140770+ 00       618
EC34 042467GOMEZ LLULL MAILEN ROCIO   61800001304269+ 00       618
DT34 042553GARIN SANTIAGO EDGARDO     61800001228201+ 00       618
C416 042564AGUIRRE EMILIO JOSE        61800001091985+ 00       618
DT34 042640ORTIGOZA AGUSTIN MARCELO   61800000122957+ 00       618
C734 042713CASTILLO ROMINA SOLEDAD    61800000122320+ 00       618
C437 043107BESTOSO CINTHIA MARIA NOE  61800001347925+ 00       618
OS35 043108BIRARELLI MARIA LUJAN      61800000439844+ 00       618
3434 043186CHAPARRO JONATHAN IVAN     61800000242129+ 00       618
OS35 043352DE TOMASO AMANCAY MARIANA  61800000084095+ 00       618
2134 043422BENITEZ ANALIA HAYDEE      61800000390720+ 00       618
C235 043467LEZANA RICARDO ESTEBAN     61800000146140+ 00       618
C235 043619BENITEZ MAURICIO RAUL      61800001016345+ 00       618
C135 043694IRUNGARAY JOSE HERNAN      61800000382743+ 00       618
SC35 043810VILLAGRA JONATAN DAVID     61800000949040+ 00       618
CF35 043821ZARZA AILEN EVELYN         61800000149274+ 00       618
EP35 043972VINAS LILIANA INES         61800001073381+ 00       618
DN35 044140MARTIN JULIETA PAULA       61800000411030+ 00       618
C235 044270GUERRA MAXIMILIANO JESUS   61800000043276+ 00       618
OS18 044426DI PASQUALE GRACIELA CRISTI61800000100010+ 00       618
OS35 044493SOLANO PATRICIA NOELIA     61800000039799+ 00       618
OS36 044503AGNUS MATIAS JAVIER        61800001101717+ 00       618
CF35 044520GONZALEZ JAVIER ANDRES     61800001241662+ 00       618
C235 044727MOLINA ADELIO DAMI?N       61800000280020+ 00       618
C435 045073CORIA JOAQUIN EMANUEL      61800000740881+ 00       618
SC35 045088FATTAL GLORIA NATALIA YANIN61800000226576+ 00       618
DS36 045333GARCIA TOPICH RAMIRO SEBAST61800000849457+ 00       618
SC35 045551BARAGIOTTA EUNICE BETSABE  61800001802456+ 00       618
DN35 045751PASSALACQUA MAURO JAVIER   61800003771825+ 00       618
OS35 045888GOLDMAN BARRIENTOS INGRID S61800001011237+ 00       618
OS35 045925DETTONI LEGUIZAMON SOFIA MA61800000479920+ 00       618
OS35 045935OLIVERA PATRICIA SOLEDAD   61800000312483+ 00       618
DN35 046254ALONSO SANTIAGO IGNACIO    61800002140255+ 00       618
C235 046437CORREA MARCOS GERMAN FABRIZ61800000296813+ 00       618
DN35 046493RUIZ MARIA GABRIELA        61800000389479+ 00       618
OS35 046634PINEDA ANA FLORENCIA       61800000097139+ 00       618
SC36 046813AQUINO JORGE DAVID         61800000263726+ 00       618
C436 047007DE SIMON MARIA LUISA       61800001118769+ 00       618
C236 047079ALDAVEZ GISELLE CECILIA    61800000454343+ 00       618
DN35 047121MATCOVICH NATALIA LORENA   61800000394071+ 00       618
OS18 047270DUARTE BRENDA NOELI        61800000658781+ 00       618
OS36 047482FARIAS JULIETA CAMILA      61800000646558+ 00       618
OS36 047484RODRIGUEZ TAMARA VERONICA  61800000064232+ 00       618
C236 047992DIAZ MAXIMILIANO RODRIGO   61800000755886+ 00       618
DN18 048311VILLAGRA CIELO AILIN       61800000120856+ 00       618
OS18 048367SCAGLIONE FLORENCIA SOLEDAD61800000719359+ 00       618
C137 048624CUENCA SOFIA ALEJANDRA     61800000949040+ 00       618
0237 048949DUARTE SILVINA MACARENA    61800000353879+ 00       618
OS37 048982PUENTES MARIA NOEL         61800000807184+ 00       618
OS37 049012PRIETO RODRIGO ALEJANDRO   61800000085224+ 00       618
OS37 049031GRECO JULIETA BEL?N        61800001011941+ 00       618
OS37 049036MARTINEZ CAROLINA SOLEDAD  61800000547925+ 00       618
OS37 049043PALACIOS ROCIO CECILIA     61800000957522+ 00       618
OS37 049091RODRIGUEZ RAGONE MARIA VICT61800000436355+ 00       618
OS37 049469SOZO?UK KAREN ANDREA       61800000546404+ 00       618
EC37 049501BENIGNO AYELEN ORIANA      61800001137255+ 00       618
C137 049523CAFFERATA NORA BEATRIZ     61800001026916+ 00       618
OS37 049639MURGA LEILA GLADYS         61800000276229+ 00       618
DN37 050231FRANCO LUCIANA VERONICA    61800000084281+ 00       618

