1031 032281PAREDES JOSE RAMON         1000100000261117+ 00     10001
C130 032405CUENCA DANIEL DARIO        1000100000209606+ 00     10001
1132 034543PELYNIO EUGENIO TEOFILO    1000100000250007+ 00     10001
C232 034850BARRAZA ALBERTO ALEJANDRO  1000100001246754+ 00     10001
C132 034936VALLEJOS JOSE LUIS         1000100002463392+ 00     10001
C132 035157ACOSTA JULIO ANTONIO       1000100000407378+ 00     10001
0532 035334VILLARRUEL MARIO ARIEL     1000100000775702+ 00     10001
0815 035615CANDIA FERNANDO GASTON     1000100001237730+ 00     10001
AS32 035752VERON SANDRA KARINA        1000100000684905+ 00     10001
C332 036011GUTIERREZ MARTINEZ JESUS MI1000100000611343+ 00     10001
C614 036061GOMEZ GABRIELA ELIZABETH   1000100000226421+ 00     10001
C414 036083OJEDA VANESA SOLEDAD       1000100001049663+ 00     10001
C215 036092ROMANCZUK ROSA ELISABET    1000100000188887+ 00     10001
ES32 036129BORDON CLAUDIO FABIAN      1000100002167285+ 00     10001
0832 036150GARCIA MARCOS LEONEL       1000100003664016+ 00     10001
1632 036310CHOCOBAR JOSE OMAR         1000100000301479+ 00     10001
1732 036380AMIEL JAVIER ALEJANDRO     1000100005307967+ 00     10001
C132 036384AROVI FACUNDO DANIEL       1000100002857457+ 00     10001
SC14 036386AVILA CRISTIAN EDUARDO     1000100001302559+ 00     10001
0432 036414DESCH CARLOS ALBERTO       1000100001267655+ 00     10001
C132 036540VAZQUEZ ANDREA CRISTINA    1000100001248830+ 00     10001
DT32 036586ABACA GUSTAVO FABIAN       1000100000094175+ 00     10001
0832 036650MONTAGNER LUIS MAURICIO    1000100000547170+ 00     10001
1133 036901DELGADO SERGIO RAUL        1000100002000095+ 00     10001
1332 036977GONZALEZ LUIS EMANUEL      1000100001520068+ 00     10001
CF14 037165SOSA MAXIMILIANO EMANUEL   1000100001089467+ 00     10001
C633 037261CUEVAS RAMON NORBERTO      1000100002338378+ 00     10001
DN33 037595MUZZIO SANDRA LORENA       1000100002768657+ 00     10001
1934 037621LLANOS GAIT MARIA JOSE     1000100000646820+ 00     10001
C233 037753AVALOS JAVIER ALBERTO      1000100001605213+ 00     10001
C433 037754AYALA MATIAS EMANUEL       1000100005558816+ 00     10001
C332 037810FLORES SERGIO FERNANDO     1000100000176537+ 00     10001
C133 037816GAUNA FERNANDO JAVIER      1000100000496260+ 00     10001
C133 037897SANCHEZ GUSTAVO DANIEL     1000100002382800+ 00     10001
0233 038003GODOY GABRIEL ALEJANDRO    1000100000631962+ 00     10001
DN34 038119PERALTA MARCELA ALEJANDRA  1000100001629329+ 00     10001
C433 038288MONZON MARIELA ALEJANDRA   1000100005353996+ 00     10001
1733 038389AQUINO VALERIA ROXANA      1000100006987550+ 00     10001
C133 038391ARREGIN JAVIER ALEJANDRO   1000100001011139+ 00     10001
C733 038720GAZTAMBIDE ALICIA MARGOT   1000100004999996+ 00     10001
1733 038782PIRIS MAURICIO ELOY        1000100003496420+ 00     10001
C433 038832VIZCARRA ANTONIA ELISABETH 1000100001158863+ 00     10001
0833 038925COMAN CLAUDIO ESTEBAN      1000100000283193+ 00     10001
C433 038993LUNA ALEJANDRO ANIBAL      1000100000982674+ 00     10001
2233 039050ROMERO EDUARDO SEBASTIAN   1000100001756854+ 00     10001
C333 039334GUTIERREZ JULIO BENJAMIN   1000100000987551+ 00     10001
SC33 039345LEMES LINDOLFO SEBASTIAN   1000100001261489+ 00     10001
C433 039408RODRIGUEZ EUGENIA ANDREA   1000100000880264+ 00     10001
C534 039619BOSQUE JUAN MANUEL         1000100001092598+ 00     10001
C634 039661BERGONCE DARIO EZEQUIEL    1000100000139806+ 00     10001
1734 039736AGUERO JUAN MANUEL         1000100004881821+ 00     10001
C234 039876NAVARRO CRISTIAN DANIEL JES1000100001694482+ 00     10001
1734 039900QUEIPO CRISTIAN GABRIEL    1000100005115743+ 00     10001
C734 040262OVIEDO MARIANELA           1000100002599994+ 00     10001
1034 040264PAIVA DANIEL ARMANDO       1000100000618943+ 00     10001
C334 040273SALAZAR EVANGELINA PAOLA RE1000100001140789+ 00     10001
C117 040281ZORRILLA EMILCE PAOLA      1000100001156490+ 00     10001
C434 040304MINO CLAUDIA MARIELA       1000100003908747+ 00     10001
0716 040336BENITEZ DIEGO HERNAN       1000100000293323+ 00     10001
C134 040442ARROYO ROBERTO DANIEL      1000100001139635+ 00     10001
1734 040444AVELLANEDA SILVIA VANESA   1000100002061839+ 00     10001
1734 040458BENITEZ RENZO OCTAVIO      1000100000197614+ 00     10001
1534 040520MONGES PATRICIA ALEJANDRA  1000100000559057+ 00     10001
DS34 040559SUAREZ GUILLERMO ERNESTO   1000100000440142+ 00     10001
EC34 040605RUEDA ROBERTO LISARDO      1000100000547786+ 00     10001
C234 040777OLIVA LAURA CECILIA        1000100000954012+ 00     10001
C434 040811FLORENTIN MIRIAM PAOLA     1000100002192198+ 00     10001
EP34 040815INIGUEZ MICAELA SABRINA    1000100002811272+ 00     10001
C734 040825RUIZ MARIA DE LOS ANGELES  1000100000479527+ 00     10001
C434 040889BRITES IRMA ENRIQUETA      1000100000725598+ 00     10001
C117 041007AGUIRRE MARCELO ROBERTO    1000100001579904+ 00     10001
SC34 041402PEREZ SERGIO MANUEL        1000100000663600+ 00     10001
1734 041517SARMIENTO PABLO GABRIEL    1000100002459661+ 00     10001
1734 041861GUTIERREZ JOSE VICTOR      1000100002035000+ 00     10001
C334 041875MARTINEZ PATRICIA BELEN    1000100001043468+ 00     10001
C334 041940ZERPA MARIO EZEQUIEL       1000100000131164+ 00     10001
C134 042034DE LA TORRE MATIAS EZEQUIEL1000100003440701+ 00     10001
2134 042115ROMERO MARCOS EMANUEL      1000100000521701+ 00     10001
0234 042117SALINAS MATIAS ARIEL       1000100000360867+ 00     10001
DS34 042137VAQUERO HECTOR ALEJANDRO   1000100006175420+ 00     10001
1934 042139VELAZCO JONATAN FABIAN     1000100000947943+ 00     10001
0234 042222CABRERA DEBORA CAMILA      1000100000899711+ 00     10001
ES34 042233GONZALEZ CASTELLI MARIELA S1000100006526097+ 00     10001
0234 042383MELGAREJO CRISTIAN RAMON   1000100001316993+ 00     10001
C134 042419ROBLEDO JOAQUIN DAVID      1000100002857195+ 00     10001
DN34 042427SALINAS DIEGO FERNANDO     1000100000430003+ 00     10001
C134 042435SENA RAUL RICARDO          1000100000947943+ 00     10001
C416 042564AGUIRRE EMILIO JOSE        1000100001793844+ 00     10001
C116 042573GAMARRA GERARDO JULIAN     1000100001312512+ 00     10001
DN16 042599CHAMORRO NATALIA ROCIO     1000100004363051+ 00     10001
C534 042714CHAMORRO FERNANDO ALBERTO  1000100000948875+ 00     10001
AP34 042811MARECO MAURO GONZALO       1000100004604333+ 00     10001
ES16 042969REYES LORENA ITATI         1000100001846238+ 00     10001
C535 043019RIQUELMES FERNANDO         1000100001648496+ 00     10001
0635 043070CORRALES ALEXIS MIGUEL     1000100000553937+ 00     10001
C335 043147ABALOS SERGIO ARIEL        1000100001673923+ 00     10001
C535 043157AMARILLA DAVID DANIEL      1000100000575114+ 00     10001
C135 043161ARGA?ARAZ JONATAN SAUL     1000100000539853+ 00     10001
1735 043164AVELLANEDA JUAN CARLOS     1000100000249766+ 00     10001
C235 043418CISNEROS MARIELA LUCIANA   1000100000895690+ 00     10001
AP35 043437BOGGIANO NESTOR DANIEL     1000100001055236+ 00     10001
C135 043457FLORES IVAN ESEQUIEL       1000100005918522+ 00     10001
0235 043654FARIAS CRISTIAN MAXIMILIANO1000100001108615+ 00     10001
C235 043712LUQUIS LOPEZ FEDERICO NICOL1000100000392178+ 00     10001
C635 043716MAITA BARRIONUEVO MATIAS AN1000100000286197+ 00     10001
C235 043763RIZZI MARCELO ALEJANDRO    1000100002428371+ 00     10001
C235 043776SALINAS LUIS ANGEL         1000100008412205+ 00     10001
3235 043824ANADON CLAUDIO MAXIMILIANO 1000100001594721+ 00     10001
C435 043855MAIDANA ROMINA ELIZABETH   1000100001241144+ 00     10001
1935 043906MONZON JESICA ROMINA       1000100004394071+ 00     10001
EC35 043907MONZON SOLEDAD LUJAN       1000100001362036+ 00     10001
C735 043970TORRES MARTA ESTER         1000100006177195+ 00     10001
0535 044019ROSAS LUCAS DAMIAN         1000100002011209+ 00     10001
EC35 044145MENDOZA PATRICIA VANESA    1000100003687347+ 00     10001
1735 044233DE SIMON CARLOS NICOLAS    1000100000373894+ 00     10001
C135 044283LEIVA DARIO NICOLAS        1000100001150614+ 00     10001
C135 044295MARTINEZ ANTONIO           1000100001519313+ 00     10001
C135 044316OLMEDO ESTEBAN ALEJANDRO   1000100000586931+ 00     10001
DS35 044350RODRIGUEZ MATIAS NAHUEL    1000100001334088+ 00     10001
C635 044355ROSSITTO CARLA ALEJANDRA   1000100001503703+ 00     10001
C435 044360SAMANIEGO LUIS MAXIMILIANO 1000100002549883+ 00     10001
0735 044462PEREZ EVELIN LORENA        1000100000696764+ 00     10001
C435 044534RAMO CRISTIAN EMMANUEL     1000100000499340+ 00     10001
C735 044536ROBLEDO RICARDO AGUSTIN    1000100000349177+ 00     10001
C635 044598ALVARENGA ANDREA LORENA    1000100000679182+ 00     10001
1035 044606ARAUJO RICARDO JAVIER      1000100000962785+ 00     10001
SC36 044637CHAPARRO ALEXANDER MAXIMILI1000100000670979+ 00     10001
SC35 044665FLORES CINTIA MELISA       1000100002946493+ 00     10001
C135 044669GALARZA YONATHAN SAMUEL    1000100001042583+ 00     10001
DS35 044705LEDESMA DIEGO EMMANUEL     1000100002483800+ 00     10001
C735 044752PEREIRA CAROLINA ELISABETH 1000100003371556+ 00     10001
SC35 044763RIOS ANGEL ALBERTO         1000100000755115+ 00     10001
C135 044768RODRIGUEZ MARTIN ARIEL     1000100000826977+ 00     10001
C435 044793SOVERON ADRIANA MERCEDES   1000100001674374+ 00     10001
C635 044813VIELMAN JULIAN DAVID       1000100001337258+ 00     10001
1735 044873AYALA ALEJANDRO DANIEL     1000100000781332+ 00     10001
SC35 044900NEMER ANDRES EXEQUIEL      1000100001329720+ 00     10001
1617 045002STROCEN IVAN               1000100001213395+ 00     10001
0235 045050BENITEZ SANTIAGO SEBASTIAN 1000100000966777+ 00     10001
DN35 045096FRANCO LEANDRO HERNAN      1000100000266295+ 00     10001
1735 045111GODOY FLORENCIA SOLEDAD    1000100004775553+ 00     10001
C335 045168ORTIZ DANIEL ALEJANDRO     1000100004573704+ 00     10001
C135 045177PEREIRA GUSTAVO ALDO       1000100000322189+ 00     10001
C635 045216TEVEZ BRUNO SEBASTIAN      1000100000210637+ 00     10001
C135 045221TRNKA MATIAS LIONEL        1000100000308353+ 00     10001
C735 045376VARGAS GISELA ALEJANDRA    1000100000850000+ 00     10001
C535 045405ESCOBAR NELSON ANDRES      1000100000181622+ 00     10001
1535 045530CONLON IVAN ALBERTO        1000100000128592+ 00     10001
C436 045596HERRERA MARIANA CAROLINA   1000100000262416+ 00     10001
C435 045603LEMES MALVINA NOEMI        1000100002399590+ 00     10001
0735 045607MACSEMCHUK CELICA TAMARA   1000100002389050+ 00     10001
C135 045707FERNANDEZ WALTER DAMIAN    1000100002655331+ 00     10001
C635 045724HERENU PEDRO FRANCISCO     1000100002269596+ 00     10001
0735 045730LOPEZ NESTOR MIGUEL GONZALO1000100002676597+ 00     10001
C135 045745NAVARRO JOSE RUBEN         1000100000383435+ 00     10001
C135 045756PERFUMO JORGE ANIBAL       1000100001703442+ 00     10001
C735 045786VAZQUEZ JULIO IVAN         1000100001203371+ 00     10001
1935 045956RAMIREZ  Rocio Magali      1000100006879993+ 00     10001
C736 046017ROMERO ELENA TAHALIA       1000100001553641+ 00     10001
ES35 046018RUIZ DIAZ SILVIA FERNANDA  1000100001817162+ 00     10001
1735 046035AQUINO ALFREDO FACUNDO     1000100002393759+ 00     10001
C135 046058CALISAYA LUCIO ESTEBAN     1000100003137974+ 00     10001
C135 046083FERRARI MAXIMILIANO ROBERTO1000100000307971+ 00     10001
SC35 046140NOGUERA FRANCO DAMIAN      1000100002509643+ 00     10001
C135 046154PETIT EUGENIO FABIAN       1000100000767230+ 00     10001
C217 046286DURAND NICOLAS HERNAN      1000100001561900+ 00     10001
DT17 046348VAZQUEZ CAROLINA XIOMARA   1000100001982356+ 00     10001
DN17 046404VILLALBA EMILIO GABRIEL    1000100001674871+ 00     10001
C436 046620GAUTO ROMINA ANDREA        1000100000422735+ 00     10001
C436 046626MAIDANA STEFANI CAMILA ELIS1000100000759251+ 00     10001
C135 046682CENTURION FEDERICO GABRIEL 1000100000607093+ 00     10001
0235 046719MARTINEZ ANTONIO DE JESUS M1000100001124639+ 00     10001
SC35 046731OCCHIUZZO ALAN ARIEL       1000100001273142+ 00     10001
C136 046751SANTILLAN IVAN EZEQUIEL    1000100003232688+ 00     10001
DS35 046766OSPINA GALLEGO JHONATHAN CA1000100002544452+ 00     10001
C136 046953SEGOVIA FABIAN ANDRES      1000100001011953+ 00     10001
C436 047061PIRIS MARIA JOSE           1000100003508602+ 00     10001
DS36 047189MAIDANA STEFANI CRISTIAN PA1000100005529523+ 00     10001
C436 047308CICCHETTI FERNANDO RAMON   1000100001287078+ 00     10001
DS36 047334ROMERO ROLANDO FELIPE      1000100003243797+ 00     10001
0236 047702SABOLICH EMMANUEL HECTOR IV1000100001586815+ 00     10001
C436 047772SUAREZ LAURA RAQUEL        1000100000466376+ 00     10001
1736 047775LAFUENTE CAROLINA BELEN    1000100001748910+ 00     10001
C636 048026ALVARADO ALANIZ MAXIMILIANO1000100001322835+ 00     10001
C636 048058MEDINA ERICK GABRIEL       1000100001328385+ 00     10001
0536 048098BRAVO ALEJANDRO DANIEL     1000100002386060+ 00     10001
0536 048104LATUF HERNAN ANDRES        1000100004734639+ 00     10001
1636 048186BLANCO HECTOR EMILIO       1000100003131462+ 00     10001
1536 048727LOPEZ MIGUEL DAVID         1000100000827501+ 00     10001
DS37 048783NU?EZ ROSA MARIA GABRIELA  1000100003588137+ 00     10001
1936 048866SANCHEZ CESAR EDUARDO      1000100002777599+ 00     10001

