C230 030893OTAZO MARIA GLORIA         2002700000568958+ 00     20027
DS31 032169CARAM ARIEL CARLOS ELIAS   2002700000720027+ 00     20027
0231 032261MERCALI FERNANDO ARIEL     2002700000299261+ 00     20027
C130 032418GALIMANY CHRISTIAN ENRIQUE 2002700001201995+ 00     20027
C131 033525RECALDE CRISTIAN ALBERTO JE2002700000630024+ 00     20027
3231 034351SANCHEZ ALVARADO JESSICA JO2002700000483768+ 00     20027
C232 034914PRADO CARLOS GABRIEL       2002700000792930+ 00     20027
1732 036531CHAVEZ MONICA BEATRIZ      2002700000247059+ 00     20027
0832 036650MONTAGNER LUIS MAURICIO    2002700000953136+ 00     20027
C132 036736BENEGAS SANDRA CAROLINA    2002700000969786+ 00     20027
1733 036983LUNDGVIST DARI CHRISTIAN   2002700000259660+ 00     20027
DS33 037478PORTILLO CARLOS ADRIAN     2002700000575122+ 00     20027
C132 037854MONTIEL ARIEL ERNESTO      2002700000122855+ 00     20027
C215 038546VERA MARCELA LIDIA         2002700000858182+ 00     20027
1034 039112AYALA NESTOR FREDY         2002700000634998+ 00     20027
2134 039275BRIZUELA DIAZ NESTOR EDGARD2002700000391515+ 00     20027
C234 039754BARBOZA MARCELO FABIAN     2002700000427516+ 00     20027
C134 039862MANGHI DANIEL AGUSTIN      2002700000490518+ 00     20027
0434 040191CHINCA ANA LUZ             2002700000639024+ 00     20027
C234 040474COLQUI SEBASTIAN ALEJANDRO 2002700001066540+ 00     20027
DS34 040559SUAREZ GUILLERMO ERNESTO   2002700000746128+ 00     20027
C134 041648ROCHON ERIC EDGARDO        2002700000908564+ 00     20027
C234 041814BRANDAN NESTOR FABIAN      2002700000463067+ 00     20027
1334 041818CABRAL WILFREDO HORACIO    2002700000463517+ 00     20027
C534 041942CACERES RICARDO JAVIER     2002700000638124+ 00     20027
OS35 042148AGUIRRE GISELLE LORENA     2002700000099454+ 00     20027
C234 042446VERDE FARIAS LUCAS ALEJANDR2002700000151656+ 00     20027
0635 043978AGUERO MARTIN EMANUEL      2002700000148506+ 00     20027
EP35 044794SOVERON LEONARDO ANDRES    2002700000405015+ 00     20027
C636 045633ROJAS FLORENCIA ARACELI    2002700000675025+ 00     20027

