C213 034117ORTEGA CINTHIA VANESA      4014700005430000+ 00     40147
C332 034717MERLO RAUL LEOPOLDO        4014700000530900+ 00     40147
SC32 034886GUERRERO CARLOS OMAR       4014700001743404+ 00     40147
C132 035650LARROZA PEDRO ROLANDO      4014700001502700+ 00     40147
2232 035948VILLARROEL ADRIANA ALEJANDR4014700000453711+ 00     40147
C232 036192SANDOVAL EXEQUIEL DAMIAN   4014700002136693+ 00     40147
0532 036633QUINTREL DANIEL ALBERTO    4014700004246352+ 00     40147
C232 037832LEDESMA VICTOR ALEJANDRO   4014700006732822+ 00     40147
0633 038145MORALES WALTER MARTIN      4014700002685099+ 00     40147
C433 038395BARBOZA VERONICA           4014700005173296+ 00     40147
1616 040418TORRES GASTON RODRIGO      4014700003966366+ 00     40147
CF34 041599GALVAN VICTOR ANDRES       4014700001633552+ 00     40147
C234 042421RODRIGUEZ ISMAEL BENIGNO   4014700001001100+ 00     40147
C234 042446VERDE FARIAS LUCAS ALEJANDR4014700001432468+ 00     40147
0637 043013PASQUALICH ELVIO FERNANDO  4014700000229821+ 00     40147
C535 044037ALFONSO CRISTIAN DARIO     4014700002111311+ 00     40147
2135 044518GARAYO SERGIO ARIEL        4014700000807200+ 00     40147
SC35 044877CAMPODONICO ESTEBAN EZEQUIE4014700005386730+ 00     40147
DN17 044980DUVEN AXEL                 4014700002046554+ 00     40147
0235 045203SAUCEDO MEDINA KEVIN FABIAN4014700002608012+ 00     40147
0635 045472ACOSTA VICTOR EDUARDO      4014700000635521+ 00     40147
C535 046501VALENZUELA KARINA PATRICIA 4014700005510233+ 00     40147
C435 046615FARI?A SABRINA DANIELA     4014700005187257+ 00     40147
SC35 046731OCCHIUZZO ALAN ARIEL       4014700002129327+ 00     40147
DS36 047595BENITEZ FERNANDO EZEQUIEL  4014700002211065+ 00     40147
C236 047694OVEJERO BRIAN DANIEL       4014700002249598+ 00     40147
0536 048106MEDINA FACUNDO EZEQUIEL    4014700001208146+ 00     40147
C637 048534ALTAMIRANO DAIANA MICAELA  4014700000060000+ 00     40147

