C116 035957AGRA NANCY JUDITH          4005000005333135+ 00     40050
0732 036383AREVALO ANTONIO PASCUAL    4005000001794450+ 00     40050
1233 036731ZUBIRI DANIEL OSVALDO      4005000001018479+ 00     40050
1634 039791CORIA JORGE LUIS           4005000001085526+ 00     40050
2218 047253SORIA AGUSTIN ALBERTO      4005000001597828+ 00     40050
C136 048650FERNANDEZ JORGE ANDRES     4005000000620544+ 00     40050

