3431 024078MAIDANA ROBERTO            4005700000000200+ 00     40057
DN10 027572VELARDE JUAN EDUARDO       4005700000000200+ 00     40057
DS13 029513HERRERA RUBEN DARIO        4005700000000200+ 00     40057
DS30 030330SANCHEZ SANTIAGO JAVIER    4005700000000200+ 00     40057
0730 030674ARCE CRISTIAN JAVIER       4005700000000200+ 00     40057
C130 030768IBARRA OSMAR FRANCO        4005700000000200+ 00     40057
SC30 030802OVEJERO ESTEBAN NESTOR     4005700000000200+ 00     40057
3430 030886LUNA BEATRIZ ELIZABETH     4005700000000200+ 00     40057
C230 030893OTAZO MARIA GLORIA         4005700000000200+ 00     40057
C130 031063CAYITA VICTOR ADRIAN       4005700000000200+ 00     40057
C530 031074DIAZ JAVIER OSCAR          4005700003827529+ 00     40057
C430 031077DIEGUEZ ALBERTO JOSE       4005700000000200+ 00     40057
C130 031084ESCOBAR ANIBAL MAXIMILIANO 4005700004288991+ 00     40057
C730 031085ESCOBAR JOSE HECTOR        4005700000000200+ 00     40057
C230 031143LOPEZ ALBERTO ANIBAL       4005700000000200+ 00     40057
CF30 031168MORALES ANGEL GABRIEL      4005700001795224+ 00     40057
0730 031178ORTEGA MARCELO RUBEN       4005700001950258+ 00     40057
C130 031179OSUNA MATIAS LEONARDO      4005700000830528+ 00     40057
C130 031206ROMERO MARIO RAUL          4005700000000200+ 00     40057
EP30 031220SHEARER CARLOS LEONARDO    4005700000000200+ 00     40057
1730 031254VERON GUSTAVO JAVIER       4005700000000200+ 00     40057
1730 031263AHUMADA LAURA CORINA       4005700000000200+ 00     40057
C512 031399BLANCO MARCELO ESTEBAN     4005700000000200+ 00     40057
1730 031448GAUTO ESTEBAN RAMON        4005700000394916+ 00     40057
C630 031450GORDILLO LEONARDO ADRIAN   4005700000000200+ 00     40057
0730 031530SPERONI MONICA MABEL       4005700013985047+ 00     40057
DS31 031584BRAVO FABIAN GERARDO       4005700002885459+ 00     40057
0631 031606CURUHUALA WALTER HUGO      4005700000000200+ 00     40057
C230 031633FLORES DIEGO RAMON MARTIN  4005700000000200+ 00     40057
0631 031648GARCIA RICARDO MANUEL      4005700002781652+ 00     40057
C130 031650GAUNA GUSTAVO FEDERICO     4005700000713808+ 00     40057
1431 031652GHERBI SERGIO JESUS        4005700000000200+ 00     40057
C231 031657GOMEZ DANIEL ALBERTO       4005700000000200+ 00     40057
C231 031710MARTINEZ RAUL ERNESTO      4005700005138001+ 00     40057
C231 031770RETAMOZO ANTONIO FERNANDO  4005700001549344+ 00     40057
C331 031781ROJO PERALTA RAUL JAVIER   4005700002052544+ 00     40057
OS31 031785ROMERO GONZALO MATIAS RENE 4005700002036119+ 00     40057
0731 031786ROMERO HECTOR GABRIEL      4005700000526060+ 00     40057
0730 031793SALAS DIEGO HERNAN         4005700000828684+ 00     40057
C231 031814SOLIS WALTER DARIO         4005700000000200+ 00     40057
C230 031817SOSA SERGIO SIMON          4005700003431985+ 00     40057
2131 031824URQUIZA MARIO RUBEN        4005700001184759+ 00     40057
C231 031826VALLEJOS RUBEN ALBERTO     4005700001700499+ 00     40057
C731 031861GUTIERREZ ESTELA SUSANA    4005700000000200+ 00     40057
1031 031867MENDOZA ROSA MARIA         4005700003084056+ 00     40057
C130 031881RODRIGUEZ MIRTA MABEL      4005700000000200+ 00     40057
0230 031889SANTOS CAROLINA SOLEDAD    4005700000258137+ 00     40057
1031 031917SANCHEZ CLAUDIA            4005700004285739+ 00     40057
C131 032004MOYANO MARCELA IRENE       4005700003649132+ 00     40057
C213 032049FERNANDEZ JOSE ORLANDO     4005700007438013+ 00     40057
3012 032052HERRERA SERGIO VICTOR      4005700003292636+ 00     40057
OS13 032055JARA MARCELO FABIAN        4005700000000200+ 00     40057
C113 032057MACIEL LUIS ERBERTO        4005700001225726+ 00     40057
3413 032059MEDINA RENE RAMON          4005700003460034+ 00     40057
C113 032061REAL ARIEL NOLBERTO        4005700004658467+ 00     40057
C112 032064SIRI SEBASTIAN ALEJANDRO   4005700000462754+ 00     40057
C131 032077GONZALEZ JULIO IGNACIO     4005700000000200+ 00     40057
C231 032079LIVA CARLOS RUBEN          4005700005378310+ 00     40057
DS31 032083RAMIREZ WALTER ABEL        4005700003873914+ 00     40057
DS30 032126ALBARRACIN DAVID MARCOS    4005700000000200+ 00     40057
0231 032134AQUINO JOSE DE LA CRUZ     4005700003928790+ 00     40057
0731 032149BARRIOS JUAN RAMON         4005700008899187+ 00     40057
EP31 032158BRITEZ SANTIAGO ADOLFO     4005700000000200+ 00     40057
C231 032159BRITOS ARMAZA CRISTIAN DAVI4005700000000200+ 00     40057
DS31 032169CARAM ARIEL CARLOS ELIAS   4005700000000200+ 00     40057
C231 032172CASTILLO JUAN HUGO         4005700004761799+ 00     40057
0231 032186DELGADO ROBERTO DANIEL     4005700001688049+ 00     40057
0230 032243LEZCANO MARCELO FABIAN     4005700001821456+ 00     40057
1031 032281PAREDES JOSE RAMON         4005700000307848+ 00     40057
C114 032283PISANI JOSE LUIS           4005700003161532+ 00     40057
C130 032298ROMAN ADALBERTO OLDEMAR    4005700000595749+ 00     40057
C230 032307SCHMIDT DIEGO IVAN         4005700000000200+ 00     40057
C231 032309SERRANO ARNALDO ANDRES     4005700001945422+ 00     40057
C231 032323VELAZQUEZ HECTOR MARTIN    4005700000000200+ 00     40057
C231 032327VILAS MARIANO DANIEL       4005700012402132+ 00     40057
C331 032354RUIZ HUGO ORLANDO          4005700000000200+ 00     40057
C131 032377ALVAREZ OSCAR ALBERTO      4005700000000200+ 00     40057
C231 032391BREST RODOLFO EDUARDO      4005700009317412+ 00     40057
C231 032393CACERES JOSE LUIS          4005700003579667+ 00     40057
C130 032405CUENCA DANIEL DARIO        4005700011268143+ 00     40057
C231 032407DE BATTISTA FELIX JAVIER   4005700003313899+ 00     40057
0231 032409ENRIQUEZ CRISTIAN JOSE     4005700003514340+ 00     40057
C231 032410ESCALANTE HECTOR DANIEL    4005700000000200+ 00     40057
C231 032434LLANEZA FRANCO IVAN        4005700000809154+ 00     40057
C230 032447MIERES SIMON ARIEL         4005700005855579+ 00     40057
0631 032470RODRIGUEZ ADRIAN ERNESTO RA4005700004066914+ 00     40057
0731 032491VALLEJOS MARCELO ARIEL     4005700000000200+ 00     40057
SC31 032497YBARRA EMILIO PAULO        4005700000000200+ 00     40057
DT14 032533GONZALEZ HANNA DIEGO ALEJAN4005700000000200+ 00     40057
OS31 032621ACOSTA MARIO ALBERTO       4005700000000200+ 00     40057
CF31 032627AREVALOS MANUEL SEBASTIAN  4005700000540206+ 00     40057
1130 032628ARGUELLO MARIO ALBERTO     4005700000000200+ 00     40057
DS31 032639BIRARELLI CARLOS OMAR      4005700003530610+ 00     40057
C131 032680FLORES ORLANDO IGNACIO     4005700000000200+ 00     40057
C531 032708LEDESMA CRISTIAN EMANUEL   4005700000000200+ 00     40057
C231 032733MONZON CARLOS ALBERTO      4005700000695540+ 00     40057
3530 032770RIOS FABIO DE JESUS        4005700002283033+ 00     40057
0230 032775ROMERO SERGIO HERNAN       4005700002998007+ 00     40057
0631 032783SANDOVAL MARTIN RAUL       4005700007243424+ 00     40057
2131 032796TOLOZA FAVIO GASTON        4005700000000200+ 00     40057
0431 032814CANZIANI CECILIA MARINA    4005700001968863+ 00     40057
0631 032824MORALES RITA CECILIA       4005700009994582+ 00     40057
0231 032841ACEVEDO MARCOS ELIAS       4005700004928493+ 00     40057
1731 032852BRITEZ SERGIO DANIEL       4005700000000200+ 00     40057
1031 032859CANO ALBERTO DANIEL        4005700000000200+ 00     40057
DS15 032889MEDINA RAUL ALEJANDRO      4005700001585686+ 00     40057
0732 032930ZAPPORITTI CLAUDIO ADOLFO S4005700003101472+ 00     40057
SC31 032987ALARCON GRACIELA KARINA    4005700000000200+ 00     40057
1313 033001CENTURION NATALIA SOLEDAD  4005700000000200+ 00     40057
C113 033003CIMBARO JAVIER RAMON       4005700003387779+ 00     40057
C413 033008FUERTES SONIA VIVIANA      4005700002658378+ 00     40057
2213 033049VILLALBA JULIO CESAR       4005700002633690+ 00     40057
C131 033123GOMEZ ANGEL LEONARDO       4005700001288879+ 00     40057
C431 033149MENDEZ DIEGO LUIS          4005700000000200+ 00     40057
3431 033170SANCHEZ WALTER OSCAR       4005700001922462+ 00     40057
C231 033172SANTILLAN CRISTIAN JAVIER  4005700002665394+ 00     40057
C431 033193BENITEZ ROXANA ALEJANDRA   4005700000000200+ 00     40057
1031 033205SILVEIRA LAURA NOEMI       4005700001316823+ 00     40057
DS15 033244SOSA SERGIO DANIEL         4005700003644531+ 00     40057
1731 033263AGUERO RAMON OSCAR         4005700000000200+ 00     40057
1431 033271HERRERA SERGIO DANIEL      4005700000000200+ 00     40057
0231 033300BALOCCO DAVID RUBEN        4005700000694139+ 00     40057
C132 033316INSAURRALDE WALTER ADRIAN  4005700004558948+ 00     40057
C731 033319OJEDA LUCAS SEBASTIAN      4005700000000200+ 00     40057
DS33 033412RUEDA JORGE DANIEL         4005700004080461+ 00     40057
C413 033450NUNEZ PAULA CAROLINA       4005700000000200+ 00     40057
DS31 033461BERTOLOTTI CRISTIAN ARIEL  4005700003376233+ 00     40057
DN31 033475ALARCON DA COSTA HERNAN IGN4005700000000200+ 00     40057
0231 033510MARTINEZ DIEGO HERNAN      4005700001345971+ 00     40057
0231 033523QUINTANA PABLO SEBASTIAN   4005700000000200+ 00     40057
C431 033535ROMERO DANTE FERNANDO      4005700000000200+ 00     40057
OS31 033601BARRIOS ANALIA PATRICIA    4005700001366526+ 00     40057
1731 033607DEBELLUK JOSE ALFREDO      4005700002493396+ 00     40057
OS31 033631SEGURA RICARDO GASTON      4005700000000200+ 00     40057
DT31 033666DIAZ CINTIA NATALIA        4005700000000200+ 00     40057
0415 033682SUAREZ DIEGO DANIEL        4005700000000200+ 00     40057
1631 033694MAZUREK ANABEL CRISTINA    4005700000000200+ 00     40057
C131 033699SENA GERARDO JOSE          4005700000000200+ 00     40057
C431 033712SALINAS LAURA CAROLINA     4005700000000200+ 00     40057
1132 033717GARCIA OLGA ROSANA         4005700000000200+ 00     40057
C131 033728BUSTAMANTE CARLOS ADRIAN   4005700000000200+ 00     40057
CF31 033731CUELLO DIEGO MARTIN        4005700000000200+ 00     40057
C131 033732COSSI CESAR ARMANDO        4005700002270864+ 00     40057
C131 033747OJEDA HECTOR DAVID         4005700000000200+ 00     40057
C231 033756VEGA JOSE MANUEL           4005700001724746+ 00     40057
C131 033757VEGA LUIS                  4005700000000200+ 00     40057
0731 033759VOELKLI RODOLFO MAXIMILIANO4005700000000200+ 00     40057
2131 033819ARCE SEBASTIAN ANDRES      4005700000000200+ 00     40057
C231 033834CARDOZO ROBERTO CELESTINO  4005700005991397+ 00     40057
C231 033877RIVERO WALTER AMILCAR      4005700002009620+ 00     40057
C232 033908VERA IVAN HUGO             4005700000000200+ 00     40057
2231 033934ESPARZA RUTH LORENA        4005700005659244+ 00     40057
C331 033950ROJAS NATALIA ALEJANDRA    4005700000320883+ 00     40057
0232 033956ALEGRE CRISTIAN LUCIANO DAV4005700001140084+ 00     40057
1932 033963DELFINO JORGE MARTIN FERNAN4005700000000200+ 00     40057
DT32 033988VALLEJO CLAUDIO DANTE      4005700000000200+ 00     40057
C131 033996ACEVEDO MIGUEL ANGEL       4005700001560838+ 00     40057
0231 034041SOSA SERGIO ANTONIO        4005700000000200+ 00     40057
0213 034094BRAVO MANUEL ALEJANDRO     4005700001328556+ 00     40057
1914 034097ESCALANTE OSCAR ADOLFO     4005700001079636+ 00     40057
C213 034116MIRANDA DELGADO ALFREDO JAV4005700000000200+ 00     40057
0214 034125PEREZ MAURO ROQUE          4005700000000200+ 00     40057
0731 034312ESPINEL SERGIO DAMIAN      4005700000000200+ 00     40057
C631 034335MARTINEZ MARIA ESTELA      4005700000305458+ 00     40057
0831 034339OCHOA MIGUEL ANGEL         4005700001611398+ 00     40057
0632 034344RIVERO MORENO ADRIAN EMILIO4005700007214798+ 00     40057
3231 034351SANCHEZ ALVARADO JESSICA JO4005700000834496+ 00     40057
1732 034364MANULAK CLAUDIO JOSE       4005700000945497+ 00     40057
C332 034369ABARRATEGUI NATALIA ALEJAND4005700000000200+ 00     40057
3231 034476CANALES LUIS CEFERINO      4005700000000200+ 00     40057
1132 034496FERNANDEZ GOMES MART LUIS C4005700000591537+ 00     40057
1131 034506GONZALEZ JOSE DANIEL       4005700001521467+ 00     40057
C132 034518LOPEZ MIGUEL ORLANDO       4005700001891541+ 00     40057
C631 034528MENDOZA FEDERICO MARTIN    4005700003619542+ 00     40057
C232 034582ALMIRON CRISTINA BEATRIZ   4005700000000200+ 00     40057
C231 034609LOBO SILVINA ADRIANA       4005700001913214+ 00     40057
C431 034613OJEDA CINTHIA GISELA       4005700000000200+ 00     40057
C213 034673TERRAZA LORENA MARIELA     4005700002405435+ 00     40057
SC33 034691PISANI FABRICIO ALDO       4005700000669264+ 00     40057
C132 034719NUNEZ DANIEL ALEJANDRO     4005700002582026+ 00     40057
C732 034740ALVAREZ MARIA SOLEDAD      4005700001371096+ 00     40057
C133 034743BRAMAJO GABRIELA SOLEDAD   4005700000000200+ 00     40057
C432 034744DANDEU ROXANA ALEJANDRA    4005700000000200+ 00     40057
C732 034762ARGUELLO RICARDO LUIS      4005700002636695+ 00     40057
0232 034794BARRIOS GONZALO DANIEL     4005700001369935+ 00     40057
1032 034818ALMIRON LIS CAROL          4005700001854857+ 00     40057
0632 034847AYALA LUCIANO MANUEL       4005700000000200+ 00     40057
CF32 034852BOLOGNINI JOSE ALBERTO     4005700003110804+ 00     40057
C332 034856BURGOS DIEGO FERNANDO      4005700001911564+ 00     40057
C532 034869DIAZ NESTOR ROLANDO        4005700001075979+ 00     40057
1733 034878GARAY OSCAR GERONIMO ELIJIO4005700002098187+ 00     40057
C232 034885GUERRERO CARLOS ALBERTO    4005700000570529+ 00     40057
SC32 034886GUERRERO CARLOS OMAR       4005700001062702+ 00     40057
C332 034892LESCANO DIEGO ANTONIO      4005700003207984+ 00     40057
DS32 034927SCIGLITANO MARTIN ARIEL    4005700000000200+ 00     40057
1332 034963PONCE MARINA ALICIA        4005700001581154+ 00     40057
C514 035036CABRERA FERNANDO ALEXIS    4005700000000200+ 00     40057
DS14 035040CRISTALDO HERNAN MIGUEL PAS4005700000000200+ 00     40057
1514 035064PESSOLANI ALDO GASTON      4005700000000200+ 00     40057
CF14 035070SEPULVEDA SEBASTIAN EDUARDO4005700000362800+ 00     40057
0832 035101GONZALEZ PEDRO ALBERTO     4005700000000200+ 00     40057
0232 035106MARTINEZ ABEL RAIMUNDO     4005700005286490+ 00     40057
DN34 035163ALFONSO SERGIO ARIEL       4005700000000200+ 00     40057
0232 035173BARBOZA RUBEN DARIO        4005700000000200+ 00     40057
C232 035207GONZALEZ HECTOR GABRIEL    4005700001745777+ 00     40057
3534 035209GONZALEZ RUBEN DARIO       4005700000818761+ 00     40057
CF33 035289ACOSTA GUILLERMO WALTER GUS4005700002566220+ 00     40057
C232 035311REARTES DAMIAN FRANCISCO   4005700001354387+ 00     40057
0632 035337ACUNA JUAN ANTONIO         4005700001733727+ 00     40057
1532 035380MORALES JULIO EDUARDO      4005700000000200+ 00     40057
1532 035382VILLAGRA DIEGO DANIEL      4005700001610261+ 00     40057
0732 035420MOREYRA DARIO DANIEL       4005700001148769+ 00     40057
CF32 035424SANDOVAL ADELIO GASTON     4005700002094760+ 00     40057
C133 035425SOSA RAMON ARIEL           4005700001425973+ 00     40057
1232 035432ESPINOSA PABLO CEFERINO    4005700007515384+ 00     40057
1232 035447SLOWIK JAVIER ESTEBAN      4005700001192245+ 00     40057
1632 035453ZAMORA RODOLFO FEDERICO    4005700000000200+ 00     40057
1333 035474PEREZ MARCELA ADRIANA      4005700001225056+ 00     40057
0615 035583MAIDANA ALBERTO LEANDRO    4005700004307612+ 00     40057
1133 035589RODRIGUEZ JUAN RAMON       4005700002050149+ 00     40057
C134 035598VERA PEDRO PABLO           4005700003914263+ 00     40057
DS32 035607BENITEZ ALBERTO MARTIN     4005700000531474+ 00     40057
C132 035610BOURQUIN JUAN FRANCISCO    4005700000000200+ 00     40057
C332 035611BUHR CARLOS ARIEL          4005700000000200+ 00     40057
OS14 035614CAFFERATA MAURO DANIEL     4005700000873409+ 00     40057
3532 035626DEL RIO MAURO ALBERTO GASTO4005700000941412+ 00     40057
C132 035657LUNA LORENZO OMAR          4005700000000200+ 00     40057
3532 035660MEDINA ORLANDO MARIANO     4005700000937174+ 00     40057
1232 035677RONDEAU FERNANDO RAUL      4005700000000200+ 00     40057
0232 035689TULA LEONARDO EMANUEL      4005700000000200+ 00     40057
0732 035691VALLEJOS FERNANDO MARTIN   4005700000754823+ 00     40057
C532 035701LUNA OMAR ADRIAN ALBERTO   4005700000000200+ 00     40057
DN32 035712BOGADO CINTHIA YAMILA      4005700000000200+ 00     40057
1732 035713BONKO GONZALEZ ALICIA JOHAN4005700004620818+ 00     40057
C432 035748TINTE CINTIA VALERIA       4005700001303444+ 00     40057
AS32 035752VERON SANDRA KARINA        4005700001596628+ 00     40057
0232 035763DONATTI PABLO JUAN         4005700000000200+ 00     40057
2132 035768JARA FREDY RAMON           4005700000386408+ 00     40057
C133 035770LEDERHOZ JULIO CESAR       4005700002723933+ 00     40057
0732 035844ALMIRON JORGE ROLANDO      4005700000000200+ 00     40057
CF32 035859CORREA CESAR HUGO          4005700000000200+ 00     40057
1032 035864FERNANDEZ JULIO CESAR      4005700000000200+ 00     40057
C132 035878MENDOZA CRISTIAN ALEJANDRO 4005700000000200+ 00     40057
CF32 035885RUIZ FERNANDO ADRIAN       4005700000000200+ 00     40057
C232 035887SALCEDO DANIEL             4005700001681409+ 00     40057
DS32 035890TAFFAJA JOSE EMILIO        4005700000301552+ 00     40057
0716 036042CORIA MAURICIO EMANUEL     4005700001360176+ 00     40057
C214 036045DI BENEDETTO ARIEL GASTON  4005700000000200+ 00     40057
C214 036053FONTANA ENRIQUE RUBEN      4005700002233060+ 00     40057
1214 036057GALLARDO DARDO WALTER      4005700002245202+ 00     40057
AP14 036086PEREZ VICTOR ARIEL         4005700000000200+ 00     40057
1616 036120ALDUNATE CRISTIAN ENRIQUE  4005700000000200+ 00     40057
ES32 036129BORDON CLAUDIO FABIAN      4005700000349075+ 00     40057
C434 036141ENCISO DIEGO RAMON         4005700000426053+ 00     40057
0832 036152GARCIA PABLO GERMAN        4005700000000200+ 00     40057
C732 036213CARO FLAVIA VANESA         4005700008378550+ 00     40057
C432 036244ENRIQUEZ MARTA ALICIA      4005700000000200+ 00     40057
DT32 036351SAMPAYO ALEJANDRO EMMANUEL 4005700003070996+ 00     40057
C132 036384AROVI FACUNDO DANIEL       4005700000000200+ 00     40057
SC14 036386AVILA CRISTIAN EDUARDO     4005700000000200+ 00     40057
DS32 036402CANETE SAULO ALEXIS        4005700000000200+ 00     40057
CF32 036413CHUCHI OSCAR ALCIDES       4005700000619415+ 00     40057
1132 036416DOMINGUEZ CRISTIAN GABRIEL 4005700006135716+ 00     40057
0233 036435GOMEZ ALFREDO NICOLAS      4005700000000200+ 00     40057
0732 036436GOMEZ JUAN ALBERTO         4005700000000200+ 00     40057
0732 036439GOMEZ PABLO FERNANDO       4005700005190881+ 00     40057
0233 036444INSAURRALDE CHRISTIAN SEBAS4005700002988128+ 00     40057
1535 036447LEMOS CRISTIAN ADOLFO      4005700001068756+ 00     40057
C132 036448LENCINA JUAN RAMON         4005700000000200+ 00     40057
C132 036461MARTINEZ MIGUEL ENRIQUE    4005700000783695+ 00     40057
C232 036484PERRONE CLAUDIO GUILLERMO  4005700001926379+ 00     40057
C232 036503SALINAS VICTOR DANIEL      4005700001355781+ 00     40057
C232 036507SANCHEZ JAVIER RAUL        4005700003251178+ 00     40057
C232 036515SOTELO WALTER ARIEL        4005700004116733+ 00     40057
DS32 036536GRISMADO SOFIA SOLEDAD     4005700000000200+ 00     40057
AP32 036538PEREZ VIVIANA EDITH        4005700000369992+ 00     40057
DS32 036598NUNEZ ODILIO ROBERTO       4005700006541059+ 00     40057
C532 036637GALEANO EDUARDO DANIEL     4005700001178114+ 00     40057
C332 036654RUIZ JUAN GUSTAVO          4005700000000200+ 00     40057
1233 036731ZUBIRI DANIEL OSVALDO      4005700002151129+ 00     40057
SC32 036752GOMEZ CARINA ITATI         4005700000000200+ 00     40057
C133 036753GOMEZ LAURA FABIANA        4005700000000200+ 00     40057
C232 036756GRANEROS CARINA SOLEDAD    4005700000000200+ 00     40057
C432 036766PERTICARINI LIZA YANINA    4005700000339331+ 00     40057
CF33 036811GIMENEZ CESAR DAMIAN       4005700000493416+ 00     40057
C232 036813GONZALEZ FERNANDO DANIEL   4005700000000200+ 00     40057
C533 036829NUNEZ JOSE LUIS            4005700000000200+ 00     40057
0232 036832PEGORARO CESAR WILFREDO    4005700000000200+ 00     40057
3434 036856ZAYAS GUSTAVO RAUL RAFAEL  4005700000000200+ 00     40057
AP32 036871FERNANDEZ FABIAN EZEQUIEL  4005700005791136+ 00     40057
1133 036937PERRONE FLORINDO JAVIER    4005700001986908+ 00     40057
0233 036949MORALES PATRICIA VALERIA   4005700001081563+ 00     40057
C433 036951SANCHEZ ROMINA BEATRIZ     4005700000797807+ 00     40057
1433 036966ESCOBAR JESUS CRISTIAN ANDR4005700000727010+ 00     40057
0732 036974GOMEZ ROBERTO CARLOS       4005700009926302+ 00     40057
1034 036986MENDEZ ALEJANDRO JOAQUIN   4005700000000200+ 00     40057
0235 037008RAICH JONATHAN EMMANUEL    4005700000000200+ 00     40057
1033 037054FERREYRA CLARA MARIA       4005700000000200+ 00     40057
0233 037066GOMEZ ANIBAL ZACARIAS      4005700000000200+ 00     40057
0733 037073ROMERO JOSE LUIS           4005700001598972+ 00     40057
C115 037087ALDERETE NESTOR NICOLAS EMM4005700000745153+ 00     40057
SC15 037094BLANCO LEONARDO NICOLAS    4005700000000200+ 00     40057
0215 037102DUTRA JOSE LUIS            4005700001357837+ 00     40057
C115 037134MEDINA YOLANDA VANESA      4005700000000200+ 00     40057
C615 037154RAMIREZ SAMANTA GRACIELA   4005700000000200+ 00     40057
C115 037173WESTER MARCOS BRIAN RAMON  4005700006918673+ 00     40057
ES15 037185PARRA ALEXANDRA BEATRIZ    4005700001846312+ 00     40057
1032 037197NISSEN PATRICIA VIVIANA    4005700000000200+ 00     40057
C733 037206BARRIOS MARIA ELISABETH    4005700000000200+ 00     40057
1933 037213VILLAGRA JESICA LOURDES    4005700000000200+ 00     40057
DS32 037235AQUINO GUSTAVO RAMON       4005700001527235+ 00     40057
C233 037257COMAN LUIS ALBERTO         4005700000000200+ 00     40057
0632 037258CORONEL ERIKA ROMINA       4005700000000200+ 00     40057
0232 037290JARALUNGHI CARLOS DANIEL   4005700000000200+ 00     40057
C233 037293LEGUIZAMON ROLANDO JAVIER  4005700002122265+ 00     40057
C233 037297MAGALLANES NORBERTO ESTEBAN4005700000927539+ 00     40057
DS32 037303MARQUEZ GUSTAVO JAVIER     4005700000979312+ 00     40057
ES32 037338SANCHEZ IRMA BEATRIZ       4005700000000200+ 00     40057
C234 037380OBREGON CANDIDO DAVID      4005700007068077+ 00     40057
EP33 037384VERON ANTONIA MARIELA      4005700000782464+ 00     40057
C434 037385VISKOVIC ROXANA LILIANA    4005700000000200+ 00     40057
0633 037391FAEDDA ROXANA ELCIRA ELISAB4005700002444100+ 00     40057
DS33 037401LAFUENTE JORGE OMAR        4005700006181293+ 00     40057
3432 037412GIANETTI BRIAN EMMANUEL    4005700003561848+ 00     40057
C233 037417OTAZO ROXANA VERONICA      4005700000509795+ 00     40057
AP34 037463GUZMAN SILVIA MONICA       4005700000000200+ 00     40057
C534 037466PORTILLO KARINA ALEJANDRA  4005700002080090+ 00     40057
1734 037469SOTO GRACIELA ELIZABETH    4005700005955844+ 00     40057
0633 037475MONGES DEBORA VANESA       4005700000865439+ 00     40057
C234 037534MEDINA VICTOR HUGO         4005700001117729+ 00     40057
ES33 037537RETAMOZO GUSTAVO ALFREDO   4005700000000200+ 00     40057
C733 037540ACUNA CLAUDIA VERONICA     4005700006882954+ 00     40057
C733 037541GONZALEZ LILIANA GABRIELA  4005700000000200+ 00     40057
3233 037542PUSS LAURA GRACIELA        4005700000000200+ 00     40057
EP14 037546PARRA MARCELO DAVID        4005700000000200+ 00     40057
CF33 037555LEDESMA RAMON ANGEL        4005700003181429+ 00     40057
0634 037588PANNILEF TASSO MARCOS DAMIA4005700000000200+ 00     40057
C616 037591CREMADES FLORENCIA         4005700001417509+ 00     40057
C133 037600CESPEDES OSCAR ALBERTO     4005700000000200+ 00     40057
DN15 037657ESPECHE PAULA NOELIA ANABEL4005700000000200+ 00     40057
C115 037662GLOCK LEONARDO ARIEL       4005700000000200+ 00     40057
C115 037670JARA FERNANDO RODRIGO      4005700001784033+ 00     40057
ES15 037687MULLER VERONICA ROMINA     4005700000000200+ 00     40057
C715 037690ORTIZ SONIA GRISEL         4005700000000200+ 00     40057
EP15 037711ROJAS MONICA YANINA DALILA 4005700001451592+ 00     40057
CF15 037719VERON MARCELA ALIANA       4005700000000200+ 00     40057
3533 037750ARIAS CRISTIAN ALEXIS      4005700000000200+ 00     40057
C133 037774CABALLERO CARLOS DANIEL    4005700002310996+ 00     40057
C232 037776CACERES VICTOR EMMANUEL    4005700006984222+ 00     40057
3533 037777CACERES RAFAEL ALEJANDRO   4005700002033320+ 00     40057
C333 037784CHANAMPA CESAR ALEJANDRO   4005700000000200+ 00     40057
DS33 037809FLORES FELIPE JOSE LUIS    4005700001489021+ 00     40057
C333 037813GARCIA CRISTIAN RICARDO    4005700002709178+ 00     40057
C133 037822GUTIERREZ LUCIO CESAR      4005700000000200+ 00     40057
C232 037829KRAWCZUK DANIEL SEBASTIAN  4005700002760341+ 00     40057
0233 037835LOPEZ JORGE OMAR           4005700000393544+ 00     40057
C133 037839MAC - FARLANE LUIS ARIEL   4005700000000200+ 00     40057
0233 037844MARINO FERNANDO JESUS JUAN 4005700001835940+ 00     40057
C133 037873PAREDES CRISTIAN ADRIAN    4005700000000200+ 00     40057
C233 037889RODRIGUEZ DIEGO ARIEL      4005700003759424+ 00     40057
3533 037891RODRIGUEZ ACOSTA PABLO IVAN4005700002545464+ 00     40057
C233 037893ROMERO JULIO RAUL CESAR    4005700002008940+ 00     40057
C232 037902SERRANO MARTIN HERNAN      4005700000000200+ 00     40057
DS32 037904SILGUERO ERNESTO JUAN CARLO4005700000000200+ 00     40057
C233 037905SILVA MAURICIO GUILLERMO   4005700007553644+ 00     40057
C233 037907STOYANOFF NESTOR RUBEN     4005700005579859+ 00     40057
DS33 037908STRUCIAT HORACIO AGUSTIN   4005700000677029+ 00     40057
C133 037914TONN CRISTIAN JONATAN      4005700005006896+ 00     40057
1933 037916TORRES AXEL CLAUDIO        4005700001688842+ 00     40057
1133 037919VALLEJOS JOSE GUILLERMO    4005700000000200+ 00     40057
C333 037922VARELA DIEGO SEBASTIAN     4005700000000200+ 00     40057
C733 037924VIERA RICARDO HERNAN       4005700003418191+ 00     40057
C233 037928AGUILAR MAIRA ROMINA       4005700000000200+ 00     40057
3433 037953PALACIO NATALIA CAROLINA   4005700000000200+ 00     40057
C434 038054VILLALBA MATIAS LUIS       4005700001730474+ 00     40057
C133 038059CABRERA CESAR DARIO        4005700000000200+ 00     40057
DN34 038119PERALTA MARCELA ALEJANDRA  4005700000814509+ 00     40057
EC33 038126HERRERA VANESA ALEJANDRA   4005700001599419+ 00     40057
DS33 038132GUERRERO CRISTIAN ALBERTO  4005700000000200+ 00     40057
0633 038140FRANCO RAMON ISMAEL        4005700000000200+ 00     40057
1534 038142JURADO RICARDO RAMON       4005700004465701+ 00     40057
0633 038145MORALES WALTER MARTIN      4005700001079895+ 00     40057
0634 038171ROSAS ADOLFO DAMIAN        4005700002761812+ 00     40057
SU33 038231BARGAS MILTON EDGARDO      4005700000845462+ 00     40057
C133 038244CASTRO MARCELO ARMANDO     4005700000000200+ 00     40057
C133 038250DE LOS SANTOS SERGIO LEONAR4005700003994851+ 00     40057
C333 038279LOPEZ SABAO CHRISTIAN JOSUE4005700000000200+ 00     40057
C633 038280MACIEL WILSON AMILCAR      4005700000000200+ 00     40057
0233 038306RUIZ MAURICIO FERNANDO     4005700000635872+ 00     40057
1017 038326VILLALBA MARCELO RAMON     4005700001781038+ 00     40057
C733 038332ZALAZAR EMILSE ROXANA      4005700000000200+ 00     40057
C233 038333ZENIQUEL ALEJANDRO         4005700003694403+ 00     40057
CF33 038335QUIROZ MARIANA INES        4005700000000200+ 00     40057
C234 038347FIGUEROA ALFONSO ALBERTO AR4005700000000200+ 00     40057
C233 038357POUMEYROL OMAR ARNALDO     4005700000000200+ 00     40057
DS33 038376ORUETA ALAN MATIAS         4005700003206922+ 00     40057
C233 038397BENITEZ GABRIEL ROLANDO    4005700004102776+ 00     40057
ES33 038411FARINA GUILLERMO MOISES    4005700000000200+ 00     40057
1133 038416GOMEZ YAMILA EMILCE        4005700001017994+ 00     40057
C133 038423LEVY JORGE DAMIAN          4005700000000200+ 00     40057
C233 038427MEDINA PEDRO MIGUEL        4005700001864009+ 00     40057
1933 038437PAREDES FRANCO MATIAS      4005700000000200+ 00     40057
C133 038451ROMAN CRISTIAN RAUL        4005700000000200+ 00     40057
C233 038456VEGA CARLOS DANIEL         4005700001050275+ 00     40057
CF16 038462GONZALEZ ANA LAURA         4005700000000200+ 00     40057
C115 038481BAEZ ADRIAN ESTEBAN        4005700003209365+ 00     40057
C115 038511MARTINEZ MARTIN EXEQUIEL   4005700001172182+ 00     40057
0415 038520PARRA RICHARD ANATOLI      4005700001100778+ 00     40057
C115 038532RODRIGUEZ YESICA LILIANA   4005700002401093+ 00     40057
C215 038546VERA MARCELA LIDIA         4005700000000200+ 00     40057
C115 038550ZADNIK ILIANA MAGALI       4005700001999707+ 00     40057
C533 038577ESPARZA REBECA VANESA      4005700002929023+ 00     40057
1633 038581ORDONEZ OLGA DEL VALLE     4005700000000200+ 00     40057
1434 038589BAZAN RUTH                 4005700000914517+ 00     40057
C234 038590BLANCO ESTEFANIA IVONNE    4005700000373335+ 00     40057
C634 038596ROMERO RAUL JUAN RAMON     4005700002507549+ 00     40057
0633 038622GOMEZ SABALZA ANTONIO      4005700000000200+ 00     40057
0633 038625MERA GONZALO HECTOR DAMIAN 4005700000000200+ 00     40057
C133 038636AGUIRRE JULIO ALEJANDRO    4005700001100734+ 00     40057
3533 038640ALMARAZ JULIO CESAR SEBASTI4005700000000200+ 00     40057
C133 038645AQUINO MEAURIO RICARDO DARI4005700000000200+ 00     40057
2533 038648AYALA CECILIA LEANDRA      4005700001999694+ 00     40057
3533 038651BALGUENA HECTOR DARIO      4005700002459397+ 00     40057
DT33 038653BAREIRO PABLO ROBERTO      4005700000000200+ 00     40057
0733 038664CACERES ALEJANDRO ARIEL    4005700003003564+ 00     40057
SC33 038668CARAM CECILIA MARIA DOLORES4005700000524306+ 00     40057
CF33 038686CUSSI JORGE ALBERTO        4005700000000200+ 00     40057
C233 038691DELGADO ANTONIO HUGO       4005700000000200+ 00     40057
C433 038698ESTIGARRIBIA KAREM YANINA  4005700000000200+ 00     40057
C133 038704FLORENCIO ALEJANDRO JAVIER 4005700003203465+ 00     40057
3433 038707FLORES ANDREA ITATI        4005700000747431+ 00     40057
CF34 038732INSFRAN GUSTAVO MANUEL     4005700000000200+ 00     40057
C133 038756MARTIN PABLO NELSON        4005700004006897+ 00     40057
C533 038768NAVARRO RAMIRO OSVALDO     4005700000000200+ 00     40057
C133 038778PERALTA RODRIGO EMANUEL    4005700000000200+ 00     40057
0233 038789RAMIREZ CRISTIAN DARIO     4005700000000200+ 00     40057
C733 038792RIVERO PATRICIA ALEJANDRA  4005700000000200+ 00     40057
CF33 038797ROMAN PEDRO CARLOS         4005700001030053+ 00     40057
0233 038799RUIZ JONATHAN GASTON       4005700000188446+ 00     40057
C133 038822VALLEJOS ROQUE ANTONIO     4005700000000200+ 00     40057
C434 038863CASANA PAOLA EVANGELINA    4005700000000200+ 00     40057
EP34 038877PEREZ ERICA MARCELA        4005700002817124+ 00     40057
DS34 038885AMANI SILVANA JEZABEL      4005700000000200+ 00     40057
C134 038887ARASHIRO MATIAS EZEQUIEL   4005700000863764+ 00     40057
1133 038893BALLEJOS HUGO DARIO        4005700000000200+ 00     40057
C133 038906CABRAL RAFAEL              4005700001518853+ 00     40057
C433 038923CHAVEZ GLADYS NOEMI        4005700000000200+ 00     40057
C334 038926CORREGIDOR NOELIA JESICA DE4005700000000200+ 00     40057
1633 038947FLORES LUIS ALBERTO        4005700000000200+ 00     40057
C433 038993LUNA ALEJANDRO ANIBAL      4005700000206572+ 00     40057
2233 038996MAIZARES RAMIRO DANIEL     4005700001372801+ 00     40057
C333 038997MAMANI MARIA VIRGINIA      4005700000000200+ 00     40057
C333 039000MIRANDAY FERNANDO ESTEBAN  4005700000000200+ 00     40057
EC33 039004MOREL JIMENA MARIEL        4005700002188854+ 00     40057
C333 039013ORTEGA ALICIA ROMINA       4005700000000200+ 00     40057
CF33 039029PEZZINA PABLO DANIEL       4005700001139145+ 00     40057
1134 039053SALTO FLAVIA JOHANNA       4005700004568947+ 00     40057
2233 039058SORUCO RAFAEL CRISTIAN     4005700001250972+ 00     40057
C334 039064TAPIA CARMEN ROSA          4005700000000200+ 00     40057
C133 039082VILLARREAL FABIAN GUSTAVO  4005700000000200+ 00     40057
C234 039100MONTALBINI CARLOS ALEXIS   4005700002943402+ 00     40057
1033 039102PATINO MARTIN GABRIEL      4005700002350558+ 00     40057
2234 039116LOPEZ GARCIA STELLA MARIS  4005700000000200+ 00     40057
C434 039117MAZUREK FLAVIA RUTH        4005700004389612+ 00     40057
3415 039206MERLO WALTER JAVIER        4005700000000200+ 00     40057
C315 039234CRUZ SEBASTIAN JORGE       4005700000000200+ 00     40057
C434 039246ACOSTA LEANDRO GABRIEL     4005700000000200+ 00     40057
C433 039272BOBADILLA PATRICIO ROBERTO 4005700002116157+ 00     40057
2133 039329GONZALEZ HECTOR MATIAS     4005700000000200+ 00     40057
C333 039340HUMACATA HUGO ORLANDO      4005700000000200+ 00     40057
ES33 039362MEZA DEBORA MARTA LORENA   4005700000000200+ 00     40057
AP33 039367MORENO LUCIANO DAMIAN      4005700000000200+ 00     40057
0233 039374NAVARRO JUAN VICTOR        4005700000000200+ 00     40057
C134 039386ORTIZ JORGE ANTONIO        4005700000000200+ 00     40057
C333 039398RIOJA GUSTAVO DANIEL       4005700000504909+ 00     40057
0234 039429SOTELO ROMINA FERNANDA     4005700000000200+ 00     40057
DS33 039440TORRES ALEXIS HUGO         4005700001368516+ 00     40057
1633 039444URQUIZA JUAN CARLOS        4005700000000200+ 00     40057
C334 039445VALDERRAMA GUILLERMO ESTEBA4005700000973757+ 00     40057
SC34 039452VILLAR HECTOR DANIEL       4005700000000200+ 00     40057
C233 039456WASSINGER MARCOS JAVIER    4005700000000200+ 00     40057
OS34 039468CHATELAIN JENNIFER ROMINA  4005700001484284+ 00     40057
OS34 039469FERNANDEZ DEBORA GISELE    4005700000000200+ 00     40057
0234 039477OLIVA JUAN HERNAN FACUNDO  4005700000560970+ 00     40057
C117 039479PERALTA MARTINEZ MARIA MACA4005700009165325+ 00     40057
0234 039493LEZCANO ROLANDO MAURICIO   4005700000000200+ 00     40057
C134 039500ALEGRE JONATHAN ARIEL      4005700006488468+ 00     40057
SC34 039592ARDILES JONATHAN FERNANDO  4005700000823702+ 00     40057
DN17 039593FIORENTINO BUZARQUIZ MAURO 4005700000872229+ 00     40057
C534 039619BOSQUE JUAN MANUEL         4005700003273348+ 00     40057
1034 039633GARRIDO CARLOS SAUL        4005700003347912+ 00     40057
1134 039665DOUBIK DAVID MARCOS        4005700007127497+ 00     40057
0534 039666FERNANDEZ ANGEL MIGUEL     4005700005319883+ 00     40057
EC34 039667FLORENTIN CESAR HUMBERTO   4005700002173776+ 00     40057
CF34 039670GOITEA CESAR LUIS          4005700005832260+ 00     40057
0634 039708CARDOZO LEONARDO AGUSTIN   4005700000000200+ 00     40057
0634 039709ESCOBAR GERMAN ARIEL       4005700004790838+ 00     40057
0634 039712HERNANDEZ CESAR ALFREDO    4005700002791911+ 00     40057
EC33 039720MOLINA DIEGO RAFAEL OMAR   4005700002249988+ 00     40057
0634 039724OSORIO WILLIAN ALCIDES     4005700000000200+ 00     40057
3534 039734ACOSTA WALTER DAMIAN       4005700001395480+ 00     40057
C133 039750AREVALOS ERIKA LUJAN       4005700005211998+ 00     40057
0234 039756BARRIOS LAURA JOHANNA      4005700001517467+ 00     40057
C234 039770BUSTOS DAMIAN EMILIANO     4005700000000200+ 00     40057
C436 039771CABALLERO VICTOR HUGO      4005700003130506+ 00     40057
1634 039773CABRERA ALEXANDER JESUS ALB4005700000000200+ 00     40057
1634 039791CORIA JORGE LUIS           4005700000000200+ 00     40057
0634 039798DEL SOL NANCY ELIZABETH    4005700000000200+ 00     40057
0217 039804DUARTE IVAN EZEQUIEL       4005700000000200+ 00     40057
C334 039807ESPINDOLA MIGUEL ANGEL     4005700000000200+ 00     40057
CF34 039828GIMENEZ JUAN JOSE          4005700000880663+ 00     40057
EP34 039846JUAREZ CLAUDIO ANDRES      4005700001436276+ 00     40057
RP34 039866MENDEZ SEBASTIAN ALBERTO   4005700000000200+ 00     40057
1334 039870MONGELO GONZALO MARTIN     4005700001507063+ 00     40057
C134 039872MOSQUEDA ELIAS ALBERTO     4005700000000200+ 00     40057
C234 039887PALACIOS JAVIER            4005700000000200+ 00     40057
C334 039903RAMIREZ SANGUINO DE MARIA S4005700000000200+ 00     40057
3434 039907RIOS MIGUEL ANGEL          4005700000000200+ 00     40057
CF34 039916RUIZ ARMANDO MARIO         4005700000000200+ 00     40057
SC34 039919SAID ESTEBAN RODRIGO       4005700000000200+ 00     40057
2234 039920SALAZAR FELIX FERNANDO     4005700001660229+ 00     40057
0734 039945TORRES CLAUDIO DAMIAN      4005700001410258+ 00     40057
3534 039947TORRES NESTOR RAFAEL       4005700001847626+ 00     40057
3534 039951VELAZQUEZ VICTOR EMANUEL   4005700005896931+ 00     40057
C234 039957VILLAMAYOR YAMILA GISELE   4005700000986298+ 00     40057
3534 039960ZALAZAR ARIEL DARIO        4005700002069511+ 00     40057
C234 040025VESPO JOSE ALBERTO         4005700000437804+ 00     40057
C234 040043ALCOBA MARIA FLORENCIA     4005700000000200+ 00     40057
1034 040053BARRIOS PAMELA EDITH       4005700000000200+ 00     40057
C234 040094IKES JORGE RUBEN           4005700000000200+ 00     40057
C134 040095KALENIUK EDUARDO ANDRES    4005700000000200+ 00     40057
C233 040113MINO TAMARA NAIR           4005700002140897+ 00     40057
CF34 040116MOREYRA LEONARDO           4005700001503878+ 00     40057
0234 040141ROLDAN SERGIO DANIEL       4005700000000200+ 00     40057
C234 040144ROMERO WILSON EDGARDO DANIE4005700001205266+ 00     40057
0234 040179MONZON MONICA BEATRIZ      4005700002766269+ 00     40057
0434 040191CHINCA ANA LUZ             4005700002699625+ 00     40057
DN34 040194LUNA SERGIO ALEJANDRO      4005700000000200+ 00     40057
2234 040195MAMANI LUCIANA VERONICA    4005700000979102+ 00     40057
C134 040202PAEZ GUSTAVO ISDELIN       4005700000000200+ 00     40057
OS34 040210SERGIO VALERIA IRENE       4005700000000200+ 00     40057
C334 040240CONTRERA MIRNA VALERIA     4005700000000200+ 00     40057
C334 040273SALAZAR EVANGELINA PAOLA RE4005700001009255+ 00     40057
DN34 040277SILVA LAURA MARIANA        4005700000000200+ 00     40057
DN16 040287BAEZ ALDO SEBASTIAN        4005700000000200+ 00     40057
C434 040304MINO CLAUDIA MARIELA       4005700000000200+ 00     40057
C434 040325TEJEDA CARLA JULIETA       4005700000000200+ 00     40057
3516 040331ALVAREZ RICARDO GABRIEL    4005700000000200+ 00     40057
ES16 040340BUSTOS DANIELA SOLEDAD     4005700001488013+ 00     40057
0616 040374LEMOS FRANCO ROLANDO       4005700000000200+ 00     40057
C234 040457BENITEZ MAURO RAUL         4005700000000200+ 00     40057
1734 040458BENITEZ RENZO OCTAVIO      4005700000000200+ 00     40057
C334 040473COLQUE JESUS FERNANDO      4005700000469494+ 00     40057
C534 040483ENRIQUEZ ANA BEATRIZ       4005700000000200+ 00     40057
C234 040486FERNANDEZ NATANAEL ENRIQUE 4005700000000200+ 00     40057
DN34 040491FRETES PAMELA JANET        4005700000000200+ 00     40057
1034 040505ISENDORF AIDALI MARIA DEL C4005700000807264+ 00     40057
C134 040522MORALES DIEGO EDGARDO      4005700000000200+ 00     40057
C134 040523MORALES JUAN IGNACIO       4005700000000200+ 00     40057
0234 040526NUNEZ ALBERTO MARTIN       4005700000493652+ 00     40057
C234 040539PINTOS JOSE DANIEL         4005700000000200+ 00     40057
C134 040551SAEZ DIEGO FERNANDO        4005700005811241+ 00     40057
DS34 040559SUAREZ GUILLERMO ERNESTO   4005700005752013+ 00     40057
C234 040562TASTACA FABIAN OMAR        4005700000000200+ 00     40057
C134 040566VELAZQUEZ MATIAS GABRIEL   4005700000000200+ 00     40057
EC34 040589ARIAS ALEJANDRO FABIAN     4005700001458435+ 00     40057
SC34 040592CABRERA MAURICIO EMILIANO  4005700000500155+ 00     40057
EC34 040594EIROA EZEQUIEL ANTONIO     4005700000000200+ 00     40057
0636 040602OVEJERO HUMIA EMILIANO GAST4005700000723681+ 00     40057
RP35 040612BALMER ANDREA ANAHI        4005700003332087+ 00     40057
0234 040614ESCOBAR YAMILA BELEN       4005700000000200+ 00     40057
1934 040627GONZALEZ HUGO ERNESTO      4005700000000200+ 00     40057
C234 040628LONGO HECTOR GABRIEL       4005700002903953+ 00     40057
DS34 040631RODRIGUEZ MAURICIO JAVIER  4005700000000200+ 00     40057
C134 040632SCIOLLA LUCAS DAMIAN       4005700000000200+ 00     40057
C118 040668GIRON GUTIERREZ LUCIA DEL M4005700000000200+ 00     40057
C234 040808COUSIN MARIA ANTONELLA     4005700000000200+ 00     40057
C134 040809DIAZ ALEJANDRO DAVID       4005700000000200+ 00     40057
C434 040810FERNANDEZ ANALISA ANDREA   4005700003175704+ 00     40057
EP34 040819MOLINA DAIANA ABIGAIL      4005700002794420+ 00     40057
C134 040824ROTELA ROMINA GISELA       4005700000000200+ 00     40057
C734 040825RUIZ MARIA DE LOS ANGELES  4005700001530429+ 00     40057
0234 040829TEVES JULIO GABRIEL        4005700000000200+ 00     40057
C434 040832VALDERRAMA NANCY MABEL     4005700000000200+ 00     40057
1934 040836YASNIKOWSKI LEONARDO FABIO 4005700000826546+ 00     40057
1534 040893CASTRO JESSICA DANIELA     4005700001438112+ 00     40057
DT34 040902OLIVERA NATANAEL JOSE      4005700000000200+ 00     40057
CF33 040914TOTORICA VANESA CECILIA    4005700001201463+ 00     40057
C416 040918AVILA NUNEZ MARINA SOLEDAD 4005700000000200+ 00     40057
0416 040923CHAVEZ FERNANDO JAVIER     4005700000000200+ 00     40057
1016 040926DE AMBROSIO ROBERTO FERNAND4005700000000200+ 00     40057
C516 040934GALARZA ALDO GABRIEL MARTIN4005700002855434+ 00     40057
1016 040940GODOY NESTOR EMMANUEL      4005700000978837+ 00     40057
3416 040946JORGE GABRIEL ALEJANDRO    4005700002264246+ 00     40057
1716 040973RUIZ YESICA SOLEDAD        4005700000000200+ 00     40057
DS16 040977VALENCIA PABLO EZEQUIEL    4005700001614921+ 00     40057
C134 041008ALASIO CRISTIAN ARIEL      4005700000000200+ 00     40057
DS34 041016ALONSO MARTIN ANTONIO      4005700000000200+ 00     40057
0234 041032BETERETTE JUAN BAUTISTA    4005700000678089+ 00     40057
C134 041044CEQUEIRA ROSA MARIA ESTER  4005700000000200+ 00     40057
1134 041057DE MATO ALEJANDRO ALBERTO  4005700000000200+ 00     40057
DS34 041074GAYAN GASTON ALEJANDRO     4005700000000200+ 00     40057
DS34 041075GEIST MAURO EZEQUIEL       4005700000000200+ 00     40057
C134 041085JARA SERGIO RICARDO        4005700000000200+ 00     40057
0534 041098MARINO MIRIAM LORENA       4005700000988387+ 00     40057
C234 041099MARTINEZ ORTIZ GUSTAVO RAMO4005700000000200+ 00     40057
SC33 041117POGONZA PATRICIA DOLORES   4005700000000200+ 00     40057
C434 041120RAMIRES SANDRA LILIANA     4005700000000200+ 00     40057
1634 041199RINALDI DELIA DEL MILAGRO  4005700001409496+ 00     40057
C234 041229LOPEZ GUILLERMO ADRIAN     4005700000460891+ 00     40057
C434 041240SURT CARLA CECILIA         4005700000000200+ 00     40057
C516 041261AYLAN HORACIO LUIS         4005700002822818+ 00     40057
3416 041262BENITEZ DANIEL ALBERTO     4005700000000200+ 00     40057
SC16 041271RODRIGUEZ DIEGO NICOLAS    4005700000000200+ 00     40057
C134 041323RIVADENEIRA GERARDO FRANCIS4005700000000200+ 00     40057
EC34 041324VERA RICARDO GABRIEL       4005700000000200+ 00     40057
1034 041329PARRA BERNARDO LUIS        4005700003163544+ 00     40057
0234 041359ENRIQUE MAURO FABIAN       4005700000000200+ 00     40057
C334 041369FIGUEROA DIAZ SILVIA MARINA4005700000000200+ 00     40057
3534 041380IBANEZ VANESA YANINA DEL VA4005700005796402+ 00     40057
C434 041382LEGUIZAMON KARLA ABIGAIL   4005700000000200+ 00     40057
3434 041386MAMANI MARCELINO ATILIO    4005700002976729+ 00     40057
C434 041391MEZA VIVIANA BEATRIZ       4005700004051659+ 00     40057
1134 041392MOLINA CRISTIAN ADRIAN     4005700000000200+ 00     40057
3534 041395NUNEZ YANINA NATALIA       4005700001155099+ 00     40057
C134 041407RIOS LUIS ARIEL            4005700001332623+ 00     40057
C534 041415SANDOVAL LUCAS GASTON      4005700000000200+ 00     40057
1534 041417SOLIS JUAN FRANCISCO       4005700000000200+ 00     40057
1934 041420TEJEDA VICTOR RUBEN        4005700000000200+ 00     40057
C234 041471ARRIETA DARIO SEBASTIAN    4005700000000200+ 00     40057
DS34 041474BELTRAMO EMILIANO ANDRES   4005700000324055+ 00     40057
C134 041480CASTILLO JULIO CESAR       4005700000000200+ 00     40057
DS34 041488ENRIQUEZ JONATHAN NICOLAS  4005700002156357+ 00     40057
EC34 041491FIGUEROA NICOLAS DIEGO     4005700000000200+ 00     40057
C135 041498HERRERA BRAIAN EZEQUIEL    4005700000000200+ 00     40057
EP34 041506NIVEYRO LUIS ALBERTO       4005700000000200+ 00     40057
C234 041511RIOS GUSTAVO ADRIAN        4005700004909553+ 00     40057
C434 041515SAN MARTIN ROMINA ALEJANDRA4005700002231719+ 00     40057
C434 041546SCHULTHEIS ROCIO YASMIN    4005700002019148+ 00     40057
C234 041551MARDONES ISRAEL ELIAS      4005700001040348+ 00     40057
DS34 041583CENTURION CRISTIAN ADRIAN  4005700000315769+ 00     40057
C234 041620MARCIAL LUIS EZEQUIEL      4005700000000200+ 00     40057
C734 041627MEZA MAXIMILIANO DANIEL    4005700000000200+ 00     40057
CF34 041652RUIZ FEDERICO NAHUEL       4005700001907345+ 00     40057
C234 041653SALCEDO HECTOR HUGO        4005700000000200+ 00     40057
0234 041657SANTANGELO NORBERTO PABLO D4005700000969567+ 00     40057
EC34 041688ZAMBRANO NOELIA DANIELA    4005700000000200+ 00     40057
EP16 041715BLANCO SOLANGE ALEJANDRA   4005700000339540+ 00     40057
C416 041726HERMOZA ANDREA NATALIA     4005700003325641+ 00     40057
C234 041814BRANDAN NESTOR FABIAN      4005700000265459+ 00     40057
2234 041822CARDOZO VIRGINIA DEL VALLE 4005700000758057+ 00     40057
0634 041828COLMAN JORGE DANIEL        4005700001281301+ 00     40057
C534 041845FERNANDEZ MARTIN OSCAR     4005700000244178+ 00     40057
0634 041867JANICHA MARTIN FERNANDO    4005700000000200+ 00     40057
C334 041881NARVAEZ FERNANDA SOLEDAD   4005700001129261+ 00     40057
3534 041903RODRIGUEZ JOSE DAVID       4005700001123438+ 00     40057
C334 041914SERAPIO JULIO GABRIEL      4005700000000200+ 00     40057
CF35 041934VILLAGRA ELIO ISMAEL       4005700000282585+ 00     40057
C534 041942CACERES RICARDO JAVIER     4005700001662183+ 00     40057
C216 041977BRAMBILA ALEJANDRA SOLEDAD 4005700000000200+ 00     40057
0734 041998ACEVEDO RAUL ALBERTO       4005700000000200+ 00     40057
C334 042004ALVAREZ JORGE EDUARDO      4005700000550197+ 00     40057
C134 042008AQUINO NELSON NASARIO      4005700000000200+ 00     40057
C134 042017BLANCO OSVALDO MATIAS      4005700002715568+ 00     40057
ES34 042029CUENCA MAXIMILIANO ARIEL   4005700000000200+ 00     40057
C134 042034DE LA TORRE MATIAS EZEQUIEL4005700000000200+ 00     40057
C134 042041ESCOBAR JUAN JOSE          4005700000883936+ 00     40057
DT34 042044FERNANDEZ DAMIAN ALFREDO   4005700001140779+ 00     40057
DS34 042050FRANCO ACOSTA NESTOR RAMON 4005700000000200+ 00     40057
0634 042057GODOY PABLO EZEQUIEL       4005700000000200+ 00     40057
3034 042067HAPPEL MAXIMILIANO EMANUEL 4005700000000200+ 00     40057
CF34 042077LIMA MARCELO OCTAVIO       4005700001357185+ 00     40057
1934 042087MEZA CARLOS GABRIEL        4005700000000200+ 00     40057
C234 042104PREZIOSA IGNACIO EMANUEL   4005700000000200+ 00     40057
0235 042112RODRIGUEZ RODRIGO ADRIAN   4005700000000200+ 00     40057
C134 042113ROMANO FERNANDO NICOLAS    4005700002665000+ 00     40057
C734 042127SOSA ALEJANDRO DAVID       4005700000408688+ 00     40057
1334 042129STALDECKER FERNANDO RUBEN  4005700001225518+ 00     40057
2134 042132TONN RICARDO JAVIER        4005700003090677+ 00     40057
C234 042141VILTE NELSON DANTE GONZALO 4005700001675808+ 00     40057
C234 042200BARBOSA SEBASTIAN ANDRES   4005700003018365+ 00     40057
C135 042214MERLO CRISTIAN ALBERTO     4005700002131905+ 00     40057
C434 042215RAMIREZ GRISELDA NOEMI     4005700000000200+ 00     40057
EP35 042236RIOS CLAUDIA VANESA        4005700000363449+ 00     40057
3435 042246LAFUENTE MARIO DANIEL      4005700000000200+ 00     40057
3434 042248MUNOZ VAN ALDO ALEJANDRO   4005700000449584+ 00     40057
C134 042250CUENCA MARIA FLORENCIA     4005700000000200+ 00     40057
C116 042286ALVAREZ VEUTHEY EZEQUIEL RU4005700000000200+ 00     40057
C334 042291ACOSTA RAMIRO FERNANDO     4005700000000200+ 00     40057
0234 042296ALVEZ NIDIA LORENA         4005700000000200+ 00     40057
C234 042310BRAVO ANGEL GABRIEL        4005700000000200+ 00     40057
3434 042312BRITEZ EDUARDO ALEJANDRO MA4005700000000200+ 00     40057
C134 042317CABRERA VERONICA BELEN     4005700000234990+ 00     40057
CF34 042327CORDOBA GLADYS VIVIANA     4005700000000200+ 00     40057
0734 042330DEGROSSI EMMANUEL EDGARDO  4005700001672828+ 00     40057
C134 042331DELVALLE LEILA DAIANA      4005700000621543+ 00     40057
C734 042340ESPINOZA BRIAN EZEQUIEL    4005700000000200+ 00     40057
C734 042364LIPARE JULIETA PAOLA       4005700001496567+ 00     40057
C234 042377MALDONADO SERGIO ADRIAN    4005700003156923+ 00     40057
1134 042380MARTINEZ GERMAN MATIAS     4005700000000200+ 00     40057
0234 042383MELGAREJO CRISTIAN RAMON   4005700000000200+ 00     40057
0235 042415ALFONZO MARIA DANIELA      4005700001704680+ 00     40057
C234 042434SEDANO SERGIO ALBERTO      4005700000000200+ 00     40057
3434 042527GONZALEZ SORIA BARBARA ESTE4005700000000200+ 00     40057
0534 042554GIMENEZ WALTER EDUARDO     4005700004133163+ 00     40057
C135 042642RIOS NAHUEL OSCAR          4005700000347553+ 00     40057
1934 042647ACOSTA PAMELA CELINA       4005700000000200+ 00     40057
C234 042652COSTANZO MARIELA PAOLA     4005700004576082+ 00     40057
C534 042681ALVAREZ MARCELO ALEJANDRO  4005700000761178+ 00     40057
C134 042718CORPO DIDER BRAIAN HERNAN  4005700002196481+ 00     40057
C235 042719CORREA GERMAN EMMANUEL     4005700000952076+ 00     40057
1536 042728CUADRO JONATHAN ERALDO     4005700002861328+ 00     40057
C234 042735DEPARSIA JONATAN MAURO DAMI4005700000000200+ 00     40057
DS34 042762GIMENEZ LUIS CARLOS        4005700002153172+ 00     40057
SC34 042782HEREDIA JONATAN EMANUEL    4005700000000200+ 00     40057
C735 042813MARTINEZ EZEQUIEL M.       4005700001146015+ 00     40057
C236 042819MERCADO ROBERTO JAVIER     4005700000974615+ 00     40057
C434 042822MOLINA IVANNA RAQUEL       4005700000000200+ 00     40057
C134 042836PEREYRA CRISTIAN DAVID     4005700001708168+ 00     40057
C134 042852RIOS LEONARDO ANTONIO      4005700000000200+ 00     40057
0234 042859ROLON MIGUEL ANGEL         4005700000000200+ 00     40057
0234 042860ROMERO CARLOS LEONARDO     4005700001848592+ 00     40057
C435 042864ROMERO SILVANA DANIELA     4005700000383994+ 00     40057
C235 042889TRIGO ANDRES NICOLAS       4005700006209585+ 00     40057
EC35 042928CASTANO ELIAS NICIOLAS     4005700000000200+ 00     40057
1335 043001HERRERA LAURA ANABELA      4005700002719700+ 00     40057
BC35 043007MONTENEGRO ALEJANDRO OSCAR 4005700000964313+ 00     40057
0635 043029TELLO DIEGO OSCAR          4005700000000200+ 00     40057
C735 043059ALARCON JUAN CARLOS        4005700000000200+ 00     40057
0635 043070CORRALES ALEXIS MIGUEL     4005700000000200+ 00     40057
C135 043075FERREIRA VILLALBA DIEGO    4005700000000200+ 00     40057
0635 043077FLORES EMMANUEL            4005700001544833+ 00     40057
C235 043085MALDONADO GUERRERO DANIEL  4005700000000200+ 00     40057
DS34 043086MORON SERGIO FABIAN        4005700000000200+ 00     40057
1735 043088PEREIRA ANGEL DAVID        4005700000000200+ 00     40057
3535 043089PEREZ CLAUDIO GABRIEL      4005700000341251+ 00     40057
C135 043105VARGAS DAMIAN EZEQUIEL     4005700001295874+ 00     40057
EC35 043142DAHN SOLANGE EVELIN        4005700000000200+ 00     40057
0735 043149AGUIRRE ADRIAN ALEJANDRO   4005700001645068+ 00     40057
0235 043153ALEJO CARLOS JESUS         4005700000000200+ 00     40057
C535 043157AMARILLA DAVID DANIEL      4005700000000200+ 00     40057
1735 043164AVELLANEDA JUAN CARLOS     4005700004751599+ 00     40057
SC35 043175BRITEZ ANGEL DAVID         4005700002210098+ 00     40057
1935 043181CALISTRO HILARIO GUILLERMO 4005700001279186+ 00     40057
0235 043214GIMENEZ FACUNDO MANUEL     4005700000000200+ 00     40057
C735 043219GOMEZ SILVANA BEATRIZ      4005700001649334+ 00     40057
0234 043238LOPEZ NESTOR OSVALDO       4005700000000200+ 00     40057
0235 043240MACHUCA RENATO FERMIN      4005700000000200+ 00     40057
3435 043245MENA ENZO FABIAN           4005700000000200+ 00     40057
C535 043247MERLO GONZALEZ JOSE ALEJAND4005700000000200+ 00     40057
SC34 043248MEZA PABLO GABRIEL         4005700000000200+ 00     40057
DS35 043254OSUNA CESAR ADRIAN         4005700000000200+ 00     40057
C435 043266REJALA LAURA BEATRIZ       4005700003154861+ 00     40057
0735 043326AYALA FLORENCIA MARIA CARME4005700002363746+ 00     40057
C436 043327AZAS DARIO JAVIER          4005700000000200+ 00     40057
DN35 043334ITURRALDE MELANIE          4005700000000200+ 00     40057
EC35 043335KOZLOWSKI DIEGO SEBASTIAN  4005700000000200+ 00     40057
DT35 043341RAMIREZ JUAN ALBERTO       4005700000000200+ 00     40057
C435 043358FLORES CINTIA VANESA       4005700000075662+ 00     40057
C135 043446CORBALAN HECTOR ORLANDO    4005700000000200+ 00     40057
C635 043490VERA RUTH JULIETA ELIZABETH4005700000352377+ 00     40057
1935 043515PITARO PONCE MIGUEL ALEJAND4005700001116920+ 00     40057
C435 043526CARABAJAL CARLOS WILSON    4005700001359491+ 00     40057
C235 043589CARADONNA JAVIER NICOLAS   4005700003997430+ 00     40057
C235 043592ACOSTA ENZO ALEJANDRO      4005700002824470+ 00     40057
C135 043610AVILA NUNEZ MATIAS MAXIMILI4005700002158489+ 00     40057
1735 043627BRITEZ RUBEN DAVID         4005700002390869+ 00     40057
C235 043628BROCAZ LEANDRO DAVID       4005700004298685+ 00     40057
1035 043643CAREAGA DARIO SEBASTIAN    4005700000965117+ 00     40057
C235 043666FRANCO NICOLAS CAYETANO    4005700003613757+ 00     40057
C135 043694IRUNGARAY JOSE HERNAN      4005700001831811+ 00     40057
C235 043701LEDESMA FEDERICO HERNAN    4005700000000200+ 00     40057
C235 043706LIMA JUAN GABRIEL          4005700001378687+ 00     40057
C635 043714MAIDANA LUIS MIGUEL        4005700000000200+ 00     40057
C335 043719MARQUEZ DIEGO IGNACIO      4005700001910981+ 00     40057
0235 043722MARTINETTI IVAN DANIEL     4005700002894357+ 00     40057
C235 043736NAULLE JOSE LUIS           4005700000000200+ 00     40057
1934 043739OJEDA LORENA SOLEDAD       4005700000000200+ 00     40057
C235 043756RAMIREZ MARIANO JAVIER     4005700003941144+ 00     40057
CF35 043757RAMIREZ VICTOR ALEXIS JAVIE4005700001396507+ 00     40057
0235 043770ROMERO GABRIEL ALEJANDRO   4005700001293700+ 00     40057
RP35 043773RUIZ DIEGO FABIAN          4005700000000200+ 00     40057
0235 043778SANCHEZ CHRISTIAN JORGE JAV4005700002245517+ 00     40057
0235 043780SANCHEZ MARTIN             4005700000000200+ 00     40057
C235 043784SANTILLAN IVAN MAXIMILIANO 4005700003029167+ 00     40057
C435 043789SIERRO NESTOR FABIAN       4005700000000200+ 00     40057
DT35 043804VALENZUELA JONATHAN EZEQUIE4005700001160346+ 00     40057
C235 043805VALENZUELA VICTOR MARTIN   4005700000000200+ 00     40057
SC35 043810VILLAGRA JONATAN DAVID     4005700000177530+ 00     40057
C235 043812VILLALBA MARCELO HECTOR    4005700001549544+ 00     40057
EC35 043886BASUALDO JONATAN DANIEL    4005700000576207+ 00     40057
DN35 043905MEZA CESAR DANIEL          4005700000332453+ 00     40057
C235 043912OTAZO MARIA DE LOS ANGELES 4005700002858415+ 00     40057
C135 043913PALOMBO GEORGINA INES      4005700000000200+ 00     40057
AS35 043933AGUIRRE ARIEL GASTON       4005700003634572+ 00     40057
C435 043963PEREZ LAURA DEL VALLE      4005700000000200+ 00     40057
C535 043995LEWKOW FARIAS CLAUDIO ENRIQ4005700001920825+ 00     40057
0535 044019ROSAS LUCAS DAMIAN         4005700001562629+ 00     40057
C535 044037ALFONSO CRISTIAN DARIO     4005700002137070+ 00     40057
C536 044051YANCA JORGE GABRIEL        4005700000850047+ 00     40057
DS36 044084MANZINO ARIEL RAMON        4005700000000200+ 00     40057
C235 044091PALACIO VICTORIA ANALIA    4005700002006754+ 00     40057
0235 044095RECALDE LUCAS HUMBERTO     4005700001707903+ 00     40057
C135 044098ROTELLINI JUAN PABLO       4005700000903360+ 00     40057
C135 044102SANCHEZ BUHR SANDRA VIVIANA4005700000000200+ 00     40057
DN35 044120CAMPUZANO BARBARA SOLEDAD A4005700000000200+ 00     40057
C136 044123CORBALAN PAMELA NOEMI      4005700003879146+ 00     40057
SC35 044126ESPINOZA FEDERICO OMAR     4005700001356622+ 00     40057
OS35 044163ZERDA CASQUET GISELLE BELEN4005700002621381+ 00     40057
C435 044166QUISPE MONICA INES         4005700001301036+ 00     40057
DN35 044167VILLASANTI SONIA ELIZABETH 4005700001131740+ 00     40057
0235 044176ANDRADE ANGEL CARLOS RAFAEL4005700001222493+ 00     40057
SC35 044208CABRERA CARLOS EDGARDO     4005700000000200+ 00     40057
DS35 044231CUELLAR CRISTIAN FABIAN    4005700001705226+ 00     40057
1235 044242EPUNAN DANIEL JUAN ALEXIS  4005700000000200+ 00     40057
C135 044259FRIAS MARCOS ELIO          4005700000000200+ 00     40057
C235 044276ISAIAS STEFANIA YAEL       4005700000000200+ 00     40057
C135 044295MARTINEZ ANTONIO           4005700000000200+ 00     40057
1735 044297MEDINA FEDERICO DAMIAN     4005700000000200+ 00     40057
3535 044322PALACIO CECILIA BETIANA    4005700002441304+ 00     40057
CF35 044327PEREYRA LUIS ROBERTO       4005700001342502+ 00     40057
C135 044339RAMIREZ FRANCISCO MARCELO  4005700003667603+ 00     40057
C435 044342RECALDE SANDRA ELIZABETH   4005700001386074+ 00     40057
0235 044508CABRERA FERNANDO GABRIEL   4005700001814358+ 00     40057
2135 044518GARAYO SERGIO ARIEL        4005700001477926+ 00     40057
C135 044526MAIDANA MAYRA CELESTE      4005700005193167+ 00     40057
C235 044538SAUCEDO LUCAS EMANUEL      4005700002124846+ 00     40057
DN35 044540VIERA NU?EZ CATALINA MARCEL4005700001134619+ 00     40057
0635 044556BRITEZ CAROLINA ELIZABETH  4005700001684702+ 00     40057
2135 044589ACOSTA JOSE MAXIMILIANO    4005700003079218+ 00     40057
C235 044599AMARILLA BRUNO MARTIN      4005700000000200+ 00     40057
SC36 044637CHAPARRO ALEXANDER MAXIMILI4005700002983697+ 00     40057
0235 044651ESPECHE CARLOS JOSE MARIA  4005700003731750+ 00     40057
0235 044666FLORES WALTER IVAN         4005700000000200+ 00     40057
0235 044701IRALA FERNANDO ALEXIS      4005700001508648+ 00     40057
1735 044709LEITES MARIO ORLANDO       4005700005537579+ 00     40057
1535 044710LEMOS VICTOR ROGELIO EXEQUI4005700000448448+ 00     40057
C235 044725MENDEZ SEBASTIAN ARIEL     4005700000686601+ 00     40057
C735 044761RAMIREZ ABARRATEGUI GASTIN 4005700000728791+ 00     40057
EP35 044794SOVERON LEONARDO ANDRES    4005700000000200+ 00     40057
0235 044800TISSERA MATIAS ADRIAN      4005700001895615+ 00     40057
C135 044815VILLAFANE FRANCO LAUREANO  4005700000000200+ 00     40057
0235 044874BENITEZ ALAN EZEQUIEL      4005700000914385+ 00     40057
SC35 044877CAMPODONICO ESTEBAN EZEQUIE4005700001581727+ 00     40057
C635 044889FLEITA CENTURION JONATHAN L4005700000185311+ 00     40057
C235 044909RAMIREZ EMMANUEL GUSTAVO   4005700001094113+ 00     40057
C235 044913SILVA ALEXIS IVAN          4005700000527716+ 00     40057
AP17 044940CAFFERATA LEANDRO GABRIEL  4005700001570085+ 00     40057
1517 044986AQUINO ROQUE AGUSTIN       4005700001352991+ 00     40057
0235 045067CASTILLO RODRIGO EMMANUEL  4005700003235782+ 00     40057
DN35 045096FRANCO LEANDRO HERNAN      4005700000813878+ 00     40057
3435 045101GALLARDO GONZALO AGUSTIN   4005700000194886+ 00     40057
1735 045111GODOY FLORENCIA SOLEDAD    4005700002241882+ 00     40057
DS35 045113GOMEZ CORDOBA LUCAS NICOLAS4005700001071927+ 00     40057
C736 045139LOPEZ VICENTE MARTIN       4005700001677737+ 00     40057
C635 045192RODRIGUEZ VIRGINIA JAZMIN  4005700000488730+ 00     40057
0235 045203SAUCEDO MEDINA KEVIN FABIAN4005700003115142+ 00     40057
C235 045326CASTRO EDGAR GERMAN        4005700001081383+ 00     40057
C135 045342MUNOZ CLAUDIO RAMON        4005700001300007+ 00     40057
C235 045349SOTO SOLEDAD GISELA        4005700000859208+ 00     40057
1935 045370RITU FEDERICO INAKI        4005700001112314+ 00     40057
C735 045376VARGAS GISELA ALEJANDRA    4005700000668345+ 00     40057
C436 045409FERREIRA VILLALBA GUILLERMO4005700001828490+ 00     40057
0535 045464SBAIZERO WALTER PATRICIO   4005700001396265+ 00     40057
3236 045467SOSA JONATHAN NAHUEL       4005700000691908+ 00     40057
0635 045495GOSCH MATIAS DAVID         4005700001975711+ 00     40057
C335 045506MARTINEZ FEDERICO NICOLAS  4005700000963630+ 00     40057
1535 045528TRINIDAD ELVIS LEONARDO    4005700001125274+ 00     40057
0635 045533GUZMAN ENZO EMANUEL        4005700004065492+ 00     40057
C435 045561CANETE PATRICIA GABRIELA   4005700000460848+ 00     40057
C435 045570DA SILVA IVANA BEATRIZ     4005700005839039+ 00     40057
C435 045573ESCOBAR ANTONELLA ALEJANDRA4005700001122474+ 00     40057
C435 045593GUNDIN LUCIA BELEN         4005700002467604+ 00     40057
CF35 045595HABA MELISA NATALIA        4005700000791717+ 00     40057
C435 045600JARA VALERIA GERALDINE     4005700002335916+ 00     40057
C435 045620NAVARRETE MARIQUENA SOLEDAD4005700000855087+ 00     40057
C136 045676ARIAS CRISTIAN ALBERTO     4005700001411125+ 00     40057
DS35 045688CABRERA JORGE ENRIQUE      4005700000135463+ 00     40057
0235 045695CHAVEZ ALEJANDRO DANIEL    4005700007823949+ 00     40057
C135 045745NAVARRO JOSE RUBEN         4005700000552705+ 00     40057
C235 045775SEGOVIA DANIEL ANGEL       4005700000466473+ 00     40057
DS35 045777SOSA ARRIOLA MARCOS AUGUSTO4005700000974415+ 00     40057
C235 045780SUAREZ CARLOS ANTONIO      4005700001514376+ 00     40057
0235 045865TIMONIUK JOSE LUIS         4005700002910888+ 00     40057
C235 045873ACEVEDO LAURA CECILIA      4005700005056696+ 00     40057
OS35 045888GOLDMAN BARRIENTOS INGRID S4005700002743980+ 00     40057
ES35 045889JIMENEZ CLAUDIA JIMENA     4005700000669683+ 00     40057
CF36 045899VALLEJOS KARINA BEATRIZ    4005700000976305+ 00     40057
C435 045979CALCAGNO MARIA FLORENCIA   4005700003434010+ 00     40057
C436 045994GUTIERREZ BRENDA ANTONELLA 4005700001823331+ 00     40057
DS35 046042BAEZ CARLOS NATANAEL       4005700000481325+ 00     40057
C235 046054BULLON KEVIN ALEXANDRO     4005700001549259+ 00     40057
DN35 046258LANDARIA PEREIRA JAVIER DAR4005700005838442+ 00     40057
C235 046353NIZ PAOLA GISELA           4005700002888577+ 00     40057
SC17 046391BOGADO FATIMA AGOSTINA     4005700005978570+ 00     40057
1935 046434CONTE MARIANGELES VERONICA 4005700004754131+ 00     40057
C535 046501VALENZUELA KARINA PATRICIA 4005700000823326+ 00     40057
DS36 046520MEDINA FRANCISCO ELIAS     4005700000980408+ 00     40057
2135 046531ANDRADE MARIA PIA          4005700000567716+ 00     40057
SU35 046539CARLINI JULIETA MAILEN     4005700002465745+ 00     40057
DN35 046574VEGA GONZALO ANDRES        4005700000524889+ 00     40057
C636 046580GARCIA CAROLINA SOLEDAD    4005700001044721+ 00     40057
C436 046599BENVENUTO GRANEROS DAIANA S4005700000876414+ 00     40057
C436 046620GAUTO ROMINA ANDREA        4005700001232354+ 00     40057
C436 046643SORIA CLAUDIA DANIELA      4005700001184294+ 00     40057
0635 046651AMARILLA DAVID DE JESUS NAH4005700002026949+ 00     40057
0235 046654ARDILES NICOLAS EDUARDO    4005700005649943+ 00     40057
C235 046686DAPERNO LEONEL DEMIAN      4005700004456221+ 00     40057
SC35 046731OCCHIUZZO ALAN ARIEL       4005700001494121+ 00     40057
DN35 046760VELASQUEZ EZEQUIEL ALBERTO 4005700003062194+ 00     40057
C236 046830BROCAZ MATIAS EMANUEL      4005700002890216+ 00     40057
CF36 046845COMAN GUSTAVO DANIEL       4005700003694077+ 00     40057
C236 046864FERNANDEZ AGUSTIN NAHUEL   4005700002718119+ 00     40057
C636 046877GRAHL ALAN JAVIER          4005700002310843+ 00     40057
0736 046890LEZCANO PABLO MATIAS ANTONI4005700003557778+ 00     40057
C136 046893LOPEZ DIEGO FERNANDO       4005700002277035+ 00     40057
0236 046949SAEZ IGNACIO NICOLAS       4005700001106236+ 00     40057
1736 046990BAEZ MIRIAM MABEL          4005700001752315+ 00     40057
C436 047000CEBALLO CAMILA SOL         4005700001795097+ 00     40057
C136 047001CEBALLO CELESTE GRACIELA   4005700003513475+ 00     40057
0236 047008DUARTE MARINA SOLEDAD      4005700000739767+ 00     40057
C136 047027INSFRAN GONZALEZ GISELLA NO4005700001014512+ 00     40057
C436 047051OJEDA YASMIN LUC?A         4005700000242469+ 00     40057
C436 047065ROJAS FIAMA NOEL           4005700000834758+ 00     40057
C318 047199CARABALLO LUCIANA BELEN    4005700000993668+ 00     40057
C418 047211GOMEZ IGARZA BIANCA NAIMID 4005700006979744+ 00     40057
C218 047239QUILES JORGE EMANUEL       4005700002331755+ 00     40057
1936 047464LIQUITAY PABLO ADRIAN      4005700001281982+ 00     40057
1736 047485ACOSTA ANDREA GISEL        4005700003639165+ 00     40057
C436 047573SOSA MARIA ALEJANDRA       4005700001247024+ 00     40057
C436 047575YANISELLI DEBORA ANAHI     4005700005520222+ 00     40057
C136 047593BACELO GARCIA GUIDO NAHUEL 4005700002201066+ 00     40057
DS36 047595BENITEZ FERNANDO EZEQUIEL  4005700001709961+ 00     40057
C236 047614CHAMORRO GONZALO JOSE      4005700000861786+ 00     40057
C236 047681MARQUEZ CARLOS JAVIER      4005700002880157+ 00     40057
0236 047709TOANES ROBERTO SANTIAGO   4005700000384040+ 00     40057
C336 047932BALDIVIEZO DOLORES DEL PILA4005700002250817+ 00     40057
C536 047988BORDA ALCIDES MARCELO      4005700003465908+ 00     40057
C536 048014SOTO CYNTHIA ANALIA        4005700004757120+ 00     40057
0637 048118CHACON ADRIEL ESTEFANO     4005700004490754+ 00     40057
1536 048183SABADINI FRANCO EXEQUIEL   4005700002378757+ 00     40057
C237 048712LANDARIA PEREIRA SOFIA LORE4005700003404573+ 00     40057
0237 048742MALDONADO FRANCO MANUEL    4005700002632166+ 00     40057
C237 048882SILVA NESTOR ABEL          4005700001623745+ 00     40057
C437 048915VERON GIMENA ELIZABETH     4005700002955025+ 00     40057
C237 049255AQUINO BRAIAN DEMESIO      4005700003533674+ 00     40057
0637 049347GARCIA ARACELI DAIANA      4005700002876804+ 00     40057
C437 049484VELASQUEZ DEBORA NOEMI     4005700004100298+ 00     40057

