C130 031084ESCOBAR ANIBAL MAXIMILIANO 4019600001155666+ 00     40196
CF31 032627AREVALOS MANUEL SEBASTIAN  4019600000083800+ 00     40196
CF32 032836GOMEZ SEQUEIRA HUGO ADOLFO 4019600000089303+ 00     40196
C131 033996ACEVEDO MIGUEL ANGEL       4019600000450000+ 00     40196
C231 034011ESPOSITO ANGEL HORACIO     4019600000428600+ 00     40196
C432 034397PACHECO MARIA ROSA         4019600001000000+ 00     40196
C132 034908ORREGO SERGIO ADRIAN       4019600000690000+ 00     40196
C132 035650LARROZA PEDRO ROLANDO      4019600003167200+ 00     40196
DN32 035712BOGADO CINTHIA YAMILA      4019600000831100+ 00     40196
C133 035770LEDERHOZ JULIO CESAR       4019600000563200+ 00     40196
C232 036192SANDOVAL EXEQUIEL DAMIAN   4019600002021728+ 00     40196
C133 036799CENTENO WALTER OSCAR       4019600000517957+ 00     40196
C232 037026VALENZUELA LUCAS EDUARDO   4019600000956500+ 00     40196
C234 037380OBREGON CANDIDO DAVID      4019600000844596+ 00     40196
DS33 037552FERNANDEZ MYRIAM ANDREA    4019600000524900+ 00     40196
C533 037756BARRIOS ARIEL RICARDO JESUS4019600000037591+ 00     40196
C133 037875PEREZ CRISTIAN FERNANDO    4019600000121700+ 00     40196
C433 038395BARBOZA VERONICA           4019600000680000+ 00     40196
1133 038416GOMEZ YAMILA EMILCE        4019600001007815+ 00     40196
1033 038755MARECO GERARDO DANIEL      4019600000416700+ 00     40196
0233 038983LIQUIN RAUL SANTIAGO       4019600000310000+ 00     40196
0234 039477OLIVA JUAN HERNAN FACUNDO  4019600001339990+ 00     40196
DS34 041583CENTURION CRISTIAN ADRIAN  4019600000125024+ 00     40196
EP35 042236RIOS CLAUDIA VANESA        4019600001508968+ 00     40196
0637 044040COCERES BRIAN ALEXANDER    4019600001215800+ 00     40196
C135 045026AISAMA AGUERO SAED YAMIL DE4019600000614475+ 00     40196
C435 045561CANETE PATRICIA GABRIELA   4019600000312561+ 00     40196
C435 045911SOSA CRISTIAN GASTON       4019600000357400+ 00     40196

